{"contracts/CCBalances.sol":{"CCBalances":{"abi":[{"inputs":[{"internalType":"address payable","name":"_tellor","type":"address"}],"stateMutability":"nonpayable","type":"constructor"},{"inputs":[{"internalType":"bytes32[]","name":"Inputs","type":"bytes32[]"}],"name":"GetRootHash","outputs":[{"internalType":"bytes32","name":"","type":"bytes32"}],"stateMutability":"pure","type":"function"},{"inputs":[{"internalType":"uint256","name":"_chain","type":"uint256"},{"internalType":"address","name":"_token","type":"address"},{"internalType":"bytes32[]","name":"hashes","type":"bytes32[]"},{"internalType":"bool[]","name":"hashRight","type":"bool[]"}],"name":"checkProof","outputs":[{"internalType":"bool","name":"","type":"bool"}],"stateMutability":"view","type":"function"},{"inputs":[{"internalType":"uint256","name":"_chain","type":"uint256"},{"internalType":"address","name":"_address","type":"address"}],"name":"getCrossChainBalances","outputs":[{"internalType":"bytes32","name":"_newRootHash","type":"bytes32"}],"stateMutability":"nonpayable","type":"function"},{"inputs":[{"internalType":"bytes32","name":"_queryId","type":"bytes32"}],"name":"getCurrentValue","outputs":[{"internalType":"bool","name":"_ifRetrieve","type":"bool"},{"internalType":"bytes","name":"_value","type":"bytes"},{"internalType":"uint256","name":"_timestampRetrieved","type":"uint256"}],"stateMutability":"view","type":"function"},{"inputs":[{"internalType":"bytes32","name":"_queryId","type":"bytes32"},{"internalType":"uint256","name":"_timestamp","type":"uint256"}],"name":"getDataBefore","outputs":[{"internalType":"bool","name":"_ifRetrieve","type":"bool"},{"internalType":"bytes","name":"_value","type":"bytes"},{"internalType":"uint256","name":"_timestampRetrieved","type":"uint256"}],"stateMutability":"view","type":"function"},{"inputs":[{"internalType":"bytes32","name":"_queryId","type":"bytes32"},{"internalType":"uint256","name":"_timestamp","type":"uint256"}],"name":"getIndexForDataBefore","outputs":[{"internalType":"bool","name":"_found","type":"bool"},{"internalType":"uint256","name":"_index","type":"uint256"}],"stateMutability":"view","type":"function"},{"inputs":[{"internalType":"bytes32","name":"_queryId","type":"bytes32"}],"name":"getNewValueCountbyQueryId","outputs":[{"internalType":"uint256","name":"","type":"uint256"}],"stateMutability":"view","type":"function"},{"inputs":[{"internalType":"bytes32","name":"_queryId","type":"bytes32"},{"internalType":"uint256","name":"_index","type":"uint256"}],"name":"getTimestampbyQueryIdandIndex","outputs":[{"internalType":"uint256","name":"","type":"uint256"}],"stateMutability":"view","type":"function"},{"inputs":[{"internalType":"bytes32","name":"_queryId","type":"bytes32"},{"internalType":"uint256","name":"_timestamp","type":"uint256"}],"name":"isInDispute","outputs":[{"internalType":"bool","name":"","type":"bool"}],"stateMutability":"view","type":"function"},{"inputs":[{"internalType":"bytes32","name":"_queryId","type":"bytes32"},{"internalType":"uint256","name":"_timestamp","type":"uint256"}],"name":"retrieveData","outputs":[{"internalType":"bytes","name":"","type":"bytes"}],"stateMutability":"view","type":"function"},{"inputs":[],"name":"tellor","outputs":[{"internalType":"contract ITellor","name":"","type":"address"}],"stateMutability":"view","type":"function"},{"inputs":[{"internalType":"uint256","name":"_chain","type":"uint256"},{"internalType":"address","name":"_token","type":"address"},{"internalType":"uint256","name":"balance","type":"uint256"},{"internalType":"bytes32[]","name":"hashes","type":"bytes32[]"},{"internalType":"bool[]","name":"right","type":"bool[]"}],"name":"verifyBalance","outputs":[{"internalType":"bool","name":"","type":"bool"}],"stateMutability":"view","type":"function"}],"evm":{"bytecode":{"linkReferences":{},"object":"60806040523480156200001157600080fd5b5060405162002661380380620026618339818101604052810190620000379190620000ea565b80806000806101000a81548173ffffffffffffffffffffffffffffffffffffffff021916908373ffffffffffffffffffffffffffffffffffffffff16021790555050506200011c565b600080fd5b600073ffffffffffffffffffffffffffffffffffffffff82169050919050565b6000620000b28262000085565b9050919050565b620000c481620000a5565b8114620000d057600080fd5b50565b600081519050620000e481620000b9565b92915050565b60006020828403121562000103576200010262000080565b5b60006200011384828501620000d3565b91505092915050565b612535806200012c6000396000f3fe608060405234801561001057600080fd5b50600436106100b45760003560e01c8063a087e98b11610071578063a087e98b146101c8578063a5606e9f146101f8578063a792765f14610228578063adf1639d1461025a578063c5958af91461028c578063ce5e11bf146102bc576100b4565b80631959ad5b146100b957806329449085146100d757806344e87f9114610108578063690665ae1461013857806377b03e0d146101685780637ea9924314610198575b600080fd5b6100c16102ec565b6040516100ce919061178c565b60405180910390f35b6100f160048036038101906100ec9190611827565b610310565b6040516100ff929190611891565b60405180910390f35b610122600480360381019061011d9190611827565b61048b565b60405161012f91906118ba565b60405180910390f35b610152600480360381019061014d9190611913565b61078e565b60405161015f9190611962565b60405180910390f35b610182600480360381019061017d919061197d565b61087e565b60405161018f91906119aa565b60405180910390f35b6101b260048036038101906101ad9190611b1e565b610ab3565b6040516101bf9190611962565b60405180910390f35b6101e260048036038101906101dd9190611c18565b610d90565b6040516101ef91906118ba565b60405180910390f35b610212600480360381019061020d9190611cd4565b610f31565b60405161021f91906118ba565b60405180910390f35b610242600480360381019061023d9190611827565b61101c565b60405161025193929190611e03565b60405180910390f35b610274600480360381019061026f919061197d565b6110ce565b60405161028393929190611e03565b60405180910390f35b6102a660048036038101906102a19190611827565b611187565b6040516102b39190611e41565b60405180910390f35b6102d660048036038101906102d19190611827565b6113cb565b6040516102e391906119aa565b60405180910390f35b60008054906101000a900473ffffffffffffffffffffffffffffffffffffffff1681565b600080600061031e8561087e565b9050600081111561047b5760008060009050600060018461033f9190611e92565b9050600061034d89846113cb565b905087811061036757600080965096505050505050610484565b61037189836113cb565b90508781101561038c57600182965096505050505050610484565b5b60011561047657826001600285856103a59190611e92565b6103af9190611ef5565b6103b99190611f26565b6103c39190611f26565b93506103cf89856113cb565b9050878110156104215760006103f18a6001876103ec9190611f26565b6113cb565b905088811061040c5760018597509750505050505050610484565b6001856104199190611f26565b935050610471565b60006104398a6001876104349190611e92565b6113cb565b90508881101561046057600180866104519190611e92565b97509750505050505050610484565b60018561046d9190611e92565b9250505b61038d565b505050505b60008092509250505b9250929050565b6000807318431fd88adf138e8b979a7246eb58ea7126ea1673ffffffffffffffffffffffffffffffffffffffff1660008054906101000a900473ffffffffffffffffffffffffffffffffffffffff1673ffffffffffffffffffffffffffffffffffffffff16148061055b575073e8218cacb0a5421bc6409e498d9f8cc8869945ea73ffffffffffffffffffffffffffffffffffffffff1660008054906101000a900473ffffffffffffffffffffffffffffffffffffffff1673ffffffffffffffffffffffffffffffffffffffff16145b1561062a5760007388df592f8eb5d7bd38bfef7deb0fbc02cf3778a090508073ffffffffffffffffffffffffffffffffffffffff1663699f200f7fefa19baa864049f50491093580c5433e97e8d5e41f8db1a61108b4fa44cacd936040518263ffffffff1660e01b81526004016105d29190611fc4565b60206040518083038186803b1580156105ea57600080fd5b505afa1580156105fe573d6000803e3d6000fd5b505050506040513d601f19601f820116820180604052508101906106229190611ff4565b9150506106cb565b60008054906101000a900473ffffffffffffffffffffffffffffffffffffffff1673ffffffffffffffffffffffffffffffffffffffff16635aa6e6756040518163ffffffff1660e01b815260040160206040518083038186803b15801561069057600080fd5b505afa1580156106a4573d6000803e3d6000fd5b505050506040513d601f19601f820116820180604052508101906106c89190611ff4565b90505b60008173ffffffffffffffffffffffffffffffffffffffff1663248638e586866040516020016106fc929190612063565b604051602081830303815290604052805190602001206040518263ffffffff1660e01b815260040161072e9190611962565b60006040518083038186803b15801561074657600080fd5b505afa15801561075a573d6000803e3d6000fd5b505050506040513d6000823e3d601f19601f820116820180604052508101906107839190612167565b511191505092915050565b60008083836040516020016107a49291906121bf565b6040516020818303038152906040526040516020016107c39190612245565b604051602081830303815290604052905060008180519060200120905060008060606107fc8461a8c0426107f79190611e92565b61101c565b8094508193508295505050508080602001905181019061081c919061228f565b955085600160008a815260200190815260200160002060008973ffffffffffffffffffffffffffffffffffffffff1673ffffffffffffffffffffffffffffffffffffffff16815260200190815260200160002081905550505050505092915050565b60007318431fd88adf138e8b979a7246eb58ea7126ea1673ffffffffffffffffffffffffffffffffffffffff1660008054906101000a900473ffffffffffffffffffffffffffffffffffffffff1673ffffffffffffffffffffffffffffffffffffffff16148061094d575073e8218cacb0a5421bc6409e498d9f8cc8869945ea73ffffffffffffffffffffffffffffffffffffffff1660008054906101000a900473ffffffffffffffffffffffffffffffffffffffff1673ffffffffffffffffffffffffffffffffffffffff16145b15610a025760008054906101000a900473ffffffffffffffffffffffffffffffffffffffff1673ffffffffffffffffffffffffffffffffffffffff166335e72432836040518263ffffffff1660e01b81526004016109ab9190611962565b60206040518083038186803b1580156109c357600080fd5b505afa1580156109d7573d6000803e3d6000fd5b505050506040513d601f19601f820116820180604052508101906109fb91906122bc565b9050610aae565b60008054906101000a900473ffffffffffffffffffffffffffffffffffffffff1673ffffffffffffffffffffffffffffffffffffffff166377b03e0d836040518263ffffffff1660e01b8152600401610a5b9190611962565b60206040518083038186803b158015610a7357600080fd5b505afa158015610a87573d6000803e3d6000fd5b505050506040513d601f19601f82011682018060405250810190610aab91906122bc565b90505b919050565b600080825190506001811415610ae75782600081518110610ad757610ad66122e9565b5b6020026020010151915050610d8b565b6000600282610af69190612318565b600283610b039190611ef5565b610b0d9190611f26565b67ffffffffffffffff811115610b2657610b256119db565b5b604051908082528060200260200182016040528015610b545781602001602082028036833780820191505090505b509050600080600184610b679190611e92565b90506000600190506000805b600115610d65578215610c3857888581518110610b9357610b926122e9565b5b6020026020010151905083600186610bab9190611f26565b1115610be1578081604051602001610bc4929190612349565b604051602081830303815290604052805190602001209150610c33565b8089600187610bf09190611f26565b81518110610c0157610c006122e9565b5b6020026020010151604051602001610c1a929190612349565b6040516020818303038152906040528051906020012091505b610cec565b858581518110610c4b57610c4a6122e9565b5b6020026020010151905083600186610c639190611f26565b1115610c99578081604051602001610c7c929190612349565b604051602081830303815290604052805190602001209150610ceb565b8086600187610ca89190611f26565b81518110610cb957610cb86122e9565b5b6020026020010151604051602001610cd2929190612349565b6040516020818303038152906040528051906020012091505b5b8186600287610cfb9190611ef5565b81518110610d0c57610d0b6122e9565b5b602002602001018181525050600285610d259190611f26565b945083851115610d605760028086610d3d9190611e92565b610d479190611ef5565b93506000841415610d5757610d65565b60009450600092505b610b73565b85600081518110610d7957610d786122e9565b5b60200260200101519750505050505050505b919050565b600080600160008a815260200190815260200160002060008973ffffffffffffffffffffffffffffffffffffffff1673ffffffffffffffffffffffffffffffffffffffff16815260200190815260200160002054905060008888604051602001610dfb929190612375565b6040516020818303038152906040528051906020012090506001878790501415610e4a578087876000818110610e3457610e336122e9565b5b9050602002013514610e4557600080fd5b610e95565b8087876000818110610e5f57610e5e6122e9565b5b905060200201351480610e8b57508087876001818110610e8257610e816122e9565b5b90506020020135145b610e9457600080fd5b5b610f2282888880806020026020016040519081016040528093929190818152602001838360200280828437600081840152601f19601f82011690508083019250505050505050878780806020026020016040519081016040528093929190818152602001838360200280828437600081840152601f19601f82011690508083019250505050505050611605565b92505050979650505050505050565b60006110106001600089815260200190815260200160002060008873ffffffffffffffffffffffffffffffffffffffff1673ffffffffffffffffffffffffffffffffffffffff16815260200190815260200160002054868680806020026020016040519081016040528093929190818152602001838360200280828437600081840152601f19601f82011690508083019250505050505050858580806020026020016040519081016040528093929190818152602001838360200280828437600081840152601f19601f82011690508083019250505050505050611605565b90509695505050505050565b60006060600080600061102f8787610310565b915091508161105957600060405180602001604052806000815250600094509450945050506110c7565b600061106588836113cb565b90506110718882611187565b945060405180602001604052806000815250805190602001208580519060200120146110a957600185829550955095505050506110c7565b60006040518060200160405280600081525060009550955095505050505b9250925092565b600060606000806110de8561087e565b9050600081141561110957600060405180602001604052806000815250600093509350935050611180565b60006111218660018461111c9190611e92565b6113cb565b905061112d8682611187565b9350604051806020016040528060008152508051906020012084805190602001201461116457600184829450945094505050611180565b6000604051806020016040528060008152508294509450945050505b9193909250565b60607318431fd88adf138e8b979a7246eb58ea7126ea1673ffffffffffffffffffffffffffffffffffffffff1660008054906101000a900473ffffffffffffffffffffffffffffffffffffffff1673ffffffffffffffffffffffffffffffffffffffff161480611256575073e8218cacb0a5421bc6409e498d9f8cc8869945ea73ffffffffffffffffffffffffffffffffffffffff1660008054906101000a900473ffffffffffffffffffffffffffffffffffffffff1673ffffffffffffffffffffffffffffffffffffffff16145b156113125760008054906101000a900473ffffffffffffffffffffffffffffffffffffffff1673ffffffffffffffffffffffffffffffffffffffff16630b2d2b0d84846040518363ffffffff1660e01b81526004016112b692919061239e565b60006040518083038186803b1580156112ce57600080fd5b505afa1580156112e2573d6000803e3d6000fd5b505050506040513d6000823e3d601f19601f8201168201806040525081019061130b919061246d565b90506113c5565b60008054906101000a900473ffffffffffffffffffffffffffffffffffffffff1673ffffffffffffffffffffffffffffffffffffffff1663c5958af984846040518363ffffffff1660e01b815260040161136d92919061239e565b60006040518083038186803b15801561138557600080fd5b505afa158015611399573d6000803e3d6000fd5b505050506040513d6000823e3d601f19601f820116820180604052508101906113c2919061246d565b90505b92915050565b60007318431fd88adf138e8b979a7246eb58ea7126ea1673ffffffffffffffffffffffffffffffffffffffff1660008054906101000a900473ffffffffffffffffffffffffffffffffffffffff1673ffffffffffffffffffffffffffffffffffffffff16148061149a575073e8218cacb0a5421bc6409e498d9f8cc8869945ea73ffffffffffffffffffffffffffffffffffffffff1660008054906101000a900473ffffffffffffffffffffffffffffffffffffffff1673ffffffffffffffffffffffffffffffffffffffff16145b156115515760008054906101000a900473ffffffffffffffffffffffffffffffffffffffff1673ffffffffffffffffffffffffffffffffffffffff16637c37b8b484846040518363ffffffff1660e01b81526004016114fa92919061239e565b60206040518083038186803b15801561151257600080fd5b505afa158015611526573d6000803e3d6000fd5b505050506040513d601f19601f8201168201806040525081019061154a91906122bc565b90506115ff565b60008054906101000a900473ffffffffffffffffffffffffffffffffffffffff1673ffffffffffffffffffffffffffffffffffffffff1663ce5e11bf84846040518363ffffffff1660e01b81526004016115ac92919061239e565b60206040518083038186803b1580156115c457600080fd5b505afa1580156115d8573d6000803e3d6000fd5b505050506040513d601f19601f820116820180604052508101906115fc91906122bc565b90505b92915050565b6000808360008151811061161c5761161b6122e9565b5b602002602001015190506000845190506000600190505b818110156116fe5784818151811061164e5761164d6122e9565b5b6020026020010151156116a5578286828151811061166f5761166e6122e9565b5b6020026020010151604051602001611688929190612349565b6040516020818303038152906040528051906020012092506116eb565b8581815181106116b8576116b76122e9565b5b6020026020010151836040516020016116d2929190612349565b6040516020818303038152906040528051906020012092505b80806116f6906124b6565b915050611633565b50858214925050509392505050565b600073ffffffffffffffffffffffffffffffffffffffff82169050919050565b6000819050919050565b600061175261174d6117488461170d565b61172d565b61170d565b9050919050565b600061176482611737565b9050919050565b600061177682611759565b9050919050565b6117868161176b565b82525050565b60006020820190506117a1600083018461177d565b92915050565b6000604051905090565b600080fd5b600080fd5b6000819050919050565b6117ce816117bb565b81146117d957600080fd5b50565b6000813590506117eb816117c5565b92915050565b6000819050919050565b611804816117f1565b811461180f57600080fd5b50565b600081359050611821816117fb565b92915050565b6000806040838503121561183e5761183d6117b1565b5b600061184c858286016117dc565b925050602061185d85828601611812565b9150509250929050565b60008115159050919050565b61187c81611867565b82525050565b61188b816117f1565b82525050565b60006040820190506118a66000830185611873565b6118b36020830184611882565b9392505050565b60006020820190506118cf6000830184611873565b92915050565b60006118e08261170d565b9050919050565b6118f0816118d5565b81146118fb57600080fd5b50565b60008135905061190d816118e7565b92915050565b6000806040838503121561192a576119296117b1565b5b600061193885828601611812565b9250506020611949858286016118fe565b9150509250929050565b61195c816117bb565b82525050565b60006020820190506119776000830184611953565b92915050565b600060208284031215611993576119926117b1565b5b60006119a1848285016117dc565b91505092915050565b60006020820190506119bf6000830184611882565b92915050565b600080fd5b6000601f19601f8301169050919050565b7f4e487b7100000000000000000000000000000000000000000000000000000000600052604160045260246000fd5b611a13826119ca565b810181811067ffffffffffffffff82111715611a3257611a316119db565b5b80604052505050565b6000611a456117a7565b9050611a518282611a0a565b919050565b600067ffffffffffffffff821115611a7157611a706119db565b5b602082029050602081019050919050565b600080fd5b6000611a9a611a9584611a56565b611a3b565b90508083825260208201905060208402830185811115611abd57611abc611a82565b5b835b81811015611ae65780611ad288826117dc565b845260208401935050602081019050611abf565b5050509392505050565b600082601f830112611b0557611b046119c5565b5b8135611b15848260208601611a87565b91505092915050565b600060208284031215611b3457611b336117b1565b5b600082013567ffffffffffffffff811115611b5257611b516117b6565b5b611b5e84828501611af0565b91505092915050565b600080fd5b60008083601f840112611b8257611b816119c5565b5b8235905067ffffffffffffffff811115611b9f57611b9e611b67565b5b602083019150836020820283011115611bbb57611bba611a82565b5b9250929050565b60008083601f840112611bd857611bd76119c5565b5b8235905067ffffffffffffffff811115611bf557611bf4611b67565b5b602083019150836020820283011115611c1157611c10611a82565b5b9250929050565b600080600080600080600060a0888a031215611c3757611c366117b1565b5b6000611c458a828b01611812565b9750506020611c568a828b016118fe565b9650506040611c678a828b01611812565b955050606088013567ffffffffffffffff811115611c8857611c876117b6565b5b611c948a828b01611b6c565b9450945050608088013567ffffffffffffffff811115611cb757611cb66117b6565b5b611cc38a828b01611bc2565b925092505092959891949750929550565b60008060008060008060808789031215611cf157611cf06117b1565b5b6000611cff89828a01611812565b9650506020611d1089828a016118fe565b955050604087013567ffffffffffffffff811115611d3157611d306117b6565b5b611d3d89828a01611b6c565b9450945050606087013567ffffffffffffffff811115611d6057611d5f6117b6565b5b611d6c89828a01611bc2565b92509250509295509295509295565b600081519050919050565b600082825260208201905092915050565b60005b83811015611db5578082015181840152602081019050611d9a565b83811115611dc4576000848401525b50505050565b6000611dd582611d7b565b611ddf8185611d86565b9350611def818560208601611d97565b611df8816119ca565b840191505092915050565b6000606082019050611e186000830186611873565b8181036020830152611e2a8185611dca565b9050611e396040830184611882565b949350505050565b60006020820190508181036000830152611e5b8184611dca565b905092915050565b7f4e487b7100000000000000000000000000000000000000000000000000000000600052601160045260246000fd5b6000611e9d826117f1565b9150611ea8836117f1565b925082821015611ebb57611eba611e63565b5b828203905092915050565b7f4e487b7100000000000000000000000000000000000000000000000000000000600052601260045260246000fd5b6000611f00826117f1565b9150611f0b836117f1565b925082611f1b57611f1a611ec6565b5b828204905092915050565b6000611f31826117f1565b9150611f3c836117f1565b9250827fffffffffffffffffffffffffffffffffffffffffffffffffffffffffffffffff03821115611f7157611f70611e63565b5b828201905092915050565b6000819050919050565b60008160001b9050919050565b6000611fae611fa9611fa484611f7c565b611f86565b6117bb565b9050919050565b611fbe81611f93565b82525050565b6000602082019050611fd96000830184611fb5565b92915050565b600081519050611fee816118e7565b92915050565b60006020828403121561200a576120096117b1565b5b600061201884828501611fdf565b91505092915050565b6000819050919050565b61203c612037826117bb565b612021565b82525050565b6000819050919050565b61205d612058826117f1565b612042565b82525050565b600061206f828561202b565b60208201915061207f828461204c565b6020820191508190509392505050565b600067ffffffffffffffff8211156120aa576120a96119db565b5b602082029050602081019050919050565b6000815190506120ca816117fb565b92915050565b60006120e36120de8461208f565b611a3b565b9050808382526020820190506020840283018581111561210657612105611a82565b5b835b8181101561212f578061211b88826120bb565b845260208401935050602081019050612108565b5050509392505050565b600082601f83011261214e5761214d6119c5565b5b815161215e8482602086016120d0565b91505092915050565b60006020828403121561217d5761217c6117b1565b5b600082015167ffffffffffffffff81111561219b5761219a6117b6565b5b6121a784828501612139565b91505092915050565b6121b9816118d5565b82525050565b60006040820190506121d46000830185611882565b6121e160208301846121b0565b9392505050565b600082825260208201905092915050565b7f43726f7373436861696e42616c616e6365000000000000000000000000000000600082015250565b600061222f6011836121e8565b915061223a826121f9565b602082019050919050565b6000604082019050818103600083015261225e81612222565b905081810360208301526122728184611dca565b905092915050565b600081519050612289816117c5565b92915050565b6000602082840312156122a5576122a46117b1565b5b60006122b38482850161227a565b91505092915050565b6000602082840312156122d2576122d16117b1565b5b60006122e0848285016120bb565b91505092915050565b7f4e487b7100000000000000000000000000000000000000000000000000000000600052603260045260246000fd5b6000612323826117f1565b915061232e836117f1565b92508261233e5761233d611ec6565b5b828206905092915050565b6000612355828561202b565b602082019150612365828461202b565b6020820191508190509392505050565b600060408201905061238a60008301856121b0565b6123976020830184611882565b9392505050565b60006040820190506123b36000830185611953565b6123c06020830184611882565b9392505050565b600080fd5b600067ffffffffffffffff8211156123e7576123e66119db565b5b6123f0826119ca565b9050602081019050919050565b600061241061240b846123cc565b611a3b565b90508281526020810184848401111561242c5761242b6123c7565b5b612437848285611d97565b509392505050565b600082601f830112612454576124536119c5565b5b81516124648482602086016123fd565b91505092915050565b600060208284031215612483576124826117b1565b5b600082015167ffffffffffffffff8111156124a1576124a06117b6565b5b6124ad8482850161243f565b91505092915050565b60006124c1826117f1565b91507fffffffffffffffffffffffffffffffffffffffffffffffffffffffffffffffff8214156124f4576124f3611e63565b5b60018201905091905056fea2646970667358221220b549b6cd058076373b90c35efc9798a2833f5fdacc2e72a4136bb3c86555349e64736f6c63430008090033","opcodes":"PUSH1 0x80 PUSH1 0x40 MSTORE CALLVALUE DUP1 ISZERO PUSH3 0x11 JUMPI PUSH1 0x0 DUP1 REVERT JUMPDEST POP PUSH1 0x40 MLOAD PUSH3 0x2661 CODESIZE SUB DUP1 PUSH3 0x2661 DUP4 CODECOPY DUP2 DUP2 ADD PUSH1 0x40 MSTORE DUP2 ADD SWAP1 PUSH3 0x37 SWAP2 SWAP1 PUSH3 0xEA JUMP JUMPDEST DUP1 DUP1 PUSH1 0x0 DUP1 PUSH2 0x100 EXP DUP2 SLOAD DUP2 PUSH20 0xFFFFFFFFFFFFFFFFFFFFFFFFFFFFFFFFFFFFFFFF MUL NOT AND SWAP1 DUP4 PUSH20 0xFFFFFFFFFFFFFFFFFFFFFFFFFFFFFFFFFFFFFFFF AND MUL OR SWAP1 SSTORE POP POP POP PUSH3 0x11C JUMP JUMPDEST PUSH1 0x0 DUP1 REVERT JUMPDEST PUSH1 0x0 PUSH20 0xFFFFFFFFFFFFFFFFFFFFFFFFFFFFFFFFFFFFFFFF DUP3 AND SWAP1 POP SWAP2 SWAP1 POP JUMP JUMPDEST PUSH1 0x0 PUSH3 0xB2 DUP3 PUSH3 0x85 JUMP JUMPDEST SWAP1 POP SWAP2 SWAP1 POP JUMP JUMPDEST PUSH3 0xC4 DUP2 PUSH3 0xA5 JUMP JUMPDEST DUP2 EQ PUSH3 0xD0 JUMPI PUSH1 0x0 DUP1 REVERT JUMPDEST POP JUMP JUMPDEST PUSH1 0x0 DUP2 MLOAD SWAP1 POP PUSH3 0xE4 DUP2 PUSH3 0xB9 JUMP JUMPDEST SWAP3 SWAP2 POP POP JUMP JUMPDEST PUSH1 0x0 PUSH1 0x20 DUP3 DUP5 SUB SLT ISZERO PUSH3 0x103 JUMPI PUSH3 0x102 PUSH3 0x80 JUMP JUMPDEST JUMPDEST PUSH1 0x0 PUSH3 0x113 DUP5 DUP3 DUP6 ADD PUSH3 0xD3 JUMP JUMPDEST SWAP2 POP POP SWAP3 SWAP2 POP POP JUMP JUMPDEST PUSH2 0x2535 DUP1 PUSH3 0x12C PUSH1 0x0 CODECOPY PUSH1 0x0 RETURN INVALID PUSH1 0x80 PUSH1 0x40 MSTORE CALLVALUE DUP1 ISZERO PUSH2 0x10 JUMPI PUSH1 0x0 DUP1 REVERT JUMPDEST POP PUSH1 0x4 CALLDATASIZE LT PUSH2 0xB4 JUMPI PUSH1 0x0 CALLDATALOAD PUSH1 0xE0 SHR DUP1 PUSH4 0xA087E98B GT PUSH2 0x71 JUMPI DUP1 PUSH4 0xA087E98B EQ PUSH2 0x1C8 JUMPI DUP1 PUSH4 0xA5606E9F EQ PUSH2 0x1F8 JUMPI DUP1 PUSH4 0xA792765F EQ PUSH2 0x228 JUMPI DUP1 PUSH4 0xADF1639D EQ PUSH2 0x25A JUMPI DUP1 PUSH4 0xC5958AF9 EQ PUSH2 0x28C JUMPI DUP1 PUSH4 0xCE5E11BF EQ PUSH2 0x2BC JUMPI PUSH2 0xB4 JUMP JUMPDEST DUP1 PUSH4 0x1959AD5B EQ PUSH2 0xB9 JUMPI DUP1 PUSH4 0x29449085 EQ PUSH2 0xD7 JUMPI DUP1 PUSH4 0x44E87F91 EQ PUSH2 0x108 JUMPI DUP1 PUSH4 0x690665AE EQ PUSH2 0x138 JUMPI DUP1 PUSH4 0x77B03E0D EQ PUSH2 0x168 JUMPI DUP1 PUSH4 0x7EA99243 EQ PUSH2 0x198 JUMPI JUMPDEST PUSH1 0x0 DUP1 REVERT JUMPDEST PUSH2 0xC1 PUSH2 0x2EC JUMP JUMPDEST PUSH1 0x40 MLOAD PUSH2 0xCE SWAP2 SWAP1 PUSH2 0x178C JUMP JUMPDEST PUSH1 0x40 MLOAD DUP1 SWAP2 SUB SWAP1 RETURN JUMPDEST PUSH2 0xF1 PUSH1 0x4 DUP1 CALLDATASIZE SUB DUP2 ADD SWAP1 PUSH2 0xEC SWAP2 SWAP1 PUSH2 0x1827 JUMP JUMPDEST PUSH2 0x310 JUMP JUMPDEST PUSH1 0x40 MLOAD PUSH2 0xFF SWAP3 SWAP2 SWAP1 PUSH2 0x1891 JUMP JUMPDEST PUSH1 0x40 MLOAD DUP1 SWAP2 SUB SWAP1 RETURN JUMPDEST PUSH2 0x122 PUSH1 0x4 DUP1 CALLDATASIZE SUB DUP2 ADD SWAP1 PUSH2 0x11D SWAP2 SWAP1 PUSH2 0x1827 JUMP JUMPDEST PUSH2 0x48B JUMP JUMPDEST PUSH1 0x40 MLOAD PUSH2 0x12F SWAP2 SWAP1 PUSH2 0x18BA JUMP JUMPDEST PUSH1 0x40 MLOAD DUP1 SWAP2 SUB SWAP1 RETURN JUMPDEST PUSH2 0x152 PUSH1 0x4 DUP1 CALLDATASIZE SUB DUP2 ADD SWAP1 PUSH2 0x14D SWAP2 SWAP1 PUSH2 0x1913 JUMP JUMPDEST PUSH2 0x78E JUMP JUMPDEST PUSH1 0x40 MLOAD PUSH2 0x15F SWAP2 SWAP1 PUSH2 0x1962 JUMP JUMPDEST PUSH1 0x40 MLOAD DUP1 SWAP2 SUB SWAP1 RETURN JUMPDEST PUSH2 0x182 PUSH1 0x4 DUP1 CALLDATASIZE SUB DUP2 ADD SWAP1 PUSH2 0x17D SWAP2 SWAP1 PUSH2 0x197D JUMP JUMPDEST PUSH2 0x87E JUMP JUMPDEST PUSH1 0x40 MLOAD PUSH2 0x18F SWAP2 SWAP1 PUSH2 0x19AA JUMP JUMPDEST PUSH1 0x40 MLOAD DUP1 SWAP2 SUB SWAP1 RETURN JUMPDEST PUSH2 0x1B2 PUSH1 0x4 DUP1 CALLDATASIZE SUB DUP2 ADD SWAP1 PUSH2 0x1AD SWAP2 SWAP1 PUSH2 0x1B1E JUMP JUMPDEST PUSH2 0xAB3 JUMP JUMPDEST PUSH1 0x40 MLOAD PUSH2 0x1BF SWAP2 SWAP1 PUSH2 0x1962 JUMP JUMPDEST PUSH1 0x40 MLOAD DUP1 SWAP2 SUB SWAP1 RETURN JUMPDEST PUSH2 0x1E2 PUSH1 0x4 DUP1 CALLDATASIZE SUB DUP2 ADD SWAP1 PUSH2 0x1DD SWAP2 SWAP1 PUSH2 0x1C18 JUMP JUMPDEST PUSH2 0xD90 JUMP JUMPDEST PUSH1 0x40 MLOAD PUSH2 0x1EF SWAP2 SWAP1 PUSH2 0x18BA JUMP JUMPDEST PUSH1 0x40 MLOAD DUP1 SWAP2 SUB SWAP1 RETURN JUMPDEST PUSH2 0x212 PUSH1 0x4 DUP1 CALLDATASIZE SUB DUP2 ADD SWAP1 PUSH2 0x20D SWAP2 SWAP1 PUSH2 0x1CD4 JUMP JUMPDEST PUSH2 0xF31 JUMP JUMPDEST PUSH1 0x40 MLOAD PUSH2 0x21F SWAP2 SWAP1 PUSH2 0x18BA JUMP JUMPDEST PUSH1 0x40 MLOAD DUP1 SWAP2 SUB SWAP1 RETURN JUMPDEST PUSH2 0x242 PUSH1 0x4 DUP1 CALLDATASIZE SUB DUP2 ADD SWAP1 PUSH2 0x23D SWAP2 SWAP1 PUSH2 0x1827 JUMP JUMPDEST PUSH2 0x101C JUMP JUMPDEST PUSH1 0x40 MLOAD PUSH2 0x251 SWAP4 SWAP3 SWAP2 SWAP1 PUSH2 0x1E03 JUMP JUMPDEST PUSH1 0x40 MLOAD DUP1 SWAP2 SUB SWAP1 RETURN JUMPDEST PUSH2 0x274 PUSH1 0x4 DUP1 CALLDATASIZE SUB DUP2 ADD SWAP1 PUSH2 0x26F SWAP2 SWAP1 PUSH2 0x197D JUMP JUMPDEST PUSH2 0x10CE JUMP JUMPDEST PUSH1 0x40 MLOAD PUSH2 0x283 SWAP4 SWAP3 SWAP2 SWAP1 PUSH2 0x1E03 JUMP JUMPDEST PUSH1 0x40 MLOAD DUP1 SWAP2 SUB SWAP1 RETURN JUMPDEST PUSH2 0x2A6 PUSH1 0x4 DUP1 CALLDATASIZE SUB DUP2 ADD SWAP1 PUSH2 0x2A1 SWAP2 SWAP1 PUSH2 0x1827 JUMP JUMPDEST PUSH2 0x1187 JUMP JUMPDEST PUSH1 0x40 MLOAD PUSH2 0x2B3 SWAP2 SWAP1 PUSH2 0x1E41 JUMP JUMPDEST PUSH1 0x40 MLOAD DUP1 SWAP2 SUB SWAP1 RETURN JUMPDEST PUSH2 0x2D6 PUSH1 0x4 DUP1 CALLDATASIZE SUB DUP2 ADD SWAP1 PUSH2 0x2D1 SWAP2 SWAP1 PUSH2 0x1827 JUMP JUMPDEST PUSH2 0x13CB JUMP JUMPDEST PUSH1 0x40 MLOAD PUSH2 0x2E3 SWAP2 SWAP1 PUSH2 0x19AA JUMP JUMPDEST PUSH1 0x40 MLOAD DUP1 SWAP2 SUB SWAP1 RETURN JUMPDEST PUSH1 0x0 DUP1 SLOAD SWAP1 PUSH2 0x100 EXP SWAP1 DIV PUSH20 0xFFFFFFFFFFFFFFFFFFFFFFFFFFFFFFFFFFFFFFFF AND DUP2 JUMP JUMPDEST PUSH1 0x0 DUP1 PUSH1 0x0 PUSH2 0x31E DUP6 PUSH2 0x87E JUMP JUMPDEST SWAP1 POP PUSH1 0x0 DUP2 GT ISZERO PUSH2 0x47B JUMPI PUSH1 0x0 DUP1 PUSH1 0x0 SWAP1 POP PUSH1 0x0 PUSH1 0x1 DUP5 PUSH2 0x33F SWAP2 SWAP1 PUSH2 0x1E92 JUMP JUMPDEST SWAP1 POP PUSH1 0x0 PUSH2 0x34D DUP10 DUP5 PUSH2 0x13CB JUMP JUMPDEST SWAP1 POP DUP8 DUP2 LT PUSH2 0x367 JUMPI PUSH1 0x0 DUP1 SWAP7 POP SWAP7 POP POP POP POP POP POP PUSH2 0x484 JUMP JUMPDEST PUSH2 0x371 DUP10 DUP4 PUSH2 0x13CB JUMP JUMPDEST SWAP1 POP DUP8 DUP2 LT ISZERO PUSH2 0x38C JUMPI PUSH1 0x1 DUP3 SWAP7 POP SWAP7 POP POP POP POP POP POP PUSH2 0x484 JUMP JUMPDEST JUMPDEST PUSH1 0x1 ISZERO PUSH2 0x476 JUMPI DUP3 PUSH1 0x1 PUSH1 0x2 DUP6 DUP6 PUSH2 0x3A5 SWAP2 SWAP1 PUSH2 0x1E92 JUMP JUMPDEST PUSH2 0x3AF SWAP2 SWAP1 PUSH2 0x1EF5 JUMP JUMPDEST PUSH2 0x3B9 SWAP2 SWAP1 PUSH2 0x1F26 JUMP JUMPDEST PUSH2 0x3C3 SWAP2 SWAP1 PUSH2 0x1F26 JUMP JUMPDEST SWAP4 POP PUSH2 0x3CF DUP10 DUP6 PUSH2 0x13CB JUMP JUMPDEST SWAP1 POP DUP8 DUP2 LT ISZERO PUSH2 0x421 JUMPI PUSH1 0x0 PUSH2 0x3F1 DUP11 PUSH1 0x1 DUP8 PUSH2 0x3EC SWAP2 SWAP1 PUSH2 0x1F26 JUMP JUMPDEST PUSH2 0x13CB JUMP JUMPDEST SWAP1 POP DUP9 DUP2 LT PUSH2 0x40C JUMPI PUSH1 0x1 DUP6 SWAP8 POP SWAP8 POP POP POP POP POP POP POP PUSH2 0x484 JUMP JUMPDEST PUSH1 0x1 DUP6 PUSH2 0x419 SWAP2 SWAP1 PUSH2 0x1F26 JUMP JUMPDEST SWAP4 POP POP PUSH2 0x471 JUMP JUMPDEST PUSH1 0x0 PUSH2 0x439 DUP11 PUSH1 0x1 DUP8 PUSH2 0x434 SWAP2 SWAP1 PUSH2 0x1E92 JUMP JUMPDEST PUSH2 0x13CB JUMP JUMPDEST SWAP1 POP DUP9 DUP2 LT ISZERO PUSH2 0x460 JUMPI PUSH1 0x1 DUP1 DUP7 PUSH2 0x451 SWAP2 SWAP1 PUSH2 0x1E92 JUMP JUMPDEST SWAP8 POP SWAP8 POP POP POP POP POP POP POP PUSH2 0x484 JUMP JUMPDEST PUSH1 0x1 DUP6 PUSH2 0x46D SWAP2 SWAP1 PUSH2 0x1E92 JUMP JUMPDEST SWAP3 POP POP JUMPDEST PUSH2 0x38D JUMP JUMPDEST POP POP POP POP JUMPDEST PUSH1 0x0 DUP1 SWAP3 POP SWAP3 POP POP JUMPDEST SWAP3 POP SWAP3 SWAP1 POP JUMP JUMPDEST PUSH1 0x0 DUP1 PUSH20 0x18431FD88ADF138E8B979A7246EB58EA7126EA16 PUSH20 0xFFFFFFFFFFFFFFFFFFFFFFFFFFFFFFFFFFFFFFFF AND PUSH1 0x0 DUP1 SLOAD SWAP1 PUSH2 0x100 EXP SWAP1 DIV PUSH20 0xFFFFFFFFFFFFFFFFFFFFFFFFFFFFFFFFFFFFFFFF AND PUSH20 0xFFFFFFFFFFFFFFFFFFFFFFFFFFFFFFFFFFFFFFFF AND EQ DUP1 PUSH2 0x55B JUMPI POP PUSH20 0xE8218CACB0A5421BC6409E498D9F8CC8869945EA PUSH20 0xFFFFFFFFFFFFFFFFFFFFFFFFFFFFFFFFFFFFFFFF AND PUSH1 0x0 DUP1 SLOAD SWAP1 PUSH2 0x100 EXP SWAP1 DIV PUSH20 0xFFFFFFFFFFFFFFFFFFFFFFFFFFFFFFFFFFFFFFFF AND PUSH20 0xFFFFFFFFFFFFFFFFFFFFFFFFFFFFFFFFFFFFFFFF AND EQ JUMPDEST ISZERO PUSH2 0x62A JUMPI PUSH1 0x0 PUSH20 0x88DF592F8EB5D7BD38BFEF7DEB0FBC02CF3778A0 SWAP1 POP DUP1 PUSH20 0xFFFFFFFFFFFFFFFFFFFFFFFFFFFFFFFFFFFFFFFF AND PUSH4 0x699F200F PUSH32 0xEFA19BAA864049F50491093580C5433E97E8D5E41F8DB1A61108B4FA44CACD93 PUSH1 0x40 MLOAD DUP3 PUSH4 0xFFFFFFFF AND PUSH1 0xE0 SHL DUP2 MSTORE PUSH1 0x4 ADD PUSH2 0x5D2 SWAP2 SWAP1 PUSH2 0x1FC4 JUMP JUMPDEST PUSH1 0x20 PUSH1 0x40 MLOAD DUP1 DUP4 SUB DUP2 DUP7 DUP1 EXTCODESIZE ISZERO DUP1 ISZERO PUSH2 0x5EA JUMPI PUSH1 0x0 DUP1 REVERT JUMPDEST POP GAS STATICCALL ISZERO DUP1 ISZERO PUSH2 0x5FE JUMPI RETURNDATASIZE PUSH1 0x0 DUP1 RETURNDATACOPY RETURNDATASIZE PUSH1 0x0 REVERT JUMPDEST POP POP POP POP PUSH1 0x40 MLOAD RETURNDATASIZE PUSH1 0x1F NOT PUSH1 0x1F DUP3 ADD AND DUP3 ADD DUP1 PUSH1 0x40 MSTORE POP DUP2 ADD SWAP1 PUSH2 0x622 SWAP2 SWAP1 PUSH2 0x1FF4 JUMP JUMPDEST SWAP2 POP POP PUSH2 0x6CB JUMP JUMPDEST PUSH1 0x0 DUP1 SLOAD SWAP1 PUSH2 0x100 EXP SWAP1 DIV PUSH20 0xFFFFFFFFFFFFFFFFFFFFFFFFFFFFFFFFFFFFFFFF AND PUSH20 0xFFFFFFFFFFFFFFFFFFFFFFFFFFFFFFFFFFFFFFFF AND PUSH4 0x5AA6E675 PUSH1 0x40 MLOAD DUP2 PUSH4 0xFFFFFFFF AND PUSH1 0xE0 SHL DUP2 MSTORE PUSH1 0x4 ADD PUSH1 0x20 PUSH1 0x40 MLOAD DUP1 DUP4 SUB DUP2 DUP7 DUP1 EXTCODESIZE ISZERO DUP1 ISZERO PUSH2 0x690 JUMPI PUSH1 0x0 DUP1 REVERT JUMPDEST POP GAS STATICCALL ISZERO DUP1 ISZERO PUSH2 0x6A4 JUMPI RETURNDATASIZE PUSH1 0x0 DUP1 RETURNDATACOPY RETURNDATASIZE PUSH1 0x0 REVERT JUMPDEST POP POP POP POP PUSH1 0x40 MLOAD RETURNDATASIZE PUSH1 0x1F NOT PUSH1 0x1F DUP3 ADD AND DUP3 ADD DUP1 PUSH1 0x40 MSTORE POP DUP2 ADD SWAP1 PUSH2 0x6C8 SWAP2 SWAP1 PUSH2 0x1FF4 JUMP JUMPDEST SWAP1 POP JUMPDEST PUSH1 0x0 DUP2 PUSH20 0xFFFFFFFFFFFFFFFFFFFFFFFFFFFFFFFFFFFFFFFF AND PUSH4 0x248638E5 DUP7 DUP7 PUSH1 0x40 MLOAD PUSH1 0x20 ADD PUSH2 0x6FC SWAP3 SWAP2 SWAP1 PUSH2 0x2063 JUMP JUMPDEST PUSH1 0x40 MLOAD PUSH1 0x20 DUP2 DUP4 SUB SUB DUP2 MSTORE SWAP1 PUSH1 0x40 MSTORE DUP1 MLOAD SWAP1 PUSH1 0x20 ADD KECCAK256 PUSH1 0x40 MLOAD DUP3 PUSH4 0xFFFFFFFF AND PUSH1 0xE0 SHL DUP2 MSTORE PUSH1 0x4 ADD PUSH2 0x72E SWAP2 SWAP1 PUSH2 0x1962 JUMP JUMPDEST PUSH1 0x0 PUSH1 0x40 MLOAD DUP1 DUP4 SUB DUP2 DUP7 DUP1 EXTCODESIZE ISZERO DUP1 ISZERO PUSH2 0x746 JUMPI PUSH1 0x0 DUP1 REVERT JUMPDEST POP GAS STATICCALL ISZERO DUP1 ISZERO PUSH2 0x75A JUMPI RETURNDATASIZE PUSH1 0x0 DUP1 RETURNDATACOPY RETURNDATASIZE PUSH1 0x0 REVERT JUMPDEST POP POP POP POP PUSH1 0x40 MLOAD RETURNDATASIZE PUSH1 0x0 DUP3 RETURNDATACOPY RETURNDATASIZE PUSH1 0x1F NOT PUSH1 0x1F DUP3 ADD AND DUP3 ADD DUP1 PUSH1 0x40 MSTORE POP DUP2 ADD SWAP1 PUSH2 0x783 SWAP2 SWAP1 PUSH2 0x2167 JUMP JUMPDEST MLOAD GT SWAP2 POP POP SWAP3 SWAP2 POP POP JUMP JUMPDEST PUSH1 0x0 DUP1 DUP4 DUP4 PUSH1 0x40 MLOAD PUSH1 0x20 ADD PUSH2 0x7A4 SWAP3 SWAP2 SWAP1 PUSH2 0x21BF JUMP JUMPDEST PUSH1 0x40 MLOAD PUSH1 0x20 DUP2 DUP4 SUB SUB DUP2 MSTORE SWAP1 PUSH1 0x40 MSTORE PUSH1 0x40 MLOAD PUSH1 0x20 ADD PUSH2 0x7C3 SWAP2 SWAP1 PUSH2 0x2245 JUMP JUMPDEST PUSH1 0x40 MLOAD PUSH1 0x20 DUP2 DUP4 SUB SUB DUP2 MSTORE SWAP1 PUSH1 0x40 MSTORE SWAP1 POP PUSH1 0x0 DUP2 DUP1 MLOAD SWAP1 PUSH1 0x20 ADD KECCAK256 SWAP1 POP PUSH1 0x0 DUP1 PUSH1 0x60 PUSH2 0x7FC DUP5 PUSH2 0xA8C0 TIMESTAMP PUSH2 0x7F7 SWAP2 SWAP1 PUSH2 0x1E92 JUMP JUMPDEST PUSH2 0x101C JUMP JUMPDEST DUP1 SWAP5 POP DUP2 SWAP4 POP DUP3 SWAP6 POP POP POP POP DUP1 DUP1 PUSH1 0x20 ADD SWAP1 MLOAD DUP2 ADD SWAP1 PUSH2 0x81C SWAP2 SWAP1 PUSH2 0x228F JUMP JUMPDEST SWAP6 POP DUP6 PUSH1 0x1 PUSH1 0x0 DUP11 DUP2 MSTORE PUSH1 0x20 ADD SWAP1 DUP2 MSTORE PUSH1 0x20 ADD PUSH1 0x0 KECCAK256 PUSH1 0x0 DUP10 PUSH20 0xFFFFFFFFFFFFFFFFFFFFFFFFFFFFFFFFFFFFFFFF AND PUSH20 0xFFFFFFFFFFFFFFFFFFFFFFFFFFFFFFFFFFFFFFFF AND DUP2 MSTORE PUSH1 0x20 ADD SWAP1 DUP2 MSTORE PUSH1 0x20 ADD PUSH1 0x0 KECCAK256 DUP2 SWAP1 SSTORE POP POP POP POP POP POP SWAP3 SWAP2 POP POP JUMP JUMPDEST PUSH1 0x0 PUSH20 0x18431FD88ADF138E8B979A7246EB58EA7126EA16 PUSH20 0xFFFFFFFFFFFFFFFFFFFFFFFFFFFFFFFFFFFFFFFF AND PUSH1 0x0 DUP1 SLOAD SWAP1 PUSH2 0x100 EXP SWAP1 DIV PUSH20 0xFFFFFFFFFFFFFFFFFFFFFFFFFFFFFFFFFFFFFFFF AND PUSH20 0xFFFFFFFFFFFFFFFFFFFFFFFFFFFFFFFFFFFFFFFF AND EQ DUP1 PUSH2 0x94D JUMPI POP PUSH20 0xE8218CACB0A5421BC6409E498D9F8CC8869945EA PUSH20 0xFFFFFFFFFFFFFFFFFFFFFFFFFFFFFFFFFFFFFFFF AND PUSH1 0x0 DUP1 SLOAD SWAP1 PUSH2 0x100 EXP SWAP1 DIV PUSH20 0xFFFFFFFFFFFFFFFFFFFFFFFFFFFFFFFFFFFFFFFF AND PUSH20 0xFFFFFFFFFFFFFFFFFFFFFFFFFFFFFFFFFFFFFFFF AND EQ JUMPDEST ISZERO PUSH2 0xA02 JUMPI PUSH1 0x0 DUP1 SLOAD SWAP1 PUSH2 0x100 EXP SWAP1 DIV PUSH20 0xFFFFFFFFFFFFFFFFFFFFFFFFFFFFFFFFFFFFFFFF AND PUSH20 0xFFFFFFFFFFFFFFFFFFFFFFFFFFFFFFFFFFFFFFFF AND PUSH4 0x35E72432 DUP4 PUSH1 0x40 MLOAD DUP3 PUSH4 0xFFFFFFFF AND PUSH1 0xE0 SHL DUP2 MSTORE PUSH1 0x4 ADD PUSH2 0x9AB SWAP2 SWAP1 PUSH2 0x1962 JUMP JUMPDEST PUSH1 0x20 PUSH1 0x40 MLOAD DUP1 DUP4 SUB DUP2 DUP7 DUP1 EXTCODESIZE ISZERO DUP1 ISZERO PUSH2 0x9C3 JUMPI PUSH1 0x0 DUP1 REVERT JUMPDEST POP GAS STATICCALL ISZERO DUP1 ISZERO PUSH2 0x9D7 JUMPI RETURNDATASIZE PUSH1 0x0 DUP1 RETURNDATACOPY RETURNDATASIZE PUSH1 0x0 REVERT JUMPDEST POP POP POP POP PUSH1 0x40 MLOAD RETURNDATASIZE PUSH1 0x1F NOT PUSH1 0x1F DUP3 ADD AND DUP3 ADD DUP1 PUSH1 0x40 MSTORE POP DUP2 ADD SWAP1 PUSH2 0x9FB SWAP2 SWAP1 PUSH2 0x22BC JUMP JUMPDEST SWAP1 POP PUSH2 0xAAE JUMP JUMPDEST PUSH1 0x0 DUP1 SLOAD SWAP1 PUSH2 0x100 EXP SWAP1 DIV PUSH20 0xFFFFFFFFFFFFFFFFFFFFFFFFFFFFFFFFFFFFFFFF AND PUSH20 0xFFFFFFFFFFFFFFFFFFFFFFFFFFFFFFFFFFFFFFFF AND PUSH4 0x77B03E0D DUP4 PUSH1 0x40 MLOAD DUP3 PUSH4 0xFFFFFFFF AND PUSH1 0xE0 SHL DUP2 MSTORE PUSH1 0x4 ADD PUSH2 0xA5B SWAP2 SWAP1 PUSH2 0x1962 JUMP JUMPDEST PUSH1 0x20 PUSH1 0x40 MLOAD DUP1 DUP4 SUB DUP2 DUP7 DUP1 EXTCODESIZE ISZERO DUP1 ISZERO PUSH2 0xA73 JUMPI PUSH1 0x0 DUP1 REVERT JUMPDEST POP GAS STATICCALL ISZERO DUP1 ISZERO PUSH2 0xA87 JUMPI RETURNDATASIZE PUSH1 0x0 DUP1 RETURNDATACOPY RETURNDATASIZE PUSH1 0x0 REVERT JUMPDEST POP POP POP POP PUSH1 0x40 MLOAD RETURNDATASIZE PUSH1 0x1F NOT PUSH1 0x1F DUP3 ADD AND DUP3 ADD DUP1 PUSH1 0x40 MSTORE POP DUP2 ADD SWAP1 PUSH2 0xAAB SWAP2 SWAP1 PUSH2 0x22BC JUMP JUMPDEST SWAP1 POP JUMPDEST SWAP2 SWAP1 POP JUMP JUMPDEST PUSH1 0x0 DUP1 DUP3 MLOAD SWAP1 POP PUSH1 0x1 DUP2 EQ ISZERO PUSH2 0xAE7 JUMPI DUP3 PUSH1 0x0 DUP2 MLOAD DUP2 LT PUSH2 0xAD7 JUMPI PUSH2 0xAD6 PUSH2 0x22E9 JUMP JUMPDEST JUMPDEST PUSH1 0x20 MUL PUSH1 0x20 ADD ADD MLOAD SWAP2 POP POP PUSH2 0xD8B JUMP JUMPDEST PUSH1 0x0 PUSH1 0x2 DUP3 PUSH2 0xAF6 SWAP2 SWAP1 PUSH2 0x2318 JUMP JUMPDEST PUSH1 0x2 DUP4 PUSH2 0xB03 SWAP2 SWAP1 PUSH2 0x1EF5 JUMP JUMPDEST PUSH2 0xB0D SWAP2 SWAP1 PUSH2 0x1F26 JUMP JUMPDEST PUSH8 0xFFFFFFFFFFFFFFFF DUP2 GT ISZERO PUSH2 0xB26 JUMPI PUSH2 0xB25 PUSH2 0x19DB JUMP JUMPDEST JUMPDEST PUSH1 0x40 MLOAD SWAP1 DUP1 DUP3 MSTORE DUP1 PUSH1 0x20 MUL PUSH1 0x20 ADD DUP3 ADD PUSH1 0x40 MSTORE DUP1 ISZERO PUSH2 0xB54 JUMPI DUP2 PUSH1 0x20 ADD PUSH1 0x20 DUP3 MUL DUP1 CALLDATASIZE DUP4 CALLDATACOPY DUP1 DUP3 ADD SWAP2 POP POP SWAP1 POP JUMPDEST POP SWAP1 POP PUSH1 0x0 DUP1 PUSH1 0x1 DUP5 PUSH2 0xB67 SWAP2 SWAP1 PUSH2 0x1E92 JUMP JUMPDEST SWAP1 POP PUSH1 0x0 PUSH1 0x1 SWAP1 POP PUSH1 0x0 DUP1 JUMPDEST PUSH1 0x1 ISZERO PUSH2 0xD65 JUMPI DUP3 ISZERO PUSH2 0xC38 JUMPI DUP9 DUP6 DUP2 MLOAD DUP2 LT PUSH2 0xB93 JUMPI PUSH2 0xB92 PUSH2 0x22E9 JUMP JUMPDEST JUMPDEST PUSH1 0x20 MUL PUSH1 0x20 ADD ADD MLOAD SWAP1 POP DUP4 PUSH1 0x1 DUP7 PUSH2 0xBAB SWAP2 SWAP1 PUSH2 0x1F26 JUMP JUMPDEST GT ISZERO PUSH2 0xBE1 JUMPI DUP1 DUP2 PUSH1 0x40 MLOAD PUSH1 0x20 ADD PUSH2 0xBC4 SWAP3 SWAP2 SWAP1 PUSH2 0x2349 JUMP JUMPDEST PUSH1 0x40 MLOAD PUSH1 0x20 DUP2 DUP4 SUB SUB DUP2 MSTORE SWAP1 PUSH1 0x40 MSTORE DUP1 MLOAD SWAP1 PUSH1 0x20 ADD KECCAK256 SWAP2 POP PUSH2 0xC33 JUMP JUMPDEST DUP1 DUP10 PUSH1 0x1 DUP8 PUSH2 0xBF0 SWAP2 SWAP1 PUSH2 0x1F26 JUMP JUMPDEST DUP2 MLOAD DUP2 LT PUSH2 0xC01 JUMPI PUSH2 0xC00 PUSH2 0x22E9 JUMP JUMPDEST JUMPDEST PUSH1 0x20 MUL PUSH1 0x20 ADD ADD MLOAD PUSH1 0x40 MLOAD PUSH1 0x20 ADD PUSH2 0xC1A SWAP3 SWAP2 SWAP1 PUSH2 0x2349 JUMP JUMPDEST PUSH1 0x40 MLOAD PUSH1 0x20 DUP2 DUP4 SUB SUB DUP2 MSTORE SWAP1 PUSH1 0x40 MSTORE DUP1 MLOAD SWAP1 PUSH1 0x20 ADD KECCAK256 SWAP2 POP JUMPDEST PUSH2 0xCEC JUMP JUMPDEST DUP6 DUP6 DUP2 MLOAD DUP2 LT PUSH2 0xC4B JUMPI PUSH2 0xC4A PUSH2 0x22E9 JUMP JUMPDEST JUMPDEST PUSH1 0x20 MUL PUSH1 0x20 ADD ADD MLOAD SWAP1 POP DUP4 PUSH1 0x1 DUP7 PUSH2 0xC63 SWAP2 SWAP1 PUSH2 0x1F26 JUMP JUMPDEST GT ISZERO PUSH2 0xC99 JUMPI DUP1 DUP2 PUSH1 0x40 MLOAD PUSH1 0x20 ADD PUSH2 0xC7C SWAP3 SWAP2 SWAP1 PUSH2 0x2349 JUMP JUMPDEST PUSH1 0x40 MLOAD PUSH1 0x20 DUP2 DUP4 SUB SUB DUP2 MSTORE SWAP1 PUSH1 0x40 MSTORE DUP1 MLOAD SWAP1 PUSH1 0x20 ADD KECCAK256 SWAP2 POP PUSH2 0xCEB JUMP JUMPDEST DUP1 DUP7 PUSH1 0x1 DUP8 PUSH2 0xCA8 SWAP2 SWAP1 PUSH2 0x1F26 JUMP JUMPDEST DUP2 MLOAD DUP2 LT PUSH2 0xCB9 JUMPI PUSH2 0xCB8 PUSH2 0x22E9 JUMP JUMPDEST JUMPDEST PUSH1 0x20 MUL PUSH1 0x20 ADD ADD MLOAD PUSH1 0x40 MLOAD PUSH1 0x20 ADD PUSH2 0xCD2 SWAP3 SWAP2 SWAP1 PUSH2 0x2349 JUMP JUMPDEST PUSH1 0x40 MLOAD PUSH1 0x20 DUP2 DUP4 SUB SUB DUP2 MSTORE SWAP1 PUSH1 0x40 MSTORE DUP1 MLOAD SWAP1 PUSH1 0x20 ADD KECCAK256 SWAP2 POP JUMPDEST JUMPDEST DUP2 DUP7 PUSH1 0x2 DUP8 PUSH2 0xCFB SWAP2 SWAP1 PUSH2 0x1EF5 JUMP JUMPDEST DUP2 MLOAD DUP2 LT PUSH2 0xD0C JUMPI PUSH2 0xD0B PUSH2 0x22E9 JUMP JUMPDEST JUMPDEST PUSH1 0x20 MUL PUSH1 0x20 ADD ADD DUP2 DUP2 MSTORE POP POP PUSH1 0x2 DUP6 PUSH2 0xD25 SWAP2 SWAP1 PUSH2 0x1F26 JUMP JUMPDEST SWAP5 POP DUP4 DUP6 GT ISZERO PUSH2 0xD60 JUMPI PUSH1 0x2 DUP1 DUP7 PUSH2 0xD3D SWAP2 SWAP1 PUSH2 0x1E92 JUMP JUMPDEST PUSH2 0xD47 SWAP2 SWAP1 PUSH2 0x1EF5 JUMP JUMPDEST SWAP4 POP PUSH1 0x0 DUP5 EQ ISZERO PUSH2 0xD57 JUMPI PUSH2 0xD65 JUMP JUMPDEST PUSH1 0x0 SWAP5 POP PUSH1 0x0 SWAP3 POP JUMPDEST PUSH2 0xB73 JUMP JUMPDEST DUP6 PUSH1 0x0 DUP2 MLOAD DUP2 LT PUSH2 0xD79 JUMPI PUSH2 0xD78 PUSH2 0x22E9 JUMP JUMPDEST JUMPDEST PUSH1 0x20 MUL PUSH1 0x20 ADD ADD MLOAD SWAP8 POP POP POP POP POP POP POP POP JUMPDEST SWAP2 SWAP1 POP JUMP JUMPDEST PUSH1 0x0 DUP1 PUSH1 0x1 PUSH1 0x0 DUP11 DUP2 MSTORE PUSH1 0x20 ADD SWAP1 DUP2 MSTORE PUSH1 0x20 ADD PUSH1 0x0 KECCAK256 PUSH1 0x0 DUP10 PUSH20 0xFFFFFFFFFFFFFFFFFFFFFFFFFFFFFFFFFFFFFFFF AND PUSH20 0xFFFFFFFFFFFFFFFFFFFFFFFFFFFFFFFFFFFFFFFF AND DUP2 MSTORE PUSH1 0x20 ADD SWAP1 DUP2 MSTORE PUSH1 0x20 ADD PUSH1 0x0 KECCAK256 SLOAD SWAP1 POP PUSH1 0x0 DUP9 DUP9 PUSH1 0x40 MLOAD PUSH1 0x20 ADD PUSH2 0xDFB SWAP3 SWAP2 SWAP1 PUSH2 0x2375 JUMP JUMPDEST PUSH1 0x40 MLOAD PUSH1 0x20 DUP2 DUP4 SUB SUB DUP2 MSTORE SWAP1 PUSH1 0x40 MSTORE DUP1 MLOAD SWAP1 PUSH1 0x20 ADD KECCAK256 SWAP1 POP PUSH1 0x1 DUP8 DUP8 SWAP1 POP EQ ISZERO PUSH2 0xE4A JUMPI DUP1 DUP8 DUP8 PUSH1 0x0 DUP2 DUP2 LT PUSH2 0xE34 JUMPI PUSH2 0xE33 PUSH2 0x22E9 JUMP JUMPDEST JUMPDEST SWAP1 POP PUSH1 0x20 MUL ADD CALLDATALOAD EQ PUSH2 0xE45 JUMPI PUSH1 0x0 DUP1 REVERT JUMPDEST PUSH2 0xE95 JUMP JUMPDEST DUP1 DUP8 DUP8 PUSH1 0x0 DUP2 DUP2 LT PUSH2 0xE5F JUMPI PUSH2 0xE5E PUSH2 0x22E9 JUMP JUMPDEST JUMPDEST SWAP1 POP PUSH1 0x20 MUL ADD CALLDATALOAD EQ DUP1 PUSH2 0xE8B JUMPI POP DUP1 DUP8 DUP8 PUSH1 0x1 DUP2 DUP2 LT PUSH2 0xE82 JUMPI PUSH2 0xE81 PUSH2 0x22E9 JUMP JUMPDEST JUMPDEST SWAP1 POP PUSH1 0x20 MUL ADD CALLDATALOAD EQ JUMPDEST PUSH2 0xE94 JUMPI PUSH1 0x0 DUP1 REVERT JUMPDEST JUMPDEST PUSH2 0xF22 DUP3 DUP9 DUP9 DUP1 DUP1 PUSH1 0x20 MUL PUSH1 0x20 ADD PUSH1 0x40 MLOAD SWAP1 DUP2 ADD PUSH1 0x40 MSTORE DUP1 SWAP4 SWAP3 SWAP2 SWAP1 DUP2 DUP2 MSTORE PUSH1 0x20 ADD DUP4 DUP4 PUSH1 0x20 MUL DUP1 DUP3 DUP5 CALLDATACOPY PUSH1 0x0 DUP2 DUP5 ADD MSTORE PUSH1 0x1F NOT PUSH1 0x1F DUP3 ADD AND SWAP1 POP DUP1 DUP4 ADD SWAP3 POP POP POP POP POP POP POP DUP8 DUP8 DUP1 DUP1 PUSH1 0x20 MUL PUSH1 0x20 ADD PUSH1 0x40 MLOAD SWAP1 DUP2 ADD PUSH1 0x40 MSTORE DUP1 SWAP4 SWAP3 SWAP2 SWAP1 DUP2 DUP2 MSTORE PUSH1 0x20 ADD DUP4 DUP4 PUSH1 0x20 MUL DUP1 DUP3 DUP5 CALLDATACOPY PUSH1 0x0 DUP2 DUP5 ADD MSTORE PUSH1 0x1F NOT PUSH1 0x1F DUP3 ADD AND SWAP1 POP DUP1 DUP4 ADD SWAP3 POP POP POP POP POP POP POP PUSH2 0x1605 JUMP JUMPDEST SWAP3 POP POP POP SWAP8 SWAP7 POP POP POP POP POP POP POP JUMP JUMPDEST PUSH1 0x0 PUSH2 0x1010 PUSH1 0x1 PUSH1 0x0 DUP10 DUP2 MSTORE PUSH1 0x20 ADD SWAP1 DUP2 MSTORE PUSH1 0x20 ADD PUSH1 0x0 KECCAK256 PUSH1 0x0 DUP9 PUSH20 0xFFFFFFFFFFFFFFFFFFFFFFFFFFFFFFFFFFFFFFFF AND PUSH20 0xFFFFFFFFFFFFFFFFFFFFFFFFFFFFFFFFFFFFFFFF AND DUP2 MSTORE PUSH1 0x20 ADD SWAP1 DUP2 MSTORE PUSH1 0x20 ADD PUSH1 0x0 KECCAK256 SLOAD DUP7 DUP7 DUP1 DUP1 PUSH1 0x20 MUL PUSH1 0x20 ADD PUSH1 0x40 MLOAD SWAP1 DUP2 ADD PUSH1 0x40 MSTORE DUP1 SWAP4 SWAP3 SWAP2 SWAP1 DUP2 DUP2 MSTORE PUSH1 0x20 ADD DUP4 DUP4 PUSH1 0x20 MUL DUP1 DUP3 DUP5 CALLDATACOPY PUSH1 0x0 DUP2 DUP5 ADD MSTORE PUSH1 0x1F NOT PUSH1 0x1F DUP3 ADD AND SWAP1 POP DUP1 DUP4 ADD SWAP3 POP POP POP POP POP POP POP DUP6 DUP6 DUP1 DUP1 PUSH1 0x20 MUL PUSH1 0x20 ADD PUSH1 0x40 MLOAD SWAP1 DUP2 ADD PUSH1 0x40 MSTORE DUP1 SWAP4 SWAP3 SWAP2 SWAP1 DUP2 DUP2 MSTORE PUSH1 0x20 ADD DUP4 DUP4 PUSH1 0x20 MUL DUP1 DUP3 DUP5 CALLDATACOPY PUSH1 0x0 DUP2 DUP5 ADD MSTORE PUSH1 0x1F NOT PUSH1 0x1F DUP3 ADD AND SWAP1 POP DUP1 DUP4 ADD SWAP3 POP POP POP POP POP POP POP PUSH2 0x1605 JUMP JUMPDEST SWAP1 POP SWAP7 SWAP6 POP POP POP POP POP POP JUMP JUMPDEST PUSH1 0x0 PUSH1 0x60 PUSH1 0x0 DUP1 PUSH1 0x0 PUSH2 0x102F DUP8 DUP8 PUSH2 0x310 JUMP JUMPDEST SWAP2 POP SWAP2 POP DUP2 PUSH2 0x1059 JUMPI PUSH1 0x0 PUSH1 0x40 MLOAD DUP1 PUSH1 0x20 ADD PUSH1 0x40 MSTORE DUP1 PUSH1 0x0 DUP2 MSTORE POP PUSH1 0x0 SWAP5 POP SWAP5 POP SWAP5 POP POP POP PUSH2 0x10C7 JUMP JUMPDEST PUSH1 0x0 PUSH2 0x1065 DUP9 DUP4 PUSH2 0x13CB JUMP JUMPDEST SWAP1 POP PUSH2 0x1071 DUP9 DUP3 PUSH2 0x1187 JUMP JUMPDEST SWAP5 POP PUSH1 0x40 MLOAD DUP1 PUSH1 0x20 ADD PUSH1 0x40 MSTORE DUP1 PUSH1 0x0 DUP2 MSTORE POP DUP1 MLOAD SWAP1 PUSH1 0x20 ADD KECCAK256 DUP6 DUP1 MLOAD SWAP1 PUSH1 0x20 ADD KECCAK256 EQ PUSH2 0x10A9 JUMPI PUSH1 0x1 DUP6 DUP3 SWAP6 POP SWAP6 POP SWAP6 POP POP POP POP PUSH2 0x10C7 JUMP JUMPDEST PUSH1 0x0 PUSH1 0x40 MLOAD DUP1 PUSH1 0x20 ADD PUSH1 0x40 MSTORE DUP1 PUSH1 0x0 DUP2 MSTORE POP PUSH1 0x0 SWAP6 POP SWAP6 POP SWAP6 POP POP POP POP JUMPDEST SWAP3 POP SWAP3 POP SWAP3 JUMP JUMPDEST PUSH1 0x0 PUSH1 0x60 PUSH1 0x0 DUP1 PUSH2 0x10DE DUP6 PUSH2 0x87E JUMP JUMPDEST SWAP1 POP PUSH1 0x0 DUP2 EQ ISZERO PUSH2 0x1109 JUMPI PUSH1 0x0 PUSH1 0x40 MLOAD DUP1 PUSH1 0x20 ADD PUSH1 0x40 MSTORE DUP1 PUSH1 0x0 DUP2 MSTORE POP PUSH1 0x0 SWAP4 POP SWAP4 POP SWAP4 POP POP PUSH2 0x1180 JUMP JUMPDEST PUSH1 0x0 PUSH2 0x1121 DUP7 PUSH1 0x1 DUP5 PUSH2 0x111C SWAP2 SWAP1 PUSH2 0x1E92 JUMP JUMPDEST PUSH2 0x13CB JUMP JUMPDEST SWAP1 POP PUSH2 0x112D DUP7 DUP3 PUSH2 0x1187 JUMP JUMPDEST SWAP4 POP PUSH1 0x40 MLOAD DUP1 PUSH1 0x20 ADD PUSH1 0x40 MSTORE DUP1 PUSH1 0x0 DUP2 MSTORE POP DUP1 MLOAD SWAP1 PUSH1 0x20 ADD KECCAK256 DUP5 DUP1 MLOAD SWAP1 PUSH1 0x20 ADD KECCAK256 EQ PUSH2 0x1164 JUMPI PUSH1 0x1 DUP5 DUP3 SWAP5 POP SWAP5 POP SWAP5 POP POP POP PUSH2 0x1180 JUMP JUMPDEST PUSH1 0x0 PUSH1 0x40 MLOAD DUP1 PUSH1 0x20 ADD PUSH1 0x40 MSTORE DUP1 PUSH1 0x0 DUP2 MSTORE POP DUP3 SWAP5 POP SWAP5 POP SWAP5 POP POP POP JUMPDEST SWAP2 SWAP4 SWAP1 SWAP3 POP JUMP JUMPDEST PUSH1 0x60 PUSH20 0x18431FD88ADF138E8B979A7246EB58EA7126EA16 PUSH20 0xFFFFFFFFFFFFFFFFFFFFFFFFFFFFFFFFFFFFFFFF AND PUSH1 0x0 DUP1 SLOAD SWAP1 PUSH2 0x100 EXP SWAP1 DIV PUSH20 0xFFFFFFFFFFFFFFFFFFFFFFFFFFFFFFFFFFFFFFFF AND PUSH20 0xFFFFFFFFFFFFFFFFFFFFFFFFFFFFFFFFFFFFFFFF AND EQ DUP1 PUSH2 0x1256 JUMPI POP PUSH20 0xE8218CACB0A5421BC6409E498D9F8CC8869945EA PUSH20 0xFFFFFFFFFFFFFFFFFFFFFFFFFFFFFFFFFFFFFFFF AND PUSH1 0x0 DUP1 SLOAD SWAP1 PUSH2 0x100 EXP SWAP1 DIV PUSH20 0xFFFFFFFFFFFFFFFFFFFFFFFFFFFFFFFFFFFFFFFF AND PUSH20 0xFFFFFFFFFFFFFFFFFFFFFFFFFFFFFFFFFFFFFFFF AND EQ JUMPDEST ISZERO PUSH2 0x1312 JUMPI PUSH1 0x0 DUP1 SLOAD SWAP1 PUSH2 0x100 EXP SWAP1 DIV PUSH20 0xFFFFFFFFFFFFFFFFFFFFFFFFFFFFFFFFFFFFFFFF AND PUSH20 0xFFFFFFFFFFFFFFFFFFFFFFFFFFFFFFFFFFFFFFFF AND PUSH4 0xB2D2B0D DUP5 DUP5 PUSH1 0x40 MLOAD DUP4 PUSH4 0xFFFFFFFF AND PUSH1 0xE0 SHL DUP2 MSTORE PUSH1 0x4 ADD PUSH2 0x12B6 SWAP3 SWAP2 SWAP1 PUSH2 0x239E JUMP JUMPDEST PUSH1 0x0 PUSH1 0x40 MLOAD DUP1 DUP4 SUB DUP2 DUP7 DUP1 EXTCODESIZE ISZERO DUP1 ISZERO PUSH2 0x12CE JUMPI PUSH1 0x0 DUP1 REVERT JUMPDEST POP GAS STATICCALL ISZERO DUP1 ISZERO PUSH2 0x12E2 JUMPI RETURNDATASIZE PUSH1 0x0 DUP1 RETURNDATACOPY RETURNDATASIZE PUSH1 0x0 REVERT JUMPDEST POP POP POP POP PUSH1 0x40 MLOAD RETURNDATASIZE PUSH1 0x0 DUP3 RETURNDATACOPY RETURNDATASIZE PUSH1 0x1F NOT PUSH1 0x1F DUP3 ADD AND DUP3 ADD DUP1 PUSH1 0x40 MSTORE POP DUP2 ADD SWAP1 PUSH2 0x130B SWAP2 SWAP1 PUSH2 0x246D JUMP JUMPDEST SWAP1 POP PUSH2 0x13C5 JUMP JUMPDEST PUSH1 0x0 DUP1 SLOAD SWAP1 PUSH2 0x100 EXP SWAP1 DIV PUSH20 0xFFFFFFFFFFFFFFFFFFFFFFFFFFFFFFFFFFFFFFFF AND PUSH20 0xFFFFFFFFFFFFFFFFFFFFFFFFFFFFFFFFFFFFFFFF AND PUSH4 0xC5958AF9 DUP5 DUP5 PUSH1 0x40 MLOAD DUP4 PUSH4 0xFFFFFFFF AND PUSH1 0xE0 SHL DUP2 MSTORE PUSH1 0x4 ADD PUSH2 0x136D SWAP3 SWAP2 SWAP1 PUSH2 0x239E JUMP JUMPDEST PUSH1 0x0 PUSH1 0x40 MLOAD DUP1 DUP4 SUB DUP2 DUP7 DUP1 EXTCODESIZE ISZERO DUP1 ISZERO PUSH2 0x1385 JUMPI PUSH1 0x0 DUP1 REVERT JUMPDEST POP GAS STATICCALL ISZERO DUP1 ISZERO PUSH2 0x1399 JUMPI RETURNDATASIZE PUSH1 0x0 DUP1 RETURNDATACOPY RETURNDATASIZE PUSH1 0x0 REVERT JUMPDEST POP POP POP POP PUSH1 0x40 MLOAD RETURNDATASIZE PUSH1 0x0 DUP3 RETURNDATACOPY RETURNDATASIZE PUSH1 0x1F NOT PUSH1 0x1F DUP3 ADD AND DUP3 ADD DUP1 PUSH1 0x40 MSTORE POP DUP2 ADD SWAP1 PUSH2 0x13C2 SWAP2 SWAP1 PUSH2 0x246D JUMP JUMPDEST SWAP1 POP JUMPDEST SWAP3 SWAP2 POP POP JUMP JUMPDEST PUSH1 0x0 PUSH20 0x18431FD88ADF138E8B979A7246EB58EA7126EA16 PUSH20 0xFFFFFFFFFFFFFFFFFFFFFFFFFFFFFFFFFFFFFFFF AND PUSH1 0x0 DUP1 SLOAD SWAP1 PUSH2 0x100 EXP SWAP1 DIV PUSH20 0xFFFFFFFFFFFFFFFFFFFFFFFFFFFFFFFFFFFFFFFF AND PUSH20 0xFFFFFFFFFFFFFFFFFFFFFFFFFFFFFFFFFFFFFFFF AND EQ DUP1 PUSH2 0x149A JUMPI POP PUSH20 0xE8218CACB0A5421BC6409E498D9F8CC8869945EA PUSH20 0xFFFFFFFFFFFFFFFFFFFFFFFFFFFFFFFFFFFFFFFF AND PUSH1 0x0 DUP1 SLOAD SWAP1 PUSH2 0x100 EXP SWAP1 DIV PUSH20 0xFFFFFFFFFFFFFFFFFFFFFFFFFFFFFFFFFFFFFFFF AND PUSH20 0xFFFFFFFFFFFFFFFFFFFFFFFFFFFFFFFFFFFFFFFF AND EQ JUMPDEST ISZERO PUSH2 0x1551 JUMPI PUSH1 0x0 DUP1 SLOAD SWAP1 PUSH2 0x100 EXP SWAP1 DIV PUSH20 0xFFFFFFFFFFFFFFFFFFFFFFFFFFFFFFFFFFFFFFFF AND PUSH20 0xFFFFFFFFFFFFFFFFFFFFFFFFFFFFFFFFFFFFFFFF AND PUSH4 0x7C37B8B4 DUP5 DUP5 PUSH1 0x40 MLOAD DUP4 PUSH4 0xFFFFFFFF AND PUSH1 0xE0 SHL DUP2 MSTORE PUSH1 0x4 ADD PUSH2 0x14FA SWAP3 SWAP2 SWAP1 PUSH2 0x239E JUMP JUMPDEST PUSH1 0x20 PUSH1 0x40 MLOAD DUP1 DUP4 SUB DUP2 DUP7 DUP1 EXTCODESIZE ISZERO DUP1 ISZERO PUSH2 0x1512 JUMPI PUSH1 0x0 DUP1 REVERT JUMPDEST POP GAS STATICCALL ISZERO DUP1 ISZERO PUSH2 0x1526 JUMPI RETURNDATASIZE PUSH1 0x0 DUP1 RETURNDATACOPY RETURNDATASIZE PUSH1 0x0 REVERT JUMPDEST POP POP POP POP PUSH1 0x40 MLOAD RETURNDATASIZE PUSH1 0x1F NOT PUSH1 0x1F DUP3 ADD AND DUP3 ADD DUP1 PUSH1 0x40 MSTORE POP DUP2 ADD SWAP1 PUSH2 0x154A SWAP2 SWAP1 PUSH2 0x22BC JUMP JUMPDEST SWAP1 POP PUSH2 0x15FF JUMP JUMPDEST PUSH1 0x0 DUP1 SLOAD SWAP1 PUSH2 0x100 EXP SWAP1 DIV PUSH20 0xFFFFFFFFFFFFFFFFFFFFFFFFFFFFFFFFFFFFFFFF AND PUSH20 0xFFFFFFFFFFFFFFFFFFFFFFFFFFFFFFFFFFFFFFFF AND PUSH4 0xCE5E11BF DUP5 DUP5 PUSH1 0x40 MLOAD DUP4 PUSH4 0xFFFFFFFF AND PUSH1 0xE0 SHL DUP2 MSTORE PUSH1 0x4 ADD PUSH2 0x15AC SWAP3 SWAP2 SWAP1 PUSH2 0x239E JUMP JUMPDEST PUSH1 0x20 PUSH1 0x40 MLOAD DUP1 DUP4 SUB DUP2 DUP7 DUP1 EXTCODESIZE ISZERO DUP1 ISZERO PUSH2 0x15C4 JUMPI PUSH1 0x0 DUP1 REVERT JUMPDEST POP GAS STATICCALL ISZERO DUP1 ISZERO PUSH2 0x15D8 JUMPI RETURNDATASIZE PUSH1 0x0 DUP1 RETURNDATACOPY RETURNDATASIZE PUSH1 0x0 REVERT JUMPDEST POP POP POP POP PUSH1 0x40 MLOAD RETURNDATASIZE PUSH1 0x1F NOT PUSH1 0x1F DUP3 ADD AND DUP3 ADD DUP1 PUSH1 0x40 MSTORE POP DUP2 ADD SWAP1 PUSH2 0x15FC SWAP2 SWAP1 PUSH2 0x22BC JUMP JUMPDEST SWAP1 POP JUMPDEST SWAP3 SWAP2 POP POP JUMP JUMPDEST PUSH1 0x0 DUP1 DUP4 PUSH1 0x0 DUP2 MLOAD DUP2 LT PUSH2 0x161C JUMPI PUSH2 0x161B PUSH2 0x22E9 JUMP JUMPDEST JUMPDEST PUSH1 0x20 MUL PUSH1 0x20 ADD ADD MLOAD SWAP1 POP PUSH1 0x0 DUP5 MLOAD SWAP1 POP PUSH1 0x0 PUSH1 0x1 SWAP1 POP JUMPDEST DUP2 DUP2 LT ISZERO PUSH2 0x16FE JUMPI DUP5 DUP2 DUP2 MLOAD DUP2 LT PUSH2 0x164E JUMPI PUSH2 0x164D PUSH2 0x22E9 JUMP JUMPDEST JUMPDEST PUSH1 0x20 MUL PUSH1 0x20 ADD ADD MLOAD ISZERO PUSH2 0x16A5 JUMPI DUP3 DUP7 DUP3 DUP2 MLOAD DUP2 LT PUSH2 0x166F JUMPI PUSH2 0x166E PUSH2 0x22E9 JUMP JUMPDEST JUMPDEST PUSH1 0x20 MUL PUSH1 0x20 ADD ADD MLOAD PUSH1 0x40 MLOAD PUSH1 0x20 ADD PUSH2 0x1688 SWAP3 SWAP2 SWAP1 PUSH2 0x2349 JUMP JUMPDEST PUSH1 0x40 MLOAD PUSH1 0x20 DUP2 DUP4 SUB SUB DUP2 MSTORE SWAP1 PUSH1 0x40 MSTORE DUP1 MLOAD SWAP1 PUSH1 0x20 ADD KECCAK256 SWAP3 POP PUSH2 0x16EB JUMP JUMPDEST DUP6 DUP2 DUP2 MLOAD DUP2 LT PUSH2 0x16B8 JUMPI PUSH2 0x16B7 PUSH2 0x22E9 JUMP JUMPDEST JUMPDEST PUSH1 0x20 MUL PUSH1 0x20 ADD ADD MLOAD DUP4 PUSH1 0x40 MLOAD PUSH1 0x20 ADD PUSH2 0x16D2 SWAP3 SWAP2 SWAP1 PUSH2 0x2349 JUMP JUMPDEST PUSH1 0x40 MLOAD PUSH1 0x20 DUP2 DUP4 SUB SUB DUP2 MSTORE SWAP1 PUSH1 0x40 MSTORE DUP1 MLOAD SWAP1 PUSH1 0x20 ADD KECCAK256 SWAP3 POP JUMPDEST DUP1 DUP1 PUSH2 0x16F6 SWAP1 PUSH2 0x24B6 JUMP JUMPDEST SWAP2 POP POP PUSH2 0x1633 JUMP JUMPDEST POP DUP6 DUP3 EQ SWAP3 POP POP POP SWAP4 SWAP3 POP POP POP JUMP JUMPDEST PUSH1 0x0 PUSH20 0xFFFFFFFFFFFFFFFFFFFFFFFFFFFFFFFFFFFFFFFF DUP3 AND SWAP1 POP SWAP2 SWAP1 POP JUMP JUMPDEST PUSH1 0x0 DUP2 SWAP1 POP SWAP2 SWAP1 POP JUMP JUMPDEST PUSH1 0x0 PUSH2 0x1752 PUSH2 0x174D PUSH2 0x1748 DUP5 PUSH2 0x170D JUMP JUMPDEST PUSH2 0x172D JUMP JUMPDEST PUSH2 0x170D JUMP JUMPDEST SWAP1 POP SWAP2 SWAP1 POP JUMP JUMPDEST PUSH1 0x0 PUSH2 0x1764 DUP3 PUSH2 0x1737 JUMP JUMPDEST SWAP1 POP SWAP2 SWAP1 POP JUMP JUMPDEST PUSH1 0x0 PUSH2 0x1776 DUP3 PUSH2 0x1759 JUMP JUMPDEST SWAP1 POP SWAP2 SWAP1 POP JUMP JUMPDEST PUSH2 0x1786 DUP2 PUSH2 0x176B JUMP JUMPDEST DUP3 MSTORE POP POP JUMP JUMPDEST PUSH1 0x0 PUSH1 0x20 DUP3 ADD SWAP1 POP PUSH2 0x17A1 PUSH1 0x0 DUP4 ADD DUP5 PUSH2 0x177D JUMP JUMPDEST SWAP3 SWAP2 POP POP JUMP JUMPDEST PUSH1 0x0 PUSH1 0x40 MLOAD SWAP1 POP SWAP1 JUMP JUMPDEST PUSH1 0x0 DUP1 REVERT JUMPDEST PUSH1 0x0 DUP1 REVERT JUMPDEST PUSH1 0x0 DUP2 SWAP1 POP SWAP2 SWAP1 POP JUMP JUMPDEST PUSH2 0x17CE DUP2 PUSH2 0x17BB JUMP JUMPDEST DUP2 EQ PUSH2 0x17D9 JUMPI PUSH1 0x0 DUP1 REVERT JUMPDEST POP JUMP JUMPDEST PUSH1 0x0 DUP2 CALLDATALOAD SWAP1 POP PUSH2 0x17EB DUP2 PUSH2 0x17C5 JUMP JUMPDEST SWAP3 SWAP2 POP POP JUMP JUMPDEST PUSH1 0x0 DUP2 SWAP1 POP SWAP2 SWAP1 POP JUMP JUMPDEST PUSH2 0x1804 DUP2 PUSH2 0x17F1 JUMP JUMPDEST DUP2 EQ PUSH2 0x180F JUMPI PUSH1 0x0 DUP1 REVERT JUMPDEST POP JUMP JUMPDEST PUSH1 0x0 DUP2 CALLDATALOAD SWAP1 POP PUSH2 0x1821 DUP2 PUSH2 0x17FB JUMP JUMPDEST SWAP3 SWAP2 POP POP JUMP JUMPDEST PUSH1 0x0 DUP1 PUSH1 0x40 DUP4 DUP6 SUB SLT ISZERO PUSH2 0x183E JUMPI PUSH2 0x183D PUSH2 0x17B1 JUMP JUMPDEST JUMPDEST PUSH1 0x0 PUSH2 0x184C DUP6 DUP3 DUP7 ADD PUSH2 0x17DC JUMP JUMPDEST SWAP3 POP POP PUSH1 0x20 PUSH2 0x185D DUP6 DUP3 DUP7 ADD PUSH2 0x1812 JUMP JUMPDEST SWAP2 POP POP SWAP3 POP SWAP3 SWAP1 POP JUMP JUMPDEST PUSH1 0x0 DUP2 ISZERO ISZERO SWAP1 POP SWAP2 SWAP1 POP JUMP JUMPDEST PUSH2 0x187C DUP2 PUSH2 0x1867 JUMP JUMPDEST DUP3 MSTORE POP POP JUMP JUMPDEST PUSH2 0x188B DUP2 PUSH2 0x17F1 JUMP JUMPDEST DUP3 MSTORE POP POP JUMP JUMPDEST PUSH1 0x0 PUSH1 0x40 DUP3 ADD SWAP1 POP PUSH2 0x18A6 PUSH1 0x0 DUP4 ADD DUP6 PUSH2 0x1873 JUMP JUMPDEST PUSH2 0x18B3 PUSH1 0x20 DUP4 ADD DUP5 PUSH2 0x1882 JUMP JUMPDEST SWAP4 SWAP3 POP POP POP JUMP JUMPDEST PUSH1 0x0 PUSH1 0x20 DUP3 ADD SWAP1 POP PUSH2 0x18CF PUSH1 0x0 DUP4 ADD DUP5 PUSH2 0x1873 JUMP JUMPDEST SWAP3 SWAP2 POP POP JUMP JUMPDEST PUSH1 0x0 PUSH2 0x18E0 DUP3 PUSH2 0x170D JUMP JUMPDEST SWAP1 POP SWAP2 SWAP1 POP JUMP JUMPDEST PUSH2 0x18F0 DUP2 PUSH2 0x18D5 JUMP JUMPDEST DUP2 EQ PUSH2 0x18FB JUMPI PUSH1 0x0 DUP1 REVERT JUMPDEST POP JUMP JUMPDEST PUSH1 0x0 DUP2 CALLDATALOAD SWAP1 POP PUSH2 0x190D DUP2 PUSH2 0x18E7 JUMP JUMPDEST SWAP3 SWAP2 POP POP JUMP JUMPDEST PUSH1 0x0 DUP1 PUSH1 0x40 DUP4 DUP6 SUB SLT ISZERO PUSH2 0x192A JUMPI PUSH2 0x1929 PUSH2 0x17B1 JUMP JUMPDEST JUMPDEST PUSH1 0x0 PUSH2 0x1938 DUP6 DUP3 DUP7 ADD PUSH2 0x1812 JUMP JUMPDEST SWAP3 POP POP PUSH1 0x20 PUSH2 0x1949 DUP6 DUP3 DUP7 ADD PUSH2 0x18FE JUMP JUMPDEST SWAP2 POP POP SWAP3 POP SWAP3 SWAP1 POP JUMP JUMPDEST PUSH2 0x195C DUP2 PUSH2 0x17BB JUMP JUMPDEST DUP3 MSTORE POP POP JUMP JUMPDEST PUSH1 0x0 PUSH1 0x20 DUP3 ADD SWAP1 POP PUSH2 0x1977 PUSH1 0x0 DUP4 ADD DUP5 PUSH2 0x1953 JUMP JUMPDEST SWAP3 SWAP2 POP POP JUMP JUMPDEST PUSH1 0x0 PUSH1 0x20 DUP3 DUP5 SUB SLT ISZERO PUSH2 0x1993 JUMPI PUSH2 0x1992 PUSH2 0x17B1 JUMP JUMPDEST JUMPDEST PUSH1 0x0 PUSH2 0x19A1 DUP5 DUP3 DUP6 ADD PUSH2 0x17DC JUMP JUMPDEST SWAP2 POP POP SWAP3 SWAP2 POP POP JUMP JUMPDEST PUSH1 0x0 PUSH1 0x20 DUP3 ADD SWAP1 POP PUSH2 0x19BF PUSH1 0x0 DUP4 ADD DUP5 PUSH2 0x1882 JUMP JUMPDEST SWAP3 SWAP2 POP POP JUMP JUMPDEST PUSH1 0x0 DUP1 REVERT JUMPDEST PUSH1 0x0 PUSH1 0x1F NOT PUSH1 0x1F DUP4 ADD AND SWAP1 POP SWAP2 SWAP1 POP JUMP JUMPDEST PUSH32 0x4E487B7100000000000000000000000000000000000000000000000000000000 PUSH1 0x0 MSTORE PUSH1 0x41 PUSH1 0x4 MSTORE PUSH1 0x24 PUSH1 0x0 REVERT JUMPDEST PUSH2 0x1A13 DUP3 PUSH2 0x19CA JUMP JUMPDEST DUP2 ADD DUP2 DUP2 LT PUSH8 0xFFFFFFFFFFFFFFFF DUP3 GT OR ISZERO PUSH2 0x1A32 JUMPI PUSH2 0x1A31 PUSH2 0x19DB JUMP JUMPDEST JUMPDEST DUP1 PUSH1 0x40 MSTORE POP POP POP JUMP JUMPDEST PUSH1 0x0 PUSH2 0x1A45 PUSH2 0x17A7 JUMP JUMPDEST SWAP1 POP PUSH2 0x1A51 DUP3 DUP3 PUSH2 0x1A0A JUMP JUMPDEST SWAP2 SWAP1 POP JUMP JUMPDEST PUSH1 0x0 PUSH8 0xFFFFFFFFFFFFFFFF DUP3 GT ISZERO PUSH2 0x1A71 JUMPI PUSH2 0x1A70 PUSH2 0x19DB JUMP JUMPDEST JUMPDEST PUSH1 0x20 DUP3 MUL SWAP1 POP PUSH1 0x20 DUP2 ADD SWAP1 POP SWAP2 SWAP1 POP JUMP JUMPDEST PUSH1 0x0 DUP1 REVERT JUMPDEST PUSH1 0x0 PUSH2 0x1A9A PUSH2 0x1A95 DUP5 PUSH2 0x1A56 JUMP JUMPDEST PUSH2 0x1A3B JUMP JUMPDEST SWAP1 POP DUP1 DUP4 DUP3 MSTORE PUSH1 0x20 DUP3 ADD SWAP1 POP PUSH1 0x20 DUP5 MUL DUP4 ADD DUP6 DUP2 GT ISZERO PUSH2 0x1ABD JUMPI PUSH2 0x1ABC PUSH2 0x1A82 JUMP JUMPDEST JUMPDEST DUP4 JUMPDEST DUP2 DUP2 LT ISZERO PUSH2 0x1AE6 JUMPI DUP1 PUSH2 0x1AD2 DUP9 DUP3 PUSH2 0x17DC JUMP JUMPDEST DUP5 MSTORE PUSH1 0x20 DUP5 ADD SWAP4 POP POP PUSH1 0x20 DUP2 ADD SWAP1 POP PUSH2 0x1ABF JUMP JUMPDEST POP POP POP SWAP4 SWAP3 POP POP POP JUMP JUMPDEST PUSH1 0x0 DUP3 PUSH1 0x1F DUP4 ADD SLT PUSH2 0x1B05 JUMPI PUSH2 0x1B04 PUSH2 0x19C5 JUMP JUMPDEST JUMPDEST DUP2 CALLDATALOAD PUSH2 0x1B15 DUP5 DUP3 PUSH1 0x20 DUP7 ADD PUSH2 0x1A87 JUMP JUMPDEST SWAP2 POP POP SWAP3 SWAP2 POP POP JUMP JUMPDEST PUSH1 0x0 PUSH1 0x20 DUP3 DUP5 SUB SLT ISZERO PUSH2 0x1B34 JUMPI PUSH2 0x1B33 PUSH2 0x17B1 JUMP JUMPDEST JUMPDEST PUSH1 0x0 DUP3 ADD CALLDATALOAD PUSH8 0xFFFFFFFFFFFFFFFF DUP2 GT ISZERO PUSH2 0x1B52 JUMPI PUSH2 0x1B51 PUSH2 0x17B6 JUMP JUMPDEST JUMPDEST PUSH2 0x1B5E DUP5 DUP3 DUP6 ADD PUSH2 0x1AF0 JUMP JUMPDEST SWAP2 POP POP SWAP3 SWAP2 POP POP JUMP JUMPDEST PUSH1 0x0 DUP1 REVERT JUMPDEST PUSH1 0x0 DUP1 DUP4 PUSH1 0x1F DUP5 ADD SLT PUSH2 0x1B82 JUMPI PUSH2 0x1B81 PUSH2 0x19C5 JUMP JUMPDEST JUMPDEST DUP3 CALLDATALOAD SWAP1 POP PUSH8 0xFFFFFFFFFFFFFFFF DUP2 GT ISZERO PUSH2 0x1B9F JUMPI PUSH2 0x1B9E PUSH2 0x1B67 JUMP JUMPDEST JUMPDEST PUSH1 0x20 DUP4 ADD SWAP2 POP DUP4 PUSH1 0x20 DUP3 MUL DUP4 ADD GT ISZERO PUSH2 0x1BBB JUMPI PUSH2 0x1BBA PUSH2 0x1A82 JUMP JUMPDEST JUMPDEST SWAP3 POP SWAP3 SWAP1 POP JUMP JUMPDEST PUSH1 0x0 DUP1 DUP4 PUSH1 0x1F DUP5 ADD SLT PUSH2 0x1BD8 JUMPI PUSH2 0x1BD7 PUSH2 0x19C5 JUMP JUMPDEST JUMPDEST DUP3 CALLDATALOAD SWAP1 POP PUSH8 0xFFFFFFFFFFFFFFFF DUP2 GT ISZERO PUSH2 0x1BF5 JUMPI PUSH2 0x1BF4 PUSH2 0x1B67 JUMP JUMPDEST JUMPDEST PUSH1 0x20 DUP4 ADD SWAP2 POP DUP4 PUSH1 0x20 DUP3 MUL DUP4 ADD GT ISZERO PUSH2 0x1C11 JUMPI PUSH2 0x1C10 PUSH2 0x1A82 JUMP JUMPDEST JUMPDEST SWAP3 POP SWAP3 SWAP1 POP JUMP JUMPDEST PUSH1 0x0 DUP1 PUSH1 0x0 DUP1 PUSH1 0x0 DUP1 PUSH1 0x0 PUSH1 0xA0 DUP9 DUP11 SUB SLT ISZERO PUSH2 0x1C37 JUMPI PUSH2 0x1C36 PUSH2 0x17B1 JUMP JUMPDEST JUMPDEST PUSH1 0x0 PUSH2 0x1C45 DUP11 DUP3 DUP12 ADD PUSH2 0x1812 JUMP JUMPDEST SWAP8 POP POP PUSH1 0x20 PUSH2 0x1C56 DUP11 DUP3 DUP12 ADD PUSH2 0x18FE JUMP JUMPDEST SWAP7 POP POP PUSH1 0x40 PUSH2 0x1C67 DUP11 DUP3 DUP12 ADD PUSH2 0x1812 JUMP JUMPDEST SWAP6 POP POP PUSH1 0x60 DUP9 ADD CALLDATALOAD PUSH8 0xFFFFFFFFFFFFFFFF DUP2 GT ISZERO PUSH2 0x1C88 JUMPI PUSH2 0x1C87 PUSH2 0x17B6 JUMP JUMPDEST JUMPDEST PUSH2 0x1C94 DUP11 DUP3 DUP12 ADD PUSH2 0x1B6C JUMP JUMPDEST SWAP5 POP SWAP5 POP POP PUSH1 0x80 DUP9 ADD CALLDATALOAD PUSH8 0xFFFFFFFFFFFFFFFF DUP2 GT ISZERO PUSH2 0x1CB7 JUMPI PUSH2 0x1CB6 PUSH2 0x17B6 JUMP JUMPDEST JUMPDEST PUSH2 0x1CC3 DUP11 DUP3 DUP12 ADD PUSH2 0x1BC2 JUMP JUMPDEST SWAP3 POP SWAP3 POP POP SWAP3 SWAP6 SWAP9 SWAP2 SWAP5 SWAP8 POP SWAP3 SWAP6 POP JUMP JUMPDEST PUSH1 0x0 DUP1 PUSH1 0x0 DUP1 PUSH1 0x0 DUP1 PUSH1 0x80 DUP8 DUP10 SUB SLT ISZERO PUSH2 0x1CF1 JUMPI PUSH2 0x1CF0 PUSH2 0x17B1 JUMP JUMPDEST JUMPDEST PUSH1 0x0 PUSH2 0x1CFF DUP10 DUP3 DUP11 ADD PUSH2 0x1812 JUMP JUMPDEST SWAP7 POP POP PUSH1 0x20 PUSH2 0x1D10 DUP10 DUP3 DUP11 ADD PUSH2 0x18FE JUMP JUMPDEST SWAP6 POP POP PUSH1 0x40 DUP8 ADD CALLDATALOAD PUSH8 0xFFFFFFFFFFFFFFFF DUP2 GT ISZERO PUSH2 0x1D31 JUMPI PUSH2 0x1D30 PUSH2 0x17B6 JUMP JUMPDEST JUMPDEST PUSH2 0x1D3D DUP10 DUP3 DUP11 ADD PUSH2 0x1B6C JUMP JUMPDEST SWAP5 POP SWAP5 POP POP PUSH1 0x60 DUP8 ADD CALLDATALOAD PUSH8 0xFFFFFFFFFFFFFFFF DUP2 GT ISZERO PUSH2 0x1D60 JUMPI PUSH2 0x1D5F PUSH2 0x17B6 JUMP JUMPDEST JUMPDEST PUSH2 0x1D6C DUP10 DUP3 DUP11 ADD PUSH2 0x1BC2 JUMP JUMPDEST SWAP3 POP SWAP3 POP POP SWAP3 SWAP6 POP SWAP3 SWAP6 POP SWAP3 SWAP6 JUMP JUMPDEST PUSH1 0x0 DUP2 MLOAD SWAP1 POP SWAP2 SWAP1 POP JUMP JUMPDEST PUSH1 0x0 DUP3 DUP3 MSTORE PUSH1 0x20 DUP3 ADD SWAP1 POP SWAP3 SWAP2 POP POP JUMP JUMPDEST PUSH1 0x0 JUMPDEST DUP4 DUP2 LT ISZERO PUSH2 0x1DB5 JUMPI DUP1 DUP3 ADD MLOAD DUP2 DUP5 ADD MSTORE PUSH1 0x20 DUP2 ADD SWAP1 POP PUSH2 0x1D9A JUMP JUMPDEST DUP4 DUP2 GT ISZERO PUSH2 0x1DC4 JUMPI PUSH1 0x0 DUP5 DUP5 ADD MSTORE JUMPDEST POP POP POP POP JUMP JUMPDEST PUSH1 0x0 PUSH2 0x1DD5 DUP3 PUSH2 0x1D7B JUMP JUMPDEST PUSH2 0x1DDF DUP2 DUP6 PUSH2 0x1D86 JUMP JUMPDEST SWAP4 POP PUSH2 0x1DEF DUP2 DUP6 PUSH1 0x20 DUP7 ADD PUSH2 0x1D97 JUMP JUMPDEST PUSH2 0x1DF8 DUP2 PUSH2 0x19CA JUMP JUMPDEST DUP5 ADD SWAP2 POP POP SWAP3 SWAP2 POP POP JUMP JUMPDEST PUSH1 0x0 PUSH1 0x60 DUP3 ADD SWAP1 POP PUSH2 0x1E18 PUSH1 0x0 DUP4 ADD DUP7 PUSH2 0x1873 JUMP JUMPDEST DUP2 DUP2 SUB PUSH1 0x20 DUP4 ADD MSTORE PUSH2 0x1E2A DUP2 DUP6 PUSH2 0x1DCA JUMP JUMPDEST SWAP1 POP PUSH2 0x1E39 PUSH1 0x40 DUP4 ADD DUP5 PUSH2 0x1882 JUMP JUMPDEST SWAP5 SWAP4 POP POP POP POP JUMP JUMPDEST PUSH1 0x0 PUSH1 0x20 DUP3 ADD SWAP1 POP DUP2 DUP2 SUB PUSH1 0x0 DUP4 ADD MSTORE PUSH2 0x1E5B DUP2 DUP5 PUSH2 0x1DCA JUMP JUMPDEST SWAP1 POP SWAP3 SWAP2 POP POP JUMP JUMPDEST PUSH32 0x4E487B7100000000000000000000000000000000000000000000000000000000 PUSH1 0x0 MSTORE PUSH1 0x11 PUSH1 0x4 MSTORE PUSH1 0x24 PUSH1 0x0 REVERT JUMPDEST PUSH1 0x0 PUSH2 0x1E9D DUP3 PUSH2 0x17F1 JUMP JUMPDEST SWAP2 POP PUSH2 0x1EA8 DUP4 PUSH2 0x17F1 JUMP JUMPDEST SWAP3 POP DUP3 DUP3 LT ISZERO PUSH2 0x1EBB JUMPI PUSH2 0x1EBA PUSH2 0x1E63 JUMP JUMPDEST JUMPDEST DUP3 DUP3 SUB SWAP1 POP SWAP3 SWAP2 POP POP JUMP JUMPDEST PUSH32 0x4E487B7100000000000000000000000000000000000000000000000000000000 PUSH1 0x0 MSTORE PUSH1 0x12 PUSH1 0x4 MSTORE PUSH1 0x24 PUSH1 0x0 REVERT JUMPDEST PUSH1 0x0 PUSH2 0x1F00 DUP3 PUSH2 0x17F1 JUMP JUMPDEST SWAP2 POP PUSH2 0x1F0B DUP4 PUSH2 0x17F1 JUMP JUMPDEST SWAP3 POP DUP3 PUSH2 0x1F1B JUMPI PUSH2 0x1F1A PUSH2 0x1EC6 JUMP JUMPDEST JUMPDEST DUP3 DUP3 DIV SWAP1 POP SWAP3 SWAP2 POP POP JUMP JUMPDEST PUSH1 0x0 PUSH2 0x1F31 DUP3 PUSH2 0x17F1 JUMP JUMPDEST SWAP2 POP PUSH2 0x1F3C DUP4 PUSH2 0x17F1 JUMP JUMPDEST SWAP3 POP DUP3 PUSH32 0xFFFFFFFFFFFFFFFFFFFFFFFFFFFFFFFFFFFFFFFFFFFFFFFFFFFFFFFFFFFFFFFF SUB DUP3 GT ISZERO PUSH2 0x1F71 JUMPI PUSH2 0x1F70 PUSH2 0x1E63 JUMP JUMPDEST JUMPDEST DUP3 DUP3 ADD SWAP1 POP SWAP3 SWAP2 POP POP JUMP JUMPDEST PUSH1 0x0 DUP2 SWAP1 POP SWAP2 SWAP1 POP JUMP JUMPDEST PUSH1 0x0 DUP2 PUSH1 0x0 SHL SWAP1 POP SWAP2 SWAP1 POP JUMP JUMPDEST PUSH1 0x0 PUSH2 0x1FAE PUSH2 0x1FA9 PUSH2 0x1FA4 DUP5 PUSH2 0x1F7C JUMP JUMPDEST PUSH2 0x1F86 JUMP JUMPDEST PUSH2 0x17BB JUMP JUMPDEST SWAP1 POP SWAP2 SWAP1 POP JUMP JUMPDEST PUSH2 0x1FBE DUP2 PUSH2 0x1F93 JUMP JUMPDEST DUP3 MSTORE POP POP JUMP JUMPDEST PUSH1 0x0 PUSH1 0x20 DUP3 ADD SWAP1 POP PUSH2 0x1FD9 PUSH1 0x0 DUP4 ADD DUP5 PUSH2 0x1FB5 JUMP JUMPDEST SWAP3 SWAP2 POP POP JUMP JUMPDEST PUSH1 0x0 DUP2 MLOAD SWAP1 POP PUSH2 0x1FEE DUP2 PUSH2 0x18E7 JUMP JUMPDEST SWAP3 SWAP2 POP POP JUMP JUMPDEST PUSH1 0x0 PUSH1 0x20 DUP3 DUP5 SUB SLT ISZERO PUSH2 0x200A JUMPI PUSH2 0x2009 PUSH2 0x17B1 JUMP JUMPDEST JUMPDEST PUSH1 0x0 PUSH2 0x2018 DUP5 DUP3 DUP6 ADD PUSH2 0x1FDF JUMP JUMPDEST SWAP2 POP POP SWAP3 SWAP2 POP POP JUMP JUMPDEST PUSH1 0x0 DUP2 SWAP1 POP SWAP2 SWAP1 POP JUMP JUMPDEST PUSH2 0x203C PUSH2 0x2037 DUP3 PUSH2 0x17BB JUMP JUMPDEST PUSH2 0x2021 JUMP JUMPDEST DUP3 MSTORE POP POP JUMP JUMPDEST PUSH1 0x0 DUP2 SWAP1 POP SWAP2 SWAP1 POP JUMP JUMPDEST PUSH2 0x205D PUSH2 0x2058 DUP3 PUSH2 0x17F1 JUMP JUMPDEST PUSH2 0x2042 JUMP JUMPDEST DUP3 MSTORE POP POP JUMP JUMPDEST PUSH1 0x0 PUSH2 0x206F DUP3 DUP6 PUSH2 0x202B JUMP JUMPDEST PUSH1 0x20 DUP3 ADD SWAP2 POP PUSH2 0x207F DUP3 DUP5 PUSH2 0x204C JUMP JUMPDEST PUSH1 0x20 DUP3 ADD SWAP2 POP DUP2 SWAP1 POP SWAP4 SWAP3 POP POP POP JUMP JUMPDEST PUSH1 0x0 PUSH8 0xFFFFFFFFFFFFFFFF DUP3 GT ISZERO PUSH2 0x20AA JUMPI PUSH2 0x20A9 PUSH2 0x19DB JUMP JUMPDEST JUMPDEST PUSH1 0x20 DUP3 MUL SWAP1 POP PUSH1 0x20 DUP2 ADD SWAP1 POP SWAP2 SWAP1 POP JUMP JUMPDEST PUSH1 0x0 DUP2 MLOAD SWAP1 POP PUSH2 0x20CA DUP2 PUSH2 0x17FB JUMP JUMPDEST SWAP3 SWAP2 POP POP JUMP JUMPDEST PUSH1 0x0 PUSH2 0x20E3 PUSH2 0x20DE DUP5 PUSH2 0x208F JUMP JUMPDEST PUSH2 0x1A3B JUMP JUMPDEST SWAP1 POP DUP1 DUP4 DUP3 MSTORE PUSH1 0x20 DUP3 ADD SWAP1 POP PUSH1 0x20 DUP5 MUL DUP4 ADD DUP6 DUP2 GT ISZERO PUSH2 0x2106 JUMPI PUSH2 0x2105 PUSH2 0x1A82 JUMP JUMPDEST JUMPDEST DUP4 JUMPDEST DUP2 DUP2 LT ISZERO PUSH2 0x212F JUMPI DUP1 PUSH2 0x211B DUP9 DUP3 PUSH2 0x20BB JUMP JUMPDEST DUP5 MSTORE PUSH1 0x20 DUP5 ADD SWAP4 POP POP PUSH1 0x20 DUP2 ADD SWAP1 POP PUSH2 0x2108 JUMP JUMPDEST POP POP POP SWAP4 SWAP3 POP POP POP JUMP JUMPDEST PUSH1 0x0 DUP3 PUSH1 0x1F DUP4 ADD SLT PUSH2 0x214E JUMPI PUSH2 0x214D PUSH2 0x19C5 JUMP JUMPDEST JUMPDEST DUP2 MLOAD PUSH2 0x215E DUP5 DUP3 PUSH1 0x20 DUP7 ADD PUSH2 0x20D0 JUMP JUMPDEST SWAP2 POP POP SWAP3 SWAP2 POP POP JUMP JUMPDEST PUSH1 0x0 PUSH1 0x20 DUP3 DUP5 SUB SLT ISZERO PUSH2 0x217D JUMPI PUSH2 0x217C PUSH2 0x17B1 JUMP JUMPDEST JUMPDEST PUSH1 0x0 DUP3 ADD MLOAD PUSH8 0xFFFFFFFFFFFFFFFF DUP2 GT ISZERO PUSH2 0x219B JUMPI PUSH2 0x219A PUSH2 0x17B6 JUMP JUMPDEST JUMPDEST PUSH2 0x21A7 DUP5 DUP3 DUP6 ADD PUSH2 0x2139 JUMP JUMPDEST SWAP2 POP POP SWAP3 SWAP2 POP POP JUMP JUMPDEST PUSH2 0x21B9 DUP2 PUSH2 0x18D5 JUMP JUMPDEST DUP3 MSTORE POP POP JUMP JUMPDEST PUSH1 0x0 PUSH1 0x40 DUP3 ADD SWAP1 POP PUSH2 0x21D4 PUSH1 0x0 DUP4 ADD DUP6 PUSH2 0x1882 JUMP JUMPDEST PUSH2 0x21E1 PUSH1 0x20 DUP4 ADD DUP5 PUSH2 0x21B0 JUMP JUMPDEST SWAP4 SWAP3 POP POP POP JUMP JUMPDEST PUSH1 0x0 DUP3 DUP3 MSTORE PUSH1 0x20 DUP3 ADD SWAP1 POP SWAP3 SWAP2 POP POP JUMP JUMPDEST PUSH32 0x43726F7373436861696E42616C616E6365000000000000000000000000000000 PUSH1 0x0 DUP3 ADD MSTORE POP JUMP JUMPDEST PUSH1 0x0 PUSH2 0x222F PUSH1 0x11 DUP4 PUSH2 0x21E8 JUMP JUMPDEST SWAP2 POP PUSH2 0x223A DUP3 PUSH2 0x21F9 JUMP JUMPDEST PUSH1 0x20 DUP3 ADD SWAP1 POP SWAP2 SWAP1 POP JUMP JUMPDEST PUSH1 0x0 PUSH1 0x40 DUP3 ADD SWAP1 POP DUP2 DUP2 SUB PUSH1 0x0 DUP4 ADD MSTORE PUSH2 0x225E DUP2 PUSH2 0x2222 JUMP JUMPDEST SWAP1 POP DUP2 DUP2 SUB PUSH1 0x20 DUP4 ADD MSTORE PUSH2 0x2272 DUP2 DUP5 PUSH2 0x1DCA JUMP JUMPDEST SWAP1 POP SWAP3 SWAP2 POP POP JUMP JUMPDEST PUSH1 0x0 DUP2 MLOAD SWAP1 POP PUSH2 0x2289 DUP2 PUSH2 0x17C5 JUMP JUMPDEST SWAP3 SWAP2 POP POP JUMP JUMPDEST PUSH1 0x0 PUSH1 0x20 DUP3 DUP5 SUB SLT ISZERO PUSH2 0x22A5 JUMPI PUSH2 0x22A4 PUSH2 0x17B1 JUMP JUMPDEST JUMPDEST PUSH1 0x0 PUSH2 0x22B3 DUP5 DUP3 DUP6 ADD PUSH2 0x227A JUMP JUMPDEST SWAP2 POP POP SWAP3 SWAP2 POP POP JUMP JUMPDEST PUSH1 0x0 PUSH1 0x20 DUP3 DUP5 SUB SLT ISZERO PUSH2 0x22D2 JUMPI PUSH2 0x22D1 PUSH2 0x17B1 JUMP JUMPDEST JUMPDEST PUSH1 0x0 PUSH2 0x22E0 DUP5 DUP3 DUP6 ADD PUSH2 0x20BB JUMP JUMPDEST SWAP2 POP POP SWAP3 SWAP2 POP POP JUMP JUMPDEST PUSH32 0x4E487B7100000000000000000000000000000000000000000000000000000000 PUSH1 0x0 MSTORE PUSH1 0x32 PUSH1 0x4 MSTORE PUSH1 0x24 PUSH1 0x0 REVERT JUMPDEST PUSH1 0x0 PUSH2 0x2323 DUP3 PUSH2 0x17F1 JUMP JUMPDEST SWAP2 POP PUSH2 0x232E DUP4 PUSH2 0x17F1 JUMP JUMPDEST SWAP3 POP DUP3 PUSH2 0x233E JUMPI PUSH2 0x233D PUSH2 0x1EC6 JUMP JUMPDEST JUMPDEST DUP3 DUP3 MOD SWAP1 POP SWAP3 SWAP2 POP POP JUMP JUMPDEST PUSH1 0x0 PUSH2 0x2355 DUP3 DUP6 PUSH2 0x202B JUMP JUMPDEST PUSH1 0x20 DUP3 ADD SWAP2 POP PUSH2 0x2365 DUP3 DUP5 PUSH2 0x202B JUMP JUMPDEST PUSH1 0x20 DUP3 ADD SWAP2 POP DUP2 SWAP1 POP SWAP4 SWAP3 POP POP POP JUMP JUMPDEST PUSH1 0x0 PUSH1 0x40 DUP3 ADD SWAP1 POP PUSH2 0x238A PUSH1 0x0 DUP4 ADD DUP6 PUSH2 0x21B0 JUMP JUMPDEST PUSH2 0x2397 PUSH1 0x20 DUP4 ADD DUP5 PUSH2 0x1882 JUMP JUMPDEST SWAP4 SWAP3 POP POP POP JUMP JUMPDEST PUSH1 0x0 PUSH1 0x40 DUP3 ADD SWAP1 POP PUSH2 0x23B3 PUSH1 0x0 DUP4 ADD DUP6 PUSH2 0x1953 JUMP JUMPDEST PUSH2 0x23C0 PUSH1 0x20 DUP4 ADD DUP5 PUSH2 0x1882 JUMP JUMPDEST SWAP4 SWAP3 POP POP POP JUMP JUMPDEST PUSH1 0x0 DUP1 REVERT JUMPDEST PUSH1 0x0 PUSH8 0xFFFFFFFFFFFFFFFF DUP3 GT ISZERO PUSH2 0x23E7 JUMPI PUSH2 0x23E6 PUSH2 0x19DB JUMP JUMPDEST JUMPDEST PUSH2 0x23F0 DUP3 PUSH2 0x19CA JUMP JUMPDEST SWAP1 POP PUSH1 0x20 DUP2 ADD SWAP1 POP SWAP2 SWAP1 POP JUMP JUMPDEST PUSH1 0x0 PUSH2 0x2410 PUSH2 0x240B DUP5 PUSH2 0x23CC JUMP JUMPDEST PUSH2 0x1A3B JUMP JUMPDEST SWAP1 POP DUP3 DUP2 MSTORE PUSH1 0x20 DUP2 ADD DUP5 DUP5 DUP5 ADD GT ISZERO PUSH2 0x242C JUMPI PUSH2 0x242B PUSH2 0x23C7 JUMP JUMPDEST JUMPDEST PUSH2 0x2437 DUP5 DUP3 DUP6 PUSH2 0x1D97 JUMP JUMPDEST POP SWAP4 SWAP3 POP POP POP JUMP JUMPDEST PUSH1 0x0 DUP3 PUSH1 0x1F DUP4 ADD SLT PUSH2 0x2454 JUMPI PUSH2 0x2453 PUSH2 0x19C5 JUMP JUMPDEST JUMPDEST DUP2 MLOAD PUSH2 0x2464 DUP5 DUP3 PUSH1 0x20 DUP7 ADD PUSH2 0x23FD JUMP JUMPDEST SWAP2 POP POP SWAP3 SWAP2 POP POP JUMP JUMPDEST PUSH1 0x0 PUSH1 0x20 DUP3 DUP5 SUB SLT ISZERO PUSH2 0x2483 JUMPI PUSH2 0x2482 PUSH2 0x17B1 JUMP JUMPDEST JUMPDEST PUSH1 0x0 DUP3 ADD MLOAD PUSH8 0xFFFFFFFFFFFFFFFF DUP2 GT ISZERO PUSH2 0x24A1 JUMPI PUSH2 0x24A0 PUSH2 0x17B6 JUMP JUMPDEST JUMPDEST PUSH2 0x24AD DUP5 DUP3 DUP6 ADD PUSH2 0x243F JUMP JUMPDEST SWAP2 POP POP SWAP3 SWAP2 POP POP JUMP JUMPDEST PUSH1 0x0 PUSH2 0x24C1 DUP3 PUSH2 0x17F1 JUMP JUMPDEST SWAP2 POP PUSH32 0xFFFFFFFFFFFFFFFFFFFFFFFFFFFFFFFFFFFFFFFFFFFFFFFFFFFFFFFFFFFFFFFF DUP3 EQ ISZERO PUSH2 0x24F4 JUMPI PUSH2 0x24F3 PUSH2 0x1E63 JUMP JUMPDEST JUMPDEST PUSH1 0x1 DUP3 ADD SWAP1 POP SWAP2 SWAP1 POP JUMP INVALID LOG2 PUSH5 0x6970667358 0x22 SLT KECCAK256 0xB5 0x49 0xB6 0xCD SDIV DUP1 PUSH23 0x373B90C35EFC9798A2833F5FDACC2E72A4136BB3C86555 CALLVALUE SWAP15 PUSH5 0x736F6C6343 STOP ADDMOD MULMOD STOP CALLER "},"methodIdentifiers":{"GetRootHash(bytes32[])":"7ea99243","checkProof(uint256,address,bytes32[],bool[])":"a5606e9f","getCrossChainBalances(uint256,address)":"690665ae","getCurrentValue(bytes32)":"adf1639d","getDataBefore(bytes32,uint256)":"a792765f","getIndexForDataBefore(bytes32,uint256)":"29449085","getNewValueCountbyQueryId(bytes32)":"77b03e0d","getTimestampbyQueryIdandIndex(bytes32,uint256)":"ce5e11bf","isInDispute(bytes32,uint256)":"44e87f91","retrieveData(bytes32,uint256)":"c5958af9","tellor()":"1959ad5b","verifyBalance(uint256,address,uint256,bytes32[],bool[])":"a087e98b"}}}}}