{"usingtellor/contracts/UsingTellor.sol":{"UsingTellor":{"abi":[{"inputs":[{"internalType":"address payable","name":"_tellor","type":"address"}],"stateMutability":"nonpayable","type":"constructor"},{"inputs":[{"internalType":"bytes32","name":"_queryId","type":"bytes32"}],"name":"getCurrentValue","outputs":[{"internalType":"bool","name":"_ifRetrieve","type":"bool"},{"internalType":"bytes","name":"_value","type":"bytes"},{"internalType":"uint256","name":"_timestampRetrieved","type":"uint256"}],"stateMutability":"view","type":"function"},{"inputs":[{"internalType":"bytes32","name":"_queryId","type":"bytes32"},{"internalType":"uint256","name":"_timestamp","type":"uint256"}],"name":"getDataBefore","outputs":[{"internalType":"bool","name":"_ifRetrieve","type":"bool"},{"internalType":"bytes","name":"_value","type":"bytes"},{"internalType":"uint256","name":"_timestampRetrieved","type":"uint256"}],"stateMutability":"view","type":"function"},{"inputs":[{"internalType":"bytes32","name":"_queryId","type":"bytes32"},{"internalType":"uint256","name":"_timestamp","type":"uint256"}],"name":"getIndexForDataBefore","outputs":[{"internalType":"bool","name":"_found","type":"bool"},{"internalType":"uint256","name":"_index","type":"uint256"}],"stateMutability":"view","type":"function"},{"inputs":[{"internalType":"bytes32","name":"_queryId","type":"bytes32"}],"name":"getNewValueCountbyQueryId","outputs":[{"internalType":"uint256","name":"","type":"uint256"}],"stateMutability":"view","type":"function"},{"inputs":[{"internalType":"bytes32","name":"_queryId","type":"bytes32"},{"internalType":"uint256","name":"_index","type":"uint256"}],"name":"getTimestampbyQueryIdandIndex","outputs":[{"internalType":"uint256","name":"","type":"uint256"}],"stateMutability":"view","type":"function"},{"inputs":[{"internalType":"bytes32","name":"_queryId","type":"bytes32"},{"internalType":"uint256","name":"_timestamp","type":"uint256"}],"name":"isInDispute","outputs":[{"internalType":"bool","name":"","type":"bool"}],"stateMutability":"view","type":"function"},{"inputs":[{"internalType":"bytes32","name":"_queryId","type":"bytes32"},{"internalType":"uint256","name":"_timestamp","type":"uint256"}],"name":"retrieveData","outputs":[{"internalType":"bytes","name":"","type":"bytes"}],"stateMutability":"view","type":"function"},{"inputs":[],"name":"tellor","outputs":[{"internalType":"contract ITellor","name":"","type":"address"}],"stateMutability":"view","type":"function"}],"evm":{"bytecode":{"linkReferences":{},"object":"60806040523480156200001157600080fd5b5060405162001893380380620018938339818101604052810190620000379190620000e8565b806000806101000a81548173ffffffffffffffffffffffffffffffffffffffff021916908373ffffffffffffffffffffffffffffffffffffffff160217905550506200011a565b600080fd5b600073ffffffffffffffffffffffffffffffffffffffff82169050919050565b6000620000b08262000083565b9050919050565b620000c281620000a3565b8114620000ce57600080fd5b50565b600081519050620000e281620000b7565b92915050565b6000602082840312156200010157620001006200007e565b5b60006200011184828501620000d1565b91505092915050565b611769806200012a6000396000f3fe608060405234801561001057600080fd5b50600436106100885760003560e01c8063a792765f1161005b578063a792765f1461013c578063adf1639d1461016e578063c5958af9146101a0578063ce5e11bf146101d057610088565b80631959ad5b1461008d57806329449085146100ab57806344e87f91146100dc57806377b03e0d1461010c575b600080fd5b610095610200565b6040516100a29190610f3f565b60405180910390f35b6100c560048036038101906100c09190610fda565b610224565b6040516100d3929190611044565b60405180910390f35b6100f660048036038101906100f19190610fda565b61039f565b604051610103919061106d565b60405180910390f35b61012660048036038101906101219190611088565b6106a2565b60405161013391906110b5565b60405180910390f35b61015660048036038101906101519190610fda565b6108d7565b60405161016593929190611169565b60405180910390f35b61018860048036038101906101839190611088565b610989565b60405161019793929190611169565b60405180910390f35b6101ba60048036038101906101b59190610fda565b610a42565b6040516101c791906111a7565b60405180910390f35b6101ea60048036038101906101e59190610fda565b610c86565b6040516101f791906110b5565b60405180910390f35b60008054906101000a900473ffffffffffffffffffffffffffffffffffffffff1681565b6000806000610232856106a2565b9050600081111561038f5760008060009050600060018461025391906111f8565b905060006102618984610c86565b905087811061027b57600080965096505050505050610398565b6102858983610c86565b9050878110156102a057600182965096505050505050610398565b5b60011561038a57826001600285856102b991906111f8565b6102c3919061125b565b6102cd919061128c565b6102d7919061128c565b93506102e38985610c86565b9050878110156103355760006103058a600187610300919061128c565b610c86565b90508881106103205760018597509750505050505050610398565b60018561032d919061128c565b935050610385565b600061034d8a60018761034891906111f8565b610c86565b905088811015610374576001808661036591906111f8565b97509750505050505050610398565b60018561038191906111f8565b9250505b6102a1565b505050505b60008092509250505b9250929050565b6000807318431fd88adf138e8b979a7246eb58ea7126ea1673ffffffffffffffffffffffffffffffffffffffff1660008054906101000a900473ffffffffffffffffffffffffffffffffffffffff1673ffffffffffffffffffffffffffffffffffffffff16148061046f575073e8218cacb0a5421bc6409e498d9f8cc8869945ea73ffffffffffffffffffffffffffffffffffffffff1660008054906101000a900473ffffffffffffffffffffffffffffffffffffffff1673ffffffffffffffffffffffffffffffffffffffff16145b1561053e5760007388df592f8eb5d7bd38bfef7deb0fbc02cf3778a090508073ffffffffffffffffffffffffffffffffffffffff1663699f200f7fefa19baa864049f50491093580c5433e97e8d5e41f8db1a61108b4fa44cacd936040518263ffffffff1660e01b81526004016104e6919061132a565b60206040518083038186803b1580156104fe57600080fd5b505afa158015610512573d6000803e3d6000fd5b505050506040513d601f19601f820116820180604052508101906105369190611383565b9150506105df565b60008054906101000a900473ffffffffffffffffffffffffffffffffffffffff1673ffffffffffffffffffffffffffffffffffffffff16635aa6e6756040518163ffffffff1660e01b815260040160206040518083038186803b1580156105a457600080fd5b505afa1580156105b8573d6000803e3d6000fd5b505050506040513d601f19601f820116820180604052508101906105dc9190611383565b90505b60008173ffffffffffffffffffffffffffffffffffffffff1663248638e586866040516020016106109291906113f2565b604051602081830303815290604052805190602001206040518263ffffffff1660e01b8152600401610642919061142d565b60006040518083038186803b15801561065a57600080fd5b505afa15801561066e573d6000803e3d6000fd5b505050506040513d6000823e3d601f19601f8201168201806040525081019061069791906115a5565b511191505092915050565b60007318431fd88adf138e8b979a7246eb58ea7126ea1673ffffffffffffffffffffffffffffffffffffffff1660008054906101000a900473ffffffffffffffffffffffffffffffffffffffff1673ffffffffffffffffffffffffffffffffffffffff161480610771575073e8218cacb0a5421bc6409e498d9f8cc8869945ea73ffffffffffffffffffffffffffffffffffffffff1660008054906101000a900473ffffffffffffffffffffffffffffffffffffffff1673ffffffffffffffffffffffffffffffffffffffff16145b156108265760008054906101000a900473ffffffffffffffffffffffffffffffffffffffff1673ffffffffffffffffffffffffffffffffffffffff166335e72432836040518263ffffffff1660e01b81526004016107cf919061142d565b60206040518083038186803b1580156107e757600080fd5b505afa1580156107fb573d6000803e3d6000fd5b505050506040513d601f19601f8201168201806040525081019061081f91906115ee565b90506108d2565b60008054906101000a900473ffffffffffffffffffffffffffffffffffffffff1673ffffffffffffffffffffffffffffffffffffffff166377b03e0d836040518263ffffffff1660e01b815260040161087f919061142d565b60206040518083038186803b15801561089757600080fd5b505afa1580156108ab573d6000803e3d6000fd5b505050506040513d601f19601f820116820180604052508101906108cf91906115ee565b90505b919050565b6000606060008060006108ea8787610224565b91509150816109145760006040518060200160405280600081525060009450945094505050610982565b60006109208883610c86565b905061092c8882610a42565b945060405180602001604052806000815250805190602001208580519060200120146109645760018582955095509550505050610982565b60006040518060200160405280600081525060009550955095505050505b9250925092565b60006060600080610999856106a2565b905060008114156109c457600060405180602001604052806000815250600093509350935050610a3b565b60006109dc866001846109d791906111f8565b610c86565b90506109e88682610a42565b93506040518060200160405280600081525080519060200120848051906020012014610a1f57600184829450945094505050610a3b565b6000604051806020016040528060008152508294509450945050505b9193909250565b60607318431fd88adf138e8b979a7246eb58ea7126ea1673ffffffffffffffffffffffffffffffffffffffff1660008054906101000a900473ffffffffffffffffffffffffffffffffffffffff1673ffffffffffffffffffffffffffffffffffffffff161480610b11575073e8218cacb0a5421bc6409e498d9f8cc8869945ea73ffffffffffffffffffffffffffffffffffffffff1660008054906101000a900473ffffffffffffffffffffffffffffffffffffffff1673ffffffffffffffffffffffffffffffffffffffff16145b15610bcd5760008054906101000a900473ffffffffffffffffffffffffffffffffffffffff1673ffffffffffffffffffffffffffffffffffffffff16630b2d2b0d84846040518363ffffffff1660e01b8152600401610b7192919061161b565b60006040518083038186803b158015610b8957600080fd5b505afa158015610b9d573d6000803e3d6000fd5b505050506040513d6000823e3d601f19601f82011682018060405250810190610bc691906116ea565b9050610c80565b60008054906101000a900473ffffffffffffffffffffffffffffffffffffffff1673ffffffffffffffffffffffffffffffffffffffff1663c5958af984846040518363ffffffff1660e01b8152600401610c2892919061161b565b60006040518083038186803b158015610c4057600080fd5b505afa158015610c54573d6000803e3d6000fd5b505050506040513d6000823e3d601f19601f82011682018060405250810190610c7d91906116ea565b90505b92915050565b60007318431fd88adf138e8b979a7246eb58ea7126ea1673ffffffffffffffffffffffffffffffffffffffff1660008054906101000a900473ffffffffffffffffffffffffffffffffffffffff1673ffffffffffffffffffffffffffffffffffffffff161480610d55575073e8218cacb0a5421bc6409e498d9f8cc8869945ea73ffffffffffffffffffffffffffffffffffffffff1660008054906101000a900473ffffffffffffffffffffffffffffffffffffffff1673ffffffffffffffffffffffffffffffffffffffff16145b15610e0c5760008054906101000a900473ffffffffffffffffffffffffffffffffffffffff1673ffffffffffffffffffffffffffffffffffffffff16637c37b8b484846040518363ffffffff1660e01b8152600401610db592919061161b565b60206040518083038186803b158015610dcd57600080fd5b505afa158015610de1573d6000803e3d6000fd5b505050506040513d601f19601f82011682018060405250810190610e0591906115ee565b9050610eba565b60008054906101000a900473ffffffffffffffffffffffffffffffffffffffff1673ffffffffffffffffffffffffffffffffffffffff1663ce5e11bf84846040518363ffffffff1660e01b8152600401610e6792919061161b565b60206040518083038186803b158015610e7f57600080fd5b505afa158015610e93573d6000803e3d6000fd5b505050506040513d601f19601f82011682018060405250810190610eb791906115ee565b90505b92915050565b600073ffffffffffffffffffffffffffffffffffffffff82169050919050565b6000819050919050565b6000610f05610f00610efb84610ec0565b610ee0565b610ec0565b9050919050565b6000610f1782610eea565b9050919050565b6000610f2982610f0c565b9050919050565b610f3981610f1e565b82525050565b6000602082019050610f546000830184610f30565b92915050565b6000604051905090565b600080fd5b600080fd5b6000819050919050565b610f8181610f6e565b8114610f8c57600080fd5b50565b600081359050610f9e81610f78565b92915050565b6000819050919050565b610fb781610fa4565b8114610fc257600080fd5b50565b600081359050610fd481610fae565b92915050565b60008060408385031215610ff157610ff0610f64565b5b6000610fff85828601610f8f565b925050602061101085828601610fc5565b9150509250929050565b60008115159050919050565b61102f8161101a565b82525050565b61103e81610fa4565b82525050565b60006040820190506110596000830185611026565b6110666020830184611035565b9392505050565b60006020820190506110826000830184611026565b92915050565b60006020828403121561109e5761109d610f64565b5b60006110ac84828501610f8f565b91505092915050565b60006020820190506110ca6000830184611035565b92915050565b600081519050919050565b600082825260208201905092915050565b60005b8381101561110a5780820151818401526020810190506110ef565b83811115611119576000848401525b50505050565b6000601f19601f8301169050919050565b600061113b826110d0565b61114581856110db565b93506111558185602086016110ec565b61115e8161111f565b840191505092915050565b600060608201905061117e6000830186611026565b81810360208301526111908185611130565b905061119f6040830184611035565b949350505050565b600060208201905081810360008301526111c18184611130565b905092915050565b7f4e487b7100000000000000000000000000000000000000000000000000000000600052601160045260246000fd5b600061120382610fa4565b915061120e83610fa4565b925082821015611221576112206111c9565b5b828203905092915050565b7f4e487b7100000000000000000000000000000000000000000000000000000000600052601260045260246000fd5b600061126682610fa4565b915061127183610fa4565b9250826112815761128061122c565b5b828204905092915050565b600061129782610fa4565b91506112a283610fa4565b9250827fffffffffffffffffffffffffffffffffffffffffffffffffffffffffffffffff038211156112d7576112d66111c9565b5b828201905092915050565b6000819050919050565b60008160001b9050919050565b600061131461130f61130a846112e2565b6112ec565b610f6e565b9050919050565b611324816112f9565b82525050565b600060208201905061133f600083018461131b565b92915050565b600061135082610ec0565b9050919050565b61136081611345565b811461136b57600080fd5b50565b60008151905061137d81611357565b92915050565b60006020828403121561139957611398610f64565b5b60006113a78482850161136e565b91505092915050565b6000819050919050565b6113cb6113c682610f6e565b6113b0565b82525050565b6000819050919050565b6113ec6113e782610fa4565b6113d1565b82525050565b60006113fe82856113ba565b60208201915061140e82846113db565b6020820191508190509392505050565b61142781610f6e565b82525050565b6000602082019050611442600083018461141e565b92915050565b600080fd5b7f4e487b7100000000000000000000000000000000000000000000000000000000600052604160045260246000fd5b6114858261111f565b810181811067ffffffffffffffff821117156114a4576114a361144d565b5b80604052505050565b60006114b7610f5a565b90506114c3828261147c565b919050565b600067ffffffffffffffff8211156114e3576114e261144d565b5b602082029050602081019050919050565b600080fd5b60008151905061150881610fae565b92915050565b600061152161151c846114c8565b6114ad565b90508083825260208201905060208402830185811115611544576115436114f4565b5b835b8181101561156d578061155988826114f9565b845260208401935050602081019050611546565b5050509392505050565b600082601f83011261158c5761158b611448565b5b815161159c84826020860161150e565b91505092915050565b6000602082840312156115bb576115ba610f64565b5b600082015167ffffffffffffffff8111156115d9576115d8610f69565b5b6115e584828501611577565b91505092915050565b60006020828403121561160457611603610f64565b5b6000611612848285016114f9565b91505092915050565b6000604082019050611630600083018561141e565b61163d6020830184611035565b9392505050565b600080fd5b600067ffffffffffffffff8211156116645761166361144d565b5b61166d8261111f565b9050602081019050919050565b600061168d61168884611649565b6114ad565b9050828152602081018484840111156116a9576116a8611644565b5b6116b48482856110ec565b509392505050565b600082601f8301126116d1576116d0611448565b5b81516116e184826020860161167a565b91505092915050565b600060208284031215611700576116ff610f64565b5b600082015167ffffffffffffffff81111561171e5761171d610f69565b5b61172a848285016116bc565b9150509291505056fea264697066735822122014a12ce195b69fe7f8c6e6ec1a42ad85057dec3020dbedf13cb6890033faa02064736f6c63430008090033","opcodes":"PUSH1 0x80 PUSH1 0x40 MSTORE CALLVALUE DUP1 ISZERO PUSH3 0x11 JUMPI PUSH1 0x0 DUP1 REVERT JUMPDEST POP PUSH1 0x40 MLOAD PUSH3 0x1893 CODESIZE SUB DUP1 PUSH3 0x1893 DUP4 CODECOPY DUP2 DUP2 ADD PUSH1 0x40 MSTORE DUP2 ADD SWAP1 PUSH3 0x37 SWAP2 SWAP1 PUSH3 0xE8 JUMP JUMPDEST DUP1 PUSH1 0x0 DUP1 PUSH2 0x100 EXP DUP2 SLOAD DUP2 PUSH20 0xFFFFFFFFFFFFFFFFFFFFFFFFFFFFFFFFFFFFFFFF MUL NOT AND SWAP1 DUP4 PUSH20 0xFFFFFFFFFFFFFFFFFFFFFFFFFFFFFFFFFFFFFFFF AND MUL OR SWAP1 SSTORE POP POP PUSH3 0x11A JUMP JUMPDEST PUSH1 0x0 DUP1 REVERT JUMPDEST PUSH1 0x0 PUSH20 0xFFFFFFFFFFFFFFFFFFFFFFFFFFFFFFFFFFFFFFFF DUP3 AND SWAP1 POP SWAP2 SWAP1 POP JUMP JUMPDEST PUSH1 0x0 PUSH3 0xB0 DUP3 PUSH3 0x83 JUMP JUMPDEST SWAP1 POP SWAP2 SWAP1 POP JUMP JUMPDEST PUSH3 0xC2 DUP2 PUSH3 0xA3 JUMP JUMPDEST DUP2 EQ PUSH3 0xCE JUMPI PUSH1 0x0 DUP1 REVERT JUMPDEST POP JUMP JUMPDEST PUSH1 0x0 DUP2 MLOAD SWAP1 POP PUSH3 0xE2 DUP2 PUSH3 0xB7 JUMP JUMPDEST SWAP3 SWAP2 POP POP JUMP JUMPDEST PUSH1 0x0 PUSH1 0x20 DUP3 DUP5 SUB SLT ISZERO PUSH3 0x101 JUMPI PUSH3 0x100 PUSH3 0x7E JUMP JUMPDEST JUMPDEST PUSH1 0x0 PUSH3 0x111 DUP5 DUP3 DUP6 ADD PUSH3 0xD1 JUMP JUMPDEST SWAP2 POP POP SWAP3 SWAP2 POP POP JUMP JUMPDEST PUSH2 0x1769 DUP1 PUSH3 0x12A PUSH1 0x0 CODECOPY PUSH1 0x0 RETURN INVALID PUSH1 0x80 PUSH1 0x40 MSTORE CALLVALUE DUP1 ISZERO PUSH2 0x10 JUMPI PUSH1 0x0 DUP1 REVERT JUMPDEST POP PUSH1 0x4 CALLDATASIZE LT PUSH2 0x88 JUMPI PUSH1 0x0 CALLDATALOAD PUSH1 0xE0 SHR DUP1 PUSH4 0xA792765F GT PUSH2 0x5B JUMPI DUP1 PUSH4 0xA792765F EQ PUSH2 0x13C JUMPI DUP1 PUSH4 0xADF1639D EQ PUSH2 0x16E JUMPI DUP1 PUSH4 0xC5958AF9 EQ PUSH2 0x1A0 JUMPI DUP1 PUSH4 0xCE5E11BF EQ PUSH2 0x1D0 JUMPI PUSH2 0x88 JUMP JUMPDEST DUP1 PUSH4 0x1959AD5B EQ PUSH2 0x8D JUMPI DUP1 PUSH4 0x29449085 EQ PUSH2 0xAB JUMPI DUP1 PUSH4 0x44E87F91 EQ PUSH2 0xDC JUMPI DUP1 PUSH4 0x77B03E0D EQ PUSH2 0x10C JUMPI JUMPDEST PUSH1 0x0 DUP1 REVERT JUMPDEST PUSH2 0x95 PUSH2 0x200 JUMP JUMPDEST PUSH1 0x40 MLOAD PUSH2 0xA2 SWAP2 SWAP1 PUSH2 0xF3F JUMP JUMPDEST PUSH1 0x40 MLOAD DUP1 SWAP2 SUB SWAP1 RETURN JUMPDEST PUSH2 0xC5 PUSH1 0x4 DUP1 CALLDATASIZE SUB DUP2 ADD SWAP1 PUSH2 0xC0 SWAP2 SWAP1 PUSH2 0xFDA JUMP JUMPDEST PUSH2 0x224 JUMP JUMPDEST PUSH1 0x40 MLOAD PUSH2 0xD3 SWAP3 SWAP2 SWAP1 PUSH2 0x1044 JUMP JUMPDEST PUSH1 0x40 MLOAD DUP1 SWAP2 SUB SWAP1 RETURN JUMPDEST PUSH2 0xF6 PUSH1 0x4 DUP1 CALLDATASIZE SUB DUP2 ADD SWAP1 PUSH2 0xF1 SWAP2 SWAP1 PUSH2 0xFDA JUMP JUMPDEST PUSH2 0x39F JUMP JUMPDEST PUSH1 0x40 MLOAD PUSH2 0x103 SWAP2 SWAP1 PUSH2 0x106D JUMP JUMPDEST PUSH1 0x40 MLOAD DUP1 SWAP2 SUB SWAP1 RETURN JUMPDEST PUSH2 0x126 PUSH1 0x4 DUP1 CALLDATASIZE SUB DUP2 ADD SWAP1 PUSH2 0x121 SWAP2 SWAP1 PUSH2 0x1088 JUMP JUMPDEST PUSH2 0x6A2 JUMP JUMPDEST PUSH1 0x40 MLOAD PUSH2 0x133 SWAP2 SWAP1 PUSH2 0x10B5 JUMP JUMPDEST PUSH1 0x40 MLOAD DUP1 SWAP2 SUB SWAP1 RETURN JUMPDEST PUSH2 0x156 PUSH1 0x4 DUP1 CALLDATASIZE SUB DUP2 ADD SWAP1 PUSH2 0x151 SWAP2 SWAP1 PUSH2 0xFDA JUMP JUMPDEST PUSH2 0x8D7 JUMP JUMPDEST PUSH1 0x40 MLOAD PUSH2 0x165 SWAP4 SWAP3 SWAP2 SWAP1 PUSH2 0x1169 JUMP JUMPDEST PUSH1 0x40 MLOAD DUP1 SWAP2 SUB SWAP1 RETURN JUMPDEST PUSH2 0x188 PUSH1 0x4 DUP1 CALLDATASIZE SUB DUP2 ADD SWAP1 PUSH2 0x183 SWAP2 SWAP1 PUSH2 0x1088 JUMP JUMPDEST PUSH2 0x989 JUMP JUMPDEST PUSH1 0x40 MLOAD PUSH2 0x197 SWAP4 SWAP3 SWAP2 SWAP1 PUSH2 0x1169 JUMP JUMPDEST PUSH1 0x40 MLOAD DUP1 SWAP2 SUB SWAP1 RETURN JUMPDEST PUSH2 0x1BA PUSH1 0x4 DUP1 CALLDATASIZE SUB DUP2 ADD SWAP1 PUSH2 0x1B5 SWAP2 SWAP1 PUSH2 0xFDA JUMP JUMPDEST PUSH2 0xA42 JUMP JUMPDEST PUSH1 0x40 MLOAD PUSH2 0x1C7 SWAP2 SWAP1 PUSH2 0x11A7 JUMP JUMPDEST PUSH1 0x40 MLOAD DUP1 SWAP2 SUB SWAP1 RETURN JUMPDEST PUSH2 0x1EA PUSH1 0x4 DUP1 CALLDATASIZE SUB DUP2 ADD SWAP1 PUSH2 0x1E5 SWAP2 SWAP1 PUSH2 0xFDA JUMP JUMPDEST PUSH2 0xC86 JUMP JUMPDEST PUSH1 0x40 MLOAD PUSH2 0x1F7 SWAP2 SWAP1 PUSH2 0x10B5 JUMP JUMPDEST PUSH1 0x40 MLOAD DUP1 SWAP2 SUB SWAP1 RETURN JUMPDEST PUSH1 0x0 DUP1 SLOAD SWAP1 PUSH2 0x100 EXP SWAP1 DIV PUSH20 0xFFFFFFFFFFFFFFFFFFFFFFFFFFFFFFFFFFFFFFFF AND DUP2 JUMP JUMPDEST PUSH1 0x0 DUP1 PUSH1 0x0 PUSH2 0x232 DUP6 PUSH2 0x6A2 JUMP JUMPDEST SWAP1 POP PUSH1 0x0 DUP2 GT ISZERO PUSH2 0x38F JUMPI PUSH1 0x0 DUP1 PUSH1 0x0 SWAP1 POP PUSH1 0x0 PUSH1 0x1 DUP5 PUSH2 0x253 SWAP2 SWAP1 PUSH2 0x11F8 JUMP JUMPDEST SWAP1 POP PUSH1 0x0 PUSH2 0x261 DUP10 DUP5 PUSH2 0xC86 JUMP JUMPDEST SWAP1 POP DUP8 DUP2 LT PUSH2 0x27B JUMPI PUSH1 0x0 DUP1 SWAP7 POP SWAP7 POP POP POP POP POP POP PUSH2 0x398 JUMP JUMPDEST PUSH2 0x285 DUP10 DUP4 PUSH2 0xC86 JUMP JUMPDEST SWAP1 POP DUP8 DUP2 LT ISZERO PUSH2 0x2A0 JUMPI PUSH1 0x1 DUP3 SWAP7 POP SWAP7 POP POP POP POP POP POP PUSH2 0x398 JUMP JUMPDEST JUMPDEST PUSH1 0x1 ISZERO PUSH2 0x38A JUMPI DUP3 PUSH1 0x1 PUSH1 0x2 DUP6 DUP6 PUSH2 0x2B9 SWAP2 SWAP1 PUSH2 0x11F8 JUMP JUMPDEST PUSH2 0x2C3 SWAP2 SWAP1 PUSH2 0x125B JUMP JUMPDEST PUSH2 0x2CD SWAP2 SWAP1 PUSH2 0x128C JUMP JUMPDEST PUSH2 0x2D7 SWAP2 SWAP1 PUSH2 0x128C JUMP JUMPDEST SWAP4 POP PUSH2 0x2E3 DUP10 DUP6 PUSH2 0xC86 JUMP JUMPDEST SWAP1 POP DUP8 DUP2 LT ISZERO PUSH2 0x335 JUMPI PUSH1 0x0 PUSH2 0x305 DUP11 PUSH1 0x1 DUP8 PUSH2 0x300 SWAP2 SWAP1 PUSH2 0x128C JUMP JUMPDEST PUSH2 0xC86 JUMP JUMPDEST SWAP1 POP DUP9 DUP2 LT PUSH2 0x320 JUMPI PUSH1 0x1 DUP6 SWAP8 POP SWAP8 POP POP POP POP POP POP POP PUSH2 0x398 JUMP JUMPDEST PUSH1 0x1 DUP6 PUSH2 0x32D SWAP2 SWAP1 PUSH2 0x128C JUMP JUMPDEST SWAP4 POP POP PUSH2 0x385 JUMP JUMPDEST PUSH1 0x0 PUSH2 0x34D DUP11 PUSH1 0x1 DUP8 PUSH2 0x348 SWAP2 SWAP1 PUSH2 0x11F8 JUMP JUMPDEST PUSH2 0xC86 JUMP JUMPDEST SWAP1 POP DUP9 DUP2 LT ISZERO PUSH2 0x374 JUMPI PUSH1 0x1 DUP1 DUP7 PUSH2 0x365 SWAP2 SWAP1 PUSH2 0x11F8 JUMP JUMPDEST SWAP8 POP SWAP8 POP POP POP POP POP POP POP PUSH2 0x398 JUMP JUMPDEST PUSH1 0x1 DUP6 PUSH2 0x381 SWAP2 SWAP1 PUSH2 0x11F8 JUMP JUMPDEST SWAP3 POP POP JUMPDEST PUSH2 0x2A1 JUMP JUMPDEST POP POP POP POP JUMPDEST PUSH1 0x0 DUP1 SWAP3 POP SWAP3 POP POP JUMPDEST SWAP3 POP SWAP3 SWAP1 POP JUMP JUMPDEST PUSH1 0x0 DUP1 PUSH20 0x18431FD88ADF138E8B979A7246EB58EA7126EA16 PUSH20 0xFFFFFFFFFFFFFFFFFFFFFFFFFFFFFFFFFFFFFFFF AND PUSH1 0x0 DUP1 SLOAD SWAP1 PUSH2 0x100 EXP SWAP1 DIV PUSH20 0xFFFFFFFFFFFFFFFFFFFFFFFFFFFFFFFFFFFFFFFF AND PUSH20 0xFFFFFFFFFFFFFFFFFFFFFFFFFFFFFFFFFFFFFFFF AND EQ DUP1 PUSH2 0x46F JUMPI POP PUSH20 0xE8218CACB0A5421BC6409E498D9F8CC8869945EA PUSH20 0xFFFFFFFFFFFFFFFFFFFFFFFFFFFFFFFFFFFFFFFF AND PUSH1 0x0 DUP1 SLOAD SWAP1 PUSH2 0x100 EXP SWAP1 DIV PUSH20 0xFFFFFFFFFFFFFFFFFFFFFFFFFFFFFFFFFFFFFFFF AND PUSH20 0xFFFFFFFFFFFFFFFFFFFFFFFFFFFFFFFFFFFFFFFF AND EQ JUMPDEST ISZERO PUSH2 0x53E JUMPI PUSH1 0x0 PUSH20 0x88DF592F8EB5D7BD38BFEF7DEB0FBC02CF3778A0 SWAP1 POP DUP1 PUSH20 0xFFFFFFFFFFFFFFFFFFFFFFFFFFFFFFFFFFFFFFFF AND PUSH4 0x699F200F PUSH32 0xEFA19BAA864049F50491093580C5433E97E8D5E41F8DB1A61108B4FA44CACD93 PUSH1 0x40 MLOAD DUP3 PUSH4 0xFFFFFFFF AND PUSH1 0xE0 SHL DUP2 MSTORE PUSH1 0x4 ADD PUSH2 0x4E6 SWAP2 SWAP1 PUSH2 0x132A JUMP JUMPDEST PUSH1 0x20 PUSH1 0x40 MLOAD DUP1 DUP4 SUB DUP2 DUP7 DUP1 EXTCODESIZE ISZERO DUP1 ISZERO PUSH2 0x4FE JUMPI PUSH1 0x0 DUP1 REVERT JUMPDEST POP GAS STATICCALL ISZERO DUP1 ISZERO PUSH2 0x512 JUMPI RETURNDATASIZE PUSH1 0x0 DUP1 RETURNDATACOPY RETURNDATASIZE PUSH1 0x0 REVERT JUMPDEST POP POP POP POP PUSH1 0x40 MLOAD RETURNDATASIZE PUSH1 0x1F NOT PUSH1 0x1F DUP3 ADD AND DUP3 ADD DUP1 PUSH1 0x40 MSTORE POP DUP2 ADD SWAP1 PUSH2 0x536 SWAP2 SWAP1 PUSH2 0x1383 JUMP JUMPDEST SWAP2 POP POP PUSH2 0x5DF JUMP JUMPDEST PUSH1 0x0 DUP1 SLOAD SWAP1 PUSH2 0x100 EXP SWAP1 DIV PUSH20 0xFFFFFFFFFFFFFFFFFFFFFFFFFFFFFFFFFFFFFFFF AND PUSH20 0xFFFFFFFFFFFFFFFFFFFFFFFFFFFFFFFFFFFFFFFF AND PUSH4 0x5AA6E675 PUSH1 0x40 MLOAD DUP2 PUSH4 0xFFFFFFFF AND PUSH1 0xE0 SHL DUP2 MSTORE PUSH1 0x4 ADD PUSH1 0x20 PUSH1 0x40 MLOAD DUP1 DUP4 SUB DUP2 DUP7 DUP1 EXTCODESIZE ISZERO DUP1 ISZERO PUSH2 0x5A4 JUMPI PUSH1 0x0 DUP1 REVERT JUMPDEST POP GAS STATICCALL ISZERO DUP1 ISZERO PUSH2 0x5B8 JUMPI RETURNDATASIZE PUSH1 0x0 DUP1 RETURNDATACOPY RETURNDATASIZE PUSH1 0x0 REVERT JUMPDEST POP POP POP POP PUSH1 0x40 MLOAD RETURNDATASIZE PUSH1 0x1F NOT PUSH1 0x1F DUP3 ADD AND DUP3 ADD DUP1 PUSH1 0x40 MSTORE POP DUP2 ADD SWAP1 PUSH2 0x5DC SWAP2 SWAP1 PUSH2 0x1383 JUMP JUMPDEST SWAP1 POP JUMPDEST PUSH1 0x0 DUP2 PUSH20 0xFFFFFFFFFFFFFFFFFFFFFFFFFFFFFFFFFFFFFFFF AND PUSH4 0x248638E5 DUP7 DUP7 PUSH1 0x40 MLOAD PUSH1 0x20 ADD PUSH2 0x610 SWAP3 SWAP2 SWAP1 PUSH2 0x13F2 JUMP JUMPDEST PUSH1 0x40 MLOAD PUSH1 0x20 DUP2 DUP4 SUB SUB DUP2 MSTORE SWAP1 PUSH1 0x40 MSTORE DUP1 MLOAD SWAP1 PUSH1 0x20 ADD KECCAK256 PUSH1 0x40 MLOAD DUP3 PUSH4 0xFFFFFFFF AND PUSH1 0xE0 SHL DUP2 MSTORE PUSH1 0x4 ADD PUSH2 0x642 SWAP2 SWAP1 PUSH2 0x142D JUMP JUMPDEST PUSH1 0x0 PUSH1 0x40 MLOAD DUP1 DUP4 SUB DUP2 DUP7 DUP1 EXTCODESIZE ISZERO DUP1 ISZERO PUSH2 0x65A JUMPI PUSH1 0x0 DUP1 REVERT JUMPDEST POP GAS STATICCALL ISZERO DUP1 ISZERO PUSH2 0x66E JUMPI RETURNDATASIZE PUSH1 0x0 DUP1 RETURNDATACOPY RETURNDATASIZE PUSH1 0x0 REVERT JUMPDEST POP POP POP POP PUSH1 0x40 MLOAD RETURNDATASIZE PUSH1 0x0 DUP3 RETURNDATACOPY RETURNDATASIZE PUSH1 0x1F NOT PUSH1 0x1F DUP3 ADD AND DUP3 ADD DUP1 PUSH1 0x40 MSTORE POP DUP2 ADD SWAP1 PUSH2 0x697 SWAP2 SWAP1 PUSH2 0x15A5 JUMP JUMPDEST MLOAD GT SWAP2 POP POP SWAP3 SWAP2 POP POP JUMP JUMPDEST PUSH1 0x0 PUSH20 0x18431FD88ADF138E8B979A7246EB58EA7126EA16 PUSH20 0xFFFFFFFFFFFFFFFFFFFFFFFFFFFFFFFFFFFFFFFF AND PUSH1 0x0 DUP1 SLOAD SWAP1 PUSH2 0x100 EXP SWAP1 DIV PUSH20 0xFFFFFFFFFFFFFFFFFFFFFFFFFFFFFFFFFFFFFFFF AND PUSH20 0xFFFFFFFFFFFFFFFFFFFFFFFFFFFFFFFFFFFFFFFF AND EQ DUP1 PUSH2 0x771 JUMPI POP PUSH20 0xE8218CACB0A5421BC6409E498D9F8CC8869945EA PUSH20 0xFFFFFFFFFFFFFFFFFFFFFFFFFFFFFFFFFFFFFFFF AND PUSH1 0x0 DUP1 SLOAD SWAP1 PUSH2 0x100 EXP SWAP1 DIV PUSH20 0xFFFFFFFFFFFFFFFFFFFFFFFFFFFFFFFFFFFFFFFF AND PUSH20 0xFFFFFFFFFFFFFFFFFFFFFFFFFFFFFFFFFFFFFFFF AND EQ JUMPDEST ISZERO PUSH2 0x826 JUMPI PUSH1 0x0 DUP1 SLOAD SWAP1 PUSH2 0x100 EXP SWAP1 DIV PUSH20 0xFFFFFFFFFFFFFFFFFFFFFFFFFFFFFFFFFFFFFFFF AND PUSH20 0xFFFFFFFFFFFFFFFFFFFFFFFFFFFFFFFFFFFFFFFF AND PUSH4 0x35E72432 DUP4 PUSH1 0x40 MLOAD DUP3 PUSH4 0xFFFFFFFF AND PUSH1 0xE0 SHL DUP2 MSTORE PUSH1 0x4 ADD PUSH2 0x7CF SWAP2 SWAP1 PUSH2 0x142D JUMP JUMPDEST PUSH1 0x20 PUSH1 0x40 MLOAD DUP1 DUP4 SUB DUP2 DUP7 DUP1 EXTCODESIZE ISZERO DUP1 ISZERO PUSH2 0x7E7 JUMPI PUSH1 0x0 DUP1 REVERT JUMPDEST POP GAS STATICCALL ISZERO DUP1 ISZERO PUSH2 0x7FB JUMPI RETURNDATASIZE PUSH1 0x0 DUP1 RETURNDATACOPY RETURNDATASIZE PUSH1 0x0 REVERT JUMPDEST POP POP POP POP PUSH1 0x40 MLOAD RETURNDATASIZE PUSH1 0x1F NOT PUSH1 0x1F DUP3 ADD AND DUP3 ADD DUP1 PUSH1 0x40 MSTORE POP DUP2 ADD SWAP1 PUSH2 0x81F SWAP2 SWAP1 PUSH2 0x15EE JUMP JUMPDEST SWAP1 POP PUSH2 0x8D2 JUMP JUMPDEST PUSH1 0x0 DUP1 SLOAD SWAP1 PUSH2 0x100 EXP SWAP1 DIV PUSH20 0xFFFFFFFFFFFFFFFFFFFFFFFFFFFFFFFFFFFFFFFF AND PUSH20 0xFFFFFFFFFFFFFFFFFFFFFFFFFFFFFFFFFFFFFFFF AND PUSH4 0x77B03E0D DUP4 PUSH1 0x40 MLOAD DUP3 PUSH4 0xFFFFFFFF AND PUSH1 0xE0 SHL DUP2 MSTORE PUSH1 0x4 ADD PUSH2 0x87F SWAP2 SWAP1 PUSH2 0x142D JUMP JUMPDEST PUSH1 0x20 PUSH1 0x40 MLOAD DUP1 DUP4 SUB DUP2 DUP7 DUP1 EXTCODESIZE ISZERO DUP1 ISZERO PUSH2 0x897 JUMPI PUSH1 0x0 DUP1 REVERT JUMPDEST POP GAS STATICCALL ISZERO DUP1 ISZERO PUSH2 0x8AB JUMPI RETURNDATASIZE PUSH1 0x0 DUP1 RETURNDATACOPY RETURNDATASIZE PUSH1 0x0 REVERT JUMPDEST POP POP POP POP PUSH1 0x40 MLOAD RETURNDATASIZE PUSH1 0x1F NOT PUSH1 0x1F DUP3 ADD AND DUP3 ADD DUP1 PUSH1 0x40 MSTORE POP DUP2 ADD SWAP1 PUSH2 0x8CF SWAP2 SWAP1 PUSH2 0x15EE JUMP JUMPDEST SWAP1 POP JUMPDEST SWAP2 SWAP1 POP JUMP JUMPDEST PUSH1 0x0 PUSH1 0x60 PUSH1 0x0 DUP1 PUSH1 0x0 PUSH2 0x8EA DUP8 DUP8 PUSH2 0x224 JUMP JUMPDEST SWAP2 POP SWAP2 POP DUP2 PUSH2 0x914 JUMPI PUSH1 0x0 PUSH1 0x40 MLOAD DUP1 PUSH1 0x20 ADD PUSH1 0x40 MSTORE DUP1 PUSH1 0x0 DUP2 MSTORE POP PUSH1 0x0 SWAP5 POP SWAP5 POP SWAP5 POP POP POP PUSH2 0x982 JUMP JUMPDEST PUSH1 0x0 PUSH2 0x920 DUP9 DUP4 PUSH2 0xC86 JUMP JUMPDEST SWAP1 POP PUSH2 0x92C DUP9 DUP3 PUSH2 0xA42 JUMP JUMPDEST SWAP5 POP PUSH1 0x40 MLOAD DUP1 PUSH1 0x20 ADD PUSH1 0x40 MSTORE DUP1 PUSH1 0x0 DUP2 MSTORE POP DUP1 MLOAD SWAP1 PUSH1 0x20 ADD KECCAK256 DUP6 DUP1 MLOAD SWAP1 PUSH1 0x20 ADD KECCAK256 EQ PUSH2 0x964 JUMPI PUSH1 0x1 DUP6 DUP3 SWAP6 POP SWAP6 POP SWAP6 POP POP POP POP PUSH2 0x982 JUMP JUMPDEST PUSH1 0x0 PUSH1 0x40 MLOAD DUP1 PUSH1 0x20 ADD PUSH1 0x40 MSTORE DUP1 PUSH1 0x0 DUP2 MSTORE POP PUSH1 0x0 SWAP6 POP SWAP6 POP SWAP6 POP POP POP POP JUMPDEST SWAP3 POP SWAP3 POP SWAP3 JUMP JUMPDEST PUSH1 0x0 PUSH1 0x60 PUSH1 0x0 DUP1 PUSH2 0x999 DUP6 PUSH2 0x6A2 JUMP JUMPDEST SWAP1 POP PUSH1 0x0 DUP2 EQ ISZERO PUSH2 0x9C4 JUMPI PUSH1 0x0 PUSH1 0x40 MLOAD DUP1 PUSH1 0x20 ADD PUSH1 0x40 MSTORE DUP1 PUSH1 0x0 DUP2 MSTORE POP PUSH1 0x0 SWAP4 POP SWAP4 POP SWAP4 POP POP PUSH2 0xA3B JUMP JUMPDEST PUSH1 0x0 PUSH2 0x9DC DUP7 PUSH1 0x1 DUP5 PUSH2 0x9D7 SWAP2 SWAP1 PUSH2 0x11F8 JUMP JUMPDEST PUSH2 0xC86 JUMP JUMPDEST SWAP1 POP PUSH2 0x9E8 DUP7 DUP3 PUSH2 0xA42 JUMP JUMPDEST SWAP4 POP PUSH1 0x40 MLOAD DUP1 PUSH1 0x20 ADD PUSH1 0x40 MSTORE DUP1 PUSH1 0x0 DUP2 MSTORE POP DUP1 MLOAD SWAP1 PUSH1 0x20 ADD KECCAK256 DUP5 DUP1 MLOAD SWAP1 PUSH1 0x20 ADD KECCAK256 EQ PUSH2 0xA1F JUMPI PUSH1 0x1 DUP5 DUP3 SWAP5 POP SWAP5 POP SWAP5 POP POP POP PUSH2 0xA3B JUMP JUMPDEST PUSH1 0x0 PUSH1 0x40 MLOAD DUP1 PUSH1 0x20 ADD PUSH1 0x40 MSTORE DUP1 PUSH1 0x0 DUP2 MSTORE POP DUP3 SWAP5 POP SWAP5 POP SWAP5 POP POP POP JUMPDEST SWAP2 SWAP4 SWAP1 SWAP3 POP JUMP JUMPDEST PUSH1 0x60 PUSH20 0x18431FD88ADF138E8B979A7246EB58EA7126EA16 PUSH20 0xFFFFFFFFFFFFFFFFFFFFFFFFFFFFFFFFFFFFFFFF AND PUSH1 0x0 DUP1 SLOAD SWAP1 PUSH2 0x100 EXP SWAP1 DIV PUSH20 0xFFFFFFFFFFFFFFFFFFFFFFFFFFFFFFFFFFFFFFFF AND PUSH20 0xFFFFFFFFFFFFFFFFFFFFFFFFFFFFFFFFFFFFFFFF AND EQ DUP1 PUSH2 0xB11 JUMPI POP PUSH20 0xE8218CACB0A5421BC6409E498D9F8CC8869945EA PUSH20 0xFFFFFFFFFFFFFFFFFFFFFFFFFFFFFFFFFFFFFFFF AND PUSH1 0x0 DUP1 SLOAD SWAP1 PUSH2 0x100 EXP SWAP1 DIV PUSH20 0xFFFFFFFFFFFFFFFFFFFFFFFFFFFFFFFFFFFFFFFF AND PUSH20 0xFFFFFFFFFFFFFFFFFFFFFFFFFFFFFFFFFFFFFFFF AND EQ JUMPDEST ISZERO PUSH2 0xBCD JUMPI PUSH1 0x0 DUP1 SLOAD SWAP1 PUSH2 0x100 EXP SWAP1 DIV PUSH20 0xFFFFFFFFFFFFFFFFFFFFFFFFFFFFFFFFFFFFFFFF AND PUSH20 0xFFFFFFFFFFFFFFFFFFFFFFFFFFFFFFFFFFFFFFFF AND PUSH4 0xB2D2B0D DUP5 DUP5 PUSH1 0x40 MLOAD DUP4 PUSH4 0xFFFFFFFF AND PUSH1 0xE0 SHL DUP2 MSTORE PUSH1 0x4 ADD PUSH2 0xB71 SWAP3 SWAP2 SWAP1 PUSH2 0x161B JUMP JUMPDEST PUSH1 0x0 PUSH1 0x40 MLOAD DUP1 DUP4 SUB DUP2 DUP7 DUP1 EXTCODESIZE ISZERO DUP1 ISZERO PUSH2 0xB89 JUMPI PUSH1 0x0 DUP1 REVERT JUMPDEST POP GAS STATICCALL ISZERO DUP1 ISZERO PUSH2 0xB9D JUMPI RETURNDATASIZE PUSH1 0x0 DUP1 RETURNDATACOPY RETURNDATASIZE PUSH1 0x0 REVERT JUMPDEST POP POP POP POP PUSH1 0x40 MLOAD RETURNDATASIZE PUSH1 0x0 DUP3 RETURNDATACOPY RETURNDATASIZE PUSH1 0x1F NOT PUSH1 0x1F DUP3 ADD AND DUP3 ADD DUP1 PUSH1 0x40 MSTORE POP DUP2 ADD SWAP1 PUSH2 0xBC6 SWAP2 SWAP1 PUSH2 0x16EA JUMP JUMPDEST SWAP1 POP PUSH2 0xC80 JUMP JUMPDEST PUSH1 0x0 DUP1 SLOAD SWAP1 PUSH2 0x100 EXP SWAP1 DIV PUSH20 0xFFFFFFFFFFFFFFFFFFFFFFFFFFFFFFFFFFFFFFFF AND PUSH20 0xFFFFFFFFFFFFFFFFFFFFFFFFFFFFFFFFFFFFFFFF AND PUSH4 0xC5958AF9 DUP5 DUP5 PUSH1 0x40 MLOAD DUP4 PUSH4 0xFFFFFFFF AND PUSH1 0xE0 SHL DUP2 MSTORE PUSH1 0x4 ADD PUSH2 0xC28 SWAP3 SWAP2 SWAP1 PUSH2 0x161B JUMP JUMPDEST PUSH1 0x0 PUSH1 0x40 MLOAD DUP1 DUP4 SUB DUP2 DUP7 DUP1 EXTCODESIZE ISZERO DUP1 ISZERO PUSH2 0xC40 JUMPI PUSH1 0x0 DUP1 REVERT JUMPDEST POP GAS STATICCALL ISZERO DUP1 ISZERO PUSH2 0xC54 JUMPI RETURNDATASIZE PUSH1 0x0 DUP1 RETURNDATACOPY RETURNDATASIZE PUSH1 0x0 REVERT JUMPDEST POP POP POP POP PUSH1 0x40 MLOAD RETURNDATASIZE PUSH1 0x0 DUP3 RETURNDATACOPY RETURNDATASIZE PUSH1 0x1F NOT PUSH1 0x1F DUP3 ADD AND DUP3 ADD DUP1 PUSH1 0x40 MSTORE POP DUP2 ADD SWAP1 PUSH2 0xC7D SWAP2 SWAP1 PUSH2 0x16EA JUMP JUMPDEST SWAP1 POP JUMPDEST SWAP3 SWAP2 POP POP JUMP JUMPDEST PUSH1 0x0 PUSH20 0x18431FD88ADF138E8B979A7246EB58EA7126EA16 PUSH20 0xFFFFFFFFFFFFFFFFFFFFFFFFFFFFFFFFFFFFFFFF AND PUSH1 0x0 DUP1 SLOAD SWAP1 PUSH2 0x100 EXP SWAP1 DIV PUSH20 0xFFFFFFFFFFFFFFFFFFFFFFFFFFFFFFFFFFFFFFFF AND PUSH20 0xFFFFFFFFFFFFFFFFFFFFFFFFFFFFFFFFFFFFFFFF AND EQ DUP1 PUSH2 0xD55 JUMPI POP PUSH20 0xE8218CACB0A5421BC6409E498D9F8CC8869945EA PUSH20 0xFFFFFFFFFFFFFFFFFFFFFFFFFFFFFFFFFFFFFFFF AND PUSH1 0x0 DUP1 SLOAD SWAP1 PUSH2 0x100 EXP SWAP1 DIV PUSH20 0xFFFFFFFFFFFFFFFFFFFFFFFFFFFFFFFFFFFFFFFF AND PUSH20 0xFFFFFFFFFFFFFFFFFFFFFFFFFFFFFFFFFFFFFFFF AND EQ JUMPDEST ISZERO PUSH2 0xE0C JUMPI PUSH1 0x0 DUP1 SLOAD SWAP1 PUSH2 0x100 EXP SWAP1 DIV PUSH20 0xFFFFFFFFFFFFFFFFFFFFFFFFFFFFFFFFFFFFFFFF AND PUSH20 0xFFFFFFFFFFFFFFFFFFFFFFFFFFFFFFFFFFFFFFFF AND PUSH4 0x7C37B8B4 DUP5 DUP5 PUSH1 0x40 MLOAD DUP4 PUSH4 0xFFFFFFFF AND PUSH1 0xE0 SHL DUP2 MSTORE PUSH1 0x4 ADD PUSH2 0xDB5 SWAP3 SWAP2 SWAP1 PUSH2 0x161B JUMP JUMPDEST PUSH1 0x20 PUSH1 0x40 MLOAD DUP1 DUP4 SUB DUP2 DUP7 DUP1 EXTCODESIZE ISZERO DUP1 ISZERO PUSH2 0xDCD JUMPI PUSH1 0x0 DUP1 REVERT JUMPDEST POP GAS STATICCALL ISZERO DUP1 ISZERO PUSH2 0xDE1 JUMPI RETURNDATASIZE PUSH1 0x0 DUP1 RETURNDATACOPY RETURNDATASIZE PUSH1 0x0 REVERT JUMPDEST POP POP POP POP PUSH1 0x40 MLOAD RETURNDATASIZE PUSH1 0x1F NOT PUSH1 0x1F DUP3 ADD AND DUP3 ADD DUP1 PUSH1 0x40 MSTORE POP DUP2 ADD SWAP1 PUSH2 0xE05 SWAP2 SWAP1 PUSH2 0x15EE JUMP JUMPDEST SWAP1 POP PUSH2 0xEBA JUMP JUMPDEST PUSH1 0x0 DUP1 SLOAD SWAP1 PUSH2 0x100 EXP SWAP1 DIV PUSH20 0xFFFFFFFFFFFFFFFFFFFFFFFFFFFFFFFFFFFFFFFF AND PUSH20 0xFFFFFFFFFFFFFFFFFFFFFFFFFFFFFFFFFFFFFFFF AND PUSH4 0xCE5E11BF DUP5 DUP5 PUSH1 0x40 MLOAD DUP4 PUSH4 0xFFFFFFFF AND PUSH1 0xE0 SHL DUP2 MSTORE PUSH1 0x4 ADD PUSH2 0xE67 SWAP3 SWAP2 SWAP1 PUSH2 0x161B JUMP JUMPDEST PUSH1 0x20 PUSH1 0x40 MLOAD DUP1 DUP4 SUB DUP2 DUP7 DUP1 EXTCODESIZE ISZERO DUP1 ISZERO PUSH2 0xE7F JUMPI PUSH1 0x0 DUP1 REVERT JUMPDEST POP GAS STATICCALL ISZERO DUP1 ISZERO PUSH2 0xE93 JUMPI RETURNDATASIZE PUSH1 0x0 DUP1 RETURNDATACOPY RETURNDATASIZE PUSH1 0x0 REVERT JUMPDEST POP POP POP POP PUSH1 0x40 MLOAD RETURNDATASIZE PUSH1 0x1F NOT PUSH1 0x1F DUP3 ADD AND DUP3 ADD DUP1 PUSH1 0x40 MSTORE POP DUP2 ADD SWAP1 PUSH2 0xEB7 SWAP2 SWAP1 PUSH2 0x15EE JUMP JUMPDEST SWAP1 POP JUMPDEST SWAP3 SWAP2 POP POP JUMP JUMPDEST PUSH1 0x0 PUSH20 0xFFFFFFFFFFFFFFFFFFFFFFFFFFFFFFFFFFFFFFFF DUP3 AND SWAP1 POP SWAP2 SWAP1 POP JUMP JUMPDEST PUSH1 0x0 DUP2 SWAP1 POP SWAP2 SWAP1 POP JUMP JUMPDEST PUSH1 0x0 PUSH2 0xF05 PUSH2 0xF00 PUSH2 0xEFB DUP5 PUSH2 0xEC0 JUMP JUMPDEST PUSH2 0xEE0 JUMP JUMPDEST PUSH2 0xEC0 JUMP JUMPDEST SWAP1 POP SWAP2 SWAP1 POP JUMP JUMPDEST PUSH1 0x0 PUSH2 0xF17 DUP3 PUSH2 0xEEA JUMP JUMPDEST SWAP1 POP SWAP2 SWAP1 POP JUMP JUMPDEST PUSH1 0x0 PUSH2 0xF29 DUP3 PUSH2 0xF0C JUMP JUMPDEST SWAP1 POP SWAP2 SWAP1 POP JUMP JUMPDEST PUSH2 0xF39 DUP2 PUSH2 0xF1E JUMP JUMPDEST DUP3 MSTORE POP POP JUMP JUMPDEST PUSH1 0x0 PUSH1 0x20 DUP3 ADD SWAP1 POP PUSH2 0xF54 PUSH1 0x0 DUP4 ADD DUP5 PUSH2 0xF30 JUMP JUMPDEST SWAP3 SWAP2 POP POP JUMP JUMPDEST PUSH1 0x0 PUSH1 0x40 MLOAD SWAP1 POP SWAP1 JUMP JUMPDEST PUSH1 0x0 DUP1 REVERT JUMPDEST PUSH1 0x0 DUP1 REVERT JUMPDEST PUSH1 0x0 DUP2 SWAP1 POP SWAP2 SWAP1 POP JUMP JUMPDEST PUSH2 0xF81 DUP2 PUSH2 0xF6E JUMP JUMPDEST DUP2 EQ PUSH2 0xF8C JUMPI PUSH1 0x0 DUP1 REVERT JUMPDEST POP JUMP JUMPDEST PUSH1 0x0 DUP2 CALLDATALOAD SWAP1 POP PUSH2 0xF9E DUP2 PUSH2 0xF78 JUMP JUMPDEST SWAP3 SWAP2 POP POP JUMP JUMPDEST PUSH1 0x0 DUP2 SWAP1 POP SWAP2 SWAP1 POP JUMP JUMPDEST PUSH2 0xFB7 DUP2 PUSH2 0xFA4 JUMP JUMPDEST DUP2 EQ PUSH2 0xFC2 JUMPI PUSH1 0x0 DUP1 REVERT JUMPDEST POP JUMP JUMPDEST PUSH1 0x0 DUP2 CALLDATALOAD SWAP1 POP PUSH2 0xFD4 DUP2 PUSH2 0xFAE JUMP JUMPDEST SWAP3 SWAP2 POP POP JUMP JUMPDEST PUSH1 0x0 DUP1 PUSH1 0x40 DUP4 DUP6 SUB SLT ISZERO PUSH2 0xFF1 JUMPI PUSH2 0xFF0 PUSH2 0xF64 JUMP JUMPDEST JUMPDEST PUSH1 0x0 PUSH2 0xFFF DUP6 DUP3 DUP7 ADD PUSH2 0xF8F JUMP JUMPDEST SWAP3 POP POP PUSH1 0x20 PUSH2 0x1010 DUP6 DUP3 DUP7 ADD PUSH2 0xFC5 JUMP JUMPDEST SWAP2 POP POP SWAP3 POP SWAP3 SWAP1 POP JUMP JUMPDEST PUSH1 0x0 DUP2 ISZERO ISZERO SWAP1 POP SWAP2 SWAP1 POP JUMP JUMPDEST PUSH2 0x102F DUP2 PUSH2 0x101A JUMP JUMPDEST DUP3 MSTORE POP POP JUMP JUMPDEST PUSH2 0x103E DUP2 PUSH2 0xFA4 JUMP JUMPDEST DUP3 MSTORE POP POP JUMP JUMPDEST PUSH1 0x0 PUSH1 0x40 DUP3 ADD SWAP1 POP PUSH2 0x1059 PUSH1 0x0 DUP4 ADD DUP6 PUSH2 0x1026 JUMP JUMPDEST PUSH2 0x1066 PUSH1 0x20 DUP4 ADD DUP5 PUSH2 0x1035 JUMP JUMPDEST SWAP4 SWAP3 POP POP POP JUMP JUMPDEST PUSH1 0x0 PUSH1 0x20 DUP3 ADD SWAP1 POP PUSH2 0x1082 PUSH1 0x0 DUP4 ADD DUP5 PUSH2 0x1026 JUMP JUMPDEST SWAP3 SWAP2 POP POP JUMP JUMPDEST PUSH1 0x0 PUSH1 0x20 DUP3 DUP5 SUB SLT ISZERO PUSH2 0x109E JUMPI PUSH2 0x109D PUSH2 0xF64 JUMP JUMPDEST JUMPDEST PUSH1 0x0 PUSH2 0x10AC DUP5 DUP3 DUP6 ADD PUSH2 0xF8F JUMP JUMPDEST SWAP2 POP POP SWAP3 SWAP2 POP POP JUMP JUMPDEST PUSH1 0x0 PUSH1 0x20 DUP3 ADD SWAP1 POP PUSH2 0x10CA PUSH1 0x0 DUP4 ADD DUP5 PUSH2 0x1035 JUMP JUMPDEST SWAP3 SWAP2 POP POP JUMP JUMPDEST PUSH1 0x0 DUP2 MLOAD SWAP1 POP SWAP2 SWAP1 POP JUMP JUMPDEST PUSH1 0x0 DUP3 DUP3 MSTORE PUSH1 0x20 DUP3 ADD SWAP1 POP SWAP3 SWAP2 POP POP JUMP JUMPDEST PUSH1 0x0 JUMPDEST DUP4 DUP2 LT ISZERO PUSH2 0x110A JUMPI DUP1 DUP3 ADD MLOAD DUP2 DUP5 ADD MSTORE PUSH1 0x20 DUP2 ADD SWAP1 POP PUSH2 0x10EF JUMP JUMPDEST DUP4 DUP2 GT ISZERO PUSH2 0x1119 JUMPI PUSH1 0x0 DUP5 DUP5 ADD MSTORE JUMPDEST POP POP POP POP JUMP JUMPDEST PUSH1 0x0 PUSH1 0x1F NOT PUSH1 0x1F DUP4 ADD AND SWAP1 POP SWAP2 SWAP1 POP JUMP JUMPDEST PUSH1 0x0 PUSH2 0x113B DUP3 PUSH2 0x10D0 JUMP JUMPDEST PUSH2 0x1145 DUP2 DUP6 PUSH2 0x10DB JUMP JUMPDEST SWAP4 POP PUSH2 0x1155 DUP2 DUP6 PUSH1 0x20 DUP7 ADD PUSH2 0x10EC JUMP JUMPDEST PUSH2 0x115E DUP2 PUSH2 0x111F JUMP JUMPDEST DUP5 ADD SWAP2 POP POP SWAP3 SWAP2 POP POP JUMP JUMPDEST PUSH1 0x0 PUSH1 0x60 DUP3 ADD SWAP1 POP PUSH2 0x117E PUSH1 0x0 DUP4 ADD DUP7 PUSH2 0x1026 JUMP JUMPDEST DUP2 DUP2 SUB PUSH1 0x20 DUP4 ADD MSTORE PUSH2 0x1190 DUP2 DUP6 PUSH2 0x1130 JUMP JUMPDEST SWAP1 POP PUSH2 0x119F PUSH1 0x40 DUP4 ADD DUP5 PUSH2 0x1035 JUMP JUMPDEST SWAP5 SWAP4 POP POP POP POP JUMP JUMPDEST PUSH1 0x0 PUSH1 0x20 DUP3 ADD SWAP1 POP DUP2 DUP2 SUB PUSH1 0x0 DUP4 ADD MSTORE PUSH2 0x11C1 DUP2 DUP5 PUSH2 0x1130 JUMP JUMPDEST SWAP1 POP SWAP3 SWAP2 POP POP JUMP JUMPDEST PUSH32 0x4E487B7100000000000000000000000000000000000000000000000000000000 PUSH1 0x0 MSTORE PUSH1 0x11 PUSH1 0x4 MSTORE PUSH1 0x24 PUSH1 0x0 REVERT JUMPDEST PUSH1 0x0 PUSH2 0x1203 DUP3 PUSH2 0xFA4 JUMP JUMPDEST SWAP2 POP PUSH2 0x120E DUP4 PUSH2 0xFA4 JUMP JUMPDEST SWAP3 POP DUP3 DUP3 LT ISZERO PUSH2 0x1221 JUMPI PUSH2 0x1220 PUSH2 0x11C9 JUMP JUMPDEST JUMPDEST DUP3 DUP3 SUB SWAP1 POP SWAP3 SWAP2 POP POP JUMP JUMPDEST PUSH32 0x4E487B7100000000000000000000000000000000000000000000000000000000 PUSH1 0x0 MSTORE PUSH1 0x12 PUSH1 0x4 MSTORE PUSH1 0x24 PUSH1 0x0 REVERT JUMPDEST PUSH1 0x0 PUSH2 0x1266 DUP3 PUSH2 0xFA4 JUMP JUMPDEST SWAP2 POP PUSH2 0x1271 DUP4 PUSH2 0xFA4 JUMP JUMPDEST SWAP3 POP DUP3 PUSH2 0x1281 JUMPI PUSH2 0x1280 PUSH2 0x122C JUMP JUMPDEST JUMPDEST DUP3 DUP3 DIV SWAP1 POP SWAP3 SWAP2 POP POP JUMP JUMPDEST PUSH1 0x0 PUSH2 0x1297 DUP3 PUSH2 0xFA4 JUMP JUMPDEST SWAP2 POP PUSH2 0x12A2 DUP4 PUSH2 0xFA4 JUMP JUMPDEST SWAP3 POP DUP3 PUSH32 0xFFFFFFFFFFFFFFFFFFFFFFFFFFFFFFFFFFFFFFFFFFFFFFFFFFFFFFFFFFFFFFFF SUB DUP3 GT ISZERO PUSH2 0x12D7 JUMPI PUSH2 0x12D6 PUSH2 0x11C9 JUMP JUMPDEST JUMPDEST DUP3 DUP3 ADD SWAP1 POP SWAP3 SWAP2 POP POP JUMP JUMPDEST PUSH1 0x0 DUP2 SWAP1 POP SWAP2 SWAP1 POP JUMP JUMPDEST PUSH1 0x0 DUP2 PUSH1 0x0 SHL SWAP1 POP SWAP2 SWAP1 POP JUMP JUMPDEST PUSH1 0x0 PUSH2 0x1314 PUSH2 0x130F PUSH2 0x130A DUP5 PUSH2 0x12E2 JUMP JUMPDEST PUSH2 0x12EC JUMP JUMPDEST PUSH2 0xF6E JUMP JUMPDEST SWAP1 POP SWAP2 SWAP1 POP JUMP JUMPDEST PUSH2 0x1324 DUP2 PUSH2 0x12F9 JUMP JUMPDEST DUP3 MSTORE POP POP JUMP JUMPDEST PUSH1 0x0 PUSH1 0x20 DUP3 ADD SWAP1 POP PUSH2 0x133F PUSH1 0x0 DUP4 ADD DUP5 PUSH2 0x131B JUMP JUMPDEST SWAP3 SWAP2 POP POP JUMP JUMPDEST PUSH1 0x0 PUSH2 0x1350 DUP3 PUSH2 0xEC0 JUMP JUMPDEST SWAP1 POP SWAP2 SWAP1 POP JUMP JUMPDEST PUSH2 0x1360 DUP2 PUSH2 0x1345 JUMP JUMPDEST DUP2 EQ PUSH2 0x136B JUMPI PUSH1 0x0 DUP1 REVERT JUMPDEST POP JUMP JUMPDEST PUSH1 0x0 DUP2 MLOAD SWAP1 POP PUSH2 0x137D DUP2 PUSH2 0x1357 JUMP JUMPDEST SWAP3 SWAP2 POP POP JUMP JUMPDEST PUSH1 0x0 PUSH1 0x20 DUP3 DUP5 SUB SLT ISZERO PUSH2 0x1399 JUMPI PUSH2 0x1398 PUSH2 0xF64 JUMP JUMPDEST JUMPDEST PUSH1 0x0 PUSH2 0x13A7 DUP5 DUP3 DUP6 ADD PUSH2 0x136E JUMP JUMPDEST SWAP2 POP POP SWAP3 SWAP2 POP POP JUMP JUMPDEST PUSH1 0x0 DUP2 SWAP1 POP SWAP2 SWAP1 POP JUMP JUMPDEST PUSH2 0x13CB PUSH2 0x13C6 DUP3 PUSH2 0xF6E JUMP JUMPDEST PUSH2 0x13B0 JUMP JUMPDEST DUP3 MSTORE POP POP JUMP JUMPDEST PUSH1 0x0 DUP2 SWAP1 POP SWAP2 SWAP1 POP JUMP JUMPDEST PUSH2 0x13EC PUSH2 0x13E7 DUP3 PUSH2 0xFA4 JUMP JUMPDEST PUSH2 0x13D1 JUMP JUMPDEST DUP3 MSTORE POP POP JUMP JUMPDEST PUSH1 0x0 PUSH2 0x13FE DUP3 DUP6 PUSH2 0x13BA JUMP JUMPDEST PUSH1 0x20 DUP3 ADD SWAP2 POP PUSH2 0x140E DUP3 DUP5 PUSH2 0x13DB JUMP JUMPDEST PUSH1 0x20 DUP3 ADD SWAP2 POP DUP2 SWAP1 POP SWAP4 SWAP3 POP POP POP JUMP JUMPDEST PUSH2 0x1427 DUP2 PUSH2 0xF6E JUMP JUMPDEST DUP3 MSTORE POP POP JUMP JUMPDEST PUSH1 0x0 PUSH1 0x20 DUP3 ADD SWAP1 POP PUSH2 0x1442 PUSH1 0x0 DUP4 ADD DUP5 PUSH2 0x141E JUMP JUMPDEST SWAP3 SWAP2 POP POP JUMP JUMPDEST PUSH1 0x0 DUP1 REVERT JUMPDEST PUSH32 0x4E487B7100000000000000000000000000000000000000000000000000000000 PUSH1 0x0 MSTORE PUSH1 0x41 PUSH1 0x4 MSTORE PUSH1 0x24 PUSH1 0x0 REVERT JUMPDEST PUSH2 0x1485 DUP3 PUSH2 0x111F JUMP JUMPDEST DUP2 ADD DUP2 DUP2 LT PUSH8 0xFFFFFFFFFFFFFFFF DUP3 GT OR ISZERO PUSH2 0x14A4 JUMPI PUSH2 0x14A3 PUSH2 0x144D JUMP JUMPDEST JUMPDEST DUP1 PUSH1 0x40 MSTORE POP POP POP JUMP JUMPDEST PUSH1 0x0 PUSH2 0x14B7 PUSH2 0xF5A JUMP JUMPDEST SWAP1 POP PUSH2 0x14C3 DUP3 DUP3 PUSH2 0x147C JUMP JUMPDEST SWAP2 SWAP1 POP JUMP JUMPDEST PUSH1 0x0 PUSH8 0xFFFFFFFFFFFFFFFF DUP3 GT ISZERO PUSH2 0x14E3 JUMPI PUSH2 0x14E2 PUSH2 0x144D JUMP JUMPDEST JUMPDEST PUSH1 0x20 DUP3 MUL SWAP1 POP PUSH1 0x20 DUP2 ADD SWAP1 POP SWAP2 SWAP1 POP JUMP JUMPDEST PUSH1 0x0 DUP1 REVERT JUMPDEST PUSH1 0x0 DUP2 MLOAD SWAP1 POP PUSH2 0x1508 DUP2 PUSH2 0xFAE JUMP JUMPDEST SWAP3 SWAP2 POP POP JUMP JUMPDEST PUSH1 0x0 PUSH2 0x1521 PUSH2 0x151C DUP5 PUSH2 0x14C8 JUMP JUMPDEST PUSH2 0x14AD JUMP JUMPDEST SWAP1 POP DUP1 DUP4 DUP3 MSTORE PUSH1 0x20 DUP3 ADD SWAP1 POP PUSH1 0x20 DUP5 MUL DUP4 ADD DUP6 DUP2 GT ISZERO PUSH2 0x1544 JUMPI PUSH2 0x1543 PUSH2 0x14F4 JUMP JUMPDEST JUMPDEST DUP4 JUMPDEST DUP2 DUP2 LT ISZERO PUSH2 0x156D JUMPI DUP1 PUSH2 0x1559 DUP9 DUP3 PUSH2 0x14F9 JUMP JUMPDEST DUP5 MSTORE PUSH1 0x20 DUP5 ADD SWAP4 POP POP PUSH1 0x20 DUP2 ADD SWAP1 POP PUSH2 0x1546 JUMP JUMPDEST POP POP POP SWAP4 SWAP3 POP POP POP JUMP JUMPDEST PUSH1 0x0 DUP3 PUSH1 0x1F DUP4 ADD SLT PUSH2 0x158C JUMPI PUSH2 0x158B PUSH2 0x1448 JUMP JUMPDEST JUMPDEST DUP2 MLOAD PUSH2 0x159C DUP5 DUP3 PUSH1 0x20 DUP7 ADD PUSH2 0x150E JUMP JUMPDEST SWAP2 POP POP SWAP3 SWAP2 POP POP JUMP JUMPDEST PUSH1 0x0 PUSH1 0x20 DUP3 DUP5 SUB SLT ISZERO PUSH2 0x15BB JUMPI PUSH2 0x15BA PUSH2 0xF64 JUMP JUMPDEST JUMPDEST PUSH1 0x0 DUP3 ADD MLOAD PUSH8 0xFFFFFFFFFFFFFFFF DUP2 GT ISZERO PUSH2 0x15D9 JUMPI PUSH2 0x15D8 PUSH2 0xF69 JUMP JUMPDEST JUMPDEST PUSH2 0x15E5 DUP5 DUP3 DUP6 ADD PUSH2 0x1577 JUMP JUMPDEST SWAP2 POP POP SWAP3 SWAP2 POP POP JUMP JUMPDEST PUSH1 0x0 PUSH1 0x20 DUP3 DUP5 SUB SLT ISZERO PUSH2 0x1604 JUMPI PUSH2 0x1603 PUSH2 0xF64 JUMP JUMPDEST JUMPDEST PUSH1 0x0 PUSH2 0x1612 DUP5 DUP3 DUP6 ADD PUSH2 0x14F9 JUMP JUMPDEST SWAP2 POP POP SWAP3 SWAP2 POP POP JUMP JUMPDEST PUSH1 0x0 PUSH1 0x40 DUP3 ADD SWAP1 POP PUSH2 0x1630 PUSH1 0x0 DUP4 ADD DUP6 PUSH2 0x141E JUMP JUMPDEST PUSH2 0x163D PUSH1 0x20 DUP4 ADD DUP5 PUSH2 0x1035 JUMP JUMPDEST SWAP4 SWAP3 POP POP POP JUMP JUMPDEST PUSH1 0x0 DUP1 REVERT JUMPDEST PUSH1 0x0 PUSH8 0xFFFFFFFFFFFFFFFF DUP3 GT ISZERO PUSH2 0x1664 JUMPI PUSH2 0x1663 PUSH2 0x144D JUMP JUMPDEST JUMPDEST PUSH2 0x166D DUP3 PUSH2 0x111F JUMP JUMPDEST SWAP1 POP PUSH1 0x20 DUP2 ADD SWAP1 POP SWAP2 SWAP1 POP JUMP JUMPDEST PUSH1 0x0 PUSH2 0x168D PUSH2 0x1688 DUP5 PUSH2 0x1649 JUMP JUMPDEST PUSH2 0x14AD JUMP JUMPDEST SWAP1 POP DUP3 DUP2 MSTORE PUSH1 0x20 DUP2 ADD DUP5 DUP5 DUP5 ADD GT ISZERO PUSH2 0x16A9 JUMPI PUSH2 0x16A8 PUSH2 0x1644 JUMP JUMPDEST JUMPDEST PUSH2 0x16B4 DUP5 DUP3 DUP6 PUSH2 0x10EC JUMP JUMPDEST POP SWAP4 SWAP3 POP POP POP JUMP JUMPDEST PUSH1 0x0 DUP3 PUSH1 0x1F DUP4 ADD SLT PUSH2 0x16D1 JUMPI PUSH2 0x16D0 PUSH2 0x1448 JUMP JUMPDEST JUMPDEST DUP2 MLOAD PUSH2 0x16E1 DUP5 DUP3 PUSH1 0x20 DUP7 ADD PUSH2 0x167A JUMP JUMPDEST SWAP2 POP POP SWAP3 SWAP2 POP POP JUMP JUMPDEST PUSH1 0x0 PUSH1 0x20 DUP3 DUP5 SUB SLT ISZERO PUSH2 0x1700 JUMPI PUSH2 0x16FF PUSH2 0xF64 JUMP JUMPDEST JUMPDEST PUSH1 0x0 DUP3 ADD MLOAD PUSH8 0xFFFFFFFFFFFFFFFF DUP2 GT ISZERO PUSH2 0x171E JUMPI PUSH2 0x171D PUSH2 0xF69 JUMP JUMPDEST JUMPDEST PUSH2 0x172A DUP5 DUP3 DUP6 ADD PUSH2 0x16BC JUMP JUMPDEST SWAP2 POP POP SWAP3 SWAP2 POP POP JUMP INVALID LOG2 PUSH5 0x6970667358 0x22 SLT KECCAK256 EQ LOG1 0x2C 0xE1 SWAP6 0xB6 SWAP16 0xE7 0xF8 0xC6 0xE6 0xEC BYTE TIMESTAMP 0xAD DUP6 SDIV PUSH30 0xEC3020DBEDF13CB6890033FAA02064736F6C634300080900330000000000 "},"methodIdentifiers":{"getCurrentValue(bytes32)":"adf1639d","getDataBefore(bytes32,uint256)":"a792765f","getIndexForDataBefore(bytes32,uint256)":"29449085","getNewValueCountbyQueryId(bytes32)":"77b03e0d","getTimestampbyQueryIdandIndex(bytes32,uint256)":"ce5e11bf","isInDispute(bytes32,uint256)":"44e87f91","retrieveData(bytes32,uint256)":"c5958af9","tellor()":"1959ad5b"}}}}}