{"contracts/helpers/MerkleTree.sol":{"MerkleTree":{"abi":[{"inputs":[{"internalType":"bytes32[]","name":"Inputs","type":"bytes32[]"}],"name":"GetRootHash","outputs":[{"internalType":"bytes32","name":"","type":"bytes32"}],"stateMutability":"pure","type":"function"}],"evm":{"bytecode":{"linkReferences":{},"object":"608060405234801561001057600080fd5b50610759806100206000396000f3fe608060405234801561001057600080fd5b506004361061002b5760003560e01c80637ea9924314610030575b600080fd5b61004a600480360381019061004591906104e0565b610060565b6040516100579190610538565b60405180910390f35b600080825190506001811415610094578260008151811061008457610083610553565b5b6020026020010151915050610338565b60006002826100a391906105bb565b6002836100b0919061061b565b6100ba919061064c565b67ffffffffffffffff8111156100d3576100d2610367565b5b6040519080825280602002602001820160405280156101015781602001602082028036833780820191505090505b50905060008060018461011491906106a2565b90506000600190506000805b6001156103125782156101e5578885815181106101405761013f610553565b5b6020026020010151905083600186610158919061064c565b111561018e5780816040516020016101719291906106f7565b6040516020818303038152906040528051906020012091506101e0565b808960018761019d919061064c565b815181106101ae576101ad610553565b5b60200260200101516040516020016101c79291906106f7565b6040516020818303038152906040528051906020012091505b610299565b8585815181106101f8576101f7610553565b5b6020026020010151905083600186610210919061064c565b11156102465780816040516020016102299291906106f7565b604051602081830303815290604052805190602001209150610298565b8086600187610255919061064c565b8151811061026657610265610553565b5b602002602001015160405160200161027f9291906106f7565b6040516020818303038152906040528051906020012091505b5b81866002876102a8919061061b565b815181106102b9576102b8610553565b5b6020026020010181815250506002856102d2919061064c565b94508385111561030d57600280866102ea91906106a2565b6102f4919061061b565b9350600084141561030457610312565b60009450600092505b610120565b8560008151811061032657610325610553565b5b60200260200101519750505050505050505b919050565b6000604051905090565b600080fd5b600080fd5b600080fd5b6000601f19601f8301169050919050565b7f4e487b7100000000000000000000000000000000000000000000000000000000600052604160045260246000fd5b61039f82610356565b810181811067ffffffffffffffff821117156103be576103bd610367565b5b80604052505050565b60006103d161033d565b90506103dd8282610396565b919050565b600067ffffffffffffffff8211156103fd576103fc610367565b5b602082029050602081019050919050565b600080fd5b6000819050919050565b61042681610413565b811461043157600080fd5b50565b6000813590506104438161041d565b92915050565b600061045c610457846103e2565b6103c7565b9050808382526020820190506020840283018581111561047f5761047e61040e565b5b835b818110156104a857806104948882610434565b845260208401935050602081019050610481565b5050509392505050565b600082601f8301126104c7576104c6610351565b5b81356104d7848260208601610449565b91505092915050565b6000602082840312156104f6576104f5610347565b5b600082013567ffffffffffffffff8111156105145761051361034c565b5b610520848285016104b2565b91505092915050565b61053281610413565b82525050565b600060208201905061054d6000830184610529565b92915050565b7f4e487b7100000000000000000000000000000000000000000000000000000000600052603260045260246000fd5b6000819050919050565b7f4e487b7100000000000000000000000000000000000000000000000000000000600052601260045260246000fd5b60006105c682610582565b91506105d183610582565b9250826105e1576105e061058c565b5b828206905092915050565b7f4e487b7100000000000000000000000000000000000000000000000000000000600052601160045260246000fd5b600061062682610582565b915061063183610582565b9250826106415761064061058c565b5b828204905092915050565b600061065782610582565b915061066283610582565b9250827fffffffffffffffffffffffffffffffffffffffffffffffffffffffffffffffff03821115610697576106966105ec565b5b828201905092915050565b60006106ad82610582565b91506106b883610582565b9250828210156106cb576106ca6105ec565b5b828203905092915050565b6000819050919050565b6106f16106ec82610413565b6106d6565b82525050565b600061070382856106e0565b60208201915061071382846106e0565b602082019150819050939250505056fea264697066735822122023a57f94097101ac2fa17c6eb1516505ec1da5ee09cd7336e211c556ded29f0664736f6c63430008090033","opcodes":"PUSH1 0x80 PUSH1 0x40 MSTORE CALLVALUE DUP1 ISZERO PUSH2 0x10 JUMPI PUSH1 0x0 DUP1 REVERT JUMPDEST POP PUSH2 0x759 DUP1 PUSH2 0x20 PUSH1 0x0 CODECOPY PUSH1 0x0 RETURN INVALID PUSH1 0x80 PUSH1 0x40 MSTORE CALLVALUE DUP1 ISZERO PUSH2 0x10 JUMPI PUSH1 0x0 DUP1 REVERT JUMPDEST POP PUSH1 0x4 CALLDATASIZE LT PUSH2 0x2B JUMPI PUSH1 0x0 CALLDATALOAD PUSH1 0xE0 SHR DUP1 PUSH4 0x7EA99243 EQ PUSH2 0x30 JUMPI JUMPDEST PUSH1 0x0 DUP1 REVERT JUMPDEST PUSH2 0x4A PUSH1 0x4 DUP1 CALLDATASIZE SUB DUP2 ADD SWAP1 PUSH2 0x45 SWAP2 SWAP1 PUSH2 0x4E0 JUMP JUMPDEST PUSH2 0x60 JUMP JUMPDEST PUSH1 0x40 MLOAD PUSH2 0x57 SWAP2 SWAP1 PUSH2 0x538 JUMP JUMPDEST PUSH1 0x40 MLOAD DUP1 SWAP2 SUB SWAP1 RETURN JUMPDEST PUSH1 0x0 DUP1 DUP3 MLOAD SWAP1 POP PUSH1 0x1 DUP2 EQ ISZERO PUSH2 0x94 JUMPI DUP3 PUSH1 0x0 DUP2 MLOAD DUP2 LT PUSH2 0x84 JUMPI PUSH2 0x83 PUSH2 0x553 JUMP JUMPDEST JUMPDEST PUSH1 0x20 MUL PUSH1 0x20 ADD ADD MLOAD SWAP2 POP POP PUSH2 0x338 JUMP JUMPDEST PUSH1 0x0 PUSH1 0x2 DUP3 PUSH2 0xA3 SWAP2 SWAP1 PUSH2 0x5BB JUMP JUMPDEST PUSH1 0x2 DUP4 PUSH2 0xB0 SWAP2 SWAP1 PUSH2 0x61B JUMP JUMPDEST PUSH2 0xBA SWAP2 SWAP1 PUSH2 0x64C JUMP JUMPDEST PUSH8 0xFFFFFFFFFFFFFFFF DUP2 GT ISZERO PUSH2 0xD3 JUMPI PUSH2 0xD2 PUSH2 0x367 JUMP JUMPDEST JUMPDEST PUSH1 0x40 MLOAD SWAP1 DUP1 DUP3 MSTORE DUP1 PUSH1 0x20 MUL PUSH1 0x20 ADD DUP3 ADD PUSH1 0x40 MSTORE DUP1 ISZERO PUSH2 0x101 JUMPI DUP2 PUSH1 0x20 ADD PUSH1 0x20 DUP3 MUL DUP1 CALLDATASIZE DUP4 CALLDATACOPY DUP1 DUP3 ADD SWAP2 POP POP SWAP1 POP JUMPDEST POP SWAP1 POP PUSH1 0x0 DUP1 PUSH1 0x1 DUP5 PUSH2 0x114 SWAP2 SWAP1 PUSH2 0x6A2 JUMP JUMPDEST SWAP1 POP PUSH1 0x0 PUSH1 0x1 SWAP1 POP PUSH1 0x0 DUP1 JUMPDEST PUSH1 0x1 ISZERO PUSH2 0x312 JUMPI DUP3 ISZERO PUSH2 0x1E5 JUMPI DUP9 DUP6 DUP2 MLOAD DUP2 LT PUSH2 0x140 JUMPI PUSH2 0x13F PUSH2 0x553 JUMP JUMPDEST JUMPDEST PUSH1 0x20 MUL PUSH1 0x20 ADD ADD MLOAD SWAP1 POP DUP4 PUSH1 0x1 DUP7 PUSH2 0x158 SWAP2 SWAP1 PUSH2 0x64C JUMP JUMPDEST GT ISZERO PUSH2 0x18E JUMPI DUP1 DUP2 PUSH1 0x40 MLOAD PUSH1 0x20 ADD PUSH2 0x171 SWAP3 SWAP2 SWAP1 PUSH2 0x6F7 JUMP JUMPDEST PUSH1 0x40 MLOAD PUSH1 0x20 DUP2 DUP4 SUB SUB DUP2 MSTORE SWAP1 PUSH1 0x40 MSTORE DUP1 MLOAD SWAP1 PUSH1 0x20 ADD KECCAK256 SWAP2 POP PUSH2 0x1E0 JUMP JUMPDEST DUP1 DUP10 PUSH1 0x1 DUP8 PUSH2 0x19D SWAP2 SWAP1 PUSH2 0x64C JUMP JUMPDEST DUP2 MLOAD DUP2 LT PUSH2 0x1AE JUMPI PUSH2 0x1AD PUSH2 0x553 JUMP JUMPDEST JUMPDEST PUSH1 0x20 MUL PUSH1 0x20 ADD ADD MLOAD PUSH1 0x40 MLOAD PUSH1 0x20 ADD PUSH2 0x1C7 SWAP3 SWAP2 SWAP1 PUSH2 0x6F7 JUMP JUMPDEST PUSH1 0x40 MLOAD PUSH1 0x20 DUP2 DUP4 SUB SUB DUP2 MSTORE SWAP1 PUSH1 0x40 MSTORE DUP1 MLOAD SWAP1 PUSH1 0x20 ADD KECCAK256 SWAP2 POP JUMPDEST PUSH2 0x299 JUMP JUMPDEST DUP6 DUP6 DUP2 MLOAD DUP2 LT PUSH2 0x1F8 JUMPI PUSH2 0x1F7 PUSH2 0x553 JUMP JUMPDEST JUMPDEST PUSH1 0x20 MUL PUSH1 0x20 ADD ADD MLOAD SWAP1 POP DUP4 PUSH1 0x1 DUP7 PUSH2 0x210 SWAP2 SWAP1 PUSH2 0x64C JUMP JUMPDEST GT ISZERO PUSH2 0x246 JUMPI DUP1 DUP2 PUSH1 0x40 MLOAD PUSH1 0x20 ADD PUSH2 0x229 SWAP3 SWAP2 SWAP1 PUSH2 0x6F7 JUMP JUMPDEST PUSH1 0x40 MLOAD PUSH1 0x20 DUP2 DUP4 SUB SUB DUP2 MSTORE SWAP1 PUSH1 0x40 MSTORE DUP1 MLOAD SWAP1 PUSH1 0x20 ADD KECCAK256 SWAP2 POP PUSH2 0x298 JUMP JUMPDEST DUP1 DUP7 PUSH1 0x1 DUP8 PUSH2 0x255 SWAP2 SWAP1 PUSH2 0x64C JUMP JUMPDEST DUP2 MLOAD DUP2 LT PUSH2 0x266 JUMPI PUSH2 0x265 PUSH2 0x553 JUMP JUMPDEST JUMPDEST PUSH1 0x20 MUL PUSH1 0x20 ADD ADD MLOAD PUSH1 0x40 MLOAD PUSH1 0x20 ADD PUSH2 0x27F SWAP3 SWAP2 SWAP1 PUSH2 0x6F7 JUMP JUMPDEST PUSH1 0x40 MLOAD PUSH1 0x20 DUP2 DUP4 SUB SUB DUP2 MSTORE SWAP1 PUSH1 0x40 MSTORE DUP1 MLOAD SWAP1 PUSH1 0x20 ADD KECCAK256 SWAP2 POP JUMPDEST JUMPDEST DUP2 DUP7 PUSH1 0x2 DUP8 PUSH2 0x2A8 SWAP2 SWAP1 PUSH2 0x61B JUMP JUMPDEST DUP2 MLOAD DUP2 LT PUSH2 0x2B9 JUMPI PUSH2 0x2B8 PUSH2 0x553 JUMP JUMPDEST JUMPDEST PUSH1 0x20 MUL PUSH1 0x20 ADD ADD DUP2 DUP2 MSTORE POP POP PUSH1 0x2 DUP6 PUSH2 0x2D2 SWAP2 SWAP1 PUSH2 0x64C JUMP JUMPDEST SWAP5 POP DUP4 DUP6 GT ISZERO PUSH2 0x30D JUMPI PUSH1 0x2 DUP1 DUP7 PUSH2 0x2EA SWAP2 SWAP1 PUSH2 0x6A2 JUMP JUMPDEST PUSH2 0x2F4 SWAP2 SWAP1 PUSH2 0x61B JUMP JUMPDEST SWAP4 POP PUSH1 0x0 DUP5 EQ ISZERO PUSH2 0x304 JUMPI PUSH2 0x312 JUMP JUMPDEST PUSH1 0x0 SWAP5 POP PUSH1 0x0 SWAP3 POP JUMPDEST PUSH2 0x120 JUMP JUMPDEST DUP6 PUSH1 0x0 DUP2 MLOAD DUP2 LT PUSH2 0x326 JUMPI PUSH2 0x325 PUSH2 0x553 JUMP JUMPDEST JUMPDEST PUSH1 0x20 MUL PUSH1 0x20 ADD ADD MLOAD SWAP8 POP POP POP POP POP POP POP POP JUMPDEST SWAP2 SWAP1 POP JUMP JUMPDEST PUSH1 0x0 PUSH1 0x40 MLOAD SWAP1 POP SWAP1 JUMP JUMPDEST PUSH1 0x0 DUP1 REVERT JUMPDEST PUSH1 0x0 DUP1 REVERT JUMPDEST PUSH1 0x0 DUP1 REVERT JUMPDEST PUSH1 0x0 PUSH1 0x1F NOT PUSH1 0x1F DUP4 ADD AND SWAP1 POP SWAP2 SWAP1 POP JUMP JUMPDEST PUSH32 0x4E487B7100000000000000000000000000000000000000000000000000000000 PUSH1 0x0 MSTORE PUSH1 0x41 PUSH1 0x4 MSTORE PUSH1 0x24 PUSH1 0x0 REVERT JUMPDEST PUSH2 0x39F DUP3 PUSH2 0x356 JUMP JUMPDEST DUP2 ADD DUP2 DUP2 LT PUSH8 0xFFFFFFFFFFFFFFFF DUP3 GT OR ISZERO PUSH2 0x3BE JUMPI PUSH2 0x3BD PUSH2 0x367 JUMP JUMPDEST JUMPDEST DUP1 PUSH1 0x40 MSTORE POP POP POP JUMP JUMPDEST PUSH1 0x0 PUSH2 0x3D1 PUSH2 0x33D JUMP JUMPDEST SWAP1 POP PUSH2 0x3DD DUP3 DUP3 PUSH2 0x396 JUMP JUMPDEST SWAP2 SWAP1 POP JUMP JUMPDEST PUSH1 0x0 PUSH8 0xFFFFFFFFFFFFFFFF DUP3 GT ISZERO PUSH2 0x3FD JUMPI PUSH2 0x3FC PUSH2 0x367 JUMP JUMPDEST JUMPDEST PUSH1 0x20 DUP3 MUL SWAP1 POP PUSH1 0x20 DUP2 ADD SWAP1 POP SWAP2 SWAP1 POP JUMP JUMPDEST PUSH1 0x0 DUP1 REVERT JUMPDEST PUSH1 0x0 DUP2 SWAP1 POP SWAP2 SWAP1 POP JUMP JUMPDEST PUSH2 0x426 DUP2 PUSH2 0x413 JUMP JUMPDEST DUP2 EQ PUSH2 0x431 JUMPI PUSH1 0x0 DUP1 REVERT JUMPDEST POP JUMP JUMPDEST PUSH1 0x0 DUP2 CALLDATALOAD SWAP1 POP PUSH2 0x443 DUP2 PUSH2 0x41D JUMP JUMPDEST SWAP3 SWAP2 POP POP JUMP JUMPDEST PUSH1 0x0 PUSH2 0x45C PUSH2 0x457 DUP5 PUSH2 0x3E2 JUMP JUMPDEST PUSH2 0x3C7 JUMP JUMPDEST SWAP1 POP DUP1 DUP4 DUP3 MSTORE PUSH1 0x20 DUP3 ADD SWAP1 POP PUSH1 0x20 DUP5 MUL DUP4 ADD DUP6 DUP2 GT ISZERO PUSH2 0x47F JUMPI PUSH2 0x47E PUSH2 0x40E JUMP JUMPDEST JUMPDEST DUP4 JUMPDEST DUP2 DUP2 LT ISZERO PUSH2 0x4A8 JUMPI DUP1 PUSH2 0x494 DUP9 DUP3 PUSH2 0x434 JUMP JUMPDEST DUP5 MSTORE PUSH1 0x20 DUP5 ADD SWAP4 POP POP PUSH1 0x20 DUP2 ADD SWAP1 POP PUSH2 0x481 JUMP JUMPDEST POP POP POP SWAP4 SWAP3 POP POP POP JUMP JUMPDEST PUSH1 0x0 DUP3 PUSH1 0x1F DUP4 ADD SLT PUSH2 0x4C7 JUMPI PUSH2 0x4C6 PUSH2 0x351 JUMP JUMPDEST JUMPDEST DUP2 CALLDATALOAD PUSH2 0x4D7 DUP5 DUP3 PUSH1 0x20 DUP7 ADD PUSH2 0x449 JUMP JUMPDEST SWAP2 POP POP SWAP3 SWAP2 POP POP JUMP JUMPDEST PUSH1 0x0 PUSH1 0x20 DUP3 DUP5 SUB SLT ISZERO PUSH2 0x4F6 JUMPI PUSH2 0x4F5 PUSH2 0x347 JUMP JUMPDEST JUMPDEST PUSH1 0x0 DUP3 ADD CALLDATALOAD PUSH8 0xFFFFFFFFFFFFFFFF DUP2 GT ISZERO PUSH2 0x514 JUMPI PUSH2 0x513 PUSH2 0x34C JUMP JUMPDEST JUMPDEST PUSH2 0x520 DUP5 DUP3 DUP6 ADD PUSH2 0x4B2 JUMP JUMPDEST SWAP2 POP POP SWAP3 SWAP2 POP POP JUMP JUMPDEST PUSH2 0x532 DUP2 PUSH2 0x413 JUMP JUMPDEST DUP3 MSTORE POP POP JUMP JUMPDEST PUSH1 0x0 PUSH1 0x20 DUP3 ADD SWAP1 POP PUSH2 0x54D PUSH1 0x0 DUP4 ADD DUP5 PUSH2 0x529 JUMP JUMPDEST SWAP3 SWAP2 POP POP JUMP JUMPDEST PUSH32 0x4E487B7100000000000000000000000000000000000000000000000000000000 PUSH1 0x0 MSTORE PUSH1 0x32 PUSH1 0x4 MSTORE PUSH1 0x24 PUSH1 0x0 REVERT JUMPDEST PUSH1 0x0 DUP2 SWAP1 POP SWAP2 SWAP1 POP JUMP JUMPDEST PUSH32 0x4E487B7100000000000000000000000000000000000000000000000000000000 PUSH1 0x0 MSTORE PUSH1 0x12 PUSH1 0x4 MSTORE PUSH1 0x24 PUSH1 0x0 REVERT JUMPDEST PUSH1 0x0 PUSH2 0x5C6 DUP3 PUSH2 0x582 JUMP JUMPDEST SWAP2 POP PUSH2 0x5D1 DUP4 PUSH2 0x582 JUMP JUMPDEST SWAP3 POP DUP3 PUSH2 0x5E1 JUMPI PUSH2 0x5E0 PUSH2 0x58C JUMP JUMPDEST JUMPDEST DUP3 DUP3 MOD SWAP1 POP SWAP3 SWAP2 POP POP JUMP JUMPDEST PUSH32 0x4E487B7100000000000000000000000000000000000000000000000000000000 PUSH1 0x0 MSTORE PUSH1 0x11 PUSH1 0x4 MSTORE PUSH1 0x24 PUSH1 0x0 REVERT JUMPDEST PUSH1 0x0 PUSH2 0x626 DUP3 PUSH2 0x582 JUMP JUMPDEST SWAP2 POP PUSH2 0x631 DUP4 PUSH2 0x582 JUMP JUMPDEST SWAP3 POP DUP3 PUSH2 0x641 JUMPI PUSH2 0x640 PUSH2 0x58C JUMP JUMPDEST JUMPDEST DUP3 DUP3 DIV SWAP1 POP SWAP3 SWAP2 POP POP JUMP JUMPDEST PUSH1 0x0 PUSH2 0x657 DUP3 PUSH2 0x582 JUMP JUMPDEST SWAP2 POP PUSH2 0x662 DUP4 PUSH2 0x582 JUMP JUMPDEST SWAP3 POP DUP3 PUSH32 0xFFFFFFFFFFFFFFFFFFFFFFFFFFFFFFFFFFFFFFFFFFFFFFFFFFFFFFFFFFFFFFFF SUB DUP3 GT ISZERO PUSH2 0x697 JUMPI PUSH2 0x696 PUSH2 0x5EC JUMP JUMPDEST JUMPDEST DUP3 DUP3 ADD SWAP1 POP SWAP3 SWAP2 POP POP JUMP JUMPDEST PUSH1 0x0 PUSH2 0x6AD DUP3 PUSH2 0x582 JUMP JUMPDEST SWAP2 POP PUSH2 0x6B8 DUP4 PUSH2 0x582 JUMP JUMPDEST SWAP3 POP DUP3 DUP3 LT ISZERO PUSH2 0x6CB JUMPI PUSH2 0x6CA PUSH2 0x5EC JUMP JUMPDEST JUMPDEST DUP3 DUP3 SUB SWAP1 POP SWAP3 SWAP2 POP POP JUMP JUMPDEST PUSH1 0x0 DUP2 SWAP1 POP SWAP2 SWAP1 POP JUMP JUMPDEST PUSH2 0x6F1 PUSH2 0x6EC DUP3 PUSH2 0x413 JUMP JUMPDEST PUSH2 0x6D6 JUMP JUMPDEST DUP3 MSTORE POP POP JUMP JUMPDEST PUSH1 0x0 PUSH2 0x703 DUP3 DUP6 PUSH2 0x6E0 JUMP JUMPDEST PUSH1 0x20 DUP3 ADD SWAP2 POP PUSH2 0x713 DUP3 DUP5 PUSH2 0x6E0 JUMP JUMPDEST PUSH1 0x20 DUP3 ADD SWAP2 POP DUP2 SWAP1 POP SWAP4 SWAP3 POP POP POP JUMP INVALID LOG2 PUSH5 0x6970667358 0x22 SLT KECCAK256 0x23 0xA5 PUSH32 0x94097101AC2FA17C6EB1516505EC1DA5EE09CD7336E211C556DED29F0664736F PUSH13 0x63430008090033000000000000 "},"methodIdentifiers":{"GetRootHash(bytes32[])":"7ea99243"}}}}}