{
  "_format": "hh-sol-artifact-1",
  "contractName": "CCBalances",
  "sourceName": "contracts/CCBalances.sol",
  "abi": [
    {
      "inputs": [
        {
          "internalType": "address payable",
          "name": "_tellor",
          "type": "address"
        }
      ],
      "stateMutability": "nonpayable",
      "type": "constructor"
    },
    {
      "inputs": [
        {
          "internalType": "bytes32[]",
          "name": "Inputs",
          "type": "bytes32[]"
        }
      ],
      "name": "GetRootHash",
      "outputs": [
        {
          "internalType": "bytes32",
          "name": "",
          "type": "bytes32"
        }
      ],
      "stateMutability": "pure",
      "type": "function"
    },
    {
      "inputs": [
        {
          "internalType": "uint256",
          "name": "_chain",
          "type": "uint256"
        },
        {
          "internalType": "address",
          "name": "_token",
          "type": "address"
        },
        {
          "internalType": "bytes32[]",
          "name": "_hashes",
          "type": "bytes32[]"
        },
        {
          "internalType": "bool[]",
          "name": "_hashRight",
          "type": "bool[]"
        }
      ],
      "name": "checkProof",
      "outputs": [
        {
          "internalType": "bool",
          "name": "",
          "type": "bool"
        }
      ],
      "stateMutability": "view",
      "type": "function"
    },
    {
      "inputs": [
        {
          "internalType": "uint256",
          "name": "_chain",
          "type": "uint256"
        },
        {
          "internalType": "address",
          "name": "_address",
          "type": "address"
        }
      ],
      "name": "getCrossChainBalances",
      "outputs": [
        {
          "internalType": "bytes32",
          "name": "_newRootHash",
          "type": "bytes32"
        }
      ],
      "stateMutability": "nonpayable",
      "type": "function"
    },
    {
      "inputs": [
        {
          "internalType": "bytes32",
          "name": "_queryId",
          "type": "bytes32"
        }
      ],
      "name": "getCurrentValue",
      "outputs": [
        {
          "internalType": "bool",
          "name": "_ifRetrieve",
          "type": "bool"
        },
        {
          "internalType": "bytes",
          "name": "_value",
          "type": "bytes"
        },
        {
          "internalType": "uint256",
          "name": "_timestampRetrieved",
          "type": "uint256"
        }
      ],
      "stateMutability": "view",
      "type": "function"
    },
    {
      "inputs": [
        {
          "internalType": "bytes32",
          "name": "_queryId",
          "type": "bytes32"
        },
        {
          "internalType": "uint256",
          "name": "_timestamp",
          "type": "uint256"
        }
      ],
      "name": "getDataBefore",
      "outputs": [
        {
          "internalType": "bool",
          "name": "_ifRetrieve",
          "type": "bool"
        },
        {
          "internalType": "bytes",
          "name": "_value",
          "type": "bytes"
        },
        {
          "internalType": "uint256",
          "name": "_timestampRetrieved",
          "type": "uint256"
        }
      ],
      "stateMutability": "view",
      "type": "function"
    },
    {
      "inputs": [
        {
          "internalType": "bytes32",
          "name": "_queryId",
          "type": "bytes32"
        },
        {
          "internalType": "uint256",
          "name": "_timestamp",
          "type": "uint256"
        }
      ],
      "name": "getIndexForDataBefore",
      "outputs": [
        {
          "internalType": "bool",
          "name": "_found",
          "type": "bool"
        },
        {
          "internalType": "uint256",
          "name": "_index",
          "type": "uint256"
        }
      ],
      "stateMutability": "view",
      "type": "function"
    },
    {
      "inputs": [
        {
          "internalType": "bytes32",
          "name": "_queryId",
          "type": "bytes32"
        }
      ],
      "name": "getNewValueCountbyQueryId",
      "outputs": [
        {
          "internalType": "uint256",
          "name": "",
          "type": "uint256"
        }
      ],
      "stateMutability": "view",
      "type": "function"
    },
    {
      "inputs": [
        {
          "internalType": "bytes32",
          "name": "_queryId",
          "type": "bytes32"
        },
        {
          "internalType": "uint256",
          "name": "_index",
          "type": "uint256"
        }
      ],
      "name": "getTimestampbyQueryIdandIndex",
      "outputs": [
        {
          "internalType": "uint256",
          "name": "",
          "type": "uint256"
        }
      ],
      "stateMutability": "view",
      "type": "function"
    },
    {
      "inputs": [
        {
          "internalType": "bytes32",
          "name": "_queryId",
          "type": "bytes32"
        },
        {
          "internalType": "uint256",
          "name": "_timestamp",
          "type": "uint256"
        }
      ],
      "name": "isInDispute",
      "outputs": [
        {
          "internalType": "bool",
          "name": "",
          "type": "bool"
        }
      ],
      "stateMutability": "view",
      "type": "function"
    },
    {
      "inputs": [
        {
          "internalType": "bytes32",
          "name": "_queryId",
          "type": "bytes32"
        },
        {
          "internalType": "uint256",
          "name": "_timestamp",
          "type": "uint256"
        }
      ],
      "name": "retrieveData",
      "outputs": [
        {
          "internalType": "bytes",
          "name": "",
          "type": "bytes"
        }
      ],
      "stateMutability": "view",
      "type": "function"
    },
    {
      "inputs": [
        {
          "internalType": "uint256",
          "name": "",
          "type": "uint256"
        },
        {
          "internalType": "address",
          "name": "",
          "type": "address"
        }
      ],
      "name": "rootHash",
      "outputs": [
        {
          "internalType": "bytes32",
          "name": "",
          "type": "bytes32"
        }
      ],
      "stateMutability": "view",
      "type": "function"
    },
    {
      "inputs": [],
      "name": "tellor",
      "outputs": [
        {
          "internalType": "contract ITellor",
          "name": "",
          "type": "address"
        }
      ],
      "stateMutability": "view",
      "type": "function"
    },
    {
      "inputs": [
        {
          "internalType": "uint256",
          "name": "_chain",
          "type": "uint256"
        },
        {
          "internalType": "address",
          "name": "_token",
          "type": "address"
        },
        {
          "internalType": "address",
          "name": "_account",
          "type": "address"
        },
        {
          "internalType": "uint256",
          "name": "_balance",
          "type": "uint256"
        },
        {
          "internalType": "bytes32[]",
          "name": "_hashes",
          "type": "bytes32[]"
        },
        {
          "internalType": "bool[]",
          "name": "_right",
          "type": "bool[]"
        }
      ],
      "name": "verifyBalance",
      "outputs": [
        {
          "internalType": "bool",
          "name": "",
          "type": "bool"
        }
      ],
      "stateMutability": "view",
      "type": "function"
    }
  ],
  "bytecode": "0x60806040523480156200001157600080fd5b50604051620026eb380380620026eb8339818101604052810190620000379190620000ea565b80806000806101000a81548173ffffffffffffffffffffffffffffffffffffffff021916908373ffffffffffffffffffffffffffffffffffffffff16021790555050506200011c565b600080fd5b600073ffffffffffffffffffffffffffffffffffffffff82169050919050565b6000620000b28262000085565b9050919050565b620000c481620000a5565b8114620000d057600080fd5b50565b600081519050620000e481620000b9565b92915050565b60006020828403121562000103576200010262000080565b5b60006200011384828501620000d3565b91505092915050565b6125bf806200012c6000396000f3fe608060405234801561001057600080fd5b50600436106100cf5760003560e01c8063786003791161008c578063a792765f11610066578063a792765f14610273578063adf1639d146102a5578063c5958af9146102d7578063ce5e11bf14610307576100cf565b806378600379146101e35780637ea9924314610213578063a5606e9f14610243576100cf565b80631959ad5b146100d457806329449085146100f257806344e87f9114610123578063690665ae146101535780636b67d59f1461018357806377b03e0d146101b3575b600080fd5b6100dc610337565b6040516100e99190611803565b60405180910390f35b61010c6004803603810190610107919061189e565b61035b565b60405161011a929190611908565b60405180910390f35b61013d6004803603810190610138919061189e565b6104d6565b60405161014a9190611931565b60405180910390f35b61016d6004803603810190610168919061198a565b6107d9565b60405161017a91906119d9565b60405180910390f35b61019d60048036038101906101989190611aaf565b6108c9565b6040516101aa9190611931565b60405180910390f35b6101cd60048036038101906101c89190611b7e565b610a71565b6040516101da9190611bab565b60405180910390f35b6101fd60048036038101906101f8919061198a565b610ca6565b60405161020a91906119d9565b60405180910390f35b61022d60048036038101906102289190611d15565b610ccb565b60405161023a91906119d9565b60405180910390f35b61025d60048036038101906102589190611d5e565b610fa8565b60405161026a9190611931565b60405180910390f35b61028d6004803603810190610288919061189e565b611093565b60405161029c93929190611e8d565b60405180910390f35b6102bf60048036038101906102ba9190611b7e565b611145565b6040516102ce93929190611e8d565b60405180910390f35b6102f160048036038101906102ec919061189e565b6111fe565b6040516102fe9190611ecb565b60405180910390f35b610321600480360381019061031c919061189e565b611442565b60405161032e9190611bab565b60405180910390f35b60008054906101000a900473ffffffffffffffffffffffffffffffffffffffff1681565b600080600061036985610a71565b905060008111156104c65760008060009050600060018461038a9190611f1c565b905060006103988984611442565b90508781106103b2576000809650965050505050506104cf565b6103bc8983611442565b9050878110156103d7576001829650965050505050506104cf565b5b6001156104c157826001600285856103f09190611f1c565b6103fa9190611f7f565b6104049190611fb0565b61040e9190611fb0565b935061041a8985611442565b90508781101561046c57600061043c8a6001876104379190611fb0565b611442565b905088811061045757600185975097505050505050506104cf565b6001856104649190611fb0565b9350506104bc565b60006104848a60018761047f9190611f1c565b611442565b9050888110156104ab576001808661049c9190611f1c565b975097505050505050506104cf565b6001856104b89190611f1c565b9250505b6103d8565b505050505b60008092509250505b9250929050565b6000807318431fd88adf138e8b979a7246eb58ea7126ea1673ffffffffffffffffffffffffffffffffffffffff1660008054906101000a900473ffffffffffffffffffffffffffffffffffffffff1673ffffffffffffffffffffffffffffffffffffffff1614806105a6575073e8218cacb0a5421bc6409e498d9f8cc8869945ea73ffffffffffffffffffffffffffffffffffffffff1660008054906101000a900473ffffffffffffffffffffffffffffffffffffffff1673ffffffffffffffffffffffffffffffffffffffff16145b156106755760007388df592f8eb5d7bd38bfef7deb0fbc02cf3778a090508073ffffffffffffffffffffffffffffffffffffffff1663699f200f7fefa19baa864049f50491093580c5433e97e8d5e41f8db1a61108b4fa44cacd936040518263ffffffff1660e01b815260040161061d919061204e565b60206040518083038186803b15801561063557600080fd5b505afa158015610649573d6000803e3d6000fd5b505050506040513d601f19601f8201168201806040525081019061066d919061207e565b915050610716565b60008054906101000a900473ffffffffffffffffffffffffffffffffffffffff1673ffffffffffffffffffffffffffffffffffffffff16635aa6e6756040518163ffffffff1660e01b815260040160206040518083038186803b1580156106db57600080fd5b505afa1580156106ef573d6000803e3d6000fd5b505050506040513d601f19601f82011682018060405250810190610713919061207e565b90505b60008173ffffffffffffffffffffffffffffffffffffffff1663248638e586866040516020016107479291906120ed565b604051602081830303815290604052805190602001206040518263ffffffff1660e01b815260040161077991906119d9565b60006040518083038186803b15801561079157600080fd5b505afa1580156107a5573d6000803e3d6000fd5b505050506040513d6000823e3d601f19601f820116820180604052508101906107ce91906121f1565b511191505092915050565b60008083836040516020016107ef929190612249565b60405160208183030381529060405260405160200161080e91906122cf565b604051602081830303815290604052905060008180519060200120905060008060606108478461a8c0426108429190611f1c565b611093565b809450819350829550505050808060200190518101906108679190612319565b955085600160008a815260200190815260200160002060008973ffffffffffffffffffffffffffffffffffffffff1673ffffffffffffffffffffffffffffffffffffffff16815260200190815260200160002081905550505050505092915050565b600080600160008b815260200190815260200160002060008a73ffffffffffffffffffffffffffffffffffffffff1673ffffffffffffffffffffffffffffffffffffffff16815260200190815260200160002054905060008888604051602001610934929190612346565b604051602081830303815290604052805190602001209050600187879050141561098357808787600081811061096d5761096c61236f565b5b905060200201351461097e57600080fd5b6109ce565b80878760008181106109985761099761236f565b5b9050602002013514806109c4575080878760018181106109bb576109ba61236f565b5b90506020020135145b6109cd57600080fd5b5b6000610a5d83898980806020026020016040519081016040528093929190818152602001838360200280828437600081840152601f19601f82011690508083019250505050505050888880806020026020016040519081016040528093929190818152602001838360200280828437600081840152601f19601f8201169050808301925050505050505061167c565b905080935050505098975050505050505050565b60007318431fd88adf138e8b979a7246eb58ea7126ea1673ffffffffffffffffffffffffffffffffffffffff1660008054906101000a900473ffffffffffffffffffffffffffffffffffffffff1673ffffffffffffffffffffffffffffffffffffffff161480610b40575073e8218cacb0a5421bc6409e498d9f8cc8869945ea73ffffffffffffffffffffffffffffffffffffffff1660008054906101000a900473ffffffffffffffffffffffffffffffffffffffff1673ffffffffffffffffffffffffffffffffffffffff16145b15610bf55760008054906101000a900473ffffffffffffffffffffffffffffffffffffffff1673ffffffffffffffffffffffffffffffffffffffff166335e72432836040518263ffffffff1660e01b8152600401610b9e91906119d9565b60206040518083038186803b158015610bb657600080fd5b505afa158015610bca573d6000803e3d6000fd5b505050506040513d601f19601f82011682018060405250810190610bee919061239e565b9050610ca1565b60008054906101000a900473ffffffffffffffffffffffffffffffffffffffff1673ffffffffffffffffffffffffffffffffffffffff166377b03e0d836040518263ffffffff1660e01b8152600401610c4e91906119d9565b60206040518083038186803b158015610c6657600080fd5b505afa158015610c7a573d6000803e3d6000fd5b505050506040513d601f19601f82011682018060405250810190610c9e919061239e565b90505b919050565b6001602052816000526040600020602052806000526040600020600091509150505481565b600080825190506001811415610cff5782600081518110610cef57610cee61236f565b5b6020026020010151915050610fa3565b6000600282610d0e91906123cb565b600283610d1b9190611f7f565b610d259190611fb0565b67ffffffffffffffff811115610d3e57610d3d611bd7565b5b604051908082528060200260200182016040528015610d6c5781602001602082028036833780820191505090505b509050600080600184610d7f9190611f1c565b90506000600190506000805b600115610f7d578215610e5057888581518110610dab57610daa61236f565b5b6020026020010151905083600186610dc39190611fb0565b1115610df9578081604051602001610ddc9291906123fc565b604051602081830303815290604052805190602001209150610e4b565b8089600187610e089190611fb0565b81518110610e1957610e1861236f565b5b6020026020010151604051602001610e329291906123fc565b6040516020818303038152906040528051906020012091505b610f04565b858581518110610e6357610e6261236f565b5b6020026020010151905083600186610e7b9190611fb0565b1115610eb1578081604051602001610e949291906123fc565b604051602081830303815290604052805190602001209150610f03565b8086600187610ec09190611fb0565b81518110610ed157610ed061236f565b5b6020026020010151604051602001610eea9291906123fc565b6040516020818303038152906040528051906020012091505b5b8186600287610f139190611f7f565b81518110610f2457610f2361236f565b5b602002602001018181525050600285610f3d9190611fb0565b945083851115610f785760028086610f559190611f1c565b610f5f9190611f7f565b93506000841415610f6f57610f7d565b60009450600092505b610d8b565b85600081518110610f9157610f9061236f565b5b60200260200101519750505050505050505b919050565b60006110876001600089815260200190815260200160002060008873ffffffffffffffffffffffffffffffffffffffff1673ffffffffffffffffffffffffffffffffffffffff16815260200190815260200160002054868680806020026020016040519081016040528093929190818152602001838360200280828437600081840152601f19601f82011690508083019250505050505050858580806020026020016040519081016040528093929190818152602001838360200280828437600081840152601f19601f8201169050808301925050505050505061167c565b90509695505050505050565b6000606060008060006110a6878761035b565b91509150816110d0576000604051806020016040528060008152506000945094509450505061113e565b60006110dc8883611442565b90506110e888826111fe565b94506040518060200160405280600081525080519060200120858051906020012014611120576001858295509550955050505061113e565b60006040518060200160405280600081525060009550955095505050505b9250925092565b6000606060008061115585610a71565b90506000811415611180576000604051806020016040528060008152506000935093509350506111f7565b6000611198866001846111939190611f1c565b611442565b90506111a486826111fe565b935060405180602001604052806000815250805190602001208480519060200120146111db576001848294509450945050506111f7565b6000604051806020016040528060008152508294509450945050505b9193909250565b60607318431fd88adf138e8b979a7246eb58ea7126ea1673ffffffffffffffffffffffffffffffffffffffff1660008054906101000a900473ffffffffffffffffffffffffffffffffffffffff1673ffffffffffffffffffffffffffffffffffffffff1614806112cd575073e8218cacb0a5421bc6409e498d9f8cc8869945ea73ffffffffffffffffffffffffffffffffffffffff1660008054906101000a900473ffffffffffffffffffffffffffffffffffffffff1673ffffffffffffffffffffffffffffffffffffffff16145b156113895760008054906101000a900473ffffffffffffffffffffffffffffffffffffffff1673ffffffffffffffffffffffffffffffffffffffff16630b2d2b0d84846040518363ffffffff1660e01b815260040161132d929190612428565b60006040518083038186803b15801561134557600080fd5b505afa158015611359573d6000803e3d6000fd5b505050506040513d6000823e3d601f19601f8201168201806040525081019061138291906124f7565b905061143c565b60008054906101000a900473ffffffffffffffffffffffffffffffffffffffff1673ffffffffffffffffffffffffffffffffffffffff1663c5958af984846040518363ffffffff1660e01b81526004016113e4929190612428565b60006040518083038186803b1580156113fc57600080fd5b505afa158015611410573d6000803e3d6000fd5b505050506040513d6000823e3d601f19601f8201168201806040525081019061143991906124f7565b90505b92915050565b60007318431fd88adf138e8b979a7246eb58ea7126ea1673ffffffffffffffffffffffffffffffffffffffff1660008054906101000a900473ffffffffffffffffffffffffffffffffffffffff1673ffffffffffffffffffffffffffffffffffffffff161480611511575073e8218cacb0a5421bc6409e498d9f8cc8869945ea73ffffffffffffffffffffffffffffffffffffffff1660008054906101000a900473ffffffffffffffffffffffffffffffffffffffff1673ffffffffffffffffffffffffffffffffffffffff16145b156115c85760008054906101000a900473ffffffffffffffffffffffffffffffffffffffff1673ffffffffffffffffffffffffffffffffffffffff16637c37b8b484846040518363ffffffff1660e01b8152600401611571929190612428565b60206040518083038186803b15801561158957600080fd5b505afa15801561159d573d6000803e3d6000fd5b505050506040513d601f19601f820116820180604052508101906115c1919061239e565b9050611676565b60008054906101000a900473ffffffffffffffffffffffffffffffffffffffff1673ffffffffffffffffffffffffffffffffffffffff1663ce5e11bf84846040518363ffffffff1660e01b8152600401611623929190612428565b60206040518083038186803b15801561163b57600080fd5b505afa15801561164f573d6000803e3d6000fd5b505050506040513d601f19601f82011682018060405250810190611673919061239e565b90505b92915050565b600080836000815181106116935761169261236f565b5b602002602001015190506000845190506000600190505b81811015611775578481815181106116c5576116c461236f565b5b60200260200101511561171c57828682815181106116e6576116e561236f565b5b60200260200101516040516020016116ff9291906123fc565b604051602081830303815290604052805190602001209250611762565b85818151811061172f5761172e61236f565b5b6020026020010151836040516020016117499291906123fc565b6040516020818303038152906040528051906020012092505b808061176d90612540565b9150506116aa565b50858214925050509392505050565b600073ffffffffffffffffffffffffffffffffffffffff82169050919050565b6000819050919050565b60006117c96117c46117bf84611784565b6117a4565b611784565b9050919050565b60006117db826117ae565b9050919050565b60006117ed826117d0565b9050919050565b6117fd816117e2565b82525050565b600060208201905061181860008301846117f4565b92915050565b6000604051905090565b600080fd5b600080fd5b6000819050919050565b61184581611832565b811461185057600080fd5b50565b6000813590506118628161183c565b92915050565b6000819050919050565b61187b81611868565b811461188657600080fd5b50565b60008135905061189881611872565b92915050565b600080604083850312156118b5576118b4611828565b5b60006118c385828601611853565b92505060206118d485828601611889565b9150509250929050565b60008115159050919050565b6118f3816118de565b82525050565b61190281611868565b82525050565b600060408201905061191d60008301856118ea565b61192a60208301846118f9565b9392505050565b600060208201905061194660008301846118ea565b92915050565b600061195782611784565b9050919050565b6119678161194c565b811461197257600080fd5b50565b6000813590506119848161195e565b92915050565b600080604083850312156119a1576119a0611828565b5b60006119af85828601611889565b92505060206119c085828601611975565b9150509250929050565b6119d381611832565b82525050565b60006020820190506119ee60008301846119ca565b92915050565b600080fd5b600080fd5b600080fd5b60008083601f840112611a1957611a186119f4565b5b8235905067ffffffffffffffff811115611a3657611a356119f9565b5b602083019150836020820283011115611a5257611a516119fe565b5b9250929050565b60008083601f840112611a6f57611a6e6119f4565b5b8235905067ffffffffffffffff811115611a8c57611a8b6119f9565b5b602083019150836020820283011115611aa857611aa76119fe565b5b9250929050565b60008060008060008060008060c0898b031215611acf57611ace611828565b5b6000611add8b828c01611889565b9850506020611aee8b828c01611975565b9750506040611aff8b828c01611975565b9650506060611b108b828c01611889565b955050608089013567ffffffffffffffff811115611b3157611b3061182d565b5b611b3d8b828c01611a03565b945094505060a089013567ffffffffffffffff811115611b6057611b5f61182d565b5b611b6c8b828c01611a59565b92509250509295985092959890939650565b600060208284031215611b9457611b93611828565b5b6000611ba284828501611853565b91505092915050565b6000602082019050611bc060008301846118f9565b92915050565b6000601f19601f8301169050919050565b7f4e487b7100000000000000000000000000000000000000000000000000000000600052604160045260246000fd5b611c0f82611bc6565b810181811067ffffffffffffffff82111715611c2e57611c2d611bd7565b5b80604052505050565b6000611c4161181e565b9050611c4d8282611c06565b919050565b600067ffffffffffffffff821115611c6d57611c6c611bd7565b5b602082029050602081019050919050565b6000611c91611c8c84611c52565b611c37565b90508083825260208201905060208402830185811115611cb457611cb36119fe565b5b835b81811015611cdd5780611cc98882611853565b845260208401935050602081019050611cb6565b5050509392505050565b600082601f830112611cfc57611cfb6119f4565b5b8135611d0c848260208601611c7e565b91505092915050565b600060208284031215611d2b57611d2a611828565b5b600082013567ffffffffffffffff811115611d4957611d4861182d565b5b611d5584828501611ce7565b91505092915050565b60008060008060008060808789031215611d7b57611d7a611828565b5b6000611d8989828a01611889565b9650506020611d9a89828a01611975565b955050604087013567ffffffffffffffff811115611dbb57611dba61182d565b5b611dc789828a01611a03565b9450945050606087013567ffffffffffffffff811115611dea57611de961182d565b5b611df689828a01611a59565b92509250509295509295509295565b600081519050919050565b600082825260208201905092915050565b60005b83811015611e3f578082015181840152602081019050611e24565b83811115611e4e576000848401525b50505050565b6000611e5f82611e05565b611e698185611e10565b9350611e79818560208601611e21565b611e8281611bc6565b840191505092915050565b6000606082019050611ea260008301866118ea565b8181036020830152611eb48185611e54565b9050611ec360408301846118f9565b949350505050565b60006020820190508181036000830152611ee58184611e54565b905092915050565b7f4e487b7100000000000000000000000000000000000000000000000000000000600052601160045260246000fd5b6000611f2782611868565b9150611f3283611868565b925082821015611f4557611f44611eed565b5b828203905092915050565b7f4e487b7100000000000000000000000000000000000000000000000000000000600052601260045260246000fd5b6000611f8a82611868565b9150611f9583611868565b925082611fa557611fa4611f50565b5b828204905092915050565b6000611fbb82611868565b9150611fc683611868565b9250827fffffffffffffffffffffffffffffffffffffffffffffffffffffffffffffffff03821115611ffb57611ffa611eed565b5b828201905092915050565b6000819050919050565b60008160001b9050919050565b600061203861203361202e84612006565b612010565b611832565b9050919050565b6120488161201d565b82525050565b6000602082019050612063600083018461203f565b92915050565b6000815190506120788161195e565b92915050565b60006020828403121561209457612093611828565b5b60006120a284828501612069565b91505092915050565b6000819050919050565b6120c66120c182611832565b6120ab565b82525050565b6000819050919050565b6120e76120e282611868565b6120cc565b82525050565b60006120f982856120b5565b60208201915061210982846120d6565b6020820191508190509392505050565b600067ffffffffffffffff82111561213457612133611bd7565b5b602082029050602081019050919050565b60008151905061215481611872565b92915050565b600061216d61216884612119565b611c37565b905080838252602082019050602084028301858111156121905761218f6119fe565b5b835b818110156121b957806121a58882612145565b845260208401935050602081019050612192565b5050509392505050565b600082601f8301126121d8576121d76119f4565b5b81516121e884826020860161215a565b91505092915050565b60006020828403121561220757612206611828565b5b600082015167ffffffffffffffff8111156122255761222461182d565b5b612231848285016121c3565b91505092915050565b6122438161194c565b82525050565b600060408201905061225e60008301856118f9565b61226b602083018461223a565b9392505050565b600082825260208201905092915050565b7f43726f7373436861696e42616c616e6365000000000000000000000000000000600082015250565b60006122b9601183612272565b91506122c482612283565b602082019050919050565b600060408201905081810360008301526122e8816122ac565b905081810360208301526122fc8184611e54565b905092915050565b6000815190506123138161183c565b92915050565b60006020828403121561232f5761232e611828565b5b600061233d84828501612304565b91505092915050565b600060408201905061235b600083018561223a565b61236860208301846118f9565b9392505050565b7f4e487b7100000000000000000000000000000000000000000000000000000000600052603260045260246000fd5b6000602082840312156123b4576123b3611828565b5b60006123c284828501612145565b91505092915050565b60006123d682611868565b91506123e183611868565b9250826123f1576123f0611f50565b5b828206905092915050565b600061240882856120b5565b60208201915061241882846120b5565b6020820191508190509392505050565b600060408201905061243d60008301856119ca565b61244a60208301846118f9565b9392505050565b600080fd5b600067ffffffffffffffff82111561247157612470611bd7565b5b61247a82611bc6565b9050602081019050919050565b600061249a61249584612456565b611c37565b9050828152602081018484840111156124b6576124b5612451565b5b6124c1848285611e21565b509392505050565b600082601f8301126124de576124dd6119f4565b5b81516124ee848260208601612487565b91505092915050565b60006020828403121561250d5761250c611828565b5b600082015167ffffffffffffffff81111561252b5761252a61182d565b5b612537848285016124c9565b91505092915050565b600061254b82611868565b91507fffffffffffffffffffffffffffffffffffffffffffffffffffffffffffffffff82141561257e5761257d611eed565b5b60018201905091905056fea2646970667358221220d85c3a387f7f15231fc33b7fc37b63ac5b55fd96d6f2b42024d0f9c75309cac664736f6c63430008090033",
  "linkReferences": {},
  "deployedLinkReferences": {}
}