{
  "_format": "hh-sol-artifact-1",
  "contractName": "CCBalances",
  "sourceName": "contracts/CCBalances.sol",
  "abi": [
    {
      "inputs": [
        {
          "internalType": "address payable",
          "name": "_tellor",
          "type": "address"
        }
      ],
      "stateMutability": "nonpayable",
      "type": "constructor"
    },
    {
      "inputs": [
        {
          "internalType": "bytes32[]",
          "name": "Inputs",
          "type": "bytes32[]"
        }
      ],
      "name": "GetRootHash",
      "outputs": [
        {
          "internalType": "bytes32",
          "name": "",
          "type": "bytes32"
        }
      ],
      "stateMutability": "pure",
      "type": "function"
    },
    {
      "inputs": [
        {
          "internalType": "uint256",
          "name": "_chain",
          "type": "uint256"
        },
        {
          "internalType": "address",
          "name": "_token",
          "type": "address"
        },
        {
          "internalType": "bytes32[]",
          "name": "_hashes",
          "type": "bytes32[]"
        },
        {
          "internalType": "bool[]",
          "name": "_hashRight",
          "type": "bool[]"
        }
      ],
      "name": "checkProof",
      "outputs": [
        {
          "internalType": "bool",
          "name": "",
          "type": "bool"
        }
      ],
      "stateMutability": "view",
      "type": "function"
    },
    {
      "inputs": [
        {
          "internalType": "uint256",
          "name": "_chain",
          "type": "uint256"
        },
        {
          "internalType": "address",
          "name": "_address",
          "type": "address"
        }
      ],
      "name": "getCrossChainBalances",
      "outputs": [
        {
          "internalType": "bytes32",
          "name": "_newRootHash",
          "type": "bytes32"
        }
      ],
      "stateMutability": "nonpayable",
      "type": "function"
    },
    {
      "inputs": [
        {
          "internalType": "bytes32",
          "name": "_queryId",
          "type": "bytes32"
        }
      ],
      "name": "getCurrentValue",
      "outputs": [
        {
          "internalType": "bool",
          "name": "_ifRetrieve",
          "type": "bool"
        },
        {
          "internalType": "bytes",
          "name": "_value",
          "type": "bytes"
        },
        {
          "internalType": "uint256",
          "name": "_timestampRetrieved",
          "type": "uint256"
        }
      ],
      "stateMutability": "view",
      "type": "function"
    },
    {
      "inputs": [
        {
          "internalType": "bytes32",
          "name": "_queryId",
          "type": "bytes32"
        },
        {
          "internalType": "uint256",
          "name": "_timestamp",
          "type": "uint256"
        }
      ],
      "name": "getDataBefore",
      "outputs": [
        {
          "internalType": "bool",
          "name": "_ifRetrieve",
          "type": "bool"
        },
        {
          "internalType": "bytes",
          "name": "_value",
          "type": "bytes"
        },
        {
          "internalType": "uint256",
          "name": "_timestampRetrieved",
          "type": "uint256"
        }
      ],
      "stateMutability": "view",
      "type": "function"
    },
    {
      "inputs": [
        {
          "internalType": "bytes32",
          "name": "_queryId",
          "type": "bytes32"
        },
        {
          "internalType": "uint256",
          "name": "_timestamp",
          "type": "uint256"
        }
      ],
      "name": "getIndexForDataBefore",
      "outputs": [
        {
          "internalType": "bool",
          "name": "_found",
          "type": "bool"
        },
        {
          "internalType": "uint256",
          "name": "_index",
          "type": "uint256"
        }
      ],
      "stateMutability": "view",
      "type": "function"
    },
    {
      "inputs": [
        {
          "internalType": "bytes32",
          "name": "_queryId",
          "type": "bytes32"
        }
      ],
      "name": "getNewValueCountbyQueryId",
      "outputs": [
        {
          "internalType": "uint256",
          "name": "",
          "type": "uint256"
        }
      ],
      "stateMutability": "view",
      "type": "function"
    },
    {
      "inputs": [
        {
          "internalType": "bytes32",
          "name": "_queryId",
          "type": "bytes32"
        },
        {
          "internalType": "uint256",
          "name": "_index",
          "type": "uint256"
        }
      ],
      "name": "getTimestampbyQueryIdandIndex",
      "outputs": [
        {
          "internalType": "uint256",
          "name": "",
          "type": "uint256"
        }
      ],
      "stateMutability": "view",
      "type": "function"
    },
    {
      "inputs": [
        {
          "internalType": "bytes32",
          "name": "_queryId",
          "type": "bytes32"
        },
        {
          "internalType": "uint256",
          "name": "_timestamp",
          "type": "uint256"
        }
      ],
      "name": "isInDispute",
      "outputs": [
        {
          "internalType": "bool",
          "name": "",
          "type": "bool"
        }
      ],
      "stateMutability": "view",
      "type": "function"
    },
    {
      "inputs": [
        {
          "internalType": "bytes32",
          "name": "_queryId",
          "type": "bytes32"
        },
        {
          "internalType": "uint256",
          "name": "_timestamp",
          "type": "uint256"
        }
      ],
      "name": "retrieveData",
      "outputs": [
        {
          "internalType": "bytes",
          "name": "",
          "type": "bytes"
        }
      ],
      "stateMutability": "view",
      "type": "function"
    },
    {
      "inputs": [
        {
          "internalType": "uint256",
          "name": "",
          "type": "uint256"
        },
        {
          "internalType": "address",
          "name": "",
          "type": "address"
        }
      ],
      "name": "rootHash",
      "outputs": [
        {
          "internalType": "bytes32",
          "name": "",
          "type": "bytes32"
        }
      ],
      "stateMutability": "view",
      "type": "function"
    },
    {
      "inputs": [],
      "name": "tellor",
      "outputs": [
        {
          "internalType": "contract ITellor",
          "name": "",
          "type": "address"
        }
      ],
      "stateMutability": "view",
      "type": "function"
    },
    {
      "inputs": [
        {
          "internalType": "uint256",
          "name": "_chain",
          "type": "uint256"
        },
        {
          "internalType": "address",
          "name": "_token",
          "type": "address"
        },
        {
          "internalType": "address",
          "name": "_account",
          "type": "address"
        },
        {
          "internalType": "uint256",
          "name": "_balance",
          "type": "uint256"
        },
        {
          "internalType": "bytes32[]",
          "name": "_hashes",
          "type": "bytes32[]"
        },
        {
          "internalType": "bool[]",
          "name": "_right",
          "type": "bool[]"
        }
      ],
      "name": "verifyBalance",
      "outputs": [
        {
          "internalType": "bool",
          "name": "",
          "type": "bool"
        }
      ],
      "stateMutability": "view",
      "type": "function"
    }
  ],
  "bytecode": "0x60806040523480156200001157600080fd5b506040516200287b3803806200287b8339818101604052810190620000379190620000ea565b80806000806101000a81548173ffffffffffffffffffffffffffffffffffffffff021916908373ffffffffffffffffffffffffffffffffffffffff16021790555050506200011c565b600080fd5b600073ffffffffffffffffffffffffffffffffffffffff82169050919050565b6000620000b28262000085565b9050919050565b620000c481620000a5565b8114620000d057600080fd5b50565b600081519050620000e481620000b9565b92915050565b60006020828403121562000103576200010262000080565b5b60006200011384828501620000d3565b91505092915050565b61274f806200012c6000396000f3fe608060405234801561001057600080fd5b50600436106100cf5760003560e01c8063786003791161008c578063a792765f11610066578063a792765f14610273578063adf1639d146102a5578063c5958af9146102d7578063ce5e11bf14610307576100cf565b806378600379146101e35780637ea9924314610213578063a5606e9f14610243576100cf565b80631959ad5b146100d457806329449085146100f257806344e87f9114610123578063690665ae146101535780636b67d59f1461018357806377b03e0d146101b3575b600080fd5b6100dc610337565b6040516100e99190611993565b60405180910390f35b61010c60048036038101906101079190611a2e565b61035b565b60405161011a929190611a98565b60405180910390f35b61013d60048036038101906101389190611a2e565b6104d6565b60405161014a9190611ac1565b60405180910390f35b61016d60048036038101906101689190611b1a565b6107d9565b60405161017a9190611b69565b60405180910390f35b61019d60048036038101906101989190611c3f565b6108c9565b6040516101aa9190611ac1565b60405180910390f35b6101cd60048036038101906101c89190611d0e565b610aa6565b6040516101da9190611d3b565b60405180910390f35b6101fd60048036038101906101f89190611b1a565b610cdb565b60405161020a9190611b69565b60405180910390f35b61022d60048036038101906102289190611ea5565b610d00565b60405161023a9190611b69565b60405180910390f35b61025d60048036038101906102589190611eee565b610fdd565b60405161026a9190611ac1565b60405180910390f35b61028d60048036038101906102889190611a2e565b6110c8565b60405161029c9392919061201d565b60405180910390f35b6102bf60048036038101906102ba9190611d0e565b61117a565b6040516102ce9392919061201d565b60405180910390f35b6102f160048036038101906102ec9190611a2e565b611233565b6040516102fe919061205b565b60405180910390f35b610321600480360381019061031c9190611a2e565b611477565b60405161032e9190611d3b565b60405180910390f35b60008054906101000a900473ffffffffffffffffffffffffffffffffffffffff1681565b600080600061036985610aa6565b905060008111156104c65760008060009050600060018461038a91906120ac565b905060006103988984611477565b90508781106103b2576000809650965050505050506104cf565b6103bc8983611477565b9050878110156103d7576001829650965050505050506104cf565b5b6001156104c157826001600285856103f091906120ac565b6103fa919061210f565b6104049190612140565b61040e9190612140565b935061041a8985611477565b90508781101561046c57600061043c8a6001876104379190612140565b611477565b905088811061045757600185975097505050505050506104cf565b6001856104649190612140565b9350506104bc565b60006104848a60018761047f91906120ac565b611477565b9050888110156104ab576001808661049c91906120ac565b975097505050505050506104cf565b6001856104b891906120ac565b9250505b6103d8565b505050505b60008092509250505b9250929050565b6000807318431fd88adf138e8b979a7246eb58ea7126ea1673ffffffffffffffffffffffffffffffffffffffff1660008054906101000a900473ffffffffffffffffffffffffffffffffffffffff1673ffffffffffffffffffffffffffffffffffffffff1614806105a6575073e8218cacb0a5421bc6409e498d9f8cc8869945ea73ffffffffffffffffffffffffffffffffffffffff1660008054906101000a900473ffffffffffffffffffffffffffffffffffffffff1673ffffffffffffffffffffffffffffffffffffffff16145b156106755760007388df592f8eb5d7bd38bfef7deb0fbc02cf3778a090508073ffffffffffffffffffffffffffffffffffffffff1663699f200f7fefa19baa864049f50491093580c5433e97e8d5e41f8db1a61108b4fa44cacd936040518263ffffffff1660e01b815260040161061d91906121de565b60206040518083038186803b15801561063557600080fd5b505afa158015610649573d6000803e3d6000fd5b505050506040513d601f19601f8201168201806040525081019061066d919061220e565b915050610716565b60008054906101000a900473ffffffffffffffffffffffffffffffffffffffff1673ffffffffffffffffffffffffffffffffffffffff16635aa6e6756040518163ffffffff1660e01b815260040160206040518083038186803b1580156106db57600080fd5b505afa1580156106ef573d6000803e3d6000fd5b505050506040513d601f19601f82011682018060405250810190610713919061220e565b90505b60008173ffffffffffffffffffffffffffffffffffffffff1663248638e5868660405160200161074792919061227d565b604051602081830303815290604052805190602001206040518263ffffffff1660e01b81526004016107799190611b69565b60006040518083038186803b15801561079157600080fd5b505afa1580156107a5573d6000803e3d6000fd5b505050506040513d6000823e3d601f19601f820116820180604052508101906107ce9190612381565b511191505092915050565b60008083836040516020016107ef9291906123d9565b60405160208183030381529060405260405160200161080e919061245f565b604051602081830303815290604052905060008180519060200120905060008060606108478461a8c04261084291906120ac565b6110c8565b8094508193508295505050508080602001905181019061086791906124a9565b955085600160008a815260200190815260200160002060008973ffffffffffffffffffffffffffffffffffffffff1673ffffffffffffffffffffffffffffffffffffffff16815260200190815260200160002081905550505050505092915050565b600080600160008b815260200190815260200160002060008a73ffffffffffffffffffffffffffffffffffffffff1673ffffffffffffffffffffffffffffffffffffffff16815260200190815260200160002054905061092960016116b1565b6000888860405160200161093e9291906124d6565b60405160208183030381529060405280519060200120905061095f8161174a565b61096960026116b1565b60018787905014156109aa57808787600081811061098a576109896124ff565b5b905060200201351461099b57600080fd5b6109a560036116b1565b6109ff565b80878760008181106109bf576109be6124ff565b5b9050602002013514806109eb575080878760018181106109e2576109e16124ff565b5b90506020020135145b6109f457600080fd5b6109fe60046116b1565b5b610a0960056116b1565b610a9682888880806020026020016040519081016040528093929190818152602001838360200280828437600081840152601f19601f82011690508083019250505050505050878780806020026020016040519081016040528093929190818152602001838360200280828437600081840152601f19601f820116905080830192505050505050506117e3565b9250505098975050505050505050565b60007318431fd88adf138e8b979a7246eb58ea7126ea1673ffffffffffffffffffffffffffffffffffffffff1660008054906101000a900473ffffffffffffffffffffffffffffffffffffffff1673ffffffffffffffffffffffffffffffffffffffff161480610b75575073e8218cacb0a5421bc6409e498d9f8cc8869945ea73ffffffffffffffffffffffffffffffffffffffff1660008054906101000a900473ffffffffffffffffffffffffffffffffffffffff1673ffffffffffffffffffffffffffffffffffffffff16145b15610c2a5760008054906101000a900473ffffffffffffffffffffffffffffffffffffffff1673ffffffffffffffffffffffffffffffffffffffff166335e72432836040518263ffffffff1660e01b8152600401610bd39190611b69565b60206040518083038186803b158015610beb57600080fd5b505afa158015610bff573d6000803e3d6000fd5b505050506040513d601f19601f82011682018060405250810190610c23919061252e565b9050610cd6565b60008054906101000a900473ffffffffffffffffffffffffffffffffffffffff1673ffffffffffffffffffffffffffffffffffffffff166377b03e0d836040518263ffffffff1660e01b8152600401610c839190611b69565b60206040518083038186803b158015610c9b57600080fd5b505afa158015610caf573d6000803e3d6000fd5b505050506040513d601f19601f82011682018060405250810190610cd3919061252e565b90505b919050565b6001602052816000526040600020602052806000526040600020600091509150505481565b600080825190506001811415610d345782600081518110610d2457610d236124ff565b5b6020026020010151915050610fd8565b6000600282610d43919061255b565b600283610d50919061210f565b610d5a9190612140565b67ffffffffffffffff811115610d7357610d72611d67565b5b604051908082528060200260200182016040528015610da15781602001602082028036833780820191505090505b509050600080600184610db491906120ac565b90506000600190506000805b600115610fb2578215610e8557888581518110610de057610ddf6124ff565b5b6020026020010151905083600186610df89190612140565b1115610e2e578081604051602001610e1192919061258c565b604051602081830303815290604052805190602001209150610e80565b8089600187610e3d9190612140565b81518110610e4e57610e4d6124ff565b5b6020026020010151604051602001610e6792919061258c565b6040516020818303038152906040528051906020012091505b610f39565b858581518110610e9857610e976124ff565b5b6020026020010151905083600186610eb09190612140565b1115610ee6578081604051602001610ec992919061258c565b604051602081830303815290604052805190602001209150610f38565b8086600187610ef59190612140565b81518110610f0657610f056124ff565b5b6020026020010151604051602001610f1f92919061258c565b6040516020818303038152906040528051906020012091505b5b8186600287610f48919061210f565b81518110610f5957610f586124ff565b5b602002602001018181525050600285610f729190612140565b945083851115610fad5760028086610f8a91906120ac565b610f94919061210f565b93506000841415610fa457610fb2565b60009450600092505b610dc0565b85600081518110610fc657610fc56124ff565b5b60200260200101519750505050505050505b919050565b60006110bc6001600089815260200190815260200160002060008873ffffffffffffffffffffffffffffffffffffffff1673ffffffffffffffffffffffffffffffffffffffff16815260200190815260200160002054868680806020026020016040519081016040528093929190818152602001838360200280828437600081840152601f19601f82011690508083019250505050505050858580806020026020016040519081016040528093929190818152602001838360200280828437600081840152601f19601f820116905080830192505050505050506117e3565b90509695505050505050565b6000606060008060006110db878761035b565b91509150816111055760006040518060200160405280600081525060009450945094505050611173565b60006111118883611477565b905061111d8882611233565b945060405180602001604052806000815250805190602001208580519060200120146111555760018582955095509550505050611173565b60006040518060200160405280600081525060009550955095505050505b9250925092565b6000606060008061118a85610aa6565b905060008114156111b55760006040518060200160405280600081525060009350935093505061122c565b60006111cd866001846111c891906120ac565b611477565b90506111d98682611233565b935060405180602001604052806000815250805190602001208480519060200120146112105760018482945094509450505061122c565b6000604051806020016040528060008152508294509450945050505b9193909250565b60607318431fd88adf138e8b979a7246eb58ea7126ea1673ffffffffffffffffffffffffffffffffffffffff1660008054906101000a900473ffffffffffffffffffffffffffffffffffffffff1673ffffffffffffffffffffffffffffffffffffffff161480611302575073e8218cacb0a5421bc6409e498d9f8cc8869945ea73ffffffffffffffffffffffffffffffffffffffff1660008054906101000a900473ffffffffffffffffffffffffffffffffffffffff1673ffffffffffffffffffffffffffffffffffffffff16145b156113be5760008054906101000a900473ffffffffffffffffffffffffffffffffffffffff1673ffffffffffffffffffffffffffffffffffffffff16630b2d2b0d84846040518363ffffffff1660e01b81526004016113629291906125b8565b60006040518083038186803b15801561137a57600080fd5b505afa15801561138e573d6000803e3d6000fd5b505050506040513d6000823e3d601f19601f820116820180604052508101906113b79190612687565b9050611471565b60008054906101000a900473ffffffffffffffffffffffffffffffffffffffff1673ffffffffffffffffffffffffffffffffffffffff1663c5958af984846040518363ffffffff1660e01b81526004016114199291906125b8565b60006040518083038186803b15801561143157600080fd5b505afa158015611445573d6000803e3d6000fd5b505050506040513d6000823e3d601f19601f8201168201806040525081019061146e9190612687565b90505b92915050565b60007318431fd88adf138e8b979a7246eb58ea7126ea1673ffffffffffffffffffffffffffffffffffffffff1660008054906101000a900473ffffffffffffffffffffffffffffffffffffffff1673ffffffffffffffffffffffffffffffffffffffff161480611546575073e8218cacb0a5421bc6409e498d9f8cc8869945ea73ffffffffffffffffffffffffffffffffffffffff1660008054906101000a900473ffffffffffffffffffffffffffffffffffffffff1673ffffffffffffffffffffffffffffffffffffffff16145b156115fd5760008054906101000a900473ffffffffffffffffffffffffffffffffffffffff1673ffffffffffffffffffffffffffffffffffffffff16637c37b8b484846040518363ffffffff1660e01b81526004016115a69291906125b8565b60206040518083038186803b1580156115be57600080fd5b505afa1580156115d2573d6000803e3d6000fd5b505050506040513d601f19601f820116820180604052508101906115f6919061252e565b90506116ab565b60008054906101000a900473ffffffffffffffffffffffffffffffffffffffff1673ffffffffffffffffffffffffffffffffffffffff1663ce5e11bf84846040518363ffffffff1660e01b81526004016116589291906125b8565b60206040518083038186803b15801561167057600080fd5b505afa158015611684573d6000803e3d6000fd5b505050506040513d601f19601f820116820180604052508101906116a8919061252e565b90505b92915050565b611747816040516024016116c59190611d3b565b6040516020818303038152906040527ff82c50f1000000000000000000000000000000000000000000000000000000007bffffffffffffffffffffffffffffffffffffffffffffffffffffffff19166020820180517bffffffffffffffffffffffffffffffffffffffffffffffffffffffff83818316178352505050506118eb565b50565b6117e08160405160240161175e9190611b69565b6040516020818303038152906040527f27b7cf85000000000000000000000000000000000000000000000000000000007bffffffffffffffffffffffffffffffffffffffffffffffffffffffff19166020820180517bffffffffffffffffffffffffffffffffffffffffffffffffffffffff83818316178352505050506118eb565b50565b600080836000815181106117fa576117f96124ff565b5b602002602001015190506000845190506000600190505b818110156118dc5784818151811061182c5761182b6124ff565b5b602002602001015115611883578286828151811061184d5761184c6124ff565b5b602002602001015160405160200161186692919061258c565b6040516020818303038152906040528051906020012092506118c9565b858181518110611896576118956124ff565b5b6020026020010151836040516020016118b092919061258c565b6040516020818303038152906040528051906020012092505b80806118d4906126d0565b915050611811565b50858214925050509392505050565b60008151905060006a636f6e736f6c652e6c6f679050602083016000808483855afa5050505050565b600073ffffffffffffffffffffffffffffffffffffffff82169050919050565b6000819050919050565b600061195961195461194f84611914565b611934565b611914565b9050919050565b600061196b8261193e565b9050919050565b600061197d82611960565b9050919050565b61198d81611972565b82525050565b60006020820190506119a86000830184611984565b92915050565b6000604051905090565b600080fd5b600080fd5b6000819050919050565b6119d5816119c2565b81146119e057600080fd5b50565b6000813590506119f2816119cc565b92915050565b6000819050919050565b611a0b816119f8565b8114611a1657600080fd5b50565b600081359050611a2881611a02565b92915050565b60008060408385031215611a4557611a446119b8565b5b6000611a53858286016119e3565b9250506020611a6485828601611a19565b9150509250929050565b60008115159050919050565b611a8381611a6e565b82525050565b611a92816119f8565b82525050565b6000604082019050611aad6000830185611a7a565b611aba6020830184611a89565b9392505050565b6000602082019050611ad66000830184611a7a565b92915050565b6000611ae782611914565b9050919050565b611af781611adc565b8114611b0257600080fd5b50565b600081359050611b1481611aee565b92915050565b60008060408385031215611b3157611b306119b8565b5b6000611b3f85828601611a19565b9250506020611b5085828601611b05565b9150509250929050565b611b63816119c2565b82525050565b6000602082019050611b7e6000830184611b5a565b92915050565b600080fd5b600080fd5b600080fd5b60008083601f840112611ba957611ba8611b84565b5b8235905067ffffffffffffffff811115611bc657611bc5611b89565b5b602083019150836020820283011115611be257611be1611b8e565b5b9250929050565b60008083601f840112611bff57611bfe611b84565b5b8235905067ffffffffffffffff811115611c1c57611c1b611b89565b5b602083019150836020820283011115611c3857611c37611b8e565b5b9250929050565b60008060008060008060008060c0898b031215611c5f57611c5e6119b8565b5b6000611c6d8b828c01611a19565b9850506020611c7e8b828c01611b05565b9750506040611c8f8b828c01611b05565b9650506060611ca08b828c01611a19565b955050608089013567ffffffffffffffff811115611cc157611cc06119bd565b5b611ccd8b828c01611b93565b945094505060a089013567ffffffffffffffff811115611cf057611cef6119bd565b5b611cfc8b828c01611be9565b92509250509295985092959890939650565b600060208284031215611d2457611d236119b8565b5b6000611d32848285016119e3565b91505092915050565b6000602082019050611d506000830184611a89565b92915050565b6000601f19601f8301169050919050565b7f4e487b7100000000000000000000000000000000000000000000000000000000600052604160045260246000fd5b611d9f82611d56565b810181811067ffffffffffffffff82111715611dbe57611dbd611d67565b5b80604052505050565b6000611dd16119ae565b9050611ddd8282611d96565b919050565b600067ffffffffffffffff821115611dfd57611dfc611d67565b5b602082029050602081019050919050565b6000611e21611e1c84611de2565b611dc7565b90508083825260208201905060208402830185811115611e4457611e43611b8e565b5b835b81811015611e6d5780611e5988826119e3565b845260208401935050602081019050611e46565b5050509392505050565b600082601f830112611e8c57611e8b611b84565b5b8135611e9c848260208601611e0e565b91505092915050565b600060208284031215611ebb57611eba6119b8565b5b600082013567ffffffffffffffff811115611ed957611ed86119bd565b5b611ee584828501611e77565b91505092915050565b60008060008060008060808789031215611f0b57611f0a6119b8565b5b6000611f1989828a01611a19565b9650506020611f2a89828a01611b05565b955050604087013567ffffffffffffffff811115611f4b57611f4a6119bd565b5b611f5789828a01611b93565b9450945050606087013567ffffffffffffffff811115611f7a57611f796119bd565b5b611f8689828a01611be9565b92509250509295509295509295565b600081519050919050565b600082825260208201905092915050565b60005b83811015611fcf578082015181840152602081019050611fb4565b83811115611fde576000848401525b50505050565b6000611fef82611f95565b611ff98185611fa0565b9350612009818560208601611fb1565b61201281611d56565b840191505092915050565b60006060820190506120326000830186611a7a565b81810360208301526120448185611fe4565b90506120536040830184611a89565b949350505050565b600060208201905081810360008301526120758184611fe4565b905092915050565b7f4e487b7100000000000000000000000000000000000000000000000000000000600052601160045260246000fd5b60006120b7826119f8565b91506120c2836119f8565b9250828210156120d5576120d461207d565b5b828203905092915050565b7f4e487b7100000000000000000000000000000000000000000000000000000000600052601260045260246000fd5b600061211a826119f8565b9150612125836119f8565b925082612135576121346120e0565b5b828204905092915050565b600061214b826119f8565b9150612156836119f8565b9250827fffffffffffffffffffffffffffffffffffffffffffffffffffffffffffffffff0382111561218b5761218a61207d565b5b828201905092915050565b6000819050919050565b60008160001b9050919050565b60006121c86121c36121be84612196565b6121a0565b6119c2565b9050919050565b6121d8816121ad565b82525050565b60006020820190506121f360008301846121cf565b92915050565b60008151905061220881611aee565b92915050565b600060208284031215612224576122236119b8565b5b6000612232848285016121f9565b91505092915050565b6000819050919050565b612256612251826119c2565b61223b565b82525050565b6000819050919050565b612277612272826119f8565b61225c565b82525050565b60006122898285612245565b6020820191506122998284612266565b6020820191508190509392505050565b600067ffffffffffffffff8211156122c4576122c3611d67565b5b602082029050602081019050919050565b6000815190506122e481611a02565b92915050565b60006122fd6122f8846122a9565b611dc7565b905080838252602082019050602084028301858111156123205761231f611b8e565b5b835b81811015612349578061233588826122d5565b845260208401935050602081019050612322565b5050509392505050565b600082601f83011261236857612367611b84565b5b81516123788482602086016122ea565b91505092915050565b600060208284031215612397576123966119b8565b5b600082015167ffffffffffffffff8111156123b5576123b46119bd565b5b6123c184828501612353565b91505092915050565b6123d381611adc565b82525050565b60006040820190506123ee6000830185611a89565b6123fb60208301846123ca565b9392505050565b600082825260208201905092915050565b7f43726f7373436861696e42616c616e6365000000000000000000000000000000600082015250565b6000612449601183612402565b915061245482612413565b602082019050919050565b600060408201905081810360008301526124788161243c565b9050818103602083015261248c8184611fe4565b905092915050565b6000815190506124a3816119cc565b92915050565b6000602082840312156124bf576124be6119b8565b5b60006124cd84828501612494565b91505092915050565b60006040820190506124eb60008301856123ca565b6124f86020830184611a89565b9392505050565b7f4e487b7100000000000000000000000000000000000000000000000000000000600052603260045260246000fd5b600060208284031215612544576125436119b8565b5b6000612552848285016122d5565b91505092915050565b6000612566826119f8565b9150612571836119f8565b925082612581576125806120e0565b5b828206905092915050565b60006125988285612245565b6020820191506125a88284612245565b6020820191508190509392505050565b60006040820190506125cd6000830185611b5a565b6125da6020830184611a89565b9392505050565b600080fd5b600067ffffffffffffffff82111561260157612600611d67565b5b61260a82611d56565b9050602081019050919050565b600061262a612625846125e6565b611dc7565b905082815260208101848484011115612646576126456125e1565b5b612651848285611fb1565b509392505050565b600082601f83011261266e5761266d611b84565b5b815161267e848260208601612617565b91505092915050565b60006020828403121561269d5761269c6119b8565b5b600082015167ffffffffffffffff8111156126bb576126ba6119bd565b5b6126c784828501612659565b91505092915050565b60006126db826119f8565b91507fffffffffffffffffffffffffffffffffffffffffffffffffffffffffffffffff82141561270e5761270d61207d565b5b60018201905091905056fea2646970667358221220cec726eb201363c65622a90fc7f9932618af2d860c8838768b36d7bb7f7e8f9a64736f6c63430008090033",
  "linkReferences": {},
  "deployedLinkReferences": {}
}