{
  "_format": "hh-sol-artifact-1",
  "contractName": "CCBalances",
  "sourceName": "contracts/CCBalances.sol",
  "abi": [
    {
      "inputs": [
        {
          "internalType": "address payable",
          "name": "_tellor",
          "type": "address"
        }
      ],
      "stateMutability": "nonpayable",
      "type": "constructor"
    },
    {
      "inputs": [
        {
          "internalType": "bytes32[]",
          "name": "Inputs",
          "type": "bytes32[]"
        }
      ],
      "name": "GetRootHash",
      "outputs": [
        {
          "internalType": "bytes32",
          "name": "",
          "type": "bytes32"
        }
      ],
      "stateMutability": "pure",
      "type": "function"
    },
    {
      "inputs": [
        {
          "internalType": "uint256",
          "name": "_chain",
          "type": "uint256"
        },
        {
          "internalType": "address",
          "name": "_address",
          "type": "address"
        }
      ],
      "name": "getCrossChainBalances",
      "outputs": [
        {
          "internalType": "bytes32",
          "name": "_newRootHash",
          "type": "bytes32"
        }
      ],
      "stateMutability": "nonpayable",
      "type": "function"
    },
    {
      "inputs": [
        {
          "internalType": "bytes32",
          "name": "_queryId",
          "type": "bytes32"
        }
      ],
      "name": "getCurrentValue",
      "outputs": [
        {
          "internalType": "bool",
          "name": "_ifRetrieve",
          "type": "bool"
        },
        {
          "internalType": "bytes",
          "name": "_value",
          "type": "bytes"
        },
        {
          "internalType": "uint256",
          "name": "_timestampRetrieved",
          "type": "uint256"
        }
      ],
      "stateMutability": "view",
      "type": "function"
    },
    {
      "inputs": [
        {
          "internalType": "bytes32",
          "name": "_queryId",
          "type": "bytes32"
        },
        {
          "internalType": "uint256",
          "name": "_timestamp",
          "type": "uint256"
        }
      ],
      "name": "getDataBefore",
      "outputs": [
        {
          "internalType": "bool",
          "name": "_ifRetrieve",
          "type": "bool"
        },
        {
          "internalType": "bytes",
          "name": "_value",
          "type": "bytes"
        },
        {
          "internalType": "uint256",
          "name": "_timestampRetrieved",
          "type": "uint256"
        }
      ],
      "stateMutability": "view",
      "type": "function"
    },
    {
      "inputs": [
        {
          "internalType": "bytes32",
          "name": "_queryId",
          "type": "bytes32"
        },
        {
          "internalType": "uint256",
          "name": "_timestamp",
          "type": "uint256"
        }
      ],
      "name": "getIndexForDataBefore",
      "outputs": [
        {
          "internalType": "bool",
          "name": "_found",
          "type": "bool"
        },
        {
          "internalType": "uint256",
          "name": "_index",
          "type": "uint256"
        }
      ],
      "stateMutability": "view",
      "type": "function"
    },
    {
      "inputs": [
        {
          "internalType": "bytes32",
          "name": "_queryId",
          "type": "bytes32"
        }
      ],
      "name": "getNewValueCountbyQueryId",
      "outputs": [
        {
          "internalType": "uint256",
          "name": "",
          "type": "uint256"
        }
      ],
      "stateMutability": "view",
      "type": "function"
    },
    {
      "inputs": [
        {
          "internalType": "bytes32",
          "name": "_queryId",
          "type": "bytes32"
        },
        {
          "internalType": "uint256",
          "name": "_index",
          "type": "uint256"
        }
      ],
      "name": "getTimestampbyQueryIdandIndex",
      "outputs": [
        {
          "internalType": "uint256",
          "name": "",
          "type": "uint256"
        }
      ],
      "stateMutability": "view",
      "type": "function"
    },
    {
      "inputs": [
        {
          "internalType": "bytes32",
          "name": "_queryId",
          "type": "bytes32"
        },
        {
          "internalType": "uint256",
          "name": "_timestamp",
          "type": "uint256"
        }
      ],
      "name": "isInDispute",
      "outputs": [
        {
          "internalType": "bool",
          "name": "",
          "type": "bool"
        }
      ],
      "stateMutability": "view",
      "type": "function"
    },
    {
      "inputs": [
        {
          "internalType": "bytes32",
          "name": "_queryId",
          "type": "bytes32"
        },
        {
          "internalType": "uint256",
          "name": "_timestamp",
          "type": "uint256"
        }
      ],
      "name": "retrieveData",
      "outputs": [
        {
          "internalType": "bytes",
          "name": "",
          "type": "bytes"
        }
      ],
      "stateMutability": "view",
      "type": "function"
    },
    {
      "inputs": [
        {
          "internalType": "uint256",
          "name": "",
          "type": "uint256"
        },
        {
          "internalType": "address",
          "name": "",
          "type": "address"
        }
      ],
      "name": "rootHash",
      "outputs": [
        {
          "internalType": "bytes32",
          "name": "",
          "type": "bytes32"
        }
      ],
      "stateMutability": "view",
      "type": "function"
    },
    {
      "inputs": [],
      "name": "tellor",
      "outputs": [
        {
          "internalType": "contract ITellor",
          "name": "",
          "type": "address"
        }
      ],
      "stateMutability": "view",
      "type": "function"
    },
    {
      "inputs": [
        {
          "internalType": "uint256",
          "name": "_chain",
          "type": "uint256"
        },
        {
          "internalType": "address",
          "name": "_token",
          "type": "address"
        },
        {
          "internalType": "address",
          "name": "_account",
          "type": "address"
        },
        {
          "internalType": "uint256",
          "name": "_balance",
          "type": "uint256"
        },
        {
          "internalType": "bytes32[]",
          "name": "_hashes",
          "type": "bytes32[]"
        },
        {
          "internalType": "bool[]",
          "name": "_right",
          "type": "bool[]"
        }
      ],
      "name": "verifyBalance",
      "outputs": [
        {
          "internalType": "bool",
          "name": "",
          "type": "bool"
        }
      ],
      "stateMutability": "view",
      "type": "function"
    }
  ],
  "bytecode": "0x60806040523480156200001157600080fd5b506040516200250e3803806200250e8339818101604052810190620000379190620000ea565b80806000806101000a81548173ffffffffffffffffffffffffffffffffffffffff021916908373ffffffffffffffffffffffffffffffffffffffff16021790555050506200011c565b600080fd5b600073ffffffffffffffffffffffffffffffffffffffff82169050919050565b6000620000b28262000085565b9050919050565b620000c481620000a5565b8114620000d057600080fd5b50565b600081519050620000e481620000b9565b92915050565b60006020828403121562000103576200010262000080565b5b60006200011384828501620000d3565b91505092915050565b6123e2806200012c6000396000f3fe608060405234801561001057600080fd5b50600436106100b45760003560e01c8063786003791161007157806378600379146101c85780637ea99243146101f8578063a792765f14610228578063adf1639d1461025a578063c5958af91461028c578063ce5e11bf146102bc576100b4565b80631959ad5b146100b957806329449085146100d757806344e87f9114610108578063690665ae146101385780636b67d59f1461016857806377b03e0d14610198575b600080fd5b6100c16102ec565b6040516100ce91906116cd565b60405180910390f35b6100f160048036038101906100ec9190611768565b610310565b6040516100ff9291906117d2565b60405180910390f35b610122600480360381019061011d9190611768565b61048b565b60405161012f91906117fb565b60405180910390f35b610152600480360381019061014d9190611854565b61078e565b60405161015f91906118a3565b60405180910390f35b610182600480360381019061017d9190611979565b61087e565b60405161018f91906117fb565b60405180910390f35b6101b260048036038101906101ad9190611a48565b610a26565b6040516101bf9190611a75565b60405180910390f35b6101e260048036038101906101dd9190611854565b610c5b565b6040516101ef91906118a3565b60405180910390f35b610212600480360381019061020d9190611bdf565b610c80565b60405161021f91906118a3565b60405180910390f35b610242600480360381019061023d9190611768565b610f5d565b60405161025193929190611cb0565b60405180910390f35b610274600480360381019061026f9190611a48565b61100f565b60405161028393929190611cb0565b60405180910390f35b6102a660048036038101906102a19190611768565b6110c8565b6040516102b39190611cee565b60405180910390f35b6102d660048036038101906102d19190611768565b61130c565b6040516102e39190611a75565b60405180910390f35b60008054906101000a900473ffffffffffffffffffffffffffffffffffffffff1681565b600080600061031e85610a26565b9050600081111561047b5760008060009050600060018461033f9190611d3f565b9050600061034d898461130c565b905087811061036757600080965096505050505050610484565b610371898361130c565b90508781101561038c57600182965096505050505050610484565b5b60011561047657826001600285856103a59190611d3f565b6103af9190611da2565b6103b99190611dd3565b6103c39190611dd3565b93506103cf898561130c565b9050878110156104215760006103f18a6001876103ec9190611dd3565b61130c565b905088811061040c5760018597509750505050505050610484565b6001856104199190611dd3565b935050610471565b60006104398a6001876104349190611d3f565b61130c565b90508881101561046057600180866104519190611d3f565b97509750505050505050610484565b60018561046d9190611d3f565b9250505b61038d565b505050505b60008092509250505b9250929050565b6000807318431fd88adf138e8b979a7246eb58ea7126ea1673ffffffffffffffffffffffffffffffffffffffff1660008054906101000a900473ffffffffffffffffffffffffffffffffffffffff1673ffffffffffffffffffffffffffffffffffffffff16148061055b575073e8218cacb0a5421bc6409e498d9f8cc8869945ea73ffffffffffffffffffffffffffffffffffffffff1660008054906101000a900473ffffffffffffffffffffffffffffffffffffffff1673ffffffffffffffffffffffffffffffffffffffff16145b1561062a5760007388df592f8eb5d7bd38bfef7deb0fbc02cf3778a090508073ffffffffffffffffffffffffffffffffffffffff1663699f200f7fefa19baa864049f50491093580c5433e97e8d5e41f8db1a61108b4fa44cacd936040518263ffffffff1660e01b81526004016105d29190611e71565b60206040518083038186803b1580156105ea57600080fd5b505afa1580156105fe573d6000803e3d6000fd5b505050506040513d601f19601f820116820180604052508101906106229190611ea1565b9150506106cb565b60008054906101000a900473ffffffffffffffffffffffffffffffffffffffff1673ffffffffffffffffffffffffffffffffffffffff16635aa6e6756040518163ffffffff1660e01b815260040160206040518083038186803b15801561069057600080fd5b505afa1580156106a4573d6000803e3d6000fd5b505050506040513d601f19601f820116820180604052508101906106c89190611ea1565b90505b60008173ffffffffffffffffffffffffffffffffffffffff1663248638e586866040516020016106fc929190611f10565b604051602081830303815290604052805190602001206040518263ffffffff1660e01b815260040161072e91906118a3565b60006040518083038186803b15801561074657600080fd5b505afa15801561075a573d6000803e3d6000fd5b505050506040513d6000823e3d601f19601f820116820180604052508101906107839190612014565b511191505092915050565b60008083836040516020016107a492919061206c565b6040516020818303038152906040526040516020016107c391906120f2565b604051602081830303815290604052905060008180519060200120905060008060606107fc8461a8c0426107f79190611d3f565b610f5d565b8094508193508295505050508080602001905181019061081c919061213c565b955085600160008a815260200190815260200160002060008973ffffffffffffffffffffffffffffffffffffffff1673ffffffffffffffffffffffffffffffffffffffff16815260200190815260200160002081905550505050505092915050565b600080600160008b815260200190815260200160002060008a73ffffffffffffffffffffffffffffffffffffffff1673ffffffffffffffffffffffffffffffffffffffff168152602001908152602001600020549050600088886040516020016108e9929190612169565b604051602081830303815290604052805190602001209050600187879050141561093857808787600081811061092257610921612192565b5b905060200201351461093357600080fd5b610983565b808787600081811061094d5761094c612192565b5b905060200201351480610979575080878760018181106109705761096f612192565b5b90506020020135145b61098257600080fd5b5b6000610a1283898980806020026020016040519081016040528093929190818152602001838360200280828437600081840152601f19601f82011690508083019250505050505050888880806020026020016040519081016040528093929190818152602001838360200280828437600081840152601f19601f82011690508083019250505050505050611546565b905080935050505098975050505050505050565b60007318431fd88adf138e8b979a7246eb58ea7126ea1673ffffffffffffffffffffffffffffffffffffffff1660008054906101000a900473ffffffffffffffffffffffffffffffffffffffff1673ffffffffffffffffffffffffffffffffffffffff161480610af5575073e8218cacb0a5421bc6409e498d9f8cc8869945ea73ffffffffffffffffffffffffffffffffffffffff1660008054906101000a900473ffffffffffffffffffffffffffffffffffffffff1673ffffffffffffffffffffffffffffffffffffffff16145b15610baa5760008054906101000a900473ffffffffffffffffffffffffffffffffffffffff1673ffffffffffffffffffffffffffffffffffffffff166335e72432836040518263ffffffff1660e01b8152600401610b5391906118a3565b60206040518083038186803b158015610b6b57600080fd5b505afa158015610b7f573d6000803e3d6000fd5b505050506040513d601f19601f82011682018060405250810190610ba391906121c1565b9050610c56565b60008054906101000a900473ffffffffffffffffffffffffffffffffffffffff1673ffffffffffffffffffffffffffffffffffffffff166377b03e0d836040518263ffffffff1660e01b8152600401610c0391906118a3565b60206040518083038186803b158015610c1b57600080fd5b505afa158015610c2f573d6000803e3d6000fd5b505050506040513d601f19601f82011682018060405250810190610c5391906121c1565b90505b919050565b6001602052816000526040600020602052806000526040600020600091509150505481565b600080825190506001811415610cb45782600081518110610ca457610ca3612192565b5b6020026020010151915050610f58565b6000600282610cc391906121ee565b600283610cd09190611da2565b610cda9190611dd3565b67ffffffffffffffff811115610cf357610cf2611aa1565b5b604051908082528060200260200182016040528015610d215781602001602082028036833780820191505090505b509050600080600184610d349190611d3f565b90506000600190506000805b600115610f32578215610e0557888581518110610d6057610d5f612192565b5b6020026020010151905083600186610d789190611dd3565b1115610dae578081604051602001610d9192919061221f565b604051602081830303815290604052805190602001209150610e00565b8089600187610dbd9190611dd3565b81518110610dce57610dcd612192565b5b6020026020010151604051602001610de792919061221f565b6040516020818303038152906040528051906020012091505b610eb9565b858581518110610e1857610e17612192565b5b6020026020010151905083600186610e309190611dd3565b1115610e66578081604051602001610e4992919061221f565b604051602081830303815290604052805190602001209150610eb8565b8086600187610e759190611dd3565b81518110610e8657610e85612192565b5b6020026020010151604051602001610e9f92919061221f565b6040516020818303038152906040528051906020012091505b5b8186600287610ec89190611da2565b81518110610ed957610ed8612192565b5b602002602001018181525050600285610ef29190611dd3565b945083851115610f2d5760028086610f0a9190611d3f565b610f149190611da2565b93506000841415610f2457610f32565b60009450600092505b610d40565b85600081518110610f4657610f45612192565b5b60200260200101519750505050505050505b919050565b600060606000806000610f708787610310565b9150915081610f9a5760006040518060200160405280600081525060009450945094505050611008565b6000610fa6888361130c565b9050610fb288826110c8565b94506040518060200160405280600081525080519060200120858051906020012014610fea5760018582955095509550505050611008565b60006040518060200160405280600081525060009550955095505050505b9250925092565b6000606060008061101f85610a26565b9050600081141561104a576000604051806020016040528060008152506000935093509350506110c1565b60006110628660018461105d9190611d3f565b61130c565b905061106e86826110c8565b935060405180602001604052806000815250805190602001208480519060200120146110a5576001848294509450945050506110c1565b6000604051806020016040528060008152508294509450945050505b9193909250565b60607318431fd88adf138e8b979a7246eb58ea7126ea1673ffffffffffffffffffffffffffffffffffffffff1660008054906101000a900473ffffffffffffffffffffffffffffffffffffffff1673ffffffffffffffffffffffffffffffffffffffff161480611197575073e8218cacb0a5421bc6409e498d9f8cc8869945ea73ffffffffffffffffffffffffffffffffffffffff1660008054906101000a900473ffffffffffffffffffffffffffffffffffffffff1673ffffffffffffffffffffffffffffffffffffffff16145b156112535760008054906101000a900473ffffffffffffffffffffffffffffffffffffffff1673ffffffffffffffffffffffffffffffffffffffff16630b2d2b0d84846040518363ffffffff1660e01b81526004016111f792919061224b565b60006040518083038186803b15801561120f57600080fd5b505afa158015611223573d6000803e3d6000fd5b505050506040513d6000823e3d601f19601f8201168201806040525081019061124c919061231a565b9050611306565b60008054906101000a900473ffffffffffffffffffffffffffffffffffffffff1673ffffffffffffffffffffffffffffffffffffffff1663c5958af984846040518363ffffffff1660e01b81526004016112ae92919061224b565b60006040518083038186803b1580156112c657600080fd5b505afa1580156112da573d6000803e3d6000fd5b505050506040513d6000823e3d601f19601f82011682018060405250810190611303919061231a565b90505b92915050565b60007318431fd88adf138e8b979a7246eb58ea7126ea1673ffffffffffffffffffffffffffffffffffffffff1660008054906101000a900473ffffffffffffffffffffffffffffffffffffffff1673ffffffffffffffffffffffffffffffffffffffff1614806113db575073e8218cacb0a5421bc6409e498d9f8cc8869945ea73ffffffffffffffffffffffffffffffffffffffff1660008054906101000a900473ffffffffffffffffffffffffffffffffffffffff1673ffffffffffffffffffffffffffffffffffffffff16145b156114925760008054906101000a900473ffffffffffffffffffffffffffffffffffffffff1673ffffffffffffffffffffffffffffffffffffffff16637c37b8b484846040518363ffffffff1660e01b815260040161143b92919061224b565b60206040518083038186803b15801561145357600080fd5b505afa158015611467573d6000803e3d6000fd5b505050506040513d601f19601f8201168201806040525081019061148b91906121c1565b9050611540565b60008054906101000a900473ffffffffffffffffffffffffffffffffffffffff1673ffffffffffffffffffffffffffffffffffffffff1663ce5e11bf84846040518363ffffffff1660e01b81526004016114ed92919061224b565b60206040518083038186803b15801561150557600080fd5b505afa158015611519573d6000803e3d6000fd5b505050506040513d601f19601f8201168201806040525081019061153d91906121c1565b90505b92915050565b6000808360008151811061155d5761155c612192565b5b602002602001015190506000845190506000600190505b8181101561163f5784818151811061158f5761158e612192565b5b6020026020010151156115e657828682815181106115b0576115af612192565b5b60200260200101516040516020016115c992919061221f565b60405160208183030381529060405280519060200120925061162c565b8581815181106115f9576115f8612192565b5b60200260200101518360405160200161161392919061221f565b6040516020818303038152906040528051906020012092505b808061163790612363565b915050611574565b50858214925050509392505050565b600073ffffffffffffffffffffffffffffffffffffffff82169050919050565b6000819050919050565b600061169361168e6116898461164e565b61166e565b61164e565b9050919050565b60006116a582611678565b9050919050565b60006116b78261169a565b9050919050565b6116c7816116ac565b82525050565b60006020820190506116e260008301846116be565b92915050565b6000604051905090565b600080fd5b600080fd5b6000819050919050565b61170f816116fc565b811461171a57600080fd5b50565b60008135905061172c81611706565b92915050565b6000819050919050565b61174581611732565b811461175057600080fd5b50565b6000813590506117628161173c565b92915050565b6000806040838503121561177f5761177e6116f2565b5b600061178d8582860161171d565b925050602061179e85828601611753565b9150509250929050565b60008115159050919050565b6117bd816117a8565b82525050565b6117cc81611732565b82525050565b60006040820190506117e760008301856117b4565b6117f460208301846117c3565b9392505050565b600060208201905061181060008301846117b4565b92915050565b60006118218261164e565b9050919050565b61183181611816565b811461183c57600080fd5b50565b60008135905061184e81611828565b92915050565b6000806040838503121561186b5761186a6116f2565b5b600061187985828601611753565b925050602061188a8582860161183f565b9150509250929050565b61189d816116fc565b82525050565b60006020820190506118b86000830184611894565b92915050565b600080fd5b600080fd5b600080fd5b60008083601f8401126118e3576118e26118be565b5b8235905067ffffffffffffffff811115611900576118ff6118c3565b5b60208301915083602082028301111561191c5761191b6118c8565b5b9250929050565b60008083601f840112611939576119386118be565b5b8235905067ffffffffffffffff811115611956576119556118c3565b5b602083019150836020820283011115611972576119716118c8565b5b9250929050565b60008060008060008060008060c0898b031215611999576119986116f2565b5b60006119a78b828c01611753565b98505060206119b88b828c0161183f565b97505060406119c98b828c0161183f565b96505060606119da8b828c01611753565b955050608089013567ffffffffffffffff8111156119fb576119fa6116f7565b5b611a078b828c016118cd565b945094505060a089013567ffffffffffffffff811115611a2a57611a296116f7565b5b611a368b828c01611923565b92509250509295985092959890939650565b600060208284031215611a5e57611a5d6116f2565b5b6000611a6c8482850161171d565b91505092915050565b6000602082019050611a8a60008301846117c3565b92915050565b6000601f19601f8301169050919050565b7f4e487b7100000000000000000000000000000000000000000000000000000000600052604160045260246000fd5b611ad982611a90565b810181811067ffffffffffffffff82111715611af857611af7611aa1565b5b80604052505050565b6000611b0b6116e8565b9050611b178282611ad0565b919050565b600067ffffffffffffffff821115611b3757611b36611aa1565b5b602082029050602081019050919050565b6000611b5b611b5684611b1c565b611b01565b90508083825260208201905060208402830185811115611b7e57611b7d6118c8565b5b835b81811015611ba75780611b93888261171d565b845260208401935050602081019050611b80565b5050509392505050565b600082601f830112611bc657611bc56118be565b5b8135611bd6848260208601611b48565b91505092915050565b600060208284031215611bf557611bf46116f2565b5b600082013567ffffffffffffffff811115611c1357611c126116f7565b5b611c1f84828501611bb1565b91505092915050565b600081519050919050565b600082825260208201905092915050565b60005b83811015611c62578082015181840152602081019050611c47565b83811115611c71576000848401525b50505050565b6000611c8282611c28565b611c8c8185611c33565b9350611c9c818560208601611c44565b611ca581611a90565b840191505092915050565b6000606082019050611cc560008301866117b4565b8181036020830152611cd78185611c77565b9050611ce660408301846117c3565b949350505050565b60006020820190508181036000830152611d088184611c77565b905092915050565b7f4e487b7100000000000000000000000000000000000000000000000000000000600052601160045260246000fd5b6000611d4a82611732565b9150611d5583611732565b925082821015611d6857611d67611d10565b5b828203905092915050565b7f4e487b7100000000000000000000000000000000000000000000000000000000600052601260045260246000fd5b6000611dad82611732565b9150611db883611732565b925082611dc857611dc7611d73565b5b828204905092915050565b6000611dde82611732565b9150611de983611732565b9250827fffffffffffffffffffffffffffffffffffffffffffffffffffffffffffffffff03821115611e1e57611e1d611d10565b5b828201905092915050565b6000819050919050565b60008160001b9050919050565b6000611e5b611e56611e5184611e29565b611e33565b6116fc565b9050919050565b611e6b81611e40565b82525050565b6000602082019050611e866000830184611e62565b92915050565b600081519050611e9b81611828565b92915050565b600060208284031215611eb757611eb66116f2565b5b6000611ec584828501611e8c565b91505092915050565b6000819050919050565b611ee9611ee4826116fc565b611ece565b82525050565b6000819050919050565b611f0a611f0582611732565b611eef565b82525050565b6000611f1c8285611ed8565b602082019150611f2c8284611ef9565b6020820191508190509392505050565b600067ffffffffffffffff821115611f5757611f56611aa1565b5b602082029050602081019050919050565b600081519050611f778161173c565b92915050565b6000611f90611f8b84611f3c565b611b01565b90508083825260208201905060208402830185811115611fb357611fb26118c8565b5b835b81811015611fdc5780611fc88882611f68565b845260208401935050602081019050611fb5565b5050509392505050565b600082601f830112611ffb57611ffa6118be565b5b815161200b848260208601611f7d565b91505092915050565b60006020828403121561202a576120296116f2565b5b600082015167ffffffffffffffff811115612048576120476116f7565b5b61205484828501611fe6565b91505092915050565b61206681611816565b82525050565b600060408201905061208160008301856117c3565b61208e602083018461205d565b9392505050565b600082825260208201905092915050565b7f43726f7373436861696e42616c616e6365000000000000000000000000000000600082015250565b60006120dc601183612095565b91506120e7826120a6565b602082019050919050565b6000604082019050818103600083015261210b816120cf565b9050818103602083015261211f8184611c77565b905092915050565b60008151905061213681611706565b92915050565b600060208284031215612152576121516116f2565b5b600061216084828501612127565b91505092915050565b600060408201905061217e600083018561205d565b61218b60208301846117c3565b9392505050565b7f4e487b7100000000000000000000000000000000000000000000000000000000600052603260045260246000fd5b6000602082840312156121d7576121d66116f2565b5b60006121e584828501611f68565b91505092915050565b60006121f982611732565b915061220483611732565b92508261221457612213611d73565b5b828206905092915050565b600061222b8285611ed8565b60208201915061223b8284611ed8565b6020820191508190509392505050565b60006040820190506122606000830185611894565b61226d60208301846117c3565b9392505050565b600080fd5b600067ffffffffffffffff82111561229457612293611aa1565b5b61229d82611a90565b9050602081019050919050565b60006122bd6122b884612279565b611b01565b9050828152602081018484840111156122d9576122d8612274565b5b6122e4848285611c44565b509392505050565b600082601f830112612301576123006118be565b5b81516123118482602086016122aa565b91505092915050565b6000602082840312156123305761232f6116f2565b5b600082015167ffffffffffffffff81111561234e5761234d6116f7565b5b61235a848285016122ec565b91505092915050565b600061236e82611732565b91507fffffffffffffffffffffffffffffffffffffffffffffffffffffffffffffffff8214156123a1576123a0611d10565b5b60018201905091905056fea264697066735822122017d1bfbc5ffe5fa812762c0d330c8848b720578c0b1f69e4d345c3367385adf964736f6c63430008090033",
  "linkReferences": {},
  "deployedLinkReferences": {}
}