{
  "_format": "hh-sol-artifact-1",
  "contractName": "CCBalances",
  "sourceName": "contracts/CCBalances.sol",
  "abi": [
    {
      "inputs": [
        {
          "internalType": "address payable",
          "name": "_tellor",
          "type": "address"
        }
      ],
      "stateMutability": "nonpayable",
      "type": "constructor"
    },
    {
      "inputs": [
        {
          "internalType": "bytes32[]",
          "name": "Inputs",
          "type": "bytes32[]"
        }
      ],
      "name": "GetRootHash",
      "outputs": [
        {
          "internalType": "bytes32",
          "name": "",
          "type": "bytes32"
        }
      ],
      "stateMutability": "pure",
      "type": "function"
    },
    {
      "inputs": [
        {
          "internalType": "uint256",
          "name": "_chain",
          "type": "uint256"
        },
        {
          "internalType": "address",
          "name": "_token",
          "type": "address"
        },
        {
          "internalType": "bytes32[]",
          "name": "hashes",
          "type": "bytes32[]"
        },
        {
          "internalType": "bool[]",
          "name": "hashRight",
          "type": "bool[]"
        }
      ],
      "name": "checkProof",
      "outputs": [
        {
          "internalType": "bool",
          "name": "",
          "type": "bool"
        }
      ],
      "stateMutability": "view",
      "type": "function"
    },
    {
      "inputs": [
        {
          "internalType": "uint256",
          "name": "_chain",
          "type": "uint256"
        },
        {
          "internalType": "address",
          "name": "_address",
          "type": "address"
        }
      ],
      "name": "getCrossChainBalances",
      "outputs": [
        {
          "internalType": "bytes32",
          "name": "_newRootHash",
          "type": "bytes32"
        }
      ],
      "stateMutability": "nonpayable",
      "type": "function"
    },
    {
      "inputs": [
        {
          "internalType": "bytes32",
          "name": "_queryId",
          "type": "bytes32"
        }
      ],
      "name": "getCurrentValue",
      "outputs": [
        {
          "internalType": "bool",
          "name": "_ifRetrieve",
          "type": "bool"
        },
        {
          "internalType": "bytes",
          "name": "_value",
          "type": "bytes"
        },
        {
          "internalType": "uint256",
          "name": "_timestampRetrieved",
          "type": "uint256"
        }
      ],
      "stateMutability": "view",
      "type": "function"
    },
    {
      "inputs": [
        {
          "internalType": "bytes32",
          "name": "_queryId",
          "type": "bytes32"
        },
        {
          "internalType": "uint256",
          "name": "_timestamp",
          "type": "uint256"
        }
      ],
      "name": "getDataBefore",
      "outputs": [
        {
          "internalType": "bool",
          "name": "_ifRetrieve",
          "type": "bool"
        },
        {
          "internalType": "bytes",
          "name": "_value",
          "type": "bytes"
        },
        {
          "internalType": "uint256",
          "name": "_timestampRetrieved",
          "type": "uint256"
        }
      ],
      "stateMutability": "view",
      "type": "function"
    },
    {
      "inputs": [
        {
          "internalType": "bytes32",
          "name": "_queryId",
          "type": "bytes32"
        },
        {
          "internalType": "uint256",
          "name": "_timestamp",
          "type": "uint256"
        }
      ],
      "name": "getIndexForDataBefore",
      "outputs": [
        {
          "internalType": "bool",
          "name": "_found",
          "type": "bool"
        },
        {
          "internalType": "uint256",
          "name": "_index",
          "type": "uint256"
        }
      ],
      "stateMutability": "view",
      "type": "function"
    },
    {
      "inputs": [
        {
          "internalType": "bytes32",
          "name": "_queryId",
          "type": "bytes32"
        }
      ],
      "name": "getNewValueCountbyQueryId",
      "outputs": [
        {
          "internalType": "uint256",
          "name": "",
          "type": "uint256"
        }
      ],
      "stateMutability": "view",
      "type": "function"
    },
    {
      "inputs": [
        {
          "internalType": "bytes32",
          "name": "_queryId",
          "type": "bytes32"
        },
        {
          "internalType": "uint256",
          "name": "_index",
          "type": "uint256"
        }
      ],
      "name": "getTimestampbyQueryIdandIndex",
      "outputs": [
        {
          "internalType": "uint256",
          "name": "",
          "type": "uint256"
        }
      ],
      "stateMutability": "view",
      "type": "function"
    },
    {
      "inputs": [
        {
          "internalType": "bytes32",
          "name": "_queryId",
          "type": "bytes32"
        },
        {
          "internalType": "uint256",
          "name": "_timestamp",
          "type": "uint256"
        }
      ],
      "name": "isInDispute",
      "outputs": [
        {
          "internalType": "bool",
          "name": "",
          "type": "bool"
        }
      ],
      "stateMutability": "view",
      "type": "function"
    },
    {
      "inputs": [
        {
          "internalType": "bytes32",
          "name": "_queryId",
          "type": "bytes32"
        },
        {
          "internalType": "uint256",
          "name": "_timestamp",
          "type": "uint256"
        }
      ],
      "name": "retrieveData",
      "outputs": [
        {
          "internalType": "bytes",
          "name": "",
          "type": "bytes"
        }
      ],
      "stateMutability": "view",
      "type": "function"
    },
    {
      "inputs": [],
      "name": "tellor",
      "outputs": [
        {
          "internalType": "contract ITellor",
          "name": "",
          "type": "address"
        }
      ],
      "stateMutability": "view",
      "type": "function"
    },
    {
      "inputs": [
        {
          "internalType": "uint256",
          "name": "_chain",
          "type": "uint256"
        },
        {
          "internalType": "address",
          "name": "_token",
          "type": "address"
        },
        {
          "internalType": "uint256",
          "name": "balance",
          "type": "uint256"
        },
        {
          "internalType": "bytes32[]",
          "name": "hashes",
          "type": "bytes32[]"
        },
        {
          "internalType": "bool[]",
          "name": "right",
          "type": "bool[]"
        }
      ],
      "name": "verifyBalance",
      "outputs": [
        {
          "internalType": "bool",
          "name": "",
          "type": "bool"
        }
      ],
      "stateMutability": "view",
      "type": "function"
    }
  ],
  "bytecode": "0x60806040523480156200001157600080fd5b5060405162002661380380620026618339818101604052810190620000379190620000ea565b80806000806101000a81548173ffffffffffffffffffffffffffffffffffffffff021916908373ffffffffffffffffffffffffffffffffffffffff16021790555050506200011c565b600080fd5b600073ffffffffffffffffffffffffffffffffffffffff82169050919050565b6000620000b28262000085565b9050919050565b620000c481620000a5565b8114620000d057600080fd5b50565b600081519050620000e481620000b9565b92915050565b60006020828403121562000103576200010262000080565b5b60006200011384828501620000d3565b91505092915050565b612535806200012c6000396000f3fe608060405234801561001057600080fd5b50600436106100b45760003560e01c8063a087e98b11610071578063a087e98b146101c8578063a5606e9f146101f8578063a792765f14610228578063adf1639d1461025a578063c5958af91461028c578063ce5e11bf146102bc576100b4565b80631959ad5b146100b957806329449085146100d757806344e87f9114610108578063690665ae1461013857806377b03e0d146101685780637ea9924314610198575b600080fd5b6100c16102ec565b6040516100ce919061178c565b60405180910390f35b6100f160048036038101906100ec9190611827565b610310565b6040516100ff929190611891565b60405180910390f35b610122600480360381019061011d9190611827565b61048b565b60405161012f91906118ba565b60405180910390f35b610152600480360381019061014d9190611913565b61078e565b60405161015f9190611962565b60405180910390f35b610182600480360381019061017d919061197d565b61087e565b60405161018f91906119aa565b60405180910390f35b6101b260048036038101906101ad9190611b1e565b610ab3565b6040516101bf9190611962565b60405180910390f35b6101e260048036038101906101dd9190611c18565b610d90565b6040516101ef91906118ba565b60405180910390f35b610212600480360381019061020d9190611cd4565b610f31565b60405161021f91906118ba565b60405180910390f35b610242600480360381019061023d9190611827565b61101c565b60405161025193929190611e03565b60405180910390f35b610274600480360381019061026f919061197d565b6110ce565b60405161028393929190611e03565b60405180910390f35b6102a660048036038101906102a19190611827565b611187565b6040516102b39190611e41565b60405180910390f35b6102d660048036038101906102d19190611827565b6113cb565b6040516102e391906119aa565b60405180910390f35b60008054906101000a900473ffffffffffffffffffffffffffffffffffffffff1681565b600080600061031e8561087e565b9050600081111561047b5760008060009050600060018461033f9190611e92565b9050600061034d89846113cb565b905087811061036757600080965096505050505050610484565b61037189836113cb565b90508781101561038c57600182965096505050505050610484565b5b60011561047657826001600285856103a59190611e92565b6103af9190611ef5565b6103b99190611f26565b6103c39190611f26565b93506103cf89856113cb565b9050878110156104215760006103f18a6001876103ec9190611f26565b6113cb565b905088811061040c5760018597509750505050505050610484565b6001856104199190611f26565b935050610471565b60006104398a6001876104349190611e92565b6113cb565b90508881101561046057600180866104519190611e92565b97509750505050505050610484565b60018561046d9190611e92565b9250505b61038d565b505050505b60008092509250505b9250929050565b6000807318431fd88adf138e8b979a7246eb58ea7126ea1673ffffffffffffffffffffffffffffffffffffffff1660008054906101000a900473ffffffffffffffffffffffffffffffffffffffff1673ffffffffffffffffffffffffffffffffffffffff16148061055b575073e8218cacb0a5421bc6409e498d9f8cc8869945ea73ffffffffffffffffffffffffffffffffffffffff1660008054906101000a900473ffffffffffffffffffffffffffffffffffffffff1673ffffffffffffffffffffffffffffffffffffffff16145b1561062a5760007388df592f8eb5d7bd38bfef7deb0fbc02cf3778a090508073ffffffffffffffffffffffffffffffffffffffff1663699f200f7fefa19baa864049f50491093580c5433e97e8d5e41f8db1a61108b4fa44cacd936040518263ffffffff1660e01b81526004016105d29190611fc4565b60206040518083038186803b1580156105ea57600080fd5b505afa1580156105fe573d6000803e3d6000fd5b505050506040513d601f19601f820116820180604052508101906106229190611ff4565b9150506106cb565b60008054906101000a900473ffffffffffffffffffffffffffffffffffffffff1673ffffffffffffffffffffffffffffffffffffffff16635aa6e6756040518163ffffffff1660e01b815260040160206040518083038186803b15801561069057600080fd5b505afa1580156106a4573d6000803e3d6000fd5b505050506040513d601f19601f820116820180604052508101906106c89190611ff4565b90505b60008173ffffffffffffffffffffffffffffffffffffffff1663248638e586866040516020016106fc929190612063565b604051602081830303815290604052805190602001206040518263ffffffff1660e01b815260040161072e9190611962565b60006040518083038186803b15801561074657600080fd5b505afa15801561075a573d6000803e3d6000fd5b505050506040513d6000823e3d601f19601f820116820180604052508101906107839190612167565b511191505092915050565b60008083836040516020016107a49291906121bf565b6040516020818303038152906040526040516020016107c39190612245565b604051602081830303815290604052905060008180519060200120905060008060606107fc8461a8c0426107f79190611e92565b61101c565b8094508193508295505050508080602001905181019061081c919061228f565b955085600160008a815260200190815260200160002060008973ffffffffffffffffffffffffffffffffffffffff1673ffffffffffffffffffffffffffffffffffffffff16815260200190815260200160002081905550505050505092915050565b60007318431fd88adf138e8b979a7246eb58ea7126ea1673ffffffffffffffffffffffffffffffffffffffff1660008054906101000a900473ffffffffffffffffffffffffffffffffffffffff1673ffffffffffffffffffffffffffffffffffffffff16148061094d575073e8218cacb0a5421bc6409e498d9f8cc8869945ea73ffffffffffffffffffffffffffffffffffffffff1660008054906101000a900473ffffffffffffffffffffffffffffffffffffffff1673ffffffffffffffffffffffffffffffffffffffff16145b15610a025760008054906101000a900473ffffffffffffffffffffffffffffffffffffffff1673ffffffffffffffffffffffffffffffffffffffff166335e72432836040518263ffffffff1660e01b81526004016109ab9190611962565b60206040518083038186803b1580156109c357600080fd5b505afa1580156109d7573d6000803e3d6000fd5b505050506040513d601f19601f820116820180604052508101906109fb91906122bc565b9050610aae565b60008054906101000a900473ffffffffffffffffffffffffffffffffffffffff1673ffffffffffffffffffffffffffffffffffffffff166377b03e0d836040518263ffffffff1660e01b8152600401610a5b9190611962565b60206040518083038186803b158015610a7357600080fd5b505afa158015610a87573d6000803e3d6000fd5b505050506040513d601f19601f82011682018060405250810190610aab91906122bc565b90505b919050565b600080825190506001811415610ae75782600081518110610ad757610ad66122e9565b5b6020026020010151915050610d8b565b6000600282610af69190612318565b600283610b039190611ef5565b610b0d9190611f26565b67ffffffffffffffff811115610b2657610b256119db565b5b604051908082528060200260200182016040528015610b545781602001602082028036833780820191505090505b509050600080600184610b679190611e92565b90506000600190506000805b600115610d65578215610c3857888581518110610b9357610b926122e9565b5b6020026020010151905083600186610bab9190611f26565b1115610be1578081604051602001610bc4929190612349565b604051602081830303815290604052805190602001209150610c33565b8089600187610bf09190611f26565b81518110610c0157610c006122e9565b5b6020026020010151604051602001610c1a929190612349565b6040516020818303038152906040528051906020012091505b610cec565b858581518110610c4b57610c4a6122e9565b5b6020026020010151905083600186610c639190611f26565b1115610c99578081604051602001610c7c929190612349565b604051602081830303815290604052805190602001209150610ceb565b8086600187610ca89190611f26565b81518110610cb957610cb86122e9565b5b6020026020010151604051602001610cd2929190612349565b6040516020818303038152906040528051906020012091505b5b8186600287610cfb9190611ef5565b81518110610d0c57610d0b6122e9565b5b602002602001018181525050600285610d259190611f26565b945083851115610d605760028086610d3d9190611e92565b610d479190611ef5565b93506000841415610d5757610d65565b60009450600092505b610b73565b85600081518110610d7957610d786122e9565b5b60200260200101519750505050505050505b919050565b600080600160008a815260200190815260200160002060008973ffffffffffffffffffffffffffffffffffffffff1673ffffffffffffffffffffffffffffffffffffffff16815260200190815260200160002054905060008888604051602001610dfb929190612375565b6040516020818303038152906040528051906020012090506001878790501415610e4a578087876000818110610e3457610e336122e9565b5b9050602002013514610e4557600080fd5b610e95565b8087876000818110610e5f57610e5e6122e9565b5b905060200201351480610e8b57508087876001818110610e8257610e816122e9565b5b90506020020135145b610e9457600080fd5b5b610f2282888880806020026020016040519081016040528093929190818152602001838360200280828437600081840152601f19601f82011690508083019250505050505050878780806020026020016040519081016040528093929190818152602001838360200280828437600081840152601f19601f82011690508083019250505050505050611605565b92505050979650505050505050565b60006110106001600089815260200190815260200160002060008873ffffffffffffffffffffffffffffffffffffffff1673ffffffffffffffffffffffffffffffffffffffff16815260200190815260200160002054868680806020026020016040519081016040528093929190818152602001838360200280828437600081840152601f19601f82011690508083019250505050505050858580806020026020016040519081016040528093929190818152602001838360200280828437600081840152601f19601f82011690508083019250505050505050611605565b90509695505050505050565b60006060600080600061102f8787610310565b915091508161105957600060405180602001604052806000815250600094509450945050506110c7565b600061106588836113cb565b90506110718882611187565b945060405180602001604052806000815250805190602001208580519060200120146110a957600185829550955095505050506110c7565b60006040518060200160405280600081525060009550955095505050505b9250925092565b600060606000806110de8561087e565b9050600081141561110957600060405180602001604052806000815250600093509350935050611180565b60006111218660018461111c9190611e92565b6113cb565b905061112d8682611187565b9350604051806020016040528060008152508051906020012084805190602001201461116457600184829450945094505050611180565b6000604051806020016040528060008152508294509450945050505b9193909250565b60607318431fd88adf138e8b979a7246eb58ea7126ea1673ffffffffffffffffffffffffffffffffffffffff1660008054906101000a900473ffffffffffffffffffffffffffffffffffffffff1673ffffffffffffffffffffffffffffffffffffffff161480611256575073e8218cacb0a5421bc6409e498d9f8cc8869945ea73ffffffffffffffffffffffffffffffffffffffff1660008054906101000a900473ffffffffffffffffffffffffffffffffffffffff1673ffffffffffffffffffffffffffffffffffffffff16145b156113125760008054906101000a900473ffffffffffffffffffffffffffffffffffffffff1673ffffffffffffffffffffffffffffffffffffffff16630b2d2b0d84846040518363ffffffff1660e01b81526004016112b692919061239e565b60006040518083038186803b1580156112ce57600080fd5b505afa1580156112e2573d6000803e3d6000fd5b505050506040513d6000823e3d601f19601f8201168201806040525081019061130b919061246d565b90506113c5565b60008054906101000a900473ffffffffffffffffffffffffffffffffffffffff1673ffffffffffffffffffffffffffffffffffffffff1663c5958af984846040518363ffffffff1660e01b815260040161136d92919061239e565b60006040518083038186803b15801561138557600080fd5b505afa158015611399573d6000803e3d6000fd5b505050506040513d6000823e3d601f19601f820116820180604052508101906113c2919061246d565b90505b92915050565b60007318431fd88adf138e8b979a7246eb58ea7126ea1673ffffffffffffffffffffffffffffffffffffffff1660008054906101000a900473ffffffffffffffffffffffffffffffffffffffff1673ffffffffffffffffffffffffffffffffffffffff16148061149a575073e8218cacb0a5421bc6409e498d9f8cc8869945ea73ffffffffffffffffffffffffffffffffffffffff1660008054906101000a900473ffffffffffffffffffffffffffffffffffffffff1673ffffffffffffffffffffffffffffffffffffffff16145b156115515760008054906101000a900473ffffffffffffffffffffffffffffffffffffffff1673ffffffffffffffffffffffffffffffffffffffff16637c37b8b484846040518363ffffffff1660e01b81526004016114fa92919061239e565b60206040518083038186803b15801561151257600080fd5b505afa158015611526573d6000803e3d6000fd5b505050506040513d601f19601f8201168201806040525081019061154a91906122bc565b90506115ff565b60008054906101000a900473ffffffffffffffffffffffffffffffffffffffff1673ffffffffffffffffffffffffffffffffffffffff1663ce5e11bf84846040518363ffffffff1660e01b81526004016115ac92919061239e565b60206040518083038186803b1580156115c457600080fd5b505afa1580156115d8573d6000803e3d6000fd5b505050506040513d601f19601f820116820180604052508101906115fc91906122bc565b90505b92915050565b6000808360008151811061161c5761161b6122e9565b5b602002602001015190506000845190506000600190505b818110156116fe5784818151811061164e5761164d6122e9565b5b6020026020010151156116a5578286828151811061166f5761166e6122e9565b5b6020026020010151604051602001611688929190612349565b6040516020818303038152906040528051906020012092506116eb565b8581815181106116b8576116b76122e9565b5b6020026020010151836040516020016116d2929190612349565b6040516020818303038152906040528051906020012092505b80806116f6906124b6565b915050611633565b50858214925050509392505050565b600073ffffffffffffffffffffffffffffffffffffffff82169050919050565b6000819050919050565b600061175261174d6117488461170d565b61172d565b61170d565b9050919050565b600061176482611737565b9050919050565b600061177682611759565b9050919050565b6117868161176b565b82525050565b60006020820190506117a1600083018461177d565b92915050565b6000604051905090565b600080fd5b600080fd5b6000819050919050565b6117ce816117bb565b81146117d957600080fd5b50565b6000813590506117eb816117c5565b92915050565b6000819050919050565b611804816117f1565b811461180f57600080fd5b50565b600081359050611821816117fb565b92915050565b6000806040838503121561183e5761183d6117b1565b5b600061184c858286016117dc565b925050602061185d85828601611812565b9150509250929050565b60008115159050919050565b61187c81611867565b82525050565b61188b816117f1565b82525050565b60006040820190506118a66000830185611873565b6118b36020830184611882565b9392505050565b60006020820190506118cf6000830184611873565b92915050565b60006118e08261170d565b9050919050565b6118f0816118d5565b81146118fb57600080fd5b50565b60008135905061190d816118e7565b92915050565b6000806040838503121561192a576119296117b1565b5b600061193885828601611812565b9250506020611949858286016118fe565b9150509250929050565b61195c816117bb565b82525050565b60006020820190506119776000830184611953565b92915050565b600060208284031215611993576119926117b1565b5b60006119a1848285016117dc565b91505092915050565b60006020820190506119bf6000830184611882565b92915050565b600080fd5b6000601f19601f8301169050919050565b7f4e487b7100000000000000000000000000000000000000000000000000000000600052604160045260246000fd5b611a13826119ca565b810181811067ffffffffffffffff82111715611a3257611a316119db565b5b80604052505050565b6000611a456117a7565b9050611a518282611a0a565b919050565b600067ffffffffffffffff821115611a7157611a706119db565b5b602082029050602081019050919050565b600080fd5b6000611a9a611a9584611a56565b611a3b565b90508083825260208201905060208402830185811115611abd57611abc611a82565b5b835b81811015611ae65780611ad288826117dc565b845260208401935050602081019050611abf565b5050509392505050565b600082601f830112611b0557611b046119c5565b5b8135611b15848260208601611a87565b91505092915050565b600060208284031215611b3457611b336117b1565b5b600082013567ffffffffffffffff811115611b5257611b516117b6565b5b611b5e84828501611af0565b91505092915050565b600080fd5b60008083601f840112611b8257611b816119c5565b5b8235905067ffffffffffffffff811115611b9f57611b9e611b67565b5b602083019150836020820283011115611bbb57611bba611a82565b5b9250929050565b60008083601f840112611bd857611bd76119c5565b5b8235905067ffffffffffffffff811115611bf557611bf4611b67565b5b602083019150836020820283011115611c1157611c10611a82565b5b9250929050565b600080600080600080600060a0888a031215611c3757611c366117b1565b5b6000611c458a828b01611812565b9750506020611c568a828b016118fe565b9650506040611c678a828b01611812565b955050606088013567ffffffffffffffff811115611c8857611c876117b6565b5b611c948a828b01611b6c565b9450945050608088013567ffffffffffffffff811115611cb757611cb66117b6565b5b611cc38a828b01611bc2565b925092505092959891949750929550565b60008060008060008060808789031215611cf157611cf06117b1565b5b6000611cff89828a01611812565b9650506020611d1089828a016118fe565b955050604087013567ffffffffffffffff811115611d3157611d306117b6565b5b611d3d89828a01611b6c565b9450945050606087013567ffffffffffffffff811115611d6057611d5f6117b6565b5b611d6c89828a01611bc2565b92509250509295509295509295565b600081519050919050565b600082825260208201905092915050565b60005b83811015611db5578082015181840152602081019050611d9a565b83811115611dc4576000848401525b50505050565b6000611dd582611d7b565b611ddf8185611d86565b9350611def818560208601611d97565b611df8816119ca565b840191505092915050565b6000606082019050611e186000830186611873565b8181036020830152611e2a8185611dca565b9050611e396040830184611882565b949350505050565b60006020820190508181036000830152611e5b8184611dca565b905092915050565b7f4e487b7100000000000000000000000000000000000000000000000000000000600052601160045260246000fd5b6000611e9d826117f1565b9150611ea8836117f1565b925082821015611ebb57611eba611e63565b5b828203905092915050565b7f4e487b7100000000000000000000000000000000000000000000000000000000600052601260045260246000fd5b6000611f00826117f1565b9150611f0b836117f1565b925082611f1b57611f1a611ec6565b5b828204905092915050565b6000611f31826117f1565b9150611f3c836117f1565b9250827fffffffffffffffffffffffffffffffffffffffffffffffffffffffffffffffff03821115611f7157611f70611e63565b5b828201905092915050565b6000819050919050565b60008160001b9050919050565b6000611fae611fa9611fa484611f7c565b611f86565b6117bb565b9050919050565b611fbe81611f93565b82525050565b6000602082019050611fd96000830184611fb5565b92915050565b600081519050611fee816118e7565b92915050565b60006020828403121561200a576120096117b1565b5b600061201884828501611fdf565b91505092915050565b6000819050919050565b61203c612037826117bb565b612021565b82525050565b6000819050919050565b61205d612058826117f1565b612042565b82525050565b600061206f828561202b565b60208201915061207f828461204c565b6020820191508190509392505050565b600067ffffffffffffffff8211156120aa576120a96119db565b5b602082029050602081019050919050565b6000815190506120ca816117fb565b92915050565b60006120e36120de8461208f565b611a3b565b9050808382526020820190506020840283018581111561210657612105611a82565b5b835b8181101561212f578061211b88826120bb565b845260208401935050602081019050612108565b5050509392505050565b600082601f83011261214e5761214d6119c5565b5b815161215e8482602086016120d0565b91505092915050565b60006020828403121561217d5761217c6117b1565b5b600082015167ffffffffffffffff81111561219b5761219a6117b6565b5b6121a784828501612139565b91505092915050565b6121b9816118d5565b82525050565b60006040820190506121d46000830185611882565b6121e160208301846121b0565b9392505050565b600082825260208201905092915050565b7f43726f7373436861696e42616c616e6365000000000000000000000000000000600082015250565b600061222f6011836121e8565b915061223a826121f9565b602082019050919050565b6000604082019050818103600083015261225e81612222565b905081810360208301526122728184611dca565b905092915050565b600081519050612289816117c5565b92915050565b6000602082840312156122a5576122a46117b1565b5b60006122b38482850161227a565b91505092915050565b6000602082840312156122d2576122d16117b1565b5b60006122e0848285016120bb565b91505092915050565b7f4e487b7100000000000000000000000000000000000000000000000000000000600052603260045260246000fd5b6000612323826117f1565b915061232e836117f1565b92508261233e5761233d611ec6565b5b828206905092915050565b6000612355828561202b565b602082019150612365828461202b565b6020820191508190509392505050565b600060408201905061238a60008301856121b0565b6123976020830184611882565b9392505050565b60006040820190506123b36000830185611953565b6123c06020830184611882565b9392505050565b600080fd5b600067ffffffffffffffff8211156123e7576123e66119db565b5b6123f0826119ca565b9050602081019050919050565b600061241061240b846123cc565b611a3b565b90508281526020810184848401111561242c5761242b6123c7565b5b612437848285611d97565b509392505050565b600082601f830112612454576124536119c5565b5b81516124648482602086016123fd565b91505092915050565b600060208284031215612483576124826117b1565b5b600082015167ffffffffffffffff8111156124a1576124a06117b6565b5b6124ad8482850161243f565b91505092915050565b60006124c1826117f1565b91507fffffffffffffffffffffffffffffffffffffffffffffffffffffffffffffffff8214156124f4576124f3611e63565b5b60018201905091905056fea26469706673582212200bebddc2ecfc3d1d543432034e1acc4800bc58ff2ca0812bc657c290d1dd8d1564736f6c63430008090033",
  "linkReferences": {},
  "deployedLinkReferences": {}
}