{
  "_format": "hh-sol-artifact-1",
  "contractName": "CCBalances",
  "sourceName": "contracts/CCBalances.sol",
  "abi": [
    {
      "inputs": [
        {
          "internalType": "address payable",
          "name": "_tellor",
          "type": "address"
        }
      ],
      "stateMutability": "nonpayable",
      "type": "constructor"
    },
    {
      "inputs": [
        {
          "internalType": "bytes32[]",
          "name": "Inputs",
          "type": "bytes32[]"
        }
      ],
      "name": "GetRootHash",
      "outputs": [
        {
          "internalType": "bytes32",
          "name": "",
          "type": "bytes32"
        }
      ],
      "stateMutability": "pure",
      "type": "function"
    },
    {
      "inputs": [
        {
          "internalType": "uint256",
          "name": "_chain",
          "type": "uint256"
        },
        {
          "internalType": "address",
          "name": "_token",
          "type": "address"
        },
        {
          "internalType": "bytes32[]",
          "name": "hashes",
          "type": "bytes32[]"
        },
        {
          "internalType": "bool[]",
          "name": "hashRight",
          "type": "bool[]"
        }
      ],
      "name": "checkProof",
      "outputs": [
        {
          "internalType": "bool",
          "name": "",
          "type": "bool"
        }
      ],
      "stateMutability": "view",
      "type": "function"
    },
    {
      "inputs": [
        {
          "internalType": "uint256",
          "name": "_chain",
          "type": "uint256"
        },
        {
          "internalType": "address",
          "name": "_address",
          "type": "address"
        }
      ],
      "name": "getCrossChainBalances",
      "outputs": [
        {
          "internalType": "bytes32",
          "name": "_newRootHash",
          "type": "bytes32"
        }
      ],
      "stateMutability": "nonpayable",
      "type": "function"
    },
    {
      "inputs": [
        {
          "internalType": "bytes32",
          "name": "_queryId",
          "type": "bytes32"
        }
      ],
      "name": "getCurrentValue",
      "outputs": [
        {
          "internalType": "bool",
          "name": "_ifRetrieve",
          "type": "bool"
        },
        {
          "internalType": "bytes",
          "name": "_value",
          "type": "bytes"
        },
        {
          "internalType": "uint256",
          "name": "_timestampRetrieved",
          "type": "uint256"
        }
      ],
      "stateMutability": "view",
      "type": "function"
    },
    {
      "inputs": [
        {
          "internalType": "bytes32",
          "name": "_queryId",
          "type": "bytes32"
        },
        {
          "internalType": "uint256",
          "name": "_timestamp",
          "type": "uint256"
        }
      ],
      "name": "getDataBefore",
      "outputs": [
        {
          "internalType": "bool",
          "name": "_ifRetrieve",
          "type": "bool"
        },
        {
          "internalType": "bytes",
          "name": "_value",
          "type": "bytes"
        },
        {
          "internalType": "uint256",
          "name": "_timestampRetrieved",
          "type": "uint256"
        }
      ],
      "stateMutability": "view",
      "type": "function"
    },
    {
      "inputs": [
        {
          "internalType": "bytes32",
          "name": "_queryId",
          "type": "bytes32"
        },
        {
          "internalType": "uint256",
          "name": "_timestamp",
          "type": "uint256"
        }
      ],
      "name": "getIndexForDataBefore",
      "outputs": [
        {
          "internalType": "bool",
          "name": "_found",
          "type": "bool"
        },
        {
          "internalType": "uint256",
          "name": "_index",
          "type": "uint256"
        }
      ],
      "stateMutability": "view",
      "type": "function"
    },
    {
      "inputs": [
        {
          "internalType": "bytes32",
          "name": "_queryId",
          "type": "bytes32"
        }
      ],
      "name": "getNewValueCountbyQueryId",
      "outputs": [
        {
          "internalType": "uint256",
          "name": "",
          "type": "uint256"
        }
      ],
      "stateMutability": "view",
      "type": "function"
    },
    {
      "inputs": [
        {
          "internalType": "bytes32",
          "name": "_queryId",
          "type": "bytes32"
        },
        {
          "internalType": "uint256",
          "name": "_index",
          "type": "uint256"
        }
      ],
      "name": "getTimestampbyQueryIdandIndex",
      "outputs": [
        {
          "internalType": "uint256",
          "name": "",
          "type": "uint256"
        }
      ],
      "stateMutability": "view",
      "type": "function"
    },
    {
      "inputs": [
        {
          "internalType": "bytes32",
          "name": "_queryId",
          "type": "bytes32"
        },
        {
          "internalType": "uint256",
          "name": "_timestamp",
          "type": "uint256"
        }
      ],
      "name": "isInDispute",
      "outputs": [
        {
          "internalType": "bool",
          "name": "",
          "type": "bool"
        }
      ],
      "stateMutability": "view",
      "type": "function"
    },
    {
      "inputs": [
        {
          "internalType": "bytes32",
          "name": "_queryId",
          "type": "bytes32"
        },
        {
          "internalType": "uint256",
          "name": "_timestamp",
          "type": "uint256"
        }
      ],
      "name": "retrieveData",
      "outputs": [
        {
          "internalType": "bytes",
          "name": "",
          "type": "bytes"
        }
      ],
      "stateMutability": "view",
      "type": "function"
    },
    {
      "inputs": [
        {
          "internalType": "uint256",
          "name": "",
          "type": "uint256"
        },
        {
          "internalType": "address",
          "name": "",
          "type": "address"
        }
      ],
      "name": "rootHash",
      "outputs": [
        {
          "internalType": "bytes32",
          "name": "",
          "type": "bytes32"
        }
      ],
      "stateMutability": "view",
      "type": "function"
    },
    {
      "inputs": [],
      "name": "tellor",
      "outputs": [
        {
          "internalType": "contract ITellor",
          "name": "",
          "type": "address"
        }
      ],
      "stateMutability": "view",
      "type": "function"
    },
    {
      "inputs": [
        {
          "internalType": "uint256",
          "name": "_chain",
          "type": "uint256"
        },
        {
          "internalType": "address",
          "name": "_token",
          "type": "address"
        },
        {
          "internalType": "uint256",
          "name": "balance",
          "type": "uint256"
        },
        {
          "internalType": "bytes32[]",
          "name": "hashes",
          "type": "bytes32[]"
        },
        {
          "internalType": "bool[]",
          "name": "right",
          "type": "bool[]"
        }
      ],
      "name": "verifyBalance",
      "outputs": [
        {
          "internalType": "bool",
          "name": "",
          "type": "bool"
        }
      ],
      "stateMutability": "view",
      "type": "function"
    }
  ],
  "bytecode": "0x60806040523480156200001157600080fd5b50604051620027b1380380620027b18339818101604052810190620000379190620000ea565b80806000806101000a81548173ffffffffffffffffffffffffffffffffffffffff021916908373ffffffffffffffffffffffffffffffffffffffff16021790555050506200011c565b600080fd5b600073ffffffffffffffffffffffffffffffffffffffff82169050919050565b6000620000b28262000085565b9050919050565b620000c481620000a5565b8114620000d057600080fd5b50565b600081519050620000e481620000b9565b92915050565b60006020828403121562000103576200010262000080565b5b60006200011384828501620000d3565b91505092915050565b612685806200012c6000396000f3fe608060405234801561001057600080fd5b50600436106100cf5760003560e01c80637ea992431161008c578063a792765f11610066578063a792765f14610273578063adf1639d146102a5578063c5958af9146102d7578063ce5e11bf14610307576100cf565b80637ea99243146101e3578063a087e98b14610213578063a5606e9f14610243576100cf565b80631959ad5b146100d457806329449085146100f257806344e87f9114610123578063690665ae1461015357806377b03e0d1461018357806378600379146101b3575b600080fd5b6100dc610337565b6040516100e991906118dc565b60405180910390f35b61010c60048036038101906101079190611977565b61035b565b60405161011a9291906119e1565b60405180910390f35b61013d60048036038101906101389190611977565b6104d6565b60405161014a9190611a0a565b60405180910390f35b61016d60048036038101906101689190611a63565b6107d9565b60405161017a9190611ab2565b60405180910390f35b61019d60048036038101906101989190611acd565b6108e7565b6040516101aa9190611afa565b60405180910390f35b6101cd60048036038101906101c89190611a63565b610b1c565b6040516101da9190611ab2565b60405180910390f35b6101fd60048036038101906101f89190611c6e565b610b41565b60405161020a9190611ab2565b60405180910390f35b61022d60048036038101906102289190611d68565b610e1e565b60405161023a9190611a0a565b60405180910390f35b61025d60048036038101906102589190611e24565b610fbf565b60405161026a9190611a0a565b60405180910390f35b61028d60048036038101906102889190611977565b6110aa565b60405161029c93929190611f53565b60405180910390f35b6102bf60048036038101906102ba9190611acd565b61115c565b6040516102ce93929190611f53565b60405180910390f35b6102f160048036038101906102ec9190611977565b611215565b6040516102fe9190611f91565b60405180910390f35b610321600480360381019061031c9190611977565b611459565b60405161032e9190611afa565b60405180910390f35b60008054906101000a900473ffffffffffffffffffffffffffffffffffffffff1681565b6000806000610369856108e7565b905060008111156104c65760008060009050600060018461038a9190611fe2565b905060006103988984611459565b90508781106103b2576000809650965050505050506104cf565b6103bc8983611459565b9050878110156103d7576001829650965050505050506104cf565b5b6001156104c157826001600285856103f09190611fe2565b6103fa9190612045565b6104049190612076565b61040e9190612076565b935061041a8985611459565b90508781101561046c57600061043c8a6001876104379190612076565b611459565b905088811061045757600185975097505050505050506104cf565b6001856104649190612076565b9350506104bc565b60006104848a60018761047f9190611fe2565b611459565b9050888110156104ab576001808661049c9190611fe2565b975097505050505050506104cf565b6001856104b89190611fe2565b9250505b6103d8565b505050505b60008092509250505b9250929050565b6000807318431fd88adf138e8b979a7246eb58ea7126ea1673ffffffffffffffffffffffffffffffffffffffff1660008054906101000a900473ffffffffffffffffffffffffffffffffffffffff1673ffffffffffffffffffffffffffffffffffffffff1614806105a6575073e8218cacb0a5421bc6409e498d9f8cc8869945ea73ffffffffffffffffffffffffffffffffffffffff1660008054906101000a900473ffffffffffffffffffffffffffffffffffffffff1673ffffffffffffffffffffffffffffffffffffffff16145b156106755760007388df592f8eb5d7bd38bfef7deb0fbc02cf3778a090508073ffffffffffffffffffffffffffffffffffffffff1663699f200f7fefa19baa864049f50491093580c5433e97e8d5e41f8db1a61108b4fa44cacd936040518263ffffffff1660e01b815260040161061d9190612114565b60206040518083038186803b15801561063557600080fd5b505afa158015610649573d6000803e3d6000fd5b505050506040513d601f19601f8201168201806040525081019061066d9190612144565b915050610716565b60008054906101000a900473ffffffffffffffffffffffffffffffffffffffff1673ffffffffffffffffffffffffffffffffffffffff16635aa6e6756040518163ffffffff1660e01b815260040160206040518083038186803b1580156106db57600080fd5b505afa1580156106ef573d6000803e3d6000fd5b505050506040513d601f19601f820116820180604052508101906107139190612144565b90505b60008173ffffffffffffffffffffffffffffffffffffffff1663248638e586866040516020016107479291906121b3565b604051602081830303815290604052805190602001206040518263ffffffff1660e01b81526004016107799190611ab2565b60006040518083038186803b15801561079157600080fd5b505afa1580156107a5573d6000803e3d6000fd5b505050506040513d6000823e3d601f19601f820116820180604052508101906107ce91906122b7565b511191505092915050565b60008083836040516020016107ef92919061230f565b60405160208183030381529060405260405160200161080e9190612395565b60405160208183030381529060405290506108296001611693565b60008180519060200120905061083f6001611693565b600080606061085b8461a8c0426108569190611fe2565b6110aa565b8094508193508295505050506108716002611693565b8080602001905181019061088591906123df565b955085600160008a815260200190815260200160002060008973ffffffffffffffffffffffffffffffffffffffff1673ffffffffffffffffffffffffffffffffffffffff16815260200190815260200160002081905550505050505092915050565b60007318431fd88adf138e8b979a7246eb58ea7126ea1673ffffffffffffffffffffffffffffffffffffffff1660008054906101000a900473ffffffffffffffffffffffffffffffffffffffff1673ffffffffffffffffffffffffffffffffffffffff1614806109b6575073e8218cacb0a5421bc6409e498d9f8cc8869945ea73ffffffffffffffffffffffffffffffffffffffff1660008054906101000a900473ffffffffffffffffffffffffffffffffffffffff1673ffffffffffffffffffffffffffffffffffffffff16145b15610a6b5760008054906101000a900473ffffffffffffffffffffffffffffffffffffffff1673ffffffffffffffffffffffffffffffffffffffff166335e72432836040518263ffffffff1660e01b8152600401610a149190611ab2565b60206040518083038186803b158015610a2c57600080fd5b505afa158015610a40573d6000803e3d6000fd5b505050506040513d601f19601f82011682018060405250810190610a64919061240c565b9050610b17565b60008054906101000a900473ffffffffffffffffffffffffffffffffffffffff1673ffffffffffffffffffffffffffffffffffffffff166377b03e0d836040518263ffffffff1660e01b8152600401610ac49190611ab2565b60206040518083038186803b158015610adc57600080fd5b505afa158015610af0573d6000803e3d6000fd5b505050506040513d601f19601f82011682018060405250810190610b14919061240c565b90505b919050565b6001602052816000526040600020602052806000526040600020600091509150505481565b600080825190506001811415610b755782600081518110610b6557610b64612439565b5b6020026020010151915050610e19565b6000600282610b849190612468565b600283610b919190612045565b610b9b9190612076565b67ffffffffffffffff811115610bb457610bb3611b2b565b5b604051908082528060200260200182016040528015610be25781602001602082028036833780820191505090505b509050600080600184610bf59190611fe2565b90506000600190506000805b600115610df3578215610cc657888581518110610c2157610c20612439565b5b6020026020010151905083600186610c399190612076565b1115610c6f578081604051602001610c52929190612499565b604051602081830303815290604052805190602001209150610cc1565b8089600187610c7e9190612076565b81518110610c8f57610c8e612439565b5b6020026020010151604051602001610ca8929190612499565b6040516020818303038152906040528051906020012091505b610d7a565b858581518110610cd957610cd8612439565b5b6020026020010151905083600186610cf19190612076565b1115610d27578081604051602001610d0a929190612499565b604051602081830303815290604052805190602001209150610d79565b8086600187610d369190612076565b81518110610d4757610d46612439565b5b6020026020010151604051602001610d60929190612499565b6040516020818303038152906040528051906020012091505b5b8186600287610d899190612045565b81518110610d9a57610d99612439565b5b602002602001018181525050600285610db39190612076565b945083851115610dee5760028086610dcb9190611fe2565b610dd59190612045565b93506000841415610de557610df3565b60009450600092505b610c01565b85600081518110610e0757610e06612439565b5b60200260200101519750505050505050505b919050565b600080600160008a815260200190815260200160002060008973ffffffffffffffffffffffffffffffffffffffff1673ffffffffffffffffffffffffffffffffffffffff16815260200190815260200160002054905060008888604051602001610e899291906124c5565b6040516020818303038152906040528051906020012090506001878790501415610ed8578087876000818110610ec257610ec1612439565b5b9050602002013514610ed357600080fd5b610f23565b8087876000818110610eed57610eec612439565b5b905060200201351480610f1957508087876001818110610f1057610f0f612439565b5b90506020020135145b610f2257600080fd5b5b610fb082888880806020026020016040519081016040528093929190818152602001838360200280828437600081840152601f19601f82011690508083019250505050505050878780806020026020016040519081016040528093929190818152602001838360200280828437600081840152601f19601f8201169050808301925050505050505061172c565b92505050979650505050505050565b600061109e6001600089815260200190815260200160002060008873ffffffffffffffffffffffffffffffffffffffff1673ffffffffffffffffffffffffffffffffffffffff16815260200190815260200160002054868680806020026020016040519081016040528093929190818152602001838360200280828437600081840152601f19601f82011690508083019250505050505050858580806020026020016040519081016040528093929190818152602001838360200280828437600081840152601f19601f8201169050808301925050505050505061172c565b90509695505050505050565b6000606060008060006110bd878761035b565b91509150816110e75760006040518060200160405280600081525060009450945094505050611155565b60006110f38883611459565b90506110ff8882611215565b945060405180602001604052806000815250805190602001208580519060200120146111375760018582955095509550505050611155565b60006040518060200160405280600081525060009550955095505050505b9250925092565b6000606060008061116c856108e7565b905060008114156111975760006040518060200160405280600081525060009350935093505061120e565b60006111af866001846111aa9190611fe2565b611459565b90506111bb8682611215565b935060405180602001604052806000815250805190602001208480519060200120146111f25760018482945094509450505061120e565b6000604051806020016040528060008152508294509450945050505b9193909250565b60607318431fd88adf138e8b979a7246eb58ea7126ea1673ffffffffffffffffffffffffffffffffffffffff1660008054906101000a900473ffffffffffffffffffffffffffffffffffffffff1673ffffffffffffffffffffffffffffffffffffffff1614806112e4575073e8218cacb0a5421bc6409e498d9f8cc8869945ea73ffffffffffffffffffffffffffffffffffffffff1660008054906101000a900473ffffffffffffffffffffffffffffffffffffffff1673ffffffffffffffffffffffffffffffffffffffff16145b156113a05760008054906101000a900473ffffffffffffffffffffffffffffffffffffffff1673ffffffffffffffffffffffffffffffffffffffff16630b2d2b0d84846040518363ffffffff1660e01b81526004016113449291906124ee565b60006040518083038186803b15801561135c57600080fd5b505afa158015611370573d6000803e3d6000fd5b505050506040513d6000823e3d601f19601f8201168201806040525081019061139991906125bd565b9050611453565b60008054906101000a900473ffffffffffffffffffffffffffffffffffffffff1673ffffffffffffffffffffffffffffffffffffffff1663c5958af984846040518363ffffffff1660e01b81526004016113fb9291906124ee565b60006040518083038186803b15801561141357600080fd5b505afa158015611427573d6000803e3d6000fd5b505050506040513d6000823e3d601f19601f8201168201806040525081019061145091906125bd565b90505b92915050565b60007318431fd88adf138e8b979a7246eb58ea7126ea1673ffffffffffffffffffffffffffffffffffffffff1660008054906101000a900473ffffffffffffffffffffffffffffffffffffffff1673ffffffffffffffffffffffffffffffffffffffff161480611528575073e8218cacb0a5421bc6409e498d9f8cc8869945ea73ffffffffffffffffffffffffffffffffffffffff1660008054906101000a900473ffffffffffffffffffffffffffffffffffffffff1673ffffffffffffffffffffffffffffffffffffffff16145b156115df5760008054906101000a900473ffffffffffffffffffffffffffffffffffffffff1673ffffffffffffffffffffffffffffffffffffffff16637c37b8b484846040518363ffffffff1660e01b81526004016115889291906124ee565b60206040518083038186803b1580156115a057600080fd5b505afa1580156115b4573d6000803e3d6000fd5b505050506040513d601f19601f820116820180604052508101906115d8919061240c565b905061168d565b60008054906101000a900473ffffffffffffffffffffffffffffffffffffffff1673ffffffffffffffffffffffffffffffffffffffff1663ce5e11bf84846040518363ffffffff1660e01b815260040161163a9291906124ee565b60206040518083038186803b15801561165257600080fd5b505afa158015611666573d6000803e3d6000fd5b505050506040513d601f19601f8201168201806040525081019061168a919061240c565b90505b92915050565b611729816040516024016116a79190611afa565b6040516020818303038152906040527ff82c50f1000000000000000000000000000000000000000000000000000000007bffffffffffffffffffffffffffffffffffffffffffffffffffffffff19166020820180517bffffffffffffffffffffffffffffffffffffffffffffffffffffffff8381831617835250505050611834565b50565b6000808360008151811061174357611742612439565b5b602002602001015190506000845190506000600190505b818110156118255784818151811061177557611774612439565b5b6020026020010151156117cc578286828151811061179657611795612439565b5b60200260200101516040516020016117af929190612499565b604051602081830303815290604052805190602001209250611812565b8581815181106117df576117de612439565b5b6020026020010151836040516020016117f9929190612499565b6040516020818303038152906040528051906020012092505b808061181d90612606565b91505061175a565b50858214925050509392505050565b60008151905060006a636f6e736f6c652e6c6f679050602083016000808483855afa5050505050565b600073ffffffffffffffffffffffffffffffffffffffff82169050919050565b6000819050919050565b60006118a261189d6118988461185d565b61187d565b61185d565b9050919050565b60006118b482611887565b9050919050565b60006118c6826118a9565b9050919050565b6118d6816118bb565b82525050565b60006020820190506118f160008301846118cd565b92915050565b6000604051905090565b600080fd5b600080fd5b6000819050919050565b61191e8161190b565b811461192957600080fd5b50565b60008135905061193b81611915565b92915050565b6000819050919050565b61195481611941565b811461195f57600080fd5b50565b6000813590506119718161194b565b92915050565b6000806040838503121561198e5761198d611901565b5b600061199c8582860161192c565b92505060206119ad85828601611962565b9150509250929050565b60008115159050919050565b6119cc816119b7565b82525050565b6119db81611941565b82525050565b60006040820190506119f660008301856119c3565b611a0360208301846119d2565b9392505050565b6000602082019050611a1f60008301846119c3565b92915050565b6000611a308261185d565b9050919050565b611a4081611a25565b8114611a4b57600080fd5b50565b600081359050611a5d81611a37565b92915050565b60008060408385031215611a7a57611a79611901565b5b6000611a8885828601611962565b9250506020611a9985828601611a4e565b9150509250929050565b611aac8161190b565b82525050565b6000602082019050611ac76000830184611aa3565b92915050565b600060208284031215611ae357611ae2611901565b5b6000611af18482850161192c565b91505092915050565b6000602082019050611b0f60008301846119d2565b92915050565b600080fd5b6000601f19601f8301169050919050565b7f4e487b7100000000000000000000000000000000000000000000000000000000600052604160045260246000fd5b611b6382611b1a565b810181811067ffffffffffffffff82111715611b8257611b81611b2b565b5b80604052505050565b6000611b956118f7565b9050611ba18282611b5a565b919050565b600067ffffffffffffffff821115611bc157611bc0611b2b565b5b602082029050602081019050919050565b600080fd5b6000611bea611be584611ba6565b611b8b565b90508083825260208201905060208402830185811115611c0d57611c0c611bd2565b5b835b81811015611c365780611c22888261192c565b845260208401935050602081019050611c0f565b5050509392505050565b600082601f830112611c5557611c54611b15565b5b8135611c65848260208601611bd7565b91505092915050565b600060208284031215611c8457611c83611901565b5b600082013567ffffffffffffffff811115611ca257611ca1611906565b5b611cae84828501611c40565b91505092915050565b600080fd5b60008083601f840112611cd257611cd1611b15565b5b8235905067ffffffffffffffff811115611cef57611cee611cb7565b5b602083019150836020820283011115611d0b57611d0a611bd2565b5b9250929050565b60008083601f840112611d2857611d27611b15565b5b8235905067ffffffffffffffff811115611d4557611d44611cb7565b5b602083019150836020820283011115611d6157611d60611bd2565b5b9250929050565b600080600080600080600060a0888a031215611d8757611d86611901565b5b6000611d958a828b01611962565b9750506020611da68a828b01611a4e565b9650506040611db78a828b01611962565b955050606088013567ffffffffffffffff811115611dd857611dd7611906565b5b611de48a828b01611cbc565b9450945050608088013567ffffffffffffffff811115611e0757611e06611906565b5b611e138a828b01611d12565b925092505092959891949750929550565b60008060008060008060808789031215611e4157611e40611901565b5b6000611e4f89828a01611962565b9650506020611e6089828a01611a4e565b955050604087013567ffffffffffffffff811115611e8157611e80611906565b5b611e8d89828a01611cbc565b9450945050606087013567ffffffffffffffff811115611eb057611eaf611906565b5b611ebc89828a01611d12565b92509250509295509295509295565b600081519050919050565b600082825260208201905092915050565b60005b83811015611f05578082015181840152602081019050611eea565b83811115611f14576000848401525b50505050565b6000611f2582611ecb565b611f2f8185611ed6565b9350611f3f818560208601611ee7565b611f4881611b1a565b840191505092915050565b6000606082019050611f6860008301866119c3565b8181036020830152611f7a8185611f1a565b9050611f8960408301846119d2565b949350505050565b60006020820190508181036000830152611fab8184611f1a565b905092915050565b7f4e487b7100000000000000000000000000000000000000000000000000000000600052601160045260246000fd5b6000611fed82611941565b9150611ff883611941565b92508282101561200b5761200a611fb3565b5b828203905092915050565b7f4e487b7100000000000000000000000000000000000000000000000000000000600052601260045260246000fd5b600061205082611941565b915061205b83611941565b92508261206b5761206a612016565b5b828204905092915050565b600061208182611941565b915061208c83611941565b9250827fffffffffffffffffffffffffffffffffffffffffffffffffffffffffffffffff038211156120c1576120c0611fb3565b5b828201905092915050565b6000819050919050565b60008160001b9050919050565b60006120fe6120f96120f4846120cc565b6120d6565b61190b565b9050919050565b61210e816120e3565b82525050565b60006020820190506121296000830184612105565b92915050565b60008151905061213e81611a37565b92915050565b60006020828403121561215a57612159611901565b5b60006121688482850161212f565b91505092915050565b6000819050919050565b61218c6121878261190b565b612171565b82525050565b6000819050919050565b6121ad6121a882611941565b612192565b82525050565b60006121bf828561217b565b6020820191506121cf828461219c565b6020820191508190509392505050565b600067ffffffffffffffff8211156121fa576121f9611b2b565b5b602082029050602081019050919050565b60008151905061221a8161194b565b92915050565b600061223361222e846121df565b611b8b565b9050808382526020820190506020840283018581111561225657612255611bd2565b5b835b8181101561227f578061226b888261220b565b845260208401935050602081019050612258565b5050509392505050565b600082601f83011261229e5761229d611b15565b5b81516122ae848260208601612220565b91505092915050565b6000602082840312156122cd576122cc611901565b5b600082015167ffffffffffffffff8111156122eb576122ea611906565b5b6122f784828501612289565b91505092915050565b61230981611a25565b82525050565b600060408201905061232460008301856119d2565b6123316020830184612300565b9392505050565b600082825260208201905092915050565b7f43726f7373436861696e42616c616e6365000000000000000000000000000000600082015250565b600061237f601183612338565b915061238a82612349565b602082019050919050565b600060408201905081810360008301526123ae81612372565b905081810360208301526123c28184611f1a565b905092915050565b6000815190506123d981611915565b92915050565b6000602082840312156123f5576123f4611901565b5b6000612403848285016123ca565b91505092915050565b60006020828403121561242257612421611901565b5b60006124308482850161220b565b91505092915050565b7f4e487b7100000000000000000000000000000000000000000000000000000000600052603260045260246000fd5b600061247382611941565b915061247e83611941565b92508261248e5761248d612016565b5b828206905092915050565b60006124a5828561217b565b6020820191506124b5828461217b565b6020820191508190509392505050565b60006040820190506124da6000830185612300565b6124e760208301846119d2565b9392505050565b60006040820190506125036000830185611aa3565b61251060208301846119d2565b9392505050565b600080fd5b600067ffffffffffffffff82111561253757612536611b2b565b5b61254082611b1a565b9050602081019050919050565b600061256061255b8461251c565b611b8b565b90508281526020810184848401111561257c5761257b612517565b5b612587848285611ee7565b509392505050565b600082601f8301126125a4576125a3611b15565b5b81516125b484826020860161254d565b91505092915050565b6000602082840312156125d3576125d2611901565b5b600082015167ffffffffffffffff8111156125f1576125f0611906565b5b6125fd8482850161258f565b91505092915050565b600061261182611941565b91507fffffffffffffffffffffffffffffffffffffffffffffffffffffffffffffffff82141561264457612643611fb3565b5b60018201905091905056fea2646970667358221220d5b0ada1933ab3e0eaabd8de5a7ad6bbc893e56d59eafed096f32b7d077228dd64736f6c63430008090033",
  "linkReferences": {},
  "deployedLinkReferences": {}
}