{
  "_format": "hh-sol-artifact-1",
  "contractName": "CCBalances",
  "sourceName": "contracts/CCBalances.sol",
  "abi": [
    {
      "inputs": [
        {
          "internalType": "address payable",
          "name": "_tellor",
          "type": "address"
        }
      ],
      "stateMutability": "nonpayable",
      "type": "constructor"
    },
    {
      "inputs": [
        {
          "internalType": "bytes32[]",
          "name": "Inputs",
          "type": "bytes32[]"
        }
      ],
      "name": "GetRootHash",
      "outputs": [
        {
          "internalType": "bytes32",
          "name": "",
          "type": "bytes32"
        }
      ],
      "stateMutability": "pure",
      "type": "function"
    },
    {
      "inputs": [
        {
          "internalType": "uint256",
          "name": "_chain",
          "type": "uint256"
        },
        {
          "internalType": "address",
          "name": "_token",
          "type": "address"
        },
        {
          "internalType": "bytes32[]",
          "name": "hashes",
          "type": "bytes32[]"
        },
        {
          "internalType": "bool[]",
          "name": "hashRight",
          "type": "bool[]"
        }
      ],
      "name": "checkProof",
      "outputs": [
        {
          "internalType": "bool",
          "name": "",
          "type": "bool"
        }
      ],
      "stateMutability": "view",
      "type": "function"
    },
    {
      "inputs": [
        {
          "internalType": "uint256",
          "name": "_chain",
          "type": "uint256"
        },
        {
          "internalType": "address",
          "name": "_address",
          "type": "address"
        }
      ],
      "name": "getCrossChainBalances",
      "outputs": [
        {
          "internalType": "bytes32",
          "name": "_newRootHash",
          "type": "bytes32"
        }
      ],
      "stateMutability": "nonpayable",
      "type": "function"
    },
    {
      "inputs": [
        {
          "internalType": "bytes32",
          "name": "_queryId",
          "type": "bytes32"
        }
      ],
      "name": "getCurrentValue",
      "outputs": [
        {
          "internalType": "bool",
          "name": "_ifRetrieve",
          "type": "bool"
        },
        {
          "internalType": "bytes",
          "name": "_value",
          "type": "bytes"
        },
        {
          "internalType": "uint256",
          "name": "_timestampRetrieved",
          "type": "uint256"
        }
      ],
      "stateMutability": "view",
      "type": "function"
    },
    {
      "inputs": [
        {
          "internalType": "bytes32",
          "name": "_queryId",
          "type": "bytes32"
        },
        {
          "internalType": "uint256",
          "name": "_timestamp",
          "type": "uint256"
        }
      ],
      "name": "getDataBefore",
      "outputs": [
        {
          "internalType": "bool",
          "name": "_ifRetrieve",
          "type": "bool"
        },
        {
          "internalType": "bytes",
          "name": "_value",
          "type": "bytes"
        },
        {
          "internalType": "uint256",
          "name": "_timestampRetrieved",
          "type": "uint256"
        }
      ],
      "stateMutability": "view",
      "type": "function"
    },
    {
      "inputs": [
        {
          "internalType": "bytes32",
          "name": "_queryId",
          "type": "bytes32"
        },
        {
          "internalType": "uint256",
          "name": "_timestamp",
          "type": "uint256"
        }
      ],
      "name": "getIndexForDataBefore",
      "outputs": [
        {
          "internalType": "bool",
          "name": "_found",
          "type": "bool"
        },
        {
          "internalType": "uint256",
          "name": "_index",
          "type": "uint256"
        }
      ],
      "stateMutability": "view",
      "type": "function"
    },
    {
      "inputs": [
        {
          "internalType": "bytes32",
          "name": "_queryId",
          "type": "bytes32"
        }
      ],
      "name": "getNewValueCountbyQueryId",
      "outputs": [
        {
          "internalType": "uint256",
          "name": "",
          "type": "uint256"
        }
      ],
      "stateMutability": "view",
      "type": "function"
    },
    {
      "inputs": [
        {
          "internalType": "bytes32",
          "name": "_queryId",
          "type": "bytes32"
        },
        {
          "internalType": "uint256",
          "name": "_index",
          "type": "uint256"
        }
      ],
      "name": "getTimestampbyQueryIdandIndex",
      "outputs": [
        {
          "internalType": "uint256",
          "name": "",
          "type": "uint256"
        }
      ],
      "stateMutability": "view",
      "type": "function"
    },
    {
      "inputs": [
        {
          "internalType": "bytes32",
          "name": "_queryId",
          "type": "bytes32"
        },
        {
          "internalType": "uint256",
          "name": "_timestamp",
          "type": "uint256"
        }
      ],
      "name": "isInDispute",
      "outputs": [
        {
          "internalType": "bool",
          "name": "",
          "type": "bool"
        }
      ],
      "stateMutability": "view",
      "type": "function"
    },
    {
      "inputs": [
        {
          "internalType": "bytes32",
          "name": "_queryId",
          "type": "bytes32"
        },
        {
          "internalType": "uint256",
          "name": "_timestamp",
          "type": "uint256"
        }
      ],
      "name": "retrieveData",
      "outputs": [
        {
          "internalType": "bytes",
          "name": "",
          "type": "bytes"
        }
      ],
      "stateMutability": "view",
      "type": "function"
    },
    {
      "inputs": [
        {
          "internalType": "uint256",
          "name": "",
          "type": "uint256"
        },
        {
          "internalType": "address",
          "name": "",
          "type": "address"
        }
      ],
      "name": "rootHash",
      "outputs": [
        {
          "internalType": "bytes32",
          "name": "",
          "type": "bytes32"
        }
      ],
      "stateMutability": "view",
      "type": "function"
    },
    {
      "inputs": [],
      "name": "tellor",
      "outputs": [
        {
          "internalType": "contract ITellor",
          "name": "",
          "type": "address"
        }
      ],
      "stateMutability": "view",
      "type": "function"
    },
    {
      "inputs": [
        {
          "internalType": "uint256",
          "name": "_chain",
          "type": "uint256"
        },
        {
          "internalType": "address",
          "name": "_token",
          "type": "address"
        },
        {
          "internalType": "uint256",
          "name": "balance",
          "type": "uint256"
        },
        {
          "internalType": "bytes32[]",
          "name": "hashes",
          "type": "bytes32[]"
        },
        {
          "internalType": "bool[]",
          "name": "right",
          "type": "bool[]"
        }
      ],
      "name": "verifyBalance",
      "outputs": [
        {
          "internalType": "bool",
          "name": "",
          "type": "bool"
        }
      ],
      "stateMutability": "view",
      "type": "function"
    }
  ],
  "bytecode": "0x60806040523480156200001157600080fd5b50604051620028ff380380620028ff8339818101604052810190620000379190620000ea565b80806000806101000a81548173ffffffffffffffffffffffffffffffffffffffff021916908373ffffffffffffffffffffffffffffffffffffffff16021790555050506200011c565b600080fd5b600073ffffffffffffffffffffffffffffffffffffffff82169050919050565b6000620000b28262000085565b9050919050565b620000c481620000a5565b8114620000d057600080fd5b50565b600081519050620000e481620000b9565b92915050565b60006020828403121562000103576200010262000080565b5b60006200011384828501620000d3565b91505092915050565b6127d3806200012c6000396000f3fe608060405234801561001057600080fd5b50600436106100cf5760003560e01c80637ea992431161008c578063a792765f11610066578063a792765f14610273578063adf1639d146102a5578063c5958af9146102d7578063ce5e11bf14610307576100cf565b80637ea99243146101e3578063a087e98b14610213578063a5606e9f14610243576100cf565b80631959ad5b146100d457806329449085146100f257806344e87f9114610123578063690665ae1461015357806377b03e0d1461018357806378600379146101b3575b600080fd5b6100dc610337565b6040516100e99190611a2a565b60405180910390f35b61010c60048036038101906101079190611ac5565b61035b565b60405161011a929190611b2f565b60405180910390f35b61013d60048036038101906101389190611ac5565b6104d6565b60405161014a9190611b58565b60405180910390f35b61016d60048036038101906101689190611bb1565b6107d9565b60405161017a9190611c00565b60405180910390f35b61019d60048036038101906101989190611c1b565b610903565b6040516101aa9190611c48565b60405180910390f35b6101cd60048036038101906101c89190611bb1565b610b38565b6040516101da9190611c00565b60405180910390f35b6101fd60048036038101906101f89190611dbc565b610b5d565b60405161020a9190611c00565b60405180910390f35b61022d60048036038101906102289190611eb6565b610e3a565b60405161023a9190611b58565b60405180910390f35b61025d60048036038101906102589190611f72565b610fdb565b60405161026a9190611b58565b60405180910390f35b61028d60048036038101906102889190611ac5565b6110c6565b60405161029c939291906120a1565b60405180910390f35b6102bf60048036038101906102ba9190611c1b565b611178565b6040516102ce939291906120a1565b60405180910390f35b6102f160048036038101906102ec9190611ac5565b611231565b6040516102fe91906120df565b60405180910390f35b610321600480360381019061031c9190611ac5565b611475565b60405161032e9190611c48565b60405180910390f35b60008054906101000a900473ffffffffffffffffffffffffffffffffffffffff1681565b600080600061036985610903565b905060008111156104c65760008060009050600060018461038a9190612130565b905060006103988984611475565b90508781106103b2576000809650965050505050506104cf565b6103bc8983611475565b9050878110156103d7576001829650965050505050506104cf565b5b6001156104c157826001600285856103f09190612130565b6103fa9190612193565b61040491906121c4565b61040e91906121c4565b935061041a8985611475565b90508781101561046c57600061043c8a60018761043791906121c4565b611475565b905088811061045757600185975097505050505050506104cf565b60018561046491906121c4565b9350506104bc565b60006104848a60018761047f9190612130565b611475565b9050888110156104ab576001808661049c9190612130565b975097505050505050506104cf565b6001856104b89190612130565b9250505b6103d8565b505050505b60008092509250505b9250929050565b6000807318431fd88adf138e8b979a7246eb58ea7126ea1673ffffffffffffffffffffffffffffffffffffffff1660008054906101000a900473ffffffffffffffffffffffffffffffffffffffff1673ffffffffffffffffffffffffffffffffffffffff1614806105a6575073e8218cacb0a5421bc6409e498d9f8cc8869945ea73ffffffffffffffffffffffffffffffffffffffff1660008054906101000a900473ffffffffffffffffffffffffffffffffffffffff1673ffffffffffffffffffffffffffffffffffffffff16145b156106755760007388df592f8eb5d7bd38bfef7deb0fbc02cf3778a090508073ffffffffffffffffffffffffffffffffffffffff1663699f200f7fefa19baa864049f50491093580c5433e97e8d5e41f8db1a61108b4fa44cacd936040518263ffffffff1660e01b815260040161061d9190612262565b60206040518083038186803b15801561063557600080fd5b505afa158015610649573d6000803e3d6000fd5b505050506040513d601f19601f8201168201806040525081019061066d9190612292565b915050610716565b60008054906101000a900473ffffffffffffffffffffffffffffffffffffffff1673ffffffffffffffffffffffffffffffffffffffff16635aa6e6756040518163ffffffff1660e01b815260040160206040518083038186803b1580156106db57600080fd5b505afa1580156106ef573d6000803e3d6000fd5b505050506040513d601f19601f820116820180604052508101906107139190612292565b90505b60008173ffffffffffffffffffffffffffffffffffffffff1663248638e58686604051602001610747929190612301565b604051602081830303815290604052805190602001206040518263ffffffff1660e01b81526004016107799190611c00565b60006040518083038186803b15801561079157600080fd5b505afa1580156107a5573d6000803e3d6000fd5b505050506040513d6000823e3d601f19601f820116820180604052508101906107ce9190612405565b511191505092915050565b60008083836040516020016107ef92919061245d565b60405160208183030381529060405260405160200161080e91906124e3565b604051602081830303815290604052905061082960016116af565b60008180519060200120905061083e81611748565b61084860026116af565b60008060606108648461a8c04261085f9190612130565b6110c6565b80945081935082955050505061087a60036116af565b610883816117e1565b80806020019051810190610897919061252d565b95506108a360046116af565b85600160008a815260200190815260200160002060008973ffffffffffffffffffffffffffffffffffffffff1673ffffffffffffffffffffffffffffffffffffffff16815260200190815260200160002081905550505050505092915050565b60007318431fd88adf138e8b979a7246eb58ea7126ea1673ffffffffffffffffffffffffffffffffffffffff1660008054906101000a900473ffffffffffffffffffffffffffffffffffffffff1673ffffffffffffffffffffffffffffffffffffffff1614806109d2575073e8218cacb0a5421bc6409e498d9f8cc8869945ea73ffffffffffffffffffffffffffffffffffffffff1660008054906101000a900473ffffffffffffffffffffffffffffffffffffffff1673ffffffffffffffffffffffffffffffffffffffff16145b15610a875760008054906101000a900473ffffffffffffffffffffffffffffffffffffffff1673ffffffffffffffffffffffffffffffffffffffff166335e72432836040518263ffffffff1660e01b8152600401610a309190611c00565b60206040518083038186803b158015610a4857600080fd5b505afa158015610a5c573d6000803e3d6000fd5b505050506040513d601f19601f82011682018060405250810190610a80919061255a565b9050610b33565b60008054906101000a900473ffffffffffffffffffffffffffffffffffffffff1673ffffffffffffffffffffffffffffffffffffffff166377b03e0d836040518263ffffffff1660e01b8152600401610ae09190611c00565b60206040518083038186803b158015610af857600080fd5b505afa158015610b0c573d6000803e3d6000fd5b505050506040513d601f19601f82011682018060405250810190610b30919061255a565b90505b919050565b6001602052816000526040600020602052806000526040600020600091509150505481565b600080825190506001811415610b915782600081518110610b8157610b80612587565b5b6020026020010151915050610e35565b6000600282610ba091906125b6565b600283610bad9190612193565b610bb791906121c4565b67ffffffffffffffff811115610bd057610bcf611c79565b5b604051908082528060200260200182016040528015610bfe5781602001602082028036833780820191505090505b509050600080600184610c119190612130565b90506000600190506000805b600115610e0f578215610ce257888581518110610c3d57610c3c612587565b5b6020026020010151905083600186610c5591906121c4565b1115610c8b578081604051602001610c6e9291906125e7565b604051602081830303815290604052805190602001209150610cdd565b8089600187610c9a91906121c4565b81518110610cab57610caa612587565b5b6020026020010151604051602001610cc49291906125e7565b6040516020818303038152906040528051906020012091505b610d96565b858581518110610cf557610cf4612587565b5b6020026020010151905083600186610d0d91906121c4565b1115610d43578081604051602001610d269291906125e7565b604051602081830303815290604052805190602001209150610d95565b8086600187610d5291906121c4565b81518110610d6357610d62612587565b5b6020026020010151604051602001610d7c9291906125e7565b6040516020818303038152906040528051906020012091505b5b8186600287610da59190612193565b81518110610db657610db5612587565b5b602002602001018181525050600285610dcf91906121c4565b945083851115610e0a5760028086610de79190612130565b610df19190612193565b93506000841415610e0157610e0f565b60009450600092505b610c1d565b85600081518110610e2357610e22612587565b5b60200260200101519750505050505050505b919050565b600080600160008a815260200190815260200160002060008973ffffffffffffffffffffffffffffffffffffffff1673ffffffffffffffffffffffffffffffffffffffff16815260200190815260200160002054905060008888604051602001610ea5929190612613565b6040516020818303038152906040528051906020012090506001878790501415610ef4578087876000818110610ede57610edd612587565b5b9050602002013514610eef57600080fd5b610f3f565b8087876000818110610f0957610f08612587565b5b905060200201351480610f3557508087876001818110610f2c57610f2b612587565b5b90506020020135145b610f3e57600080fd5b5b610fcc82888880806020026020016040519081016040528093929190818152602001838360200280828437600081840152601f19601f82011690508083019250505050505050878780806020026020016040519081016040528093929190818152602001838360200280828437600081840152601f19601f8201169050808301925050505050505061187a565b92505050979650505050505050565b60006110ba6001600089815260200190815260200160002060008873ffffffffffffffffffffffffffffffffffffffff1673ffffffffffffffffffffffffffffffffffffffff16815260200190815260200160002054868680806020026020016040519081016040528093929190818152602001838360200280828437600081840152601f19601f82011690508083019250505050505050858580806020026020016040519081016040528093929190818152602001838360200280828437600081840152601f19601f8201169050808301925050505050505061187a565b90509695505050505050565b6000606060008060006110d9878761035b565b91509150816111035760006040518060200160405280600081525060009450945094505050611171565b600061110f8883611475565b905061111b8882611231565b945060405180602001604052806000815250805190602001208580519060200120146111535760018582955095509550505050611171565b60006040518060200160405280600081525060009550955095505050505b9250925092565b6000606060008061118885610903565b905060008114156111b35760006040518060200160405280600081525060009350935093505061122a565b60006111cb866001846111c69190612130565b611475565b90506111d78682611231565b9350604051806020016040528060008152508051906020012084805190602001201461120e5760018482945094509450505061122a565b6000604051806020016040528060008152508294509450945050505b9193909250565b60607318431fd88adf138e8b979a7246eb58ea7126ea1673ffffffffffffffffffffffffffffffffffffffff1660008054906101000a900473ffffffffffffffffffffffffffffffffffffffff1673ffffffffffffffffffffffffffffffffffffffff161480611300575073e8218cacb0a5421bc6409e498d9f8cc8869945ea73ffffffffffffffffffffffffffffffffffffffff1660008054906101000a900473ffffffffffffffffffffffffffffffffffffffff1673ffffffffffffffffffffffffffffffffffffffff16145b156113bc5760008054906101000a900473ffffffffffffffffffffffffffffffffffffffff1673ffffffffffffffffffffffffffffffffffffffff16630b2d2b0d84846040518363ffffffff1660e01b815260040161136092919061263c565b60006040518083038186803b15801561137857600080fd5b505afa15801561138c573d6000803e3d6000fd5b505050506040513d6000823e3d601f19601f820116820180604052508101906113b5919061270b565b905061146f565b60008054906101000a900473ffffffffffffffffffffffffffffffffffffffff1673ffffffffffffffffffffffffffffffffffffffff1663c5958af984846040518363ffffffff1660e01b815260040161141792919061263c565b60006040518083038186803b15801561142f57600080fd5b505afa158015611443573d6000803e3d6000fd5b505050506040513d6000823e3d601f19601f8201168201806040525081019061146c919061270b565b90505b92915050565b60007318431fd88adf138e8b979a7246eb58ea7126ea1673ffffffffffffffffffffffffffffffffffffffff1660008054906101000a900473ffffffffffffffffffffffffffffffffffffffff1673ffffffffffffffffffffffffffffffffffffffff161480611544575073e8218cacb0a5421bc6409e498d9f8cc8869945ea73ffffffffffffffffffffffffffffffffffffffff1660008054906101000a900473ffffffffffffffffffffffffffffffffffffffff1673ffffffffffffffffffffffffffffffffffffffff16145b156115fb5760008054906101000a900473ffffffffffffffffffffffffffffffffffffffff1673ffffffffffffffffffffffffffffffffffffffff16637c37b8b484846040518363ffffffff1660e01b81526004016115a492919061263c565b60206040518083038186803b1580156115bc57600080fd5b505afa1580156115d0573d6000803e3d6000fd5b505050506040513d601f19601f820116820180604052508101906115f4919061255a565b90506116a9565b60008054906101000a900473ffffffffffffffffffffffffffffffffffffffff1673ffffffffffffffffffffffffffffffffffffffff1663ce5e11bf84846040518363ffffffff1660e01b815260040161165692919061263c565b60206040518083038186803b15801561166e57600080fd5b505afa158015611682573d6000803e3d6000fd5b505050506040513d601f19601f820116820180604052508101906116a6919061255a565b90505b92915050565b611745816040516024016116c39190611c48565b6040516020818303038152906040527ff82c50f1000000000000000000000000000000000000000000000000000000007bffffffffffffffffffffffffffffffffffffffffffffffffffffffff19166020820180517bffffffffffffffffffffffffffffffffffffffffffffffffffffffff8381831617835250505050611982565b50565b6117de8160405160240161175c9190611c00565b6040516020818303038152906040527f27b7cf85000000000000000000000000000000000000000000000000000000007bffffffffffffffffffffffffffffffffffffffffffffffffffffffff19166020820180517bffffffffffffffffffffffffffffffffffffffffffffffffffffffff8381831617835250505050611982565b50565b611877816040516024016117f591906120df565b6040516020818303038152906040527f0be77f56000000000000000000000000000000000000000000000000000000007bffffffffffffffffffffffffffffffffffffffffffffffffffffffff19166020820180517bffffffffffffffffffffffffffffffffffffffffffffffffffffffff8381831617835250505050611982565b50565b6000808360008151811061189157611890612587565b5b602002602001015190506000845190506000600190505b81811015611973578481815181106118c3576118c2612587565b5b60200260200101511561191a57828682815181106118e4576118e3612587565b5b60200260200101516040516020016118fd9291906125e7565b604051602081830303815290604052805190602001209250611960565b85818151811061192d5761192c612587565b5b6020026020010151836040516020016119479291906125e7565b6040516020818303038152906040528051906020012092505b808061196b90612754565b9150506118a8565b50858214925050509392505050565b60008151905060006a636f6e736f6c652e6c6f679050602083016000808483855afa5050505050565b600073ffffffffffffffffffffffffffffffffffffffff82169050919050565b6000819050919050565b60006119f06119eb6119e6846119ab565b6119cb565b6119ab565b9050919050565b6000611a02826119d5565b9050919050565b6000611a14826119f7565b9050919050565b611a2481611a09565b82525050565b6000602082019050611a3f6000830184611a1b565b92915050565b6000604051905090565b600080fd5b600080fd5b6000819050919050565b611a6c81611a59565b8114611a7757600080fd5b50565b600081359050611a8981611a63565b92915050565b6000819050919050565b611aa281611a8f565b8114611aad57600080fd5b50565b600081359050611abf81611a99565b92915050565b60008060408385031215611adc57611adb611a4f565b5b6000611aea85828601611a7a565b9250506020611afb85828601611ab0565b9150509250929050565b60008115159050919050565b611b1a81611b05565b82525050565b611b2981611a8f565b82525050565b6000604082019050611b446000830185611b11565b611b516020830184611b20565b9392505050565b6000602082019050611b6d6000830184611b11565b92915050565b6000611b7e826119ab565b9050919050565b611b8e81611b73565b8114611b9957600080fd5b50565b600081359050611bab81611b85565b92915050565b60008060408385031215611bc857611bc7611a4f565b5b6000611bd685828601611ab0565b9250506020611be785828601611b9c565b9150509250929050565b611bfa81611a59565b82525050565b6000602082019050611c156000830184611bf1565b92915050565b600060208284031215611c3157611c30611a4f565b5b6000611c3f84828501611a7a565b91505092915050565b6000602082019050611c5d6000830184611b20565b92915050565b600080fd5b6000601f19601f8301169050919050565b7f4e487b7100000000000000000000000000000000000000000000000000000000600052604160045260246000fd5b611cb182611c68565b810181811067ffffffffffffffff82111715611cd057611ccf611c79565b5b80604052505050565b6000611ce3611a45565b9050611cef8282611ca8565b919050565b600067ffffffffffffffff821115611d0f57611d0e611c79565b5b602082029050602081019050919050565b600080fd5b6000611d38611d3384611cf4565b611cd9565b90508083825260208201905060208402830185811115611d5b57611d5a611d20565b5b835b81811015611d845780611d708882611a7a565b845260208401935050602081019050611d5d565b5050509392505050565b600082601f830112611da357611da2611c63565b5b8135611db3848260208601611d25565b91505092915050565b600060208284031215611dd257611dd1611a4f565b5b600082013567ffffffffffffffff811115611df057611def611a54565b5b611dfc84828501611d8e565b91505092915050565b600080fd5b60008083601f840112611e2057611e1f611c63565b5b8235905067ffffffffffffffff811115611e3d57611e3c611e05565b5b602083019150836020820283011115611e5957611e58611d20565b5b9250929050565b60008083601f840112611e7657611e75611c63565b5b8235905067ffffffffffffffff811115611e9357611e92611e05565b5b602083019150836020820283011115611eaf57611eae611d20565b5b9250929050565b600080600080600080600060a0888a031215611ed557611ed4611a4f565b5b6000611ee38a828b01611ab0565b9750506020611ef48a828b01611b9c565b9650506040611f058a828b01611ab0565b955050606088013567ffffffffffffffff811115611f2657611f25611a54565b5b611f328a828b01611e0a565b9450945050608088013567ffffffffffffffff811115611f5557611f54611a54565b5b611f618a828b01611e60565b925092505092959891949750929550565b60008060008060008060808789031215611f8f57611f8e611a4f565b5b6000611f9d89828a01611ab0565b9650506020611fae89828a01611b9c565b955050604087013567ffffffffffffffff811115611fcf57611fce611a54565b5b611fdb89828a01611e0a565b9450945050606087013567ffffffffffffffff811115611ffe57611ffd611a54565b5b61200a89828a01611e60565b92509250509295509295509295565b600081519050919050565b600082825260208201905092915050565b60005b83811015612053578082015181840152602081019050612038565b83811115612062576000848401525b50505050565b600061207382612019565b61207d8185612024565b935061208d818560208601612035565b61209681611c68565b840191505092915050565b60006060820190506120b66000830186611b11565b81810360208301526120c88185612068565b90506120d76040830184611b20565b949350505050565b600060208201905081810360008301526120f98184612068565b905092915050565b7f4e487b7100000000000000000000000000000000000000000000000000000000600052601160045260246000fd5b600061213b82611a8f565b915061214683611a8f565b92508282101561215957612158612101565b5b828203905092915050565b7f4e487b7100000000000000000000000000000000000000000000000000000000600052601260045260246000fd5b600061219e82611a8f565b91506121a983611a8f565b9250826121b9576121b8612164565b5b828204905092915050565b60006121cf82611a8f565b91506121da83611a8f565b9250827fffffffffffffffffffffffffffffffffffffffffffffffffffffffffffffffff0382111561220f5761220e612101565b5b828201905092915050565b6000819050919050565b60008160001b9050919050565b600061224c6122476122428461221a565b612224565b611a59565b9050919050565b61225c81612231565b82525050565b60006020820190506122776000830184612253565b92915050565b60008151905061228c81611b85565b92915050565b6000602082840312156122a8576122a7611a4f565b5b60006122b68482850161227d565b91505092915050565b6000819050919050565b6122da6122d582611a59565b6122bf565b82525050565b6000819050919050565b6122fb6122f682611a8f565b6122e0565b82525050565b600061230d82856122c9565b60208201915061231d82846122ea565b6020820191508190509392505050565b600067ffffffffffffffff82111561234857612347611c79565b5b602082029050602081019050919050565b60008151905061236881611a99565b92915050565b600061238161237c8461232d565b611cd9565b905080838252602082019050602084028301858111156123a4576123a3611d20565b5b835b818110156123cd57806123b98882612359565b8452602084019350506020810190506123a6565b5050509392505050565b600082601f8301126123ec576123eb611c63565b5b81516123fc84826020860161236e565b91505092915050565b60006020828403121561241b5761241a611a4f565b5b600082015167ffffffffffffffff81111561243957612438611a54565b5b612445848285016123d7565b91505092915050565b61245781611b73565b82525050565b60006040820190506124726000830185611b20565b61247f602083018461244e565b9392505050565b600082825260208201905092915050565b7f43726f7373436861696e42616c616e6365000000000000000000000000000000600082015250565b60006124cd601183612486565b91506124d882612497565b602082019050919050565b600060408201905081810360008301526124fc816124c0565b905081810360208301526125108184612068565b905092915050565b60008151905061252781611a63565b92915050565b60006020828403121561254357612542611a4f565b5b600061255184828501612518565b91505092915050565b6000602082840312156125705761256f611a4f565b5b600061257e84828501612359565b91505092915050565b7f4e487b7100000000000000000000000000000000000000000000000000000000600052603260045260246000fd5b60006125c182611a8f565b91506125cc83611a8f565b9250826125dc576125db612164565b5b828206905092915050565b60006125f382856122c9565b60208201915061260382846122c9565b6020820191508190509392505050565b6000604082019050612628600083018561244e565b6126356020830184611b20565b9392505050565b60006040820190506126516000830185611bf1565b61265e6020830184611b20565b9392505050565b600080fd5b600067ffffffffffffffff82111561268557612684611c79565b5b61268e82611c68565b9050602081019050919050565b60006126ae6126a98461266a565b611cd9565b9050828152602081018484840111156126ca576126c9612665565b5b6126d5848285612035565b509392505050565b600082601f8301126126f2576126f1611c63565b5b815161270284826020860161269b565b91505092915050565b60006020828403121561272157612720611a4f565b5b600082015167ffffffffffffffff81111561273f5761273e611a54565b5b61274b848285016126dd565b91505092915050565b600061275f82611a8f565b91507fffffffffffffffffffffffffffffffffffffffffffffffffffffffffffffffff82141561279257612791612101565b5b60018201905091905056fea2646970667358221220f7f17d0c84fcd13e39d82fef36e5b1102c7cb119c5853bfcbb4aafea468fd98264736f6c63430008090033",
  "linkReferences": {},
  "deployedLinkReferences": {}
}