{
  "_format": "hh-sol-artifact-1",
  "contractName": "MerkleTree",
  "sourceName": "contracts/helpers/MerkleTree.sol",
  "abi": [
    {
      "inputs": [
        {
          "internalType": "bytes32[]",
          "name": "Inputs",
          "type": "bytes32[]"
        }
      ],
      "name": "GetRootHash",
      "outputs": [
        {
          "internalType": "bytes32",
          "name": "",
          "type": "bytes32"
        }
      ],
      "stateMutability": "pure",
      "type": "function"
    }
  ],
  "bytecode": "0x608060405234801561001057600080fd5b50610759806100206000396000f3fe608060405234801561001057600080fd5b506004361061002b5760003560e01c80637ea9924314610030575b600080fd5b61004a600480360381019061004591906104e0565b610060565b6040516100579190610538565b60405180910390f35b600080825190506001811415610094578260008151811061008457610083610553565b5b6020026020010151915050610338565b60006002826100a391906105bb565b6002836100b0919061061b565b6100ba919061064c565b67ffffffffffffffff8111156100d3576100d2610367565b5b6040519080825280602002602001820160405280156101015781602001602082028036833780820191505090505b50905060008060018461011491906106a2565b90506000600190506000805b6001156103125782156101e5578885815181106101405761013f610553565b5b6020026020010151905083600186610158919061064c565b111561018e5780816040516020016101719291906106f7565b6040516020818303038152906040528051906020012091506101e0565b808960018761019d919061064c565b815181106101ae576101ad610553565b5b60200260200101516040516020016101c79291906106f7565b6040516020818303038152906040528051906020012091505b610299565b8585815181106101f8576101f7610553565b5b6020026020010151905083600186610210919061064c565b11156102465780816040516020016102299291906106f7565b604051602081830303815290604052805190602001209150610298565b8086600187610255919061064c565b8151811061026657610265610553565b5b602002602001015160405160200161027f9291906106f7565b6040516020818303038152906040528051906020012091505b5b81866002876102a8919061061b565b815181106102b9576102b8610553565b5b6020026020010181815250506002856102d2919061064c565b94508385111561030d57600280866102ea91906106a2565b6102f4919061061b565b9350600084141561030457610312565b60009450600092505b610120565b8560008151811061032657610325610553565b5b60200260200101519750505050505050505b919050565b6000604051905090565b600080fd5b600080fd5b600080fd5b6000601f19601f8301169050919050565b7f4e487b7100000000000000000000000000000000000000000000000000000000600052604160045260246000fd5b61039f82610356565b810181811067ffffffffffffffff821117156103be576103bd610367565b5b80604052505050565b60006103d161033d565b90506103dd8282610396565b919050565b600067ffffffffffffffff8211156103fd576103fc610367565b5b602082029050602081019050919050565b600080fd5b6000819050919050565b61042681610413565b811461043157600080fd5b50565b6000813590506104438161041d565b92915050565b600061045c610457846103e2565b6103c7565b9050808382526020820190506020840283018581111561047f5761047e61040e565b5b835b818110156104a857806104948882610434565b845260208401935050602081019050610481565b5050509392505050565b600082601f8301126104c7576104c6610351565b5b81356104d7848260208601610449565b91505092915050565b6000602082840312156104f6576104f5610347565b5b600082013567ffffffffffffffff8111156105145761051361034c565b5b610520848285016104b2565b91505092915050565b61053281610413565b82525050565b600060208201905061054d6000830184610529565b92915050565b7f4e487b7100000000000000000000000000000000000000000000000000000000600052603260045260246000fd5b6000819050919050565b7f4e487b7100000000000000000000000000000000000000000000000000000000600052601260045260246000fd5b60006105c682610582565b91506105d183610582565b9250826105e1576105e061058c565b5b828206905092915050565b7f4e487b7100000000000000000000000000000000000000000000000000000000600052601160045260246000fd5b600061062682610582565b915061063183610582565b9250826106415761064061058c565b5b828204905092915050565b600061065782610582565b915061066283610582565b9250827fffffffffffffffffffffffffffffffffffffffffffffffffffffffffffffffff03821115610697576106966105ec565b5b828201905092915050565b60006106ad82610582565b91506106b883610582565b9250828210156106cb576106ca6105ec565b5b828203905092915050565b6000819050919050565b6106f16106ec82610413565b6106d6565b82525050565b600061070382856106e0565b60208201915061071382846106e0565b602082019150819050939250505056fea264697066735822122023a57f94097101ac2fa17c6eb1516505ec1da5ee09cd7336e211c556ded29f0664736f6c63430008090033",
  "linkReferences": {},
  "deployedLinkReferences": {}
}