{
  "_format": "hh-sol-artifact-1",
  "contractName": "SampleUsingTellor",
  "sourceName": "contracts/helpers/SampleUsingTellor.sol",
  "abi": [
    {
      "inputs": [
        {
          "internalType": "address payable",
          "name": "_tellorAddress",
          "type": "address"
        }
      ],
      "stateMutability": "nonpayable",
      "type": "constructor"
    },
    {
      "inputs": [
        {
          "internalType": "bytes32",
          "name": "_queryId",
          "type": "bytes32"
        }
      ],
      "name": "getCurrentValue",
      "outputs": [
        {
          "internalType": "bool",
          "name": "_ifRetrieve",
          "type": "bool"
        },
        {
          "internalType": "bytes",
          "name": "_value",
          "type": "bytes"
        },
        {
          "internalType": "uint256",
          "name": "_timestampRetrieved",
          "type": "uint256"
        }
      ],
      "stateMutability": "view",
      "type": "function"
    },
    {
      "inputs": [
        {
          "internalType": "bytes32",
          "name": "_queryId",
          "type": "bytes32"
        },
        {
          "internalType": "uint256",
          "name": "_timestamp",
          "type": "uint256"
        }
      ],
      "name": "getDataBefore",
      "outputs": [
        {
          "internalType": "bool",
          "name": "_ifRetrieve",
          "type": "bool"
        },
        {
          "internalType": "bytes",
          "name": "_value",
          "type": "bytes"
        },
        {
          "internalType": "uint256",
          "name": "_timestampRetrieved",
          "type": "uint256"
        }
      ],
      "stateMutability": "view",
      "type": "function"
    },
    {
      "inputs": [
        {
          "internalType": "bytes32",
          "name": "_queryId",
          "type": "bytes32"
        },
        {
          "internalType": "uint256",
          "name": "_timestamp",
          "type": "uint256"
        }
      ],
      "name": "getIndexForDataBefore",
      "outputs": [
        {
          "internalType": "bool",
          "name": "_found",
          "type": "bool"
        },
        {
          "internalType": "uint256",
          "name": "_index",
          "type": "uint256"
        }
      ],
      "stateMutability": "view",
      "type": "function"
    },
    {
      "inputs": [
        {
          "internalType": "bytes32",
          "name": "_queryId",
          "type": "bytes32"
        }
      ],
      "name": "getNewValueCountbyQueryId",
      "outputs": [
        {
          "internalType": "uint256",
          "name": "",
          "type": "uint256"
        }
      ],
      "stateMutability": "view",
      "type": "function"
    },
    {
      "inputs": [
        {
          "internalType": "bytes32",
          "name": "_queryId",
          "type": "bytes32"
        },
        {
          "internalType": "uint256",
          "name": "_index",
          "type": "uint256"
        }
      ],
      "name": "getTimestampbyQueryIdandIndex",
      "outputs": [
        {
          "internalType": "uint256",
          "name": "",
          "type": "uint256"
        }
      ],
      "stateMutability": "view",
      "type": "function"
    },
    {
      "inputs": [
        {
          "internalType": "bytes32",
          "name": "_queryId",
          "type": "bytes32"
        },
        {
          "internalType": "uint256",
          "name": "_timestamp",
          "type": "uint256"
        }
      ],
      "name": "isInDispute",
      "outputs": [
        {
          "internalType": "bool",
          "name": "",
          "type": "bool"
        }
      ],
      "stateMutability": "view",
      "type": "function"
    },
    {
      "inputs": [
        {
          "internalType": "bytes32",
          "name": "_queryId",
          "type": "bytes32"
        }
      ],
      "name": "readTellorValue",
      "outputs": [
        {
          "internalType": "bytes",
          "name": "",
          "type": "bytes"
        }
      ],
      "stateMutability": "view",
      "type": "function"
    },
    {
      "inputs": [
        {
          "internalType": "bytes32",
          "name": "_queryId",
          "type": "bytes32"
        },
        {
          "internalType": "uint256",
          "name": "_timestamp",
          "type": "uint256"
        }
      ],
      "name": "readTellorValueBefore",
      "outputs": [
        {
          "internalType": "bytes",
          "name": "",
          "type": "bytes"
        },
        {
          "internalType": "uint256",
          "name": "",
          "type": "uint256"
        }
      ],
      "stateMutability": "view",
      "type": "function"
    },
    {
      "inputs": [
        {
          "internalType": "bytes32",
          "name": "_queryId",
          "type": "bytes32"
        },
        {
          "internalType": "uint256",
          "name": "_timestamp",
          "type": "uint256"
        }
      ],
      "name": "retrieveData",
      "outputs": [
        {
          "internalType": "bytes",
          "name": "",
          "type": "bytes"
        }
      ],
      "stateMutability": "view",
      "type": "function"
    },
    {
      "inputs": [],
      "name": "tellor",
      "outputs": [
        {
          "internalType": "contract ITellor",
          "name": "",
          "type": "address"
        }
      ],
      "stateMutability": "view",
      "type": "function"
    }
  ],
  "bytecode": "0x60806040523480156200001157600080fd5b5060405162001a1138038062001a118339818101604052810190620000379190620000ea565b80806000806101000a81548173ffffffffffffffffffffffffffffffffffffffff021916908373ffffffffffffffffffffffffffffffffffffffff16021790555050506200011c565b600080fd5b600073ffffffffffffffffffffffffffffffffffffffff82169050919050565b6000620000b28262000085565b9050919050565b620000c481620000a5565b8114620000d057600080fd5b50565b600081519050620000e481620000b9565b92915050565b60006020828403121562000103576200010262000080565b5b60006200011384828501620000d3565b91505092915050565b6118e5806200012c6000396000f3fe608060405234801561001057600080fd5b506004361061009e5760003560e01c8063a792765f11610066578063a792765f14610183578063adf1639d146101b5578063c5958af9146101e7578063ca4e673614610217578063ce5e11bf146102475761009e565b80631959ad5b146100a357806329449085146100c157806344e87f91146100f257806377b03e0d146101225780639f5a64b614610152575b600080fd5b6100ab610277565b6040516100b8919061108b565b60405180910390f35b6100db60048036038101906100d69190611126565b61029b565b6040516100e9929190611190565b60405180910390f35b61010c60048036038101906101079190611126565b610416565b60405161011991906111b9565b60405180910390f35b61013c600480360381019061013791906111d4565b610719565b6040516101499190611201565b60405180910390f35b61016c60048036038101906101679190611126565b61094e565b60405161017a9291906112b5565b60405180910390f35b61019d60048036038101906101989190611126565b6109c1565b6040516101ac939291906112e5565b60405180910390f35b6101cf60048036038101906101ca91906111d4565b610a73565b6040516101de939291906112e5565b60405180910390f35b61020160048036038101906101fc9190611126565b610b2c565b60405161020e9190611323565b60405180910390f35b610231600480360381019061022c91906111d4565b610d70565b60405161023e9190611323565b60405180910390f35b610261600480360381019061025c9190611126565b610dd2565b60405161026e9190611201565b60405180910390f35b60008054906101000a900473ffffffffffffffffffffffffffffffffffffffff1681565b60008060006102a985610719565b90506000811115610406576000806000905060006001846102ca9190611374565b905060006102d88984610dd2565b90508781106102f25760008096509650505050505061040f565b6102fc8983610dd2565b9050878110156103175760018296509650505050505061040f565b5b60011561040157826001600285856103309190611374565b61033a91906113d7565b6103449190611408565b61034e9190611408565b935061035a8985610dd2565b9050878110156103ac57600061037c8a6001876103779190611408565b610dd2565b9050888110610397576001859750975050505050505061040f565b6001856103a49190611408565b9350506103fc565b60006103c48a6001876103bf9190611374565b610dd2565b9050888110156103eb57600180866103dc9190611374565b9750975050505050505061040f565b6001856103f89190611374565b9250505b610318565b505050505b60008092509250505b9250929050565b6000807318431fd88adf138e8b979a7246eb58ea7126ea1673ffffffffffffffffffffffffffffffffffffffff1660008054906101000a900473ffffffffffffffffffffffffffffffffffffffff1673ffffffffffffffffffffffffffffffffffffffff1614806104e6575073e8218cacb0a5421bc6409e498d9f8cc8869945ea73ffffffffffffffffffffffffffffffffffffffff1660008054906101000a900473ffffffffffffffffffffffffffffffffffffffff1673ffffffffffffffffffffffffffffffffffffffff16145b156105b55760007388df592f8eb5d7bd38bfef7deb0fbc02cf3778a090508073ffffffffffffffffffffffffffffffffffffffff1663699f200f7fefa19baa864049f50491093580c5433e97e8d5e41f8db1a61108b4fa44cacd936040518263ffffffff1660e01b815260040161055d91906114a6565b60206040518083038186803b15801561057557600080fd5b505afa158015610589573d6000803e3d6000fd5b505050506040513d601f19601f820116820180604052508101906105ad91906114ff565b915050610656565b60008054906101000a900473ffffffffffffffffffffffffffffffffffffffff1673ffffffffffffffffffffffffffffffffffffffff16635aa6e6756040518163ffffffff1660e01b815260040160206040518083038186803b15801561061b57600080fd5b505afa15801561062f573d6000803e3d6000fd5b505050506040513d601f19601f8201168201806040525081019061065391906114ff565b90505b60008173ffffffffffffffffffffffffffffffffffffffff1663248638e5868660405160200161068792919061156e565b604051602081830303815290604052805190602001206040518263ffffffff1660e01b81526004016106b991906115a9565b60006040518083038186803b1580156106d157600080fd5b505afa1580156106e5573d6000803e3d6000fd5b505050506040513d6000823e3d601f19601f8201168201806040525081019061070e9190611721565b511191505092915050565b60007318431fd88adf138e8b979a7246eb58ea7126ea1673ffffffffffffffffffffffffffffffffffffffff1660008054906101000a900473ffffffffffffffffffffffffffffffffffffffff1673ffffffffffffffffffffffffffffffffffffffff1614806107e8575073e8218cacb0a5421bc6409e498d9f8cc8869945ea73ffffffffffffffffffffffffffffffffffffffff1660008054906101000a900473ffffffffffffffffffffffffffffffffffffffff1673ffffffffffffffffffffffffffffffffffffffff16145b1561089d5760008054906101000a900473ffffffffffffffffffffffffffffffffffffffff1673ffffffffffffffffffffffffffffffffffffffff166335e72432836040518263ffffffff1660e01b815260040161084691906115a9565b60206040518083038186803b15801561085e57600080fd5b505afa158015610872573d6000803e3d6000fd5b505050506040513d601f19601f82011682018060405250810190610896919061176a565b9050610949565b60008054906101000a900473ffffffffffffffffffffffffffffffffffffffff1673ffffffffffffffffffffffffffffffffffffffff166377b03e0d836040518263ffffffff1660e01b81526004016108f691906115a9565b60206040518083038186803b15801561090e57600080fd5b505afa158015610922573d6000803e3d6000fd5b505050506040513d601f19601f82011682018060405250810190610946919061176a565b90505b919050565b606060008060008061096087876109c1565b925092509250826109b05760006040518060400160405280600281526020017f307800000000000000000000000000000000000000000000000000000000000081525090945094505050506109ba565b8181945094505050505b9250929050565b6000606060008060006109d4878761029b565b91509150816109fe5760006040518060200160405280600081525060009450945094505050610a6c565b6000610a0a8883610dd2565b9050610a168882610b2c565b94506040518060200160405280600081525080519060200120858051906020012014610a4e5760018582955095509550505050610a6c565b60006040518060200160405280600081525060009550955095505050505b9250925092565b60006060600080610a8385610719565b90506000811415610aae57600060405180602001604052806000815250600093509350935050610b25565b6000610ac686600184610ac19190611374565b610dd2565b9050610ad28682610b2c565b93506040518060200160405280600081525080519060200120848051906020012014610b0957600184829450945094505050610b25565b6000604051806020016040528060008152508294509450945050505b9193909250565b60607318431fd88adf138e8b979a7246eb58ea7126ea1673ffffffffffffffffffffffffffffffffffffffff1660008054906101000a900473ffffffffffffffffffffffffffffffffffffffff1673ffffffffffffffffffffffffffffffffffffffff161480610bfb575073e8218cacb0a5421bc6409e498d9f8cc8869945ea73ffffffffffffffffffffffffffffffffffffffff1660008054906101000a900473ffffffffffffffffffffffffffffffffffffffff1673ffffffffffffffffffffffffffffffffffffffff16145b15610cb75760008054906101000a900473ffffffffffffffffffffffffffffffffffffffff1673ffffffffffffffffffffffffffffffffffffffff16630b2d2b0d84846040518363ffffffff1660e01b8152600401610c5b929190611797565b60006040518083038186803b158015610c7357600080fd5b505afa158015610c87573d6000803e3d6000fd5b505050506040513d6000823e3d601f19601f82011682018060405250810190610cb09190611866565b9050610d6a565b60008054906101000a900473ffffffffffffffffffffffffffffffffffffffff1673ffffffffffffffffffffffffffffffffffffffff1663c5958af984846040518363ffffffff1660e01b8152600401610d12929190611797565b60006040518083038186803b158015610d2a57600080fd5b505afa158015610d3e573d6000803e3d6000fd5b505050506040513d6000823e3d601f19601f82011682018060405250810190610d679190611866565b90505b92915050565b6060600080610d7e84610a73565b509150915081610dc7576040518060400160405280600281526020017f307800000000000000000000000000000000000000000000000000000000000081525092505050610dcd565b80925050505b919050565b60007318431fd88adf138e8b979a7246eb58ea7126ea1673ffffffffffffffffffffffffffffffffffffffff1660008054906101000a900473ffffffffffffffffffffffffffffffffffffffff1673ffffffffffffffffffffffffffffffffffffffff161480610ea1575073e8218cacb0a5421bc6409e498d9f8cc8869945ea73ffffffffffffffffffffffffffffffffffffffff1660008054906101000a900473ffffffffffffffffffffffffffffffffffffffff1673ffffffffffffffffffffffffffffffffffffffff16145b15610f585760008054906101000a900473ffffffffffffffffffffffffffffffffffffffff1673ffffffffffffffffffffffffffffffffffffffff16637c37b8b484846040518363ffffffff1660e01b8152600401610f01929190611797565b60206040518083038186803b158015610f1957600080fd5b505afa158015610f2d573d6000803e3d6000fd5b505050506040513d601f19601f82011682018060405250810190610f51919061176a565b9050611006565b60008054906101000a900473ffffffffffffffffffffffffffffffffffffffff1673ffffffffffffffffffffffffffffffffffffffff1663ce5e11bf84846040518363ffffffff1660e01b8152600401610fb3929190611797565b60206040518083038186803b158015610fcb57600080fd5b505afa158015610fdf573d6000803e3d6000fd5b505050506040513d601f19601f82011682018060405250810190611003919061176a565b90505b92915050565b600073ffffffffffffffffffffffffffffffffffffffff82169050919050565b6000819050919050565b600061105161104c6110478461100c565b61102c565b61100c565b9050919050565b600061106382611036565b9050919050565b600061107582611058565b9050919050565b6110858161106a565b82525050565b60006020820190506110a0600083018461107c565b92915050565b6000604051905090565b600080fd5b600080fd5b6000819050919050565b6110cd816110ba565b81146110d857600080fd5b50565b6000813590506110ea816110c4565b92915050565b6000819050919050565b611103816110f0565b811461110e57600080fd5b50565b600081359050611120816110fa565b92915050565b6000806040838503121561113d5761113c6110b0565b5b600061114b858286016110db565b925050602061115c85828601611111565b9150509250929050565b60008115159050919050565b61117b81611166565b82525050565b61118a816110f0565b82525050565b60006040820190506111a56000830185611172565b6111b26020830184611181565b9392505050565b60006020820190506111ce6000830184611172565b92915050565b6000602082840312156111ea576111e96110b0565b5b60006111f8848285016110db565b91505092915050565b60006020820190506112166000830184611181565b92915050565b600081519050919050565b600082825260208201905092915050565b60005b8381101561125657808201518184015260208101905061123b565b83811115611265576000848401525b50505050565b6000601f19601f8301169050919050565b60006112878261121c565b6112918185611227565b93506112a1818560208601611238565b6112aa8161126b565b840191505092915050565b600060408201905081810360008301526112cf818561127c565b90506112de6020830184611181565b9392505050565b60006060820190506112fa6000830186611172565b818103602083015261130c818561127c565b905061131b6040830184611181565b949350505050565b6000602082019050818103600083015261133d818461127c565b905092915050565b7f4e487b7100000000000000000000000000000000000000000000000000000000600052601160045260246000fd5b600061137f826110f0565b915061138a836110f0565b92508282101561139d5761139c611345565b5b828203905092915050565b7f4e487b7100000000000000000000000000000000000000000000000000000000600052601260045260246000fd5b60006113e2826110f0565b91506113ed836110f0565b9250826113fd576113fc6113a8565b5b828204905092915050565b6000611413826110f0565b915061141e836110f0565b9250827fffffffffffffffffffffffffffffffffffffffffffffffffffffffffffffffff0382111561145357611452611345565b5b828201905092915050565b6000819050919050565b60008160001b9050919050565b600061149061148b6114868461145e565b611468565b6110ba565b9050919050565b6114a081611475565b82525050565b60006020820190506114bb6000830184611497565b92915050565b60006114cc8261100c565b9050919050565b6114dc816114c1565b81146114e757600080fd5b50565b6000815190506114f9816114d3565b92915050565b600060208284031215611515576115146110b0565b5b6000611523848285016114ea565b91505092915050565b6000819050919050565b611547611542826110ba565b61152c565b82525050565b6000819050919050565b611568611563826110f0565b61154d565b82525050565b600061157a8285611536565b60208201915061158a8284611557565b6020820191508190509392505050565b6115a3816110ba565b82525050565b60006020820190506115be600083018461159a565b92915050565b600080fd5b7f4e487b7100000000000000000000000000000000000000000000000000000000600052604160045260246000fd5b6116018261126b565b810181811067ffffffffffffffff821117156116205761161f6115c9565b5b80604052505050565b60006116336110a6565b905061163f82826115f8565b919050565b600067ffffffffffffffff82111561165f5761165e6115c9565b5b602082029050602081019050919050565b600080fd5b600081519050611684816110fa565b92915050565b600061169d61169884611644565b611629565b905080838252602082019050602084028301858111156116c0576116bf611670565b5b835b818110156116e957806116d58882611675565b8452602084019350506020810190506116c2565b5050509392505050565b600082601f830112611708576117076115c4565b5b815161171884826020860161168a565b91505092915050565b600060208284031215611737576117366110b0565b5b600082015167ffffffffffffffff811115611755576117546110b5565b5b611761848285016116f3565b91505092915050565b6000602082840312156117805761177f6110b0565b5b600061178e84828501611675565b91505092915050565b60006040820190506117ac600083018561159a565b6117b96020830184611181565b9392505050565b600080fd5b600067ffffffffffffffff8211156117e0576117df6115c9565b5b6117e98261126b565b9050602081019050919050565b6000611809611804846117c5565b611629565b905082815260208101848484011115611825576118246117c0565b5b611830848285611238565b509392505050565b600082601f83011261184d5761184c6115c4565b5b815161185d8482602086016117f6565b91505092915050565b60006020828403121561187c5761187b6110b0565b5b600082015167ffffffffffffffff81111561189a576118996110b5565b5b6118a684828501611838565b9150509291505056fea2646970667358221220aa6a4e8501fb37cb6b4c8c3231ff6407eab55f8316bea3909334cc1312c183f264736f6c63430008090033",
  "linkReferences": {},
  "deployedLinkReferences": {}
}